{
  "contractName": "GravestoneFactory",
  "abi": [
    {
      "anonymous": false,
      "inputs": [
        {
          "indexed": false,
          "internalType": "string",
          "name": "fullName",
          "type": "string"
        },
        {
          "indexed": false,
          "internalType": "uint256",
          "name": "counter",
          "type": "uint256"
        },
        {
          "indexed": false,
          "internalType": "uint256",
          "name": "id",
          "type": "uint256"
        }
      ],
      "name": "NewGraveStone",
      "type": "event"
    },
    {
      "inputs": [
        {
          "internalType": "uint256",
          "name": "",
          "type": "uint256"
        }
      ],
      "name": "gravestoneToOwner",
      "outputs": [
        {
          "internalType": "address",
          "name": "",
          "type": "address"
        }
      ],
      "stateMutability": "view",
      "type": "function"
    },
    {
      "inputs": [
        {
          "internalType": "uint256",
          "name": "",
          "type": "uint256"
        }
      ],
      "name": "gravestones",
      "outputs": [
        {
          "internalType": "string",
          "name": "firstName",
          "type": "string"
        },
        {
          "internalType": "string",
          "name": "middleName",
          "type": "string"
        },
        {
          "internalType": "string",
          "name": "lastName",
          "type": "string"
        },
        {
          "internalType": "uint256",
          "name": "deathDate",
          "type": "uint256"
        },
        {
          "internalType": "string",
          "name": "gender",
          "type": "string"
        },
        {
          "internalType": "string",
          "name": "obituary",
          "type": "string"
        },
        {
          "internalType": "bool",
          "name": "isHuman",
          "type": "bool"
        },
        {
          "internalType": "string",
          "name": "species",
          "type": "string"
        },
        {
          "internalType": "uint256",
          "name": "id",
          "type": "uint256"
        }
      ],
      "stateMutability": "view",
      "type": "function"
    }
  ],
  "bytecode": "0x60806040526010600055600154600a6200001a919062000091565b60015560006002553480156200002f57600080fd5b5062000214565b6000808291508390505b6001851115620000885780860481111562000060576200005f620001d8565b5b6001851615620000705780820291505b8081029050620000808562000207565b945062000040565b94509492505050565b60006200009e82620001ce565b9150620000ab83620001ce565b9250620000da7fffffffffffffffffffffffffffffffffffffffffffffffffffffffffffffffff8484620000e2565b905092915050565b600082620000f45760019050620001c7565b81620001045760009050620001c7565b81600181146200011d576002811462000128576200015e565b6001915050620001c7565b60ff8411156200013d576200013c620001d8565b5b8360020a915084821115620001575762000156620001d8565b5b50620001c7565b5060208310610133831016604e8410600b8410161715620001985782820a905083811115620001925762000191620001d8565b5b620001c7565b620001a7848484600162000036565b92509050818404811115620001c157620001c0620001d8565b5b81810290505b9392505050565b6000819050919050565b7f4e487b7100000000000000000000000000000000000000000000000000000000600052601160045260246000fd5b60008160011c9050919050565b61073d80620002246000396000f3fe608060405234801561001057600080fd5b50600436106100365760003560e01c80632139cb3c1461003b578063c36ae44514610073575b600080fd5b61005560048036038101906100509190610486565b6100a3565b60405161006a99989796959493929190610530565b60405180910390f35b61008d60048036038101906100889190610486565b61043e565b60405161009a9190610515565b60405180910390f35b600381815481106100b357600080fd5b90600052602060002090600902016000915090508060000180546100d69061067e565b80601f01602080910402602001604051908101604052809291908181526020018280546101029061067e565b801561014f5780601f106101245761010080835404028352916020019161014f565b820191906000526020600020905b81548152906001019060200180831161013257829003601f168201915b5050505050908060010180546101649061067e565b80601f01602080910402602001604051908101604052809291908181526020018280546101909061067e565b80156101dd5780601f106101b2576101008083540402835291602001916101dd565b820191906000526020600020905b8154815290600101906020018083116101c057829003601f168201915b5050505050908060020180546101f29061067e565b80601f016020809104026020016040519081016040528092919081815260200182805461021e9061067e565b801561026b5780601f106102405761010080835404028352916020019161026b565b820191906000526020600020905b81548152906001019060200180831161024e57829003601f168201915b5050505050908060030154908060040180546102869061067e565b80601f01602080910402602001604051908101604052809291908181526020018280546102b29061067e565b80156102ff5780601f106102d4576101008083540402835291602001916102ff565b820191906000526020600020905b8154815290600101906020018083116102e257829003601f168201915b5050505050908060050180546103149061067e565b80601f01602080910402602001604051908101604052809291908181526020018280546103409061067e565b801561038d5780601f106103625761010080835404028352916020019161038d565b820191906000526020600020905b81548152906001019060200180831161037057829003601f168201915b5050505050908060060160009054906101000a900460ff16908060070180546103b59061067e565b80601f01602080910402602001604051908101604052809291908181526020018280546103e19061067e565b801561042e5780601f106104035761010080835404028352916020019161042e565b820191906000526020600020905b81548152906001019060200180831161041157829003601f168201915b5050505050908060080154905089565b60046020528060005260406000206000915054906101000a900473ffffffffffffffffffffffffffffffffffffffff1681565b600081359050610480816106f0565b92915050565b60006020828403121561049857600080fd5b60006104a684828501610471565b91505092915050565b6104b881610603565b82525050565b6104c781610615565b82525050565b60006104d8826105e7565b6104e281856105f2565b93506104f281856020860161064b565b6104fb816106df565b840191505092915050565b61050f81610641565b82525050565b600060208201905061052a60008301846104af565b92915050565b600061012082019050818103600083015261054b818c6104cd565b9050818103602083015261055f818b6104cd565b90508181036040830152610573818a6104cd565b90506105826060830189610506565b818103608083015261059481886104cd565b905081810360a08301526105a881876104cd565b90506105b760c08301866104be565b81810360e08301526105c981856104cd565b90506105d9610100830184610506565b9a9950505050505050505050565b600081519050919050565b600082825260208201905092915050565b600061060e82610621565b9050919050565b60008115159050919050565b600073ffffffffffffffffffffffffffffffffffffffff82169050919050565b6000819050919050565b60005b8381101561066957808201518184015260208101905061064e565b83811115610678576000848401525b50505050565b6000600282049050600182168061069657607f821691505b602082108114156106aa576106a96106b0565b5b50919050565b7f4e487b7100000000000000000000000000000000000000000000000000000000600052602260045260246000fd5b6000601f19601f8301169050919050565b6106f981610641565b811461070457600080fd5b5056fea2646970667358221220f4f533ba0dfd86bf68c976d8297f1d47fc0c14feb5f234d9251df4f44e92e82b64736f6c63430008030033",
  "immutableReferences": {},
  "source": "// SPDX-License-Identifier: MIT\r\npragma solidity ^0.8.3;\r\n\r\ncontract GravestoneFactory {\r\n    uint graveIdDigits = 16;\r\n    uint graveIdModulus = 10 ** graveIdModulus;\r\n    uint counter = 0;\r\n    GraveStone[] public gravestones;\r\n\r\n    mapping (uint => address) public gravestoneToOwner;\r\n    mapping (address => uint) ownerGravestoneCount;\r\n\r\n    event NewGraveStone(string fullName, uint counter, uint id);\r\n\r\n    struct GraveStone {\r\n        string firstName;\r\n        string middleName;\r\n        string lastName;\r\n        uint256 deathDate;\r\n        string gender;\r\n        string obituary;\r\n        bool isHuman;\r\n        string species;\r\n        uint id;\r\n        //TODO: image encoded to base64\r\n    }\r\n\r\n    function addToGraveStones(string memory _firstName, string memory _middleName, \r\n        string memory _lastName, uint256 deathDate, string memory _gender, \r\n        string memory _obituary, bool isHuman, string memory _species, uint id) private {\r\n            gravestones.push(GraveStone(_firstName, _middleName, _lastName, \r\n            deathDate, _gender, _obituary, isHuman, _species = isHuman ? \"human\" : _species,\r\n            id));\r\n    }\r\n\r\n    function generateId(string memory _firstName, string memory _lastName, uint count)\r\n        private view returns (uint){\r\n            string memory concat = (string(abi.encodePacked(_firstName, _lastName, count)));\r\n            //TODO: test if this is concatinating the uint properly\r\n            uint rand = uint(keccak256(abi.encodePacked(concat)));\r\n            return rand % graveIdModulus;\r\n    }\r\n\r\n    function buildGraveStones(string memory _firstName, string memory _middleName, \r\n        string memory _lastName, uint256 deathDate, string memory _gender, \r\n        string memory _obituary, bool isHuman, string memory _species) private {\r\n            uint id = generateId(_firstName, _lastName, ++counter);\r\n            addToGraveStones(_firstName, _middleName, _lastName, deathDate, _gender,\r\n             _obituary, isHuman, _species, id);\r\n\r\n             emit NewGraveStone(string(abi.encodePacked(_firstName, _middleName, \r\n                _lastName)), counter, id);\r\n            \r\n            gravestoneToOwner[id] = msg.sender;\r\n            ownerGravestoneCount[msg.sender] = ownerGravestoneCount[msg.sender]++;\r\n    }\r\n\r\n\r\n}",
  "sourcePath": "C:\\Users\\editr\\OneDrive\\Desktop\\etherprojects\\Ethertaph\\contracts\\GravestoneFactory.sol",
  "compiler": {
    "name": "solc",
    "version": "0.8.3+commit.8d00100c.Emscripten.clang"
  },
  "schemaVersion": "3.3.3",
  "updatedAt": "2021-04-15T04:47:43.457Z",
  "devdoc": {
    "kind": "dev",
    "methods": {},
    "version": 1
  },
  "userdoc": {
    "kind": "user",
    "methods": {},
    "version": 1
  }
}