{
  "contractName": "GravestoneOwnership",
  "abi": [
    {
      "anonymous": false,
      "inputs": [
        {
          "indexed": true,
          "internalType": "address",
          "name": "_owner",
          "type": "address"
        },
        {
          "indexed": true,
          "internalType": "address",
          "name": "_approved",
          "type": "address"
        },
        {
          "indexed": true,
          "internalType": "uint256",
          "name": "_tokenId",
          "type": "uint256"
        }
      ],
      "name": "Approval",
      "type": "event"
    },
    {
      "anonymous": false,
      "inputs": [
        {
          "indexed": false,
          "internalType": "string",
          "name": "fullName",
          "type": "string"
        },
        {
          "indexed": false,
          "internalType": "uint256",
          "name": "counter",
          "type": "uint256"
        },
        {
          "indexed": false,
          "internalType": "uint256",
          "name": "id",
          "type": "uint256"
        }
      ],
      "name": "NewGraveStone",
      "type": "event"
    },
    {
      "anonymous": false,
      "inputs": [
        {
          "indexed": true,
          "internalType": "address",
          "name": "_from",
          "type": "address"
        },
        {
          "indexed": true,
          "internalType": "address",
          "name": "_to",
          "type": "address"
        },
        {
          "indexed": true,
          "internalType": "uint256",
          "name": "_tokenId",
          "type": "uint256"
        }
      ],
      "name": "Transfer",
      "type": "event"
    },
    {
      "inputs": [
        {
          "internalType": "uint256",
          "name": "",
          "type": "uint256"
        }
      ],
      "name": "gravestoneToOwner",
      "outputs": [
        {
          "internalType": "address",
          "name": "",
          "type": "address"
        }
      ],
      "stateMutability": "view",
      "type": "function"
    },
    {
      "inputs": [
        {
          "internalType": "uint256",
          "name": "",
          "type": "uint256"
        }
      ],
      "name": "gravestones",
      "outputs": [
        {
          "internalType": "string",
          "name": "firstName",
          "type": "string"
        },
        {
          "internalType": "string",
          "name": "middleName",
          "type": "string"
        },
        {
          "internalType": "string",
          "name": "lastName",
          "type": "string"
        },
        {
          "internalType": "uint256",
          "name": "deathDate",
          "type": "uint256"
        },
        {
          "internalType": "string",
          "name": "gender",
          "type": "string"
        },
        {
          "internalType": "string",
          "name": "obituary",
          "type": "string"
        },
        {
          "internalType": "bool",
          "name": "isHuman",
          "type": "bool"
        },
        {
          "internalType": "string",
          "name": "species",
          "type": "string"
        },
        {
          "internalType": "uint256",
          "name": "id",
          "type": "uint256"
        }
      ],
      "stateMutability": "view",
      "type": "function"
    },
    {
      "inputs": [
        {
          "internalType": "address",
          "name": "_owner",
          "type": "address"
        }
      ],
      "name": "balanceOf",
      "outputs": [
        {
          "internalType": "uint256",
          "name": "",
          "type": "uint256"
        }
      ],
      "stateMutability": "view",
      "type": "function"
    },
    {
      "inputs": [
        {
          "internalType": "uint256",
          "name": "_tokenId",
          "type": "uint256"
        }
      ],
      "name": "ownerOf",
      "outputs": [
        {
          "internalType": "address",
          "name": "",
          "type": "address"
        }
      ],
      "stateMutability": "view",
      "type": "function"
    },
    {
      "inputs": [
        {
          "internalType": "address",
          "name": "_from",
          "type": "address"
        },
        {
          "internalType": "address",
          "name": "_to",
          "type": "address"
        },
        {
          "internalType": "uint256",
          "name": "_tokenId",
          "type": "uint256"
        }
      ],
      "name": "transferFrom",
      "outputs": [],
      "stateMutability": "payable",
      "type": "function"
    },
    {
      "inputs": [
        {
          "internalType": "address",
          "name": "_approved",
          "type": "address"
        },
        {
          "internalType": "uint256",
          "name": "_tokenId",
          "type": "uint256"
        }
      ],
      "name": "approve",
      "outputs": [],
      "stateMutability": "payable",
      "type": "function"
    }
  ],
  "bytecode": "0x60806040526010600055600154600a6200001a919062000091565b60015560006002553480156200002f57600080fd5b5062000214565b6000808291508390505b6001851115620000885780860481111562000060576200005f620001d8565b5b6001851615620000705780820291505b8081029050620000808562000207565b945062000040565b94509492505050565b60006200009e82620001ce565b9150620000ab83620001ce565b9250620000da7fffffffffffffffffffffffffffffffffffffffffffffffffffffffffffffffff8484620000e2565b905092915050565b600082620000f45760019050620001c7565b81620001045760009050620001c7565b81600181146200011d576002811462000128576200015e565b6001915050620001c7565b60ff8411156200013d576200013c620001d8565b5b8360020a915084821115620001575762000156620001d8565b5b50620001c7565b5060208310610133831016604e8410600b8410161715620001985782820a905083811115620001925762000191620001d8565b5b620001c7565b620001a7848484600162000036565b92509050818404811115620001c157620001c0620001d8565b5b81810290505b9392505050565b6000819050919050565b7f4e487b7100000000000000000000000000000000000000000000000000000000600052601160045260246000fd5b60008160011c9050919050565b610e0180620002246000396000f3fe6080604052600436106100555760003560e01c8063095ea7b31461005a5780632139cb3c1461007657806323b872dd146100bb5780636352211e146100d757806370a0823114610114578063c36ae44514610151575b600080fd5b610074600480360381019061006f9190610a64565b61018e565b005b34801561008257600080fd5b5061009d60048036038101906100989190610aa0565b6102aa565b6040516100b299989796959493929190610b4a565b60405180910390f35b6100d560048036038101906100d09190610a15565b610645565b005b3480156100e357600080fd5b506100fe60048036038101906100f99190610aa0565b610729565b60405161010b9190610b2f565b60405180910390f35b34801561012057600080fd5b5061013b600480360381019061013691906109ec565b610766565b6040516101489190610c01565b60405180910390f35b34801561015d57600080fd5b5061017860048036038101906101739190610aa0565b6107af565b6040516101859190610b2f565b60405180910390f35b3373ffffffffffffffffffffffffffffffffffffffff166004600083815260200190815260200160002060009054906101000a900473ffffffffffffffffffffffffffffffffffffffff1673ffffffffffffffffffffffffffffffffffffffff16146101f957600080fd5b816006600083815260200190815260200160002060006101000a81548173ffffffffffffffffffffffffffffffffffffffff021916908373ffffffffffffffffffffffffffffffffffffffff160217905550808273ffffffffffffffffffffffffffffffffffffffff163373ffffffffffffffffffffffffffffffffffffffff167f8c5be1e5ebec7d5bd14f71427d1e84f3dd0314c0f7b2291e5b200ac8c7c3b92560405160405180910390a45050565b600381815481106102ba57600080fd5b90600052602060002090600902016000915090508060000180546102dd90610cb3565b80601f016020809104026020016040519081016040528092919081815260200182805461030990610cb3565b80156103565780601f1061032b57610100808354040283529160200191610356565b820191906000526020600020905b81548152906001019060200180831161033957829003601f168201915b50505050509080600101805461036b90610cb3565b80601f016020809104026020016040519081016040528092919081815260200182805461039790610cb3565b80156103e45780601f106103b9576101008083540402835291602001916103e4565b820191906000526020600020905b8154815290600101906020018083116103c757829003601f168201915b5050505050908060020180546103f990610cb3565b80601f016020809104026020016040519081016040528092919081815260200182805461042590610cb3565b80156104725780601f1061044757610100808354040283529160200191610472565b820191906000526020600020905b81548152906001019060200180831161045557829003601f168201915b50505050509080600301549080600401805461048d90610cb3565b80601f01602080910402602001604051908101604052809291908181526020018280546104b990610cb3565b80156105065780601f106104db57610100808354040283529160200191610506565b820191906000526020600020905b8154815290600101906020018083116104e957829003601f168201915b50505050509080600501805461051b90610cb3565b80601f016020809104026020016040519081016040528092919081815260200182805461054790610cb3565b80156105945780601f1061056957610100808354040283529160200191610594565b820191906000526020600020905b81548152906001019060200180831161057757829003601f168201915b5050505050908060060160009054906101000a900460ff16908060070180546105bc90610cb3565b80601f01602080910402602001604051908101604052809291908181526020018280546105e890610cb3565b80156106355780601f1061060a57610100808354040283529160200191610635565b820191906000526020600020905b81548152906001019060200180831161061857829003601f168201915b5050505050908060080154905089565b3373ffffffffffffffffffffffffffffffffffffffff166004600083815260200190815260200160002060009054906101000a900473ffffffffffffffffffffffffffffffffffffffff1673ffffffffffffffffffffffffffffffffffffffff16148061071057503373ffffffffffffffffffffffffffffffffffffffff166006600083815260200190815260200160002060009054906101000a900473ffffffffffffffffffffffffffffffffffffffff1673ffffffffffffffffffffffffffffffffffffffff16145b61071957600080fd5b6107248383836107e2565b505050565b60006004600083815260200190815260200160002060009054906101000a900473ffffffffffffffffffffffffffffffffffffffff169050919050565b6000600560008373ffffffffffffffffffffffffffffffffffffffff1673ffffffffffffffffffffffffffffffffffffffff168152602001908152602001600020549050919050565b60046020528060005260406000206000915054906101000a900473ffffffffffffffffffffffffffffffffffffffff1681565b600560008373ffffffffffffffffffffffffffffffffffffffff1673ffffffffffffffffffffffffffffffffffffffff168152602001908152602001600020600081548092919061083290610ce5565b91905055600560008473ffffffffffffffffffffffffffffffffffffffff1673ffffffffffffffffffffffffffffffffffffffff16815260200190815260200160002081905550600560008473ffffffffffffffffffffffffffffffffffffffff1673ffffffffffffffffffffffffffffffffffffffff16815260200190815260200160002060008154809291906108c990610ce5565b91905055600560008573ffffffffffffffffffffffffffffffffffffffff1673ffffffffffffffffffffffffffffffffffffffff16815260200190815260200160002081905550816004600083815260200190815260200160002060006101000a81548173ffffffffffffffffffffffffffffffffffffffff021916908373ffffffffffffffffffffffffffffffffffffffff160217905550808273ffffffffffffffffffffffffffffffffffffffff168473ffffffffffffffffffffffffffffffffffffffff167fddf252ad1be2c89b69c2b068fc378daa952ba7f163c4a11628f55a4df523b3ef60405160405180910390a4505050565b6000813590506109d181610d9d565b92915050565b6000813590506109e681610db4565b92915050565b6000602082840312156109fe57600080fd5b6000610a0c848285016109c2565b91505092915050565b600080600060608486031215610a2a57600080fd5b6000610a38868287016109c2565b9350506020610a49868287016109c2565b9250506040610a5a868287016109d7565b9150509250925092565b60008060408385031215610a7757600080fd5b6000610a85858286016109c2565b9250506020610a96858286016109d7565b9150509250929050565b600060208284031215610ab257600080fd5b6000610ac0848285016109d7565b91505092915050565b610ad281610c38565b82525050565b610ae181610c4a565b82525050565b6000610af282610c1c565b610afc8185610c27565b9350610b0c818560208601610c80565b610b1581610d8c565b840191505092915050565b610b2981610c76565b82525050565b6000602082019050610b446000830184610ac9565b92915050565b6000610120820190508181036000830152610b65818c610ae7565b90508181036020830152610b79818b610ae7565b90508181036040830152610b8d818a610ae7565b9050610b9c6060830189610b20565b8181036080830152610bae8188610ae7565b905081810360a0830152610bc28187610ae7565b9050610bd160c0830186610ad8565b81810360e0830152610be38185610ae7565b9050610bf3610100830184610b20565b9a9950505050505050505050565b6000602082019050610c166000830184610b20565b92915050565b600081519050919050565b600082825260208201905092915050565b6000610c4382610c56565b9050919050565b60008115159050919050565b600073ffffffffffffffffffffffffffffffffffffffff82169050919050565b6000819050919050565b60005b83811015610c9e578082015181840152602081019050610c83565b83811115610cad576000848401525b50505050565b60006002820490506001821680610ccb57607f821691505b60208210811415610cdf57610cde610d5d565b5b50919050565b6000610cf082610c76565b91507fffffffffffffffffffffffffffffffffffffffffffffffffffffffffffffffff821415610d2357610d22610d2e565b5b600182019050919050565b7f4e487b7100000000000000000000000000000000000000000000000000000000600052601160045260246000fd5b7f4e487b7100000000000000000000000000000000000000000000000000000000600052602260045260246000fd5b6000601f19601f8301169050919050565b610da681610c38565b8114610db157600080fd5b50565b610dbd81610c76565b8114610dc857600080fd5b5056fea26469706673582212202a8fc3b5028f5b66634bab9c2ba38ee5b7fdec49e3e52a66ee4bf6ee245f263664736f6c63430008030033",
  "immutableReferences": {},
  "source": "// SPDX-License-Identifier: MIT\r\npragma solidity ^0.8.3;\r\n\r\nimport './ERC721.sol';\r\nimport './GravestoneFactory.sol';\r\n\r\ncontract GravestoneOwnership is ERC721, GravestoneFactory {\r\n\r\n    mapping (uint => address) private gravestoneApprovals;\r\n\r\n    function balanceOf(address _owner) external override view returns (uint256) {\r\n        return ownerGravestoneCount[_owner];\r\n    }\r\n\r\n  function ownerOf(uint256 _tokenId) external override view returns (address) {\r\n        return gravestoneToOwner[_tokenId];\r\n    }\r\n\r\n  function _transfer(address _from, address _to, uint256 _tokenId) private {\r\n      ownerGravestoneCount[_to] = ownerGravestoneCount[_to]++;\r\n      ownerGravestoneCount[_from] =  ownerGravestoneCount[_from]++;\r\n      gravestoneToOwner[_tokenId] = _to;\r\n      emit Transfer(_from, _to, _tokenId);\r\n  }\r\n\r\n  function transferFrom(address _from, address _to, uint256 _tokenId) external override payable {\r\n      require(gravestoneToOwner[_tokenId] == msg.sender \r\n        || gravestoneApprovals[_tokenId] == msg.sender);\r\n      _transfer(_from, _to, _tokenId);\r\n  }\r\n\r\n  function approve(address _approved, uint256 _tokenId) external override payable {\r\n      require(gravestoneToOwner[_tokenId] == msg.sender);\r\n      gravestoneApprovals[_tokenId] = _approved;\r\n      emit Approval(msg.sender, _approved, _tokenId);\r\n  }\r\n}",
  "sourcePath": "C:/Users/editr/OneDrive/Desktop/etherprojects/Ethertaph/contracts/GravestoneOwnership.sol",
  "compiler": {
    "name": "solc",
    "version": "0.8.3+commit.8d00100c.Emscripten.clang"
  },
  "schemaVersion": "3.3.3",
  "updatedAt": "2021-04-15T04:47:43.464Z",
  "devdoc": {
    "kind": "dev",
    "methods": {},
    "version": 1
  },
  "userdoc": {
    "kind": "user",
    "methods": {},
    "version": 1
  }
}