{
  "contractName": "ERC721Tradable",
  "abi": [
    {
      "inputs": [
        {
          "internalType": "string",
          "name": "_name",
          "type": "string"
        },
        {
          "internalType": "string",
          "name": "_symbol",
          "type": "string"
        },
        {
          "internalType": "address",
          "name": "_proxyRegistryAddress",
          "type": "address"
        }
      ],
      "stateMutability": "nonpayable",
      "type": "constructor"
    },
    {
      "anonymous": false,
      "inputs": [
        {
          "indexed": true,
          "internalType": "address",
          "name": "owner",
          "type": "address"
        },
        {
          "indexed": true,
          "internalType": "address",
          "name": "approved",
          "type": "address"
        },
        {
          "indexed": true,
          "internalType": "uint256",
          "name": "tokenId",
          "type": "uint256"
        }
      ],
      "name": "Approval",
      "type": "event"
    },
    {
      "anonymous": false,
      "inputs": [
        {
          "indexed": true,
          "internalType": "address",
          "name": "owner",
          "type": "address"
        },
        {
          "indexed": true,
          "internalType": "address",
          "name": "operator",
          "type": "address"
        },
        {
          "indexed": false,
          "internalType": "bool",
          "name": "approved",
          "type": "bool"
        }
      ],
      "name": "ApprovalForAll",
      "type": "event"
    },
    {
      "anonymous": false,
      "inputs": [
        {
          "indexed": true,
          "internalType": "address",
          "name": "previousOwner",
          "type": "address"
        },
        {
          "indexed": true,
          "internalType": "address",
          "name": "newOwner",
          "type": "address"
        }
      ],
      "name": "OwnershipTransferred",
      "type": "event"
    },
    {
      "anonymous": false,
      "inputs": [
        {
          "indexed": true,
          "internalType": "address",
          "name": "from",
          "type": "address"
        },
        {
          "indexed": true,
          "internalType": "address",
          "name": "to",
          "type": "address"
        },
        {
          "indexed": true,
          "internalType": "uint256",
          "name": "tokenId",
          "type": "uint256"
        }
      ],
      "name": "Transfer",
      "type": "event"
    },
    {
      "inputs": [
        {
          "internalType": "address",
          "name": "to",
          "type": "address"
        },
        {
          "internalType": "uint256",
          "name": "tokenId",
          "type": "uint256"
        }
      ],
      "name": "approve",
      "outputs": [],
      "stateMutability": "nonpayable",
      "type": "function"
    },
    {
      "inputs": [
        {
          "internalType": "address",
          "name": "owner",
          "type": "address"
        }
      ],
      "name": "balanceOf",
      "outputs": [
        {
          "internalType": "uint256",
          "name": "",
          "type": "uint256"
        }
      ],
      "stateMutability": "view",
      "type": "function"
    },
    {
      "inputs": [
        {
          "internalType": "uint256",
          "name": "tokenId",
          "type": "uint256"
        }
      ],
      "name": "getApproved",
      "outputs": [
        {
          "internalType": "address",
          "name": "",
          "type": "address"
        }
      ],
      "stateMutability": "view",
      "type": "function"
    },
    {
      "inputs": [],
      "name": "name",
      "outputs": [
        {
          "internalType": "string",
          "name": "",
          "type": "string"
        }
      ],
      "stateMutability": "view",
      "type": "function"
    },
    {
      "inputs": [],
      "name": "owner",
      "outputs": [
        {
          "internalType": "address",
          "name": "",
          "type": "address"
        }
      ],
      "stateMutability": "view",
      "type": "function"
    },
    {
      "inputs": [
        {
          "internalType": "uint256",
          "name": "tokenId",
          "type": "uint256"
        }
      ],
      "name": "ownerOf",
      "outputs": [
        {
          "internalType": "address",
          "name": "",
          "type": "address"
        }
      ],
      "stateMutability": "view",
      "type": "function"
    },
    {
      "inputs": [],
      "name": "renounceOwnership",
      "outputs": [],
      "stateMutability": "nonpayable",
      "type": "function"
    },
    {
      "inputs": [
        {
          "internalType": "address",
          "name": "from",
          "type": "address"
        },
        {
          "internalType": "address",
          "name": "to",
          "type": "address"
        },
        {
          "internalType": "uint256",
          "name": "tokenId",
          "type": "uint256"
        }
      ],
      "name": "safeTransferFrom",
      "outputs": [],
      "stateMutability": "nonpayable",
      "type": "function"
    },
    {
      "inputs": [
        {
          "internalType": "address",
          "name": "from",
          "type": "address"
        },
        {
          "internalType": "address",
          "name": "to",
          "type": "address"
        },
        {
          "internalType": "uint256",
          "name": "tokenId",
          "type": "uint256"
        },
        {
          "internalType": "bytes",
          "name": "_data",
          "type": "bytes"
        }
      ],
      "name": "safeTransferFrom",
      "outputs": [],
      "stateMutability": "nonpayable",
      "type": "function"
    },
    {
      "inputs": [
        {
          "internalType": "address",
          "name": "operator",
          "type": "address"
        },
        {
          "internalType": "bool",
          "name": "approved",
          "type": "bool"
        }
      ],
      "name": "setApprovalForAll",
      "outputs": [],
      "stateMutability": "nonpayable",
      "type": "function"
    },
    {
      "inputs": [
        {
          "internalType": "bytes4",
          "name": "interfaceId",
          "type": "bytes4"
        }
      ],
      "name": "supportsInterface",
      "outputs": [
        {
          "internalType": "bool",
          "name": "",
          "type": "bool"
        }
      ],
      "stateMutability": "view",
      "type": "function"
    },
    {
      "inputs": [],
      "name": "symbol",
      "outputs": [
        {
          "internalType": "string",
          "name": "",
          "type": "string"
        }
      ],
      "stateMutability": "view",
      "type": "function"
    },
    {
      "inputs": [
        {
          "internalType": "address",
          "name": "from",
          "type": "address"
        },
        {
          "internalType": "address",
          "name": "to",
          "type": "address"
        },
        {
          "internalType": "uint256",
          "name": "tokenId",
          "type": "uint256"
        }
      ],
      "name": "transferFrom",
      "outputs": [],
      "stateMutability": "nonpayable",
      "type": "function"
    },
    {
      "inputs": [
        {
          "internalType": "address",
          "name": "newOwner",
          "type": "address"
        }
      ],
      "name": "transferOwnership",
      "outputs": [],
      "stateMutability": "nonpayable",
      "type": "function"
    },
    {
      "inputs": [
        {
          "internalType": "address",
          "name": "_to",
          "type": "address"
        }
      ],
      "name": "mintTo",
      "outputs": [],
      "stateMutability": "nonpayable",
      "type": "function"
    },
    {
      "inputs": [
        {
          "internalType": "address",
          "name": "to",
          "type": "address"
        },
        {
          "internalType": "string",
          "name": "_tokenURI",
          "type": "string"
        }
      ],
      "name": "mintToken",
      "outputs": [
        {
          "internalType": "uint256",
          "name": "",
          "type": "uint256"
        }
      ],
      "stateMutability": "nonpayable",
      "type": "function"
    },
    {
      "inputs": [
        {
          "internalType": "address",
          "name": "to",
          "type": "address"
        },
        {
          "internalType": "uint256",
          "name": "tokenId",
          "type": "uint256"
        }
      ],
      "name": "safeMint",
      "outputs": [],
      "stateMutability": "nonpayable",
      "type": "function"
    },
    {
      "inputs": [
        {
          "internalType": "uint256",
          "name": "tokenId",
          "type": "uint256"
        }
      ],
      "name": "tokenURI",
      "outputs": [
        {
          "internalType": "string",
          "name": "",
          "type": "string"
        }
      ],
      "stateMutability": "view",
      "type": "function"
    },
    {
      "inputs": [
        {
          "internalType": "address",
          "name": "owner",
          "type": "address"
        },
        {
          "internalType": "address",
          "name": "operator",
          "type": "address"
        }
      ],
      "name": "isApprovedForAll",
      "outputs": [
        {
          "internalType": "bool",
          "name": "",
          "type": "bool"
        }
      ],
      "stateMutability": "view",
      "type": "function"
    }
  ],
  "bytecode": "0x60806040523480156200001157600080fd5b5060405162003746380380620037468339818101604052810190620000379190620002b1565b828281600090805190602001906200005192919062000178565b5080600190805190602001906200006a92919062000178565b50505060006200007f6200017060201b60201c565b905080600660006101000a81548173ffffffffffffffffffffffffffffffffffffffff021916908373ffffffffffffffffffffffffffffffffffffffff1602179055508073ffffffffffffffffffffffffffffffffffffffff16600073ffffffffffffffffffffffffffffffffffffffff167f8be0079c531659141344cd1fd0a4f28419497f9722a3daafe3b4186f6b6457e060405160405180910390a35080600860006101000a81548173ffffffffffffffffffffffffffffffffffffffff021916908373ffffffffffffffffffffffffffffffffffffffff1602179055506000600981905550505050620004b8565b600033905090565b82805462000186906200040a565b90600052602060002090601f016020900481019282620001aa5760008555620001f6565b82601f10620001c557805160ff1916838001178555620001f6565b82800160010185558215620001f6579182015b82811115620001f5578251825591602001919060010190620001d8565b5b50905062000205919062000209565b5090565b5b80821115620002245760008160009055506001016200020a565b5090565b60006200023f62000239846200036d565b62000339565b9050828152602081018484840111156200025857600080fd5b62000265848285620003d4565b509392505050565b6000815190506200027e816200049e565b92915050565b600082601f8301126200029657600080fd5b8151620002a884826020860162000228565b91505092915050565b600080600060608486031215620002c757600080fd5b600084015167ffffffffffffffff811115620002e257600080fd5b620002f08682870162000284565b935050602084015167ffffffffffffffff8111156200030e57600080fd5b6200031c8682870162000284565b92505060406200032f868287016200026d565b9150509250925092565b6000604051905081810181811067ffffffffffffffff821117156200036357620003626200046f565b5b8060405250919050565b600067ffffffffffffffff8211156200038b576200038a6200046f565b5b601f19601f8301169050602081019050919050565b6000620003ad82620003b4565b9050919050565b600073ffffffffffffffffffffffffffffffffffffffff82169050919050565b60005b83811015620003f4578082015181840152602081019050620003d7565b8381111562000404576000848401525b50505050565b600060028204905060018216806200042357607f821691505b602082108114156200043a576200043962000440565b5b50919050565b7f4e487b7100000000000000000000000000000000000000000000000000000000600052602260045260246000fd5b7f4e487b7100000000000000000000000000000000000000000000000000000000600052604160045260246000fd5b620004a981620003a0565b8114620004b557600080fd5b50565b61327e80620004c86000396000f3fe608060405234801561001057600080fd5b50600436106101215760003560e01c8063715018a6116100ad578063a22cb46511610071578063a22cb46514610306578063b88d4fde14610322578063c87b56dd1461033e578063e985e9c51461036e578063f2fde38b1461039e57610121565b8063715018a614610288578063755edd17146102925780638da5cb5b146102ae57806395d89b41146102cc578063a1448194146102ea57610121565b806323b872dd116100f457806323b872dd146101c05780633d02d0c9146101dc57806342842e0e1461020c5780636352211e1461022857806370a082311461025857610121565b806301ffc9a71461012657806306fdde0314610156578063081812fc14610174578063095ea7b3146101a4575b600080fd5b610140600480360381019061013b91906122b8565b6103ba565b60405161014d9190612b4b565b60405180910390f35b61015e61049c565b60405161016b9190612b66565b60405180910390f35b61018e60048036038101906101899190612333565b61052e565b60405161019b9190612ae4565b60405180910390f35b6101be60048036038101906101b9919061227c565b6105b3565b005b6101da60048036038101906101d59190612122565b6106cb565b005b6101f660048036038101906101f19190612228565b61072b565b6040516102039190612dc8565b60405180910390f35b61022660048036038101906102219190612122565b610769565b005b610242600480360381019061023d9190612333565b610789565b60405161024f9190612ae4565b60405180910390f35b610272600480360381019061026d91906120bd565b61083b565b60405161027f9190612dc8565b60405180910390f35b6102906108f3565b005b6102ac60048036038101906102a791906120bd565b610a30565b005b6102b6610ace565b6040516102c39190612ae4565b60405180910390f35b6102d4610af8565b6040516102e19190612b66565b60405180910390f35b61030460048036038101906102ff919061227c565b610b8a565b005b610320600480360381019061031b91906121ec565b610c14565b005b61033c60048036038101906103379190612171565b610d95565b005b61035860048036038101906103539190612333565b610df7565b6040516103659190612b66565b60405180910390f35b610388600480360381019061038391906120e6565b610e09565b6040516103959190612b4b565b60405180910390f35b6103b860048036038101906103b391906120bd565b610f0b565b005b60007f80ac58cd000000000000000000000000000000000000000000000000000000007bffffffffffffffffffffffffffffffffffffffffffffffffffffffff1916827bffffffffffffffffffffffffffffffffffffffffffffffffffffffff1916148061048557507f5b5e139f000000000000000000000000000000000000000000000000000000007bffffffffffffffffffffffffffffffffffffffffffffffffffffffff1916827bffffffffffffffffffffffffffffffffffffffffffffffffffffffff1916145b806104955750610494826110b7565b5b9050919050565b6060600080546104ab9061303a565b80601f01602080910402602001604051908101604052809291908181526020018280546104d79061303a565b80156105245780601f106104f957610100808354040283529160200191610524565b820191906000526020600020905b81548152906001019060200180831161050757829003601f168201915b5050505050905090565b600061053982611121565b610578576040517f08c379a000000000000000000000000000000000000000000000000000000000815260040161056f90612d08565b60405180910390fd5b6004600083815260200190815260200160002060009054906101000a900473ffffffffffffffffffffffffffffffffffffffff169050919050565b60006105be82610789565b90508073ffffffffffffffffffffffffffffffffffffffff168373ffffffffffffffffffffffffffffffffffffffff16141561062f576040517f08c379a000000000000000000000000000000000000000000000000000000000815260040161062690612d88565b60405180910390fd5b8073ffffffffffffffffffffffffffffffffffffffff1661064e61118d565b73ffffffffffffffffffffffffffffffffffffffff16148061067d575061067c8161067761118d565b611195565b5b6106bc576040517f08c379a00000000000000000000000000000000000000000000000000000000081526004016106b390612c48565b60405180910390fd5b6106c68383611229565b505050565b6106dc6106d661118d565b826112e2565b61071b576040517f08c379a000000000000000000000000000000000000000000000000000000000815260040161071290612da8565b60405180910390fd5b6107268383836113c0565b505050565b600080600954905061073d848261161c565b610747818461163a565b6009600081548092919061075a9061306c565b91905055508091505092915050565b61078483838360405180602001604052806000815250610d95565b505050565b6000806002600084815260200190815260200160002060009054906101000a900473ffffffffffffffffffffffffffffffffffffffff169050600073ffffffffffffffffffffffffffffffffffffffff168173ffffffffffffffffffffffffffffffffffffffff161415610832576040517f08c379a000000000000000000000000000000000000000000000000000000000815260040161082990612c88565b60405180910390fd5b80915050919050565b60008073ffffffffffffffffffffffffffffffffffffffff168273ffffffffffffffffffffffffffffffffffffffff1614156108ac576040517f08c379a00000000000000000000000000000000000000000000000000000000081526004016108a390612c68565b60405180910390fd5b600360008373ffffffffffffffffffffffffffffffffffffffff1673ffffffffffffffffffffffffffffffffffffffff168152602001908152602001600020549050919050565b6108fb61118d565b73ffffffffffffffffffffffffffffffffffffffff16610919610ace565b73ffffffffffffffffffffffffffffffffffffffff161461096f576040517f08c379a000000000000000000000000000000000000000000000000000000000815260040161096690612d28565b60405180910390fd5b600073ffffffffffffffffffffffffffffffffffffffff16600660009054906101000a900473ffffffffffffffffffffffffffffffffffffffff1673ffffffffffffffffffffffffffffffffffffffff167f8be0079c531659141344cd1fd0a4f28419497f9722a3daafe3b4186f6b6457e060405160405180910390a36000600660006101000a81548173ffffffffffffffffffffffffffffffffffffffff021916908373ffffffffffffffffffffffffffffffffffffffff160217905550565b610a3861118d565b73ffffffffffffffffffffffffffffffffffffffff16610a56610ace565b73ffffffffffffffffffffffffffffffffffffffff1614610aac576040517f08c379a0000000000000000000000000000000000000000000000000000000008152600401610aa390612d28565b60405180910390fd5b6000610ab66116ae565b9050610ac282826116b8565b610aca611886565b5050565b6000600660009054906101000a900473ffffffffffffffffffffffffffffffffffffffff16905090565b606060018054610b079061303a565b80601f0160208091040260200160405190810160405280929190818152602001828054610b339061303a565b8015610b805780601f10610b5557610100808354040283529160200191610b80565b820191906000526020600020905b815481529060010190602001808311610b6357829003601f168201915b5050505050905090565b610b9261118d565b73ffffffffffffffffffffffffffffffffffffffff16610bb0610ace565b73ffffffffffffffffffffffffffffffffffffffff1614610c06576040517f08c379a0000000000000000000000000000000000000000000000000000000008152600401610bfd90612d28565b60405180910390fd5b610c10828261161c565b5050565b610c1c61118d565b73ffffffffffffffffffffffffffffffffffffffff168273ffffffffffffffffffffffffffffffffffffffff161415610c8a576040517f08c379a0000000000000000000000000000000000000000000000000000000008152600401610c8190612c08565b60405180910390fd5b8060056000610c9761118d565b73ffffffffffffffffffffffffffffffffffffffff1673ffffffffffffffffffffffffffffffffffffffff16815260200190815260200160002060008473ffffffffffffffffffffffffffffffffffffffff1673ffffffffffffffffffffffffffffffffffffffff16815260200190815260200160002060006101000a81548160ff0219169083151502179055508173ffffffffffffffffffffffffffffffffffffffff16610d4461118d565b73ffffffffffffffffffffffffffffffffffffffff167f17307eab39ab6107e8899845ad3d59bd9653f200f220920489ca2b5937696c3183604051610d899190612b4b565b60405180910390a35050565b610da6610da061118d565b836112e2565b610de5576040517f08c379a0000000000000000000000000000000000000000000000000000000008152600401610ddc90612da8565b60405180910390fd5b610df1848484846118a0565b50505050565b6060610e02826118fc565b9050919050565b600080600860009054906101000a900473ffffffffffffffffffffffffffffffffffffffff1690508273ffffffffffffffffffffffffffffffffffffffff168173ffffffffffffffffffffffffffffffffffffffff1663c4552791866040518263ffffffff1660e01b8152600401610e819190612ae4565b60206040518083038186803b158015610e9957600080fd5b505afa158015610ead573d6000803e3d6000fd5b505050506040513d601f19601f82011682018060405250810190610ed1919061230a565b73ffffffffffffffffffffffffffffffffffffffff161415610ef7576001915050610f05565b610f018484611195565b9150505b92915050565b610f1361118d565b73ffffffffffffffffffffffffffffffffffffffff16610f31610ace565b73ffffffffffffffffffffffffffffffffffffffff1614610f87576040517f08c379a0000000000000000000000000000000000000000000000000000000008152600401610f7e90612d28565b60405180910390fd5b600073ffffffffffffffffffffffffffffffffffffffff168173ffffffffffffffffffffffffffffffffffffffff161415610ff7576040517f08c379a0000000000000000000000000000000000000000000000000000000008152600401610fee90612ba8565b60405180910390fd5b8073ffffffffffffffffffffffffffffffffffffffff16600660009054906101000a900473ffffffffffffffffffffffffffffffffffffffff1673ffffffffffffffffffffffffffffffffffffffff167f8be0079c531659141344cd1fd0a4f28419497f9722a3daafe3b4186f6b6457e060405160405180910390a380600660006101000a81548173ffffffffffffffffffffffffffffffffffffffff021916908373ffffffffffffffffffffffffffffffffffffffff16021790555050565b60007f01ffc9a7000000000000000000000000000000000000000000000000000000007bffffffffffffffffffffffffffffffffffffffffffffffffffffffff1916827bffffffffffffffffffffffffffffffffffffffffffffffffffffffff1916149050919050565b60008073ffffffffffffffffffffffffffffffffffffffff166002600084815260200190815260200160002060009054906101000a900473ffffffffffffffffffffffffffffffffffffffff1673ffffffffffffffffffffffffffffffffffffffff1614159050919050565b600033905090565b6000600560008473ffffffffffffffffffffffffffffffffffffffff1673ffffffffffffffffffffffffffffffffffffffff16815260200190815260200160002060008373ffffffffffffffffffffffffffffffffffffffff1673ffffffffffffffffffffffffffffffffffffffff16815260200190815260200160002060009054906101000a900460ff16905092915050565b816004600083815260200190815260200160002060006101000a81548173ffffffffffffffffffffffffffffffffffffffff021916908373ffffffffffffffffffffffffffffffffffffffff160217905550808273ffffffffffffffffffffffffffffffffffffffff1661129c83610789565b73ffffffffffffffffffffffffffffffffffffffff167f8c5be1e5ebec7d5bd14f71427d1e84f3dd0314c0f7b2291e5b200ac8c7c3b92560405160405180910390a45050565b60006112ed82611121565b61132c576040517f08c379a000000000000000000000000000000000000000000000000000000000815260040161132390612c28565b60405180910390fd5b600061133783610789565b90508073ffffffffffffffffffffffffffffffffffffffff168473ffffffffffffffffffffffffffffffffffffffff1614806113a657508373ffffffffffffffffffffffffffffffffffffffff1661138e8461052e565b73ffffffffffffffffffffffffffffffffffffffff16145b806113b757506113b68185611195565b5b91505092915050565b8273ffffffffffffffffffffffffffffffffffffffff166113e082610789565b73ffffffffffffffffffffffffffffffffffffffff1614611436576040517f08c379a000000000000000000000000000000000000000000000000000000000815260040161142d90612d48565b60405180910390fd5b600073ffffffffffffffffffffffffffffffffffffffff168273ffffffffffffffffffffffffffffffffffffffff1614156114a6576040517f08c379a000000000000000000000000000000000000000000000000000000000815260040161149d90612be8565b60405180910390fd5b6114b1838383611a4e565b6114bc600082611229565b6001600360008573ffffffffffffffffffffffffffffffffffffffff1673ffffffffffffffffffffffffffffffffffffffff168152602001908152602001600020600082825461150c9190612f3e565b925050819055506001600360008473ffffffffffffffffffffffffffffffffffffffff1673ffffffffffffffffffffffffffffffffffffffff16815260200190815260200160002060008282546115639190612eb7565b92505081905550816002600083815260200190815260200160002060006101000a81548173ffffffffffffffffffffffffffffffffffffffff021916908373ffffffffffffffffffffffffffffffffffffffff160217905550808273ffffffffffffffffffffffffffffffffffffffff168473ffffffffffffffffffffffffffffffffffffffff167fddf252ad1be2c89b69c2b068fc378daa952ba7f163c4a11628f55a4df523b3ef60405160405180910390a4505050565b611636828260405180602001604052806000815250611a53565b5050565b61164382611121565b611682576040517f08c379a000000000000000000000000000000000000000000000000000000000815260040161167990612ca8565b60405180910390fd5b806007600084815260200190815260200160002090805190602001906116a9929190611ecc565b505050565b6000600954905090565b600073ffffffffffffffffffffffffffffffffffffffff168273ffffffffffffffffffffffffffffffffffffffff161415611728576040517f08c379a000000000000000000000000000000000000000000000000000000000815260040161171f90612cc8565b60405180910390fd5b61173181611121565b15611771576040517f08c379a000000000000000000000000000000000000000000000000000000000815260040161176890612bc8565b60405180910390fd5b61177d60008383611a4e565b6001600360008473ffffffffffffffffffffffffffffffffffffffff1673ffffffffffffffffffffffffffffffffffffffff16815260200190815260200160002060008282546117cd9190612eb7565b92505081905550816002600083815260200190815260200160002060006101000a81548173ffffffffffffffffffffffffffffffffffffffff021916908373ffffffffffffffffffffffffffffffffffffffff160217905550808273ffffffffffffffffffffffffffffffffffffffff16600073ffffffffffffffffffffffffffffffffffffffff167fddf252ad1be2c89b69c2b068fc378daa952ba7f163c4a11628f55a4df523b3ef60405160405180910390a45050565b600960008154809291906118999061306c565b9190505550565b6118ab8484846113c0565b6118b784848484611aae565b6118f6576040517f08c379a00000000000000000000000000000000000000000000000000000000081526004016118ed90612b88565b60405180910390fd5b50505050565b606061190782611121565b611946576040517f08c379a000000000000000000000000000000000000000000000000000000000815260040161193d90612ce8565b60405180910390fd5b60006007600084815260200190815260200160002080546119669061303a565b80601f01602080910402602001604051908101604052809291908181526020018280546119929061303a565b80156119df5780601f106119b4576101008083540402835291602001916119df565b820191906000526020600020905b8154815290600101906020018083116119c257829003601f168201915b5050505050905060006119f0611c45565b9050600081511415611a06578192505050611a49565b600082511115611a3b578082604051602001611a23929190612ac0565b60405160208183030381529060405292505050611a49565b611a4484611c65565b925050505b919050565b505050565b611a5d83836116b8565b611a6a6000848484611aae565b611aa9576040517f08c379a0000000000000000000000000000000000000000000000000000000008152600401611aa090612b88565b60405180910390fd5b505050565b6000611acf8473ffffffffffffffffffffffffffffffffffffffff16611d0c565b15611c38578373ffffffffffffffffffffffffffffffffffffffff1663150b7a02611af861118d565b8786866040518563ffffffff1660e01b8152600401611b1a9493929190612aff565b602060405180830381600087803b158015611b3457600080fd5b505af1925050508015611b6557506040513d601f19601f82011682018060405250810190611b6291906122e1565b60015b611be8573d8060008114611b95576040519150601f19603f3d011682016040523d82523d6000602084013e611b9a565b606091505b50600081511415611be0576040517f08c379a0000000000000000000000000000000000000000000000000000000008152600401611bd790612b88565b60405180910390fd5b805181602001fd5b63150b7a0260e01b7bffffffffffffffffffffffffffffffffffffffffffffffffffffffff1916817bffffffffffffffffffffffffffffffffffffffffffffffffffffffff191614915050611c3d565b600190505b949350505050565b606060405180606001604052806022815260200161322760229139905090565b6060611c7082611121565b611caf576040517f08c379a0000000000000000000000000000000000000000000000000000000008152600401611ca690612d68565b60405180910390fd5b6000611cb9611c45565b90506000815111611cd95760405180602001604052806000815250611d04565b80611ce384611d1f565b604051602001611cf4929190612ac0565b6040516020818303038152906040525b915050919050565b600080823b905060008111915050919050565b60606000821415611d67576040518060400160405280600181526020017f30000000000000000000000000000000000000000000000000000000000000008152509050611ec7565b600082905060005b60008214611d99578080611d829061306c565b915050600a82611d929190612f0d565b9150611d6f565b60008167ffffffffffffffff811115611ddb577f4e487b7100000000000000000000000000000000000000000000000000000000600052604160045260246000fd5b6040519080825280601f01601f191660200182016040528015611e0d5781602001600182028036833780820191505090505b5090505b60008514611ec057600182611e269190612f3e565b9150600a85611e3591906130b5565b6030611e419190612eb7565b60f81b818381518110611e7d577f4e487b7100000000000000000000000000000000000000000000000000000000600052603260045260246000fd5b60200101907effffffffffffffffffffffffffffffffffffffffffffffffffffffffffffff1916908160001a905350600a85611eb99190612f0d565b9450611e11565b8093505050505b919050565b828054611ed89061303a565b90600052602060002090601f016020900481019282611efa5760008555611f41565b82601f10611f1357805160ff1916838001178555611f41565b82800160010185558215611f41579182015b82811115611f40578251825591602001919060010190611f25565b5b509050611f4e9190611f52565b5090565b5b80821115611f6b576000816000905550600101611f53565b5090565b6000611f82611f7d84612e14565b612de3565b905082815260208101848484011115611f9a57600080fd5b611fa5848285612ff8565b509392505050565b6000611fc0611fbb84612e44565b612de3565b905082815260208101848484011115611fd857600080fd5b611fe3848285612ff8565b509392505050565b600081359050611ffa816131b3565b92915050565b60008135905061200f816131ca565b92915050565b600081359050612024816131e1565b92915050565b600081519050612039816131e1565b92915050565b600082601f83011261205057600080fd5b8135612060848260208601611f6f565b91505092915050565b600081519050612078816131f8565b92915050565b600082601f83011261208f57600080fd5b813561209f848260208601611fad565b91505092915050565b6000813590506120b78161320f565b92915050565b6000602082840312156120cf57600080fd5b60006120dd84828501611feb565b91505092915050565b600080604083850312156120f957600080fd5b600061210785828601611feb565b925050602061211885828601611feb565b9150509250929050565b60008060006060848603121561213757600080fd5b600061214586828701611feb565b935050602061215686828701611feb565b9250506040612167868287016120a8565b9150509250925092565b6000806000806080858703121561218757600080fd5b600061219587828801611feb565b94505060206121a687828801611feb565b93505060406121b7878288016120a8565b925050606085013567ffffffffffffffff8111156121d457600080fd5b6121e08782880161203f565b91505092959194509250565b600080604083850312156121ff57600080fd5b600061220d85828601611feb565b925050602061221e85828601612000565b9150509250929050565b6000806040838503121561223b57600080fd5b600061224985828601611feb565b925050602083013567ffffffffffffffff81111561226657600080fd5b6122728582860161207e565b9150509250929050565b6000806040838503121561228f57600080fd5b600061229d85828601611feb565b92505060206122ae858286016120a8565b9150509250929050565b6000602082840312156122ca57600080fd5b60006122d884828501612015565b91505092915050565b6000602082840312156122f357600080fd5b60006123018482850161202a565b91505092915050565b60006020828403121561231c57600080fd5b600061232a84828501612069565b91505092915050565b60006020828403121561234557600080fd5b6000612353848285016120a8565b91505092915050565b61236581612f72565b82525050565b61237481612f84565b82525050565b600061238582612e74565b61238f8185612e8a565b935061239f818560208601613007565b6123a8816131a2565b840191505092915050565b60006123be82612e7f565b6123c88185612e9b565b93506123d8818560208601613007565b6123e1816131a2565b840191505092915050565b60006123f782612e7f565b6124018185612eac565b9350612411818560208601613007565b80840191505092915050565b600061242a603283612e9b565b91507f4552433732313a207472616e7366657220746f206e6f6e20455243373231526560008301527f63656976657220696d706c656d656e74657200000000000000000000000000006020830152604082019050919050565b6000612490602683612e9b565b91507f4f776e61626c653a206e6577206f776e657220697320746865207a65726f206160008301527f64647265737300000000000000000000000000000000000000000000000000006020830152604082019050919050565b60006124f6601c83612e9b565b91507f4552433732313a20746f6b656e20616c7265616479206d696e746564000000006000830152602082019050919050565b6000612536602483612e9b565b91507f4552433732313a207472616e7366657220746f20746865207a65726f2061646460008301527f72657373000000000000000000000000000000000000000000000000000000006020830152604082019050919050565b600061259c601983612e9b565b91507f4552433732313a20617070726f766520746f2063616c6c6572000000000000006000830152602082019050919050565b60006125dc602c83612e9b565b91507f4552433732313a206f70657261746f7220717565727920666f72206e6f6e657860008301527f697374656e7420746f6b656e00000000000000000000000000000000000000006020830152604082019050919050565b6000612642603883612e9b565b91507f4552433732313a20617070726f76652063616c6c6572206973206e6f74206f7760008301527f6e6572206e6f7220617070726f76656420666f7220616c6c00000000000000006020830152604082019050919050565b60006126a8602a83612e9b565b91507f4552433732313a2062616c616e636520717565727920666f7220746865207a6560008301527f726f2061646472657373000000000000000000000000000000000000000000006020830152604082019050919050565b600061270e602983612e9b565b91507f4552433732313a206f776e657220717565727920666f72206e6f6e657869737460008301527f656e7420746f6b656e00000000000000000000000000000000000000000000006020830152604082019050919050565b6000612774602e83612e9b565b91507f45524337323155524953746f726167653a2055524920736574206f66206e6f6e60008301527f6578697374656e7420746f6b656e0000000000000000000000000000000000006020830152604082019050919050565b60006127da602083612e9b565b91507f4552433732313a206d696e7420746f20746865207a65726f20616464726573736000830152602082019050919050565b600061281a603183612e9b565b91507f45524337323155524953746f726167653a2055524920717565727920666f722060008301527f6e6f6e6578697374656e7420746f6b656e0000000000000000000000000000006020830152604082019050919050565b6000612880602c83612e9b565b91507f4552433732313a20617070726f76656420717565727920666f72206e6f6e657860008301527f697374656e7420746f6b656e00000000000000000000000000000000000000006020830152604082019050919050565b60006128e6602083612e9b565b91507f4f776e61626c653a2063616c6c6572206973206e6f7420746865206f776e65726000830152602082019050919050565b6000612926602983612e9b565b91507f4552433732313a207472616e73666572206f6620746f6b656e2074686174206960008301527f73206e6f74206f776e00000000000000000000000000000000000000000000006020830152604082019050919050565b600061298c602f83612e9b565b91507f4552433732314d657461646174613a2055524920717565727920666f72206e6f60008301527f6e6578697374656e7420746f6b656e00000000000000000000000000000000006020830152604082019050919050565b60006129f2602183612e9b565b91507f4552433732313a20617070726f76616c20746f2063757272656e74206f776e6560008301527f72000000000000000000000000000000000000000000000000000000000000006020830152604082019050919050565b6000612a58603183612e9b565b91507f4552433732313a207472616e736665722063616c6c6572206973206e6f74206f60008301527f776e6572206e6f7220617070726f7665640000000000000000000000000000006020830152604082019050919050565b612aba81612fee565b82525050565b6000612acc82856123ec565b9150612ad882846123ec565b91508190509392505050565b6000602082019050612af9600083018461235c565b92915050565b6000608082019050612b14600083018761235c565b612b21602083018661235c565b612b2e6040830185612ab1565b8181036060830152612b40818461237a565b905095945050505050565b6000602082019050612b60600083018461236b565b92915050565b60006020820190508181036000830152612b8081846123b3565b905092915050565b60006020820190508181036000830152612ba18161241d565b9050919050565b60006020820190508181036000830152612bc181612483565b9050919050565b60006020820190508181036000830152612be1816124e9565b9050919050565b60006020820190508181036000830152612c0181612529565b9050919050565b60006020820190508181036000830152612c218161258f565b9050919050565b60006020820190508181036000830152612c41816125cf565b9050919050565b60006020820190508181036000830152612c6181612635565b9050919050565b60006020820190508181036000830152612c818161269b565b9050919050565b60006020820190508181036000830152612ca181612701565b9050919050565b60006020820190508181036000830152612cc181612767565b9050919050565b60006020820190508181036000830152612ce1816127cd565b9050919050565b60006020820190508181036000830152612d018161280d565b9050919050565b60006020820190508181036000830152612d2181612873565b9050919050565b60006020820190508181036000830152612d41816128d9565b9050919050565b60006020820190508181036000830152612d6181612919565b9050919050565b60006020820190508181036000830152612d818161297f565b9050919050565b60006020820190508181036000830152612da1816129e5565b9050919050565b60006020820190508181036000830152612dc181612a4b565b9050919050565b6000602082019050612ddd6000830184612ab1565b92915050565b6000604051905081810181811067ffffffffffffffff82111715612e0a57612e09613173565b5b8060405250919050565b600067ffffffffffffffff821115612e2f57612e2e613173565b5b601f19601f8301169050602081019050919050565b600067ffffffffffffffff821115612e5f57612e5e613173565b5b601f19601f8301169050602081019050919050565b600081519050919050565b600081519050919050565b600082825260208201905092915050565b600082825260208201905092915050565b600081905092915050565b6000612ec282612fee565b9150612ecd83612fee565b9250827fffffffffffffffffffffffffffffffffffffffffffffffffffffffffffffffff03821115612f0257612f016130e6565b5b828201905092915050565b6000612f1882612fee565b9150612f2383612fee565b925082612f3357612f32613115565b5b828204905092915050565b6000612f4982612fee565b9150612f5483612fee565b925082821015612f6757612f666130e6565b5b828203905092915050565b6000612f7d82612fce565b9050919050565b60008115159050919050565b60007fffffffff0000000000000000000000000000000000000000000000000000000082169050919050565b6000612fc782612f72565b9050919050565b600073ffffffffffffffffffffffffffffffffffffffff82169050919050565b6000819050919050565b82818337600083830152505050565b60005b8381101561302557808201518184015260208101905061300a565b83811115613034576000848401525b50505050565b6000600282049050600182168061305257607f821691505b6020821081141561306657613065613144565b5b50919050565b600061307782612fee565b91507fffffffffffffffffffffffffffffffffffffffffffffffffffffffffffffffff8214156130aa576130a96130e6565b5b600182019050919050565b60006130c082612fee565b91506130cb83612fee565b9250826130db576130da613115565b5b828206905092915050565b7f4e487b7100000000000000000000000000000000000000000000000000000000600052601160045260246000fd5b7f4e487b7100000000000000000000000000000000000000000000000000000000600052601260045260246000fd5b7f4e487b7100000000000000000000000000000000000000000000000000000000600052602260045260246000fd5b7f4e487b7100000000000000000000000000000000000000000000000000000000600052604160045260246000fd5b6000601f19601f8301169050919050565b6131bc81612f72565b81146131c757600080fd5b50565b6131d381612f84565b81146131de57600080fd5b50565b6131ea81612f90565b81146131f557600080fd5b50565b61320181612fbc565b811461320c57600080fd5b50565b61321881612fee565b811461322357600080fd5b5056fe68747470733a2f2f676174657761792e70696e6174612e636c6f75642f697066732fa2646970667358221220185e5ba2bd2e2823f087cbb28d1e675dbe495181a7acb05315510fec2b5eafe964736f6c63430008000033",
  "immutableReferences": {},
  "source": "// SPDX-License-Identifier: MIT\r\npragma solidity ^0.8.0;\r\n\r\nimport \"@openzeppelin/contracts/token/ERC721/ERC721.sol\";\r\nimport \"@openzeppelin/contracts/access/Ownable.sol\";\r\nimport \"@openzeppelin/contracts/token/ERC721/extensions/ERC721URIStorage.sol\";\r\nimport \"./StringUtils.sol\";\r\n\r\ncontract OwnableDelegateProxy {}\r\n\r\ncontract ProxyRegistry {\r\n    mapping(address => OwnableDelegateProxy) public proxies;\r\n}\r\n\r\n/**-\r\n * @title ERC721Tradable\r\n * ERC721Tradable - ERC721 contract that whitelists a trading address, and has minting functionality.\r\n */\r\ncontract ERC721Tradable is ERC721, Ownable, ERC721URIStorage  {\r\n    using StringUtils for string;\r\n    address proxyRegistryAddress;\r\n    uint256 private tokenCounter;\r\n\r\n    constructor(\r\n        string memory _name,\r\n        string memory _symbol,\r\n        address _proxyRegistryAddress\r\n    ) public ERC721(_name, _symbol) {\r\n        proxyRegistryAddress = _proxyRegistryAddress;\r\n        tokenCounter = 0;\r\n    }\r\n\r\n    /**\r\n     * @dev Mints a token to an address with a tokenURI.\r\n     * @param _to address of the future owner of the token\r\n     */\r\n    function mintTo(address _to) public onlyOwner {\r\n        uint256 newTokenId = getTokenCounter();\r\n        _mint(_to, newTokenId);\r\n        _incrementTokenId();\r\n    }\r\n\r\n     function mintToken(address to, string memory _tokenURI) public returns (uint256){\r\n        uint256 newTokenId = tokenCounter;\r\n        _safeMint(to, newTokenId);\r\n        _setTokenURI(newTokenId, _tokenURI);\r\n        tokenCounter++;\r\n\r\n        return newTokenId;\r\n    }\r\n\r\n    /**\r\n     * @dev calculates the next token ID based on value of tokenCounter\r\n     * @return uint256 for the next token ID\r\n     */\r\n    function getTokenCounter() private returns (uint256) {\r\n        return tokenCounter;\r\n    }\r\n\r\n    /**\r\n     * @dev increments the value of tokenCounter\r\n     */\r\n    function _incrementTokenId() private {\r\n        tokenCounter++;\r\n    }\r\n\r\n    function safeMint(address to, uint256 tokenId) public onlyOwner {\r\n        _safeMint(to, tokenId);\r\n    }\r\n\r\n    function _baseURI() internal pure override returns (string memory) {\r\n        return \"https://gateway.pinata.cloud/ipfs/\";\r\n    }\r\n\r\n    function _burn(uint256 tokenId) internal override(ERC721, ERC721URIStorage) {\r\n        super._burn(tokenId);\r\n    }\r\n\r\n    function tokenURI(uint256 tokenId)\r\n        public\r\n        view\r\n        override(ERC721, ERC721URIStorage)\r\n        returns (string memory)\r\n    {\r\n        return super.tokenURI(tokenId);\r\n    }\r\n\r\n    /**\r\n     * Override isApprovedForAll to whitelist user's OpenSea proxy accounts to enable gas-less listings.\r\n     */\r\n    function isApprovedForAll(address owner, address operator) override\r\n        public\r\n        view\r\n        returns (bool)\r\n    {\r\n        // Whitelist OpenSea proxy contract for easy trading.\r\n        ProxyRegistry proxyRegistry = ProxyRegistry(proxyRegistryAddress);\r\n        if (address(proxyRegistry.proxies(owner)) == operator) {\r\n            return true;\r\n        }\r\n\r\n        return super.isApprovedForAll(owner, operator);\r\n    }\r\n}\r\n\r\n",
  "sourcePath": "C:\\Users\\editr\\OneDrive\\Desktop\\etherprojects\\SoulSwap\\contracts\\ERC721Tradable.sol",
  "compiler": {
    "name": "solc",
    "version": "0.8.0+commit.c7dfd78e.Emscripten.clang"
  },
  "schemaVersion": "3.3.3",
  "updatedAt": "2021-05-07T03:37:07.567Z",
  "devdoc": {
    "kind": "dev",
    "methods": {
      "approve(address,uint256)": {
        "details": "See {IERC721-approve}."
      },
      "balanceOf(address)": {
        "details": "See {IERC721-balanceOf}."
      },
      "getApproved(uint256)": {
        "details": "See {IERC721-getApproved}."
      },
      "mintTo(address)": {
        "details": "Mints a token to an address with a tokenURI.",
        "params": {
          "_to": "address of the future owner of the token"
        }
      },
      "name()": {
        "details": "See {IERC721Metadata-name}."
      },
      "owner()": {
        "details": "Returns the address of the current owner."
      },
      "ownerOf(uint256)": {
        "details": "See {IERC721-ownerOf}."
      },
      "renounceOwnership()": {
        "details": "Leaves the contract without owner. It will not be possible to call `onlyOwner` functions anymore. Can only be called by the current owner. NOTE: Renouncing ownership will leave the contract without an owner, thereby removing any functionality that is only available to the owner."
      },
      "safeTransferFrom(address,address,uint256)": {
        "details": "See {IERC721-safeTransferFrom}."
      },
      "safeTransferFrom(address,address,uint256,bytes)": {
        "details": "See {IERC721-safeTransferFrom}."
      },
      "setApprovalForAll(address,bool)": {
        "details": "See {IERC721-setApprovalForAll}."
      },
      "supportsInterface(bytes4)": {
        "details": "See {IERC165-supportsInterface}."
      },
      "symbol()": {
        "details": "See {IERC721Metadata-symbol}."
      },
      "transferFrom(address,address,uint256)": {
        "details": "See {IERC721-transferFrom}."
      },
      "transferOwnership(address)": {
        "details": "Transfers ownership of the contract to a new account (`newOwner`). Can only be called by the current owner."
      }
    },
    "title": "ERC721Tradable ERC721Tradable - ERC721 contract that whitelists a trading address, and has minting functionality.",
    "version": 1
  },
  "userdoc": {
    "kind": "user",
    "methods": {
      "isApprovedForAll(address,address)": {
        "notice": "Override isApprovedForAll to whitelist user's OpenSea proxy accounts to enable gas-less listings."
      }
    },
    "notice": "-",
    "version": 1
  }
}