{
  "contractName": "ERC721Tradable",
  "abi": [
    {
      "inputs": [
        {
          "internalType": "string",
          "name": "_name",
          "type": "string"
        },
        {
          "internalType": "string",
          "name": "_symbol",
          "type": "string"
        },
        {
          "internalType": "address",
          "name": "_proxyRegistryAddress",
          "type": "address"
        }
      ],
      "stateMutability": "nonpayable",
      "type": "constructor"
    },
    {
      "anonymous": false,
      "inputs": [
        {
          "indexed": true,
          "internalType": "address",
          "name": "owner",
          "type": "address"
        },
        {
          "indexed": true,
          "internalType": "address",
          "name": "approved",
          "type": "address"
        },
        {
          "indexed": true,
          "internalType": "uint256",
          "name": "tokenId",
          "type": "uint256"
        }
      ],
      "name": "Approval",
      "type": "event"
    },
    {
      "anonymous": false,
      "inputs": [
        {
          "indexed": true,
          "internalType": "address",
          "name": "owner",
          "type": "address"
        },
        {
          "indexed": true,
          "internalType": "address",
          "name": "operator",
          "type": "address"
        },
        {
          "indexed": false,
          "internalType": "bool",
          "name": "approved",
          "type": "bool"
        }
      ],
      "name": "ApprovalForAll",
      "type": "event"
    },
    {
      "anonymous": false,
      "inputs": [
        {
          "indexed": true,
          "internalType": "address",
          "name": "previousOwner",
          "type": "address"
        },
        {
          "indexed": true,
          "internalType": "address",
          "name": "newOwner",
          "type": "address"
        }
      ],
      "name": "OwnershipTransferred",
      "type": "event"
    },
    {
      "anonymous": false,
      "inputs": [
        {
          "indexed": true,
          "internalType": "address",
          "name": "from",
          "type": "address"
        },
        {
          "indexed": true,
          "internalType": "address",
          "name": "to",
          "type": "address"
        },
        {
          "indexed": true,
          "internalType": "uint256",
          "name": "tokenId",
          "type": "uint256"
        }
      ],
      "name": "Transfer",
      "type": "event"
    },
    {
      "inputs": [
        {
          "internalType": "address",
          "name": "to",
          "type": "address"
        },
        {
          "internalType": "uint256",
          "name": "tokenId",
          "type": "uint256"
        }
      ],
      "name": "approve",
      "outputs": [],
      "stateMutability": "nonpayable",
      "type": "function"
    },
    {
      "inputs": [
        {
          "internalType": "address",
          "name": "owner",
          "type": "address"
        }
      ],
      "name": "balanceOf",
      "outputs": [
        {
          "internalType": "uint256",
          "name": "",
          "type": "uint256"
        }
      ],
      "stateMutability": "view",
      "type": "function"
    },
    {
      "inputs": [
        {
          "internalType": "uint256",
          "name": "tokenId",
          "type": "uint256"
        }
      ],
      "name": "getApproved",
      "outputs": [
        {
          "internalType": "address",
          "name": "",
          "type": "address"
        }
      ],
      "stateMutability": "view",
      "type": "function"
    },
    {
      "inputs": [],
      "name": "name",
      "outputs": [
        {
          "internalType": "string",
          "name": "",
          "type": "string"
        }
      ],
      "stateMutability": "view",
      "type": "function"
    },
    {
      "inputs": [],
      "name": "owner",
      "outputs": [
        {
          "internalType": "address",
          "name": "",
          "type": "address"
        }
      ],
      "stateMutability": "view",
      "type": "function"
    },
    {
      "inputs": [
        {
          "internalType": "uint256",
          "name": "tokenId",
          "type": "uint256"
        }
      ],
      "name": "ownerOf",
      "outputs": [
        {
          "internalType": "address",
          "name": "",
          "type": "address"
        }
      ],
      "stateMutability": "view",
      "type": "function"
    },
    {
      "inputs": [],
      "name": "renounceOwnership",
      "outputs": [],
      "stateMutability": "nonpayable",
      "type": "function"
    },
    {
      "inputs": [
        {
          "internalType": "address",
          "name": "from",
          "type": "address"
        },
        {
          "internalType": "address",
          "name": "to",
          "type": "address"
        },
        {
          "internalType": "uint256",
          "name": "tokenId",
          "type": "uint256"
        }
      ],
      "name": "safeTransferFrom",
      "outputs": [],
      "stateMutability": "nonpayable",
      "type": "function"
    },
    {
      "inputs": [
        {
          "internalType": "address",
          "name": "from",
          "type": "address"
        },
        {
          "internalType": "address",
          "name": "to",
          "type": "address"
        },
        {
          "internalType": "uint256",
          "name": "tokenId",
          "type": "uint256"
        },
        {
          "internalType": "bytes",
          "name": "_data",
          "type": "bytes"
        }
      ],
      "name": "safeTransferFrom",
      "outputs": [],
      "stateMutability": "nonpayable",
      "type": "function"
    },
    {
      "inputs": [
        {
          "internalType": "address",
          "name": "operator",
          "type": "address"
        },
        {
          "internalType": "bool",
          "name": "approved",
          "type": "bool"
        }
      ],
      "name": "setApprovalForAll",
      "outputs": [],
      "stateMutability": "nonpayable",
      "type": "function"
    },
    {
      "inputs": [
        {
          "internalType": "bytes4",
          "name": "interfaceId",
          "type": "bytes4"
        }
      ],
      "name": "supportsInterface",
      "outputs": [
        {
          "internalType": "bool",
          "name": "",
          "type": "bool"
        }
      ],
      "stateMutability": "view",
      "type": "function"
    },
    {
      "inputs": [],
      "name": "symbol",
      "outputs": [
        {
          "internalType": "string",
          "name": "",
          "type": "string"
        }
      ],
      "stateMutability": "view",
      "type": "function"
    },
    {
      "inputs": [
        {
          "internalType": "uint256",
          "name": "",
          "type": "uint256"
        }
      ],
      "name": "tokenSupply",
      "outputs": [
        {
          "internalType": "uint256",
          "name": "",
          "type": "uint256"
        }
      ],
      "stateMutability": "view",
      "type": "function"
    },
    {
      "inputs": [
        {
          "internalType": "address",
          "name": "from",
          "type": "address"
        },
        {
          "internalType": "address",
          "name": "to",
          "type": "address"
        },
        {
          "internalType": "uint256",
          "name": "tokenId",
          "type": "uint256"
        }
      ],
      "name": "transferFrom",
      "outputs": [],
      "stateMutability": "nonpayable",
      "type": "function"
    },
    {
      "inputs": [
        {
          "internalType": "address",
          "name": "newOwner",
          "type": "address"
        }
      ],
      "name": "transferOwnership",
      "outputs": [],
      "stateMutability": "nonpayable",
      "type": "function"
    },
    {
      "inputs": [
        {
          "internalType": "address",
          "name": "_to",
          "type": "address"
        }
      ],
      "name": "mintTo",
      "outputs": [],
      "stateMutability": "nonpayable",
      "type": "function"
    },
    {
      "inputs": [
        {
          "internalType": "uint256",
          "name": "_id",
          "type": "uint256"
        }
      ],
      "name": "totalSupply",
      "outputs": [
        {
          "internalType": "uint256",
          "name": "",
          "type": "uint256"
        }
      ],
      "stateMutability": "view",
      "type": "function"
    },
    {
      "inputs": [],
      "name": "baseTokenURI",
      "outputs": [
        {
          "internalType": "string",
          "name": "",
          "type": "string"
        }
      ],
      "stateMutability": "pure",
      "type": "function"
    },
    {
      "inputs": [
        {
          "internalType": "uint256",
          "name": "_tokenId",
          "type": "uint256"
        }
      ],
      "name": "tokenURI",
      "outputs": [
        {
          "internalType": "string",
          "name": "",
          "type": "string"
        }
      ],
      "stateMutability": "pure",
      "type": "function"
    },
    {
      "inputs": [
        {
          "internalType": "address",
          "name": "owner",
          "type": "address"
        },
        {
          "internalType": "address",
          "name": "operator",
          "type": "address"
        }
      ],
      "name": "isApprovedForAll",
      "outputs": [
        {
          "internalType": "bool",
          "name": "",
          "type": "bool"
        }
      ],
      "stateMutability": "view",
      "type": "function"
    }
  ],
  "bytecode": "0x608060405260006008553480156200001657600080fd5b50604051620037863803806200378683398181016040528101906200003c9190620002ae565b828281600090805190602001906200005692919062000175565b5080600190805190602001906200006f92919062000175565b5050506000620000846200016d60201b60201c565b905080600660006101000a81548173ffffffffffffffffffffffffffffffffffffffff021916908373ffffffffffffffffffffffffffffffffffffffff1602179055508073ffffffffffffffffffffffffffffffffffffffff16600073ffffffffffffffffffffffffffffffffffffffff167f8be0079c531659141344cd1fd0a4f28419497f9722a3daafe3b4186f6b6457e060405160405180910390a35080600760006101000a81548173ffffffffffffffffffffffffffffffffffffffff021916908373ffffffffffffffffffffffffffffffffffffffff160217905550505050620004f4565b600033905090565b8280546200018390620003ff565b90600052602060002090601f016020900481019282620001a75760008555620001f3565b82601f10620001c257805160ff1916838001178555620001f3565b82800160010185558215620001f3579182015b82811115620001f2578251825591602001919060010190620001d5565b5b50905062000202919062000206565b5090565b5b808211156200022157600081600090555060010162000207565b5090565b60006200023c62000236846200035f565b62000336565b9050828152602081018484840111156200025557600080fd5b62000262848285620003c9565b509392505050565b6000815190506200027b81620004da565b92915050565b600082601f8301126200029357600080fd5b8151620002a584826020860162000225565b91505092915050565b600080600060608486031215620002c457600080fd5b600084015167ffffffffffffffff811115620002df57600080fd5b620002ed8682870162000281565b935050602084015167ffffffffffffffff8111156200030b57600080fd5b620003198682870162000281565b92505060406200032c868287016200026a565b9150509250925092565b60006200034262000355565b905062000350828262000435565b919050565b6000604051905090565b600067ffffffffffffffff8211156200037d576200037c6200049a565b5b6200038882620004c9565b9050602081019050919050565b6000620003a282620003a9565b9050919050565b600073ffffffffffffffffffffffffffffffffffffffff82169050919050565b60005b83811015620003e9578082015181840152602081019050620003cc565b83811115620003f9576000848401525b50505050565b600060028204905060018216806200041857607f821691505b602082108114156200042f576200042e6200046b565b5b50919050565b6200044082620004c9565b810181811067ffffffffffffffff821117156200046257620004616200049a565b5b80604052505050565b7f4e487b7100000000000000000000000000000000000000000000000000000000600052602260045260246000fd5b7f4e487b7100000000000000000000000000000000000000000000000000000000600052604160045260246000fd5b6000601f19601f8301169050919050565b620004e58162000395565b8114620004f157600080fd5b50565b61328280620005046000396000f3fe608060405234801561001057600080fd5b506004361061012c5760003560e01c8063755edd17116100ad578063bd85b03911610071578063bd85b0391461032d578063c87b56dd1461035d578063d547cfb71461038d578063e985e9c5146103ab578063f2fde38b146103db5761012c565b8063755edd171461029d5780638da5cb5b146102b957806395d89b41146102d7578063a22cb465146102f5578063b88d4fde146103115761012c565b80632693ebf2116100f45780632693ebf2146101e757806342842e0e146102175780636352211e1461023357806370a0823114610263578063715018a6146102935761012c565b806301ffc9a71461013157806306fdde0314610161578063081812fc1461017f578063095ea7b3146101af57806323b872dd146101cb575b600080fd5b61014b600480360381019061014691906123b9565b6103f7565b6040516101589190612770565b60405180910390f35b6101696104d9565b604051610176919061278b565b60405180910390f35b61019960048036038101906101949190612434565b61056b565b6040516101a69190612709565b60405180910390f35b6101c960048036038101906101c4919061237d565b6105f0565b005b6101e560048036038101906101e09190612277565b610708565b005b61020160048036038101906101fc9190612434565b610768565b60405161020e919061298d565b60405180910390f35b610231600480360381019061022c9190612277565b610780565b005b61024d60048036038101906102489190612434565b6107a0565b60405161025a9190612709565b60405180910390f35b61027d60048036038101906102789190612212565b610852565b60405161028a919061298d565b60405180910390f35b61029b61090a565b005b6102b760048036038101906102b29190612212565b610a47565b005b6102c1610ae5565b6040516102ce9190612709565b60405180910390f35b6102df610b0f565b6040516102ec919061278b565b60405180910390f35b61030f600480360381019061030a9190612341565b610ba1565b005b61032b600480360381019061032691906122c6565b610d22565b005b61034760048036038101906103429190612434565b610d84565b604051610354919061298d565b60405180910390f35b61037760048036038101906103729190612434565b610da1565b604051610384919061278b565b60405180910390f35b610395610dc3565b6040516103a2919061278b565b60405180910390f35b6103c560048036038101906103c0919061223b565b610dda565b6040516103d29190612770565b60405180910390f35b6103f560048036038101906103f09190612212565b610edc565b005b60007f80ac58cd000000000000000000000000000000000000000000000000000000007bffffffffffffffffffffffffffffffffffffffffffffffffffffffff1916827bffffffffffffffffffffffffffffffffffffffffffffffffffffffff191614806104c257507f5b5e139f000000000000000000000000000000000000000000000000000000007bffffffffffffffffffffffffffffffffffffffffffffffffffffffff1916827bffffffffffffffffffffffffffffffffffffffffffffffffffffffff1916145b806104d257506104d182611088565b5b9050919050565b6060600080546104e890612c57565b80601f016020809104026020016040519081016040528092919081815260200182805461051490612c57565b80156105615780601f1061053657610100808354040283529160200191610561565b820191906000526020600020905b81548152906001019060200180831161054457829003601f168201915b5050505050905090565b6000610576826110f2565b6105b5576040517f08c379a00000000000000000000000000000000000000000000000000000000081526004016105ac906128ed565b60405180910390fd5b6004600083815260200190815260200160002060009054906101000a900473ffffffffffffffffffffffffffffffffffffffff169050919050565b60006105fb826107a0565b90508073ffffffffffffffffffffffffffffffffffffffff168373ffffffffffffffffffffffffffffffffffffffff16141561066c576040517f08c379a00000000000000000000000000000000000000000000000000000000081526004016106639061294d565b60405180910390fd5b8073ffffffffffffffffffffffffffffffffffffffff1661068b61115e565b73ffffffffffffffffffffffffffffffffffffffff1614806106ba57506106b9816106b461115e565b611166565b5b6106f9576040517f08c379a00000000000000000000000000000000000000000000000000000000081526004016106f09061286d565b60405180910390fd5b61070383836111fa565b505050565b61071961071361115e565b826112b3565b610758576040517f08c379a000000000000000000000000000000000000000000000000000000000815260040161074f9061296d565b60405180910390fd5b610763838383611391565b505050565b60096020528060005260406000206000915090505481565b61079b83838360405180602001604052806000815250610d22565b505050565b6000806002600084815260200190815260200160002060009054906101000a900473ffffffffffffffffffffffffffffffffffffffff169050600073ffffffffffffffffffffffffffffffffffffffff168173ffffffffffffffffffffffffffffffffffffffff161415610849576040517f08c379a0000000000000000000000000000000000000000000000000000000008152600401610840906128ad565b60405180910390fd5b80915050919050565b60008073ffffffffffffffffffffffffffffffffffffffff168273ffffffffffffffffffffffffffffffffffffffff1614156108c3576040517f08c379a00000000000000000000000000000000000000000000000000000000081526004016108ba9061288d565b60405180910390fd5b600360008373ffffffffffffffffffffffffffffffffffffffff1673ffffffffffffffffffffffffffffffffffffffff168152602001908152602001600020549050919050565b61091261115e565b73ffffffffffffffffffffffffffffffffffffffff16610930610ae5565b73ffffffffffffffffffffffffffffffffffffffff1614610986576040517f08c379a000000000000000000000000000000000000000000000000000000000815260040161097d9061290d565b60405180910390fd5b600073ffffffffffffffffffffffffffffffffffffffff16600660009054906101000a900473ffffffffffffffffffffffffffffffffffffffff1673ffffffffffffffffffffffffffffffffffffffff167f8be0079c531659141344cd1fd0a4f28419497f9722a3daafe3b4186f6b6457e060405160405180910390a36000600660006101000a81548173ffffffffffffffffffffffffffffffffffffffff021916908373ffffffffffffffffffffffffffffffffffffffff160217905550565b610a4f61115e565b73ffffffffffffffffffffffffffffffffffffffff16610a6d610ae5565b73ffffffffffffffffffffffffffffffffffffffff1614610ac3576040517f08c379a0000000000000000000000000000000000000000000000000000000008152600401610aba9061290d565b60405180910390fd5b6000610acd6115ed565b9050610ad9828261160b565b610ae16117d9565b5050565b6000600660009054906101000a900473ffffffffffffffffffffffffffffffffffffffff16905090565b606060018054610b1e90612c57565b80601f0160208091040260200160405190810160405280929190818152602001828054610b4a90612c57565b8015610b975780601f10610b6c57610100808354040283529160200191610b97565b820191906000526020600020905b815481529060010190602001808311610b7a57829003601f168201915b5050505050905090565b610ba961115e565b73ffffffffffffffffffffffffffffffffffffffff168273ffffffffffffffffffffffffffffffffffffffff161415610c17576040517f08c379a0000000000000000000000000000000000000000000000000000000008152600401610c0e9061282d565b60405180910390fd5b8060056000610c2461115e565b73ffffffffffffffffffffffffffffffffffffffff1673ffffffffffffffffffffffffffffffffffffffff16815260200190815260200160002060008473ffffffffffffffffffffffffffffffffffffffff1673ffffffffffffffffffffffffffffffffffffffff16815260200190815260200160002060006101000a81548160ff0219169083151502179055508173ffffffffffffffffffffffffffffffffffffffff16610cd161115e565b73ffffffffffffffffffffffffffffffffffffffff167f17307eab39ab6107e8899845ad3d59bd9653f200f220920489ca2b5937696c3183604051610d169190612770565b60405180910390a35050565b610d33610d2d61115e565b836112b3565b610d72576040517f08c379a0000000000000000000000000000000000000000000000000000000008152600401610d699061296d565b60405180910390fd5b610d7e848484846117f3565b50505050565b600060096000838152602001908152602001600020549050919050565b6060610dbc610dae610dc3565b610db78461184f565b611a24565b9050919050565b606060405180602001604052806000815250905090565b600080600760009054906101000a900473ffffffffffffffffffffffffffffffffffffffff1690508273ffffffffffffffffffffffffffffffffffffffff168173ffffffffffffffffffffffffffffffffffffffff1663c4552791866040518263ffffffff1660e01b8152600401610e529190612709565b60206040518083038186803b158015610e6a57600080fd5b505afa158015610e7e573d6000803e3d6000fd5b505050506040513d601f19601f82011682018060405250810190610ea2919061240b565b73ffffffffffffffffffffffffffffffffffffffff161415610ec8576001915050610ed6565b610ed28484611166565b9150505b92915050565b610ee461115e565b73ffffffffffffffffffffffffffffffffffffffff16610f02610ae5565b73ffffffffffffffffffffffffffffffffffffffff1614610f58576040517f08c379a0000000000000000000000000000000000000000000000000000000008152600401610f4f9061290d565b60405180910390fd5b600073ffffffffffffffffffffffffffffffffffffffff168173ffffffffffffffffffffffffffffffffffffffff161415610fc8576040517f08c379a0000000000000000000000000000000000000000000000000000000008152600401610fbf906127cd565b60405180910390fd5b8073ffffffffffffffffffffffffffffffffffffffff16600660009054906101000a900473ffffffffffffffffffffffffffffffffffffffff1673ffffffffffffffffffffffffffffffffffffffff167f8be0079c531659141344cd1fd0a4f28419497f9722a3daafe3b4186f6b6457e060405160405180910390a380600660006101000a81548173ffffffffffffffffffffffffffffffffffffffff021916908373ffffffffffffffffffffffffffffffffffffffff16021790555050565b60007f01ffc9a7000000000000000000000000000000000000000000000000000000007bffffffffffffffffffffffffffffffffffffffffffffffffffffffff1916827bffffffffffffffffffffffffffffffffffffffffffffffffffffffff1916149050919050565b60008073ffffffffffffffffffffffffffffffffffffffff166002600084815260200190815260200160002060009054906101000a900473ffffffffffffffffffffffffffffffffffffffff1673ffffffffffffffffffffffffffffffffffffffff1614159050919050565b600033905090565b6000600560008473ffffffffffffffffffffffffffffffffffffffff1673ffffffffffffffffffffffffffffffffffffffff16815260200190815260200160002060008373ffffffffffffffffffffffffffffffffffffffff1673ffffffffffffffffffffffffffffffffffffffff16815260200190815260200160002060009054906101000a900460ff16905092915050565b816004600083815260200190815260200160002060006101000a81548173ffffffffffffffffffffffffffffffffffffffff021916908373ffffffffffffffffffffffffffffffffffffffff160217905550808273ffffffffffffffffffffffffffffffffffffffff1661126d836107a0565b73ffffffffffffffffffffffffffffffffffffffff167f8c5be1e5ebec7d5bd14f71427d1e84f3dd0314c0f7b2291e5b200ac8c7c3b92560405160405180910390a45050565b60006112be826110f2565b6112fd576040517f08c379a00000000000000000000000000000000000000000000000000000000081526004016112f49061284d565b60405180910390fd5b6000611308836107a0565b90508073ffffffffffffffffffffffffffffffffffffffff168473ffffffffffffffffffffffffffffffffffffffff16148061137757508373ffffffffffffffffffffffffffffffffffffffff1661135f8461056b565b73ffffffffffffffffffffffffffffffffffffffff16145b8061138857506113878185611166565b5b91505092915050565b8273ffffffffffffffffffffffffffffffffffffffff166113b1826107a0565b73ffffffffffffffffffffffffffffffffffffffff1614611407576040517f08c379a00000000000000000000000000000000000000000000000000000000081526004016113fe9061292d565b60405180910390fd5b600073ffffffffffffffffffffffffffffffffffffffff168273ffffffffffffffffffffffffffffffffffffffff161415611477576040517f08c379a000000000000000000000000000000000000000000000000000000000815260040161146e9061280d565b60405180910390fd5b611482838383611a68565b61148d6000826111fa565b6001600360008573ffffffffffffffffffffffffffffffffffffffff1673ffffffffffffffffffffffffffffffffffffffff16815260200190815260200160002060008282546114dd9190612b4e565b925050819055506001600360008473ffffffffffffffffffffffffffffffffffffffff1673ffffffffffffffffffffffffffffffffffffffff16815260200190815260200160002060008282546115349190612a36565b92505081905550816002600083815260200190815260200160002060006101000a81548173ffffffffffffffffffffffffffffffffffffffff021916908373ffffffffffffffffffffffffffffffffffffffff160217905550808273ffffffffffffffffffffffffffffffffffffffff168473ffffffffffffffffffffffffffffffffffffffff167fddf252ad1be2c89b69c2b068fc378daa952ba7f163c4a11628f55a4df523b3ef60405160405180910390a4505050565b60006008600081548092919061160290612cba565b91905055905090565b600073ffffffffffffffffffffffffffffffffffffffff168273ffffffffffffffffffffffffffffffffffffffff16141561167b576040517f08c379a0000000000000000000000000000000000000000000000000000000008152600401611672906128cd565b60405180910390fd5b611684816110f2565b156116c4576040517f08c379a00000000000000000000000000000000000000000000000000000000081526004016116bb906127ed565b60405180910390fd5b6116d060008383611a68565b6001600360008473ffffffffffffffffffffffffffffffffffffffff1673ffffffffffffffffffffffffffffffffffffffff16815260200190815260200160002060008282546117209190612a36565b92505081905550816002600083815260200190815260200160002060006101000a81548173ffffffffffffffffffffffffffffffffffffffff021916908373ffffffffffffffffffffffffffffffffffffffff160217905550808273ffffffffffffffffffffffffffffffffffffffff16600073ffffffffffffffffffffffffffffffffffffffff167fddf252ad1be2c89b69c2b068fc378daa952ba7f163c4a11628f55a4df523b3ef60405160405180910390a45050565b600860008154809291906117ec90612cba565b9190505550565b6117fe848484611391565b61180a84848484611a6d565b611849576040517f08c379a0000000000000000000000000000000000000000000000000000000008152600401611840906127ad565b60405180910390fd5b50505050565b60606000821415611897576040518060400160405280600181526020017f30000000000000000000000000000000000000000000000000000000000000008152509050611a1f565b600082905060005b600082146118c95780806118b290612cba565b915050600a826118c29190612ac3565b915061189f565b60008167ffffffffffffffff81111561190b577f4e487b7100000000000000000000000000000000000000000000000000000000600052604160045260246000fd5b6040519080825280601f01601f19166020018201604052801561193d5781602001600182028036833780820191505090505b50905060008290505b60008614611a175760018161195b9190612b4e565b90506000600a808861196d9190612ac3565b6119779190612af4565b876119829190612b4e565b603061198e9190612a8c565b905060008160f81b9050808484815181106119d2577f4e487b7100000000000000000000000000000000000000000000000000000000600052603260045260246000fd5b60200101907effffffffffffffffffffffffffffffffffffffffffffffffffffffffffffff1916908160001a905350600a88611a0e9190612ac3565b97505050611946565b819450505050505b919050565b6060611a608383604051806020016040528060008152506040518060200160405280600081525060405180602001604052806000815250611c04565b905092915050565b505050565b6000611a8e8473ffffffffffffffffffffffffffffffffffffffff16612119565b15611bf7578373ffffffffffffffffffffffffffffffffffffffff1663150b7a02611ab761115e565b8786866040518563ffffffff1660e01b8152600401611ad99493929190612724565b602060405180830381600087803b158015611af357600080fd5b505af1925050508015611b2457506040513d601f19601f82011682018060405250810190611b2191906123e2565b60015b611ba7573d8060008114611b54576040519150601f19603f3d011682016040523d82523d6000602084013e611b59565b606091505b50600081511415611b9f576040517f08c379a0000000000000000000000000000000000000000000000000000000008152600401611b96906127ad565b60405180910390fd5b805181602001fd5b63150b7a0260e01b7bffffffffffffffffffffffffffffffffffffffffffffffffffffffff1916817bffffffffffffffffffffffffffffffffffffffffffffffffffffffff191614915050611bfc565b600190505b949350505050565b606060008690506000869050600086905060008690506000869050600081518351855187518951611c359190612a36565b611c3f9190612a36565b611c499190612a36565b611c539190612a36565b67ffffffffffffffff811115611c92577f4e487b7100000000000000000000000000000000000000000000000000000000600052604160045260246000fd5b6040519080825280601f01601f191660200182016040528015611cc45781602001600182028036833780820191505090505b50905060008190506000805b8851811015611da457888181518110611d12577f4e487b7100000000000000000000000000000000000000000000000000000000600052603260045260246000fd5b602001015160f81c60f81b838380611d2990612cba565b945081518110611d62577f4e487b7100000000000000000000000000000000000000000000000000000000600052603260045260246000fd5b60200101907effffffffffffffffffffffffffffffffffffffffffffffffffffffffffffff1916908160001a9053508080611d9c90612cba565b915050611cd0565b5060005b8751811015611e7c57878181518110611dea577f4e487b7100000000000000000000000000000000000000000000000000000000600052603260045260246000fd5b602001015160f81c60f81b838380611e0190612cba565b945081518110611e3a577f4e487b7100000000000000000000000000000000000000000000000000000000600052603260045260246000fd5b60200101907effffffffffffffffffffffffffffffffffffffffffffffffffffffffffffff1916908160001a9053508080611e7490612cba565b915050611da8565b5060005b8651811015611f5457868181518110611ec2577f4e487b7100000000000000000000000000000000000000000000000000000000600052603260045260246000fd5b602001015160f81c60f81b838380611ed990612cba565b945081518110611f12577f4e487b7100000000000000000000000000000000000000000000000000000000600052603260045260246000fd5b60200101907effffffffffffffffffffffffffffffffffffffffffffffffffffffffffffff1916908160001a9053508080611f4c90612cba565b915050611e80565b5060005b855181101561202c57858181518110611f9a577f4e487b7100000000000000000000000000000000000000000000000000000000600052603260045260246000fd5b602001015160f81c60f81b838380611fb190612cba565b945081518110611fea577f4e487b7100000000000000000000000000000000000000000000000000000000600052603260045260246000fd5b60200101907effffffffffffffffffffffffffffffffffffffffffffffffffffffffffffff1916908160001a905350808061202490612cba565b915050611f58565b5060005b845181101561210457848181518110612072577f4e487b7100000000000000000000000000000000000000000000000000000000600052603260045260246000fd5b602001015160f81c60f81b83838061208990612cba565b9450815181106120c2577f4e487b7100000000000000000000000000000000000000000000000000000000600052603260045260246000fd5b60200101907effffffffffffffffffffffffffffffffffffffffffffffffffffffffffffff1916908160001a90535080806120fc90612cba565b915050612030565b50819850505050505050505095945050505050565b600080823b905060008111915050919050565b600061213f61213a846129cd565b6129a8565b90508281526020810184848401111561215757600080fd5b612162848285612c15565b509392505050565b600081359050612179816131d9565b92915050565b60008135905061218e816131f0565b92915050565b6000813590506121a381613207565b92915050565b6000815190506121b881613207565b92915050565b600082601f8301126121cf57600080fd5b81356121df84826020860161212c565b91505092915050565b6000815190506121f78161321e565b92915050565b60008135905061220c81613235565b92915050565b60006020828403121561222457600080fd5b60006122328482850161216a565b91505092915050565b6000806040838503121561224e57600080fd5b600061225c8582860161216a565b925050602061226d8582860161216a565b9150509250929050565b60008060006060848603121561228c57600080fd5b600061229a8682870161216a565b93505060206122ab8682870161216a565b92505060406122bc868287016121fd565b9150509250925092565b600080600080608085870312156122dc57600080fd5b60006122ea8782880161216a565b94505060206122fb8782880161216a565b935050604061230c878288016121fd565b925050606085013567ffffffffffffffff81111561232957600080fd5b612335878288016121be565b91505092959194509250565b6000806040838503121561235457600080fd5b60006123628582860161216a565b92505060206123738582860161217f565b9150509250929050565b6000806040838503121561239057600080fd5b600061239e8582860161216a565b92505060206123af858286016121fd565b9150509250929050565b6000602082840312156123cb57600080fd5b60006123d984828501612194565b91505092915050565b6000602082840312156123f457600080fd5b6000612402848285016121a9565b91505092915050565b60006020828403121561241d57600080fd5b600061242b848285016121e8565b91505092915050565b60006020828403121561244657600080fd5b6000612454848285016121fd565b91505092915050565b61246681612b82565b82525050565b61247581612b94565b82525050565b6000612486826129fe565b6124908185612a14565b93506124a0818560208601612c24565b6124a981612dbf565b840191505092915050565b60006124bf82612a09565b6124c98185612a25565b93506124d9818560208601612c24565b6124e281612dbf565b840191505092915050565b60006124fa603283612a25565b915061250582612dd0565b604082019050919050565b600061251d602683612a25565b915061252882612e1f565b604082019050919050565b6000612540601c83612a25565b915061254b82612e6e565b602082019050919050565b6000612563602483612a25565b915061256e82612e97565b604082019050919050565b6000612586601983612a25565b915061259182612ee6565b602082019050919050565b60006125a9602c83612a25565b91506125b482612f0f565b604082019050919050565b60006125cc603883612a25565b91506125d782612f5e565b604082019050919050565b60006125ef602a83612a25565b91506125fa82612fad565b604082019050919050565b6000612612602983612a25565b915061261d82612ffc565b604082019050919050565b6000612635602083612a25565b91506126408261304b565b602082019050919050565b6000612658602c83612a25565b915061266382613074565b604082019050919050565b600061267b602083612a25565b9150612686826130c3565b602082019050919050565b600061269e602983612a25565b91506126a9826130ec565b604082019050919050565b60006126c1602183612a25565b91506126cc8261313b565b604082019050919050565b60006126e4603183612a25565b91506126ef8261318a565b604082019050919050565b61270381612bfe565b82525050565b600060208201905061271e600083018461245d565b92915050565b6000608082019050612739600083018761245d565b612746602083018661245d565b61275360408301856126fa565b8181036060830152612765818461247b565b905095945050505050565b6000602082019050612785600083018461246c565b92915050565b600060208201905081810360008301526127a581846124b4565b905092915050565b600060208201905081810360008301526127c6816124ed565b9050919050565b600060208201905081810360008301526127e681612510565b9050919050565b6000602082019050818103600083015261280681612533565b9050919050565b6000602082019050818103600083015261282681612556565b9050919050565b6000602082019050818103600083015261284681612579565b9050919050565b600060208201905081810360008301526128668161259c565b9050919050565b60006020820190508181036000830152612886816125bf565b9050919050565b600060208201905081810360008301526128a6816125e2565b9050919050565b600060208201905081810360008301526128c681612605565b9050919050565b600060208201905081810360008301526128e681612628565b9050919050565b600060208201905081810360008301526129068161264b565b9050919050565b600060208201905081810360008301526129268161266e565b9050919050565b6000602082019050818103600083015261294681612691565b9050919050565b60006020820190508181036000830152612966816126b4565b9050919050565b60006020820190508181036000830152612986816126d7565b9050919050565b60006020820190506129a260008301846126fa565b92915050565b60006129b26129c3565b90506129be8282612c89565b919050565b6000604051905090565b600067ffffffffffffffff8211156129e8576129e7612d90565b5b6129f182612dbf565b9050602081019050919050565b600081519050919050565b600081519050919050565b600082825260208201905092915050565b600082825260208201905092915050565b6000612a4182612bfe565b9150612a4c83612bfe565b9250827fffffffffffffffffffffffffffffffffffffffffffffffffffffffffffffffff03821115612a8157612a80612d03565b5b828201905092915050565b6000612a9782612c08565b9150612aa283612c08565b92508260ff03821115612ab857612ab7612d03565b5b828201905092915050565b6000612ace82612bfe565b9150612ad983612bfe565b925082612ae957612ae8612d32565b5b828204905092915050565b6000612aff82612bfe565b9150612b0a83612bfe565b9250817fffffffffffffffffffffffffffffffffffffffffffffffffffffffffffffffff0483118215151615612b4357612b42612d03565b5b828202905092915050565b6000612b5982612bfe565b9150612b6483612bfe565b925082821015612b7757612b76612d03565b5b828203905092915050565b6000612b8d82612bde565b9050919050565b60008115159050919050565b60007fffffffff0000000000000000000000000000000000000000000000000000000082169050919050565b6000612bd782612b82565b9050919050565b600073ffffffffffffffffffffffffffffffffffffffff82169050919050565b6000819050919050565b600060ff82169050919050565b82818337600083830152505050565b60005b83811015612c42578082015181840152602081019050612c27565b83811115612c51576000848401525b50505050565b60006002820490506001821680612c6f57607f821691505b60208210811415612c8357612c82612d61565b5b50919050565b612c9282612dbf565b810181811067ffffffffffffffff82111715612cb157612cb0612d90565b5b80604052505050565b6000612cc582612bfe565b91507fffffffffffffffffffffffffffffffffffffffffffffffffffffffffffffffff821415612cf857612cf7612d03565b5b600182019050919050565b7f4e487b7100000000000000000000000000000000000000000000000000000000600052601160045260246000fd5b7f4e487b7100000000000000000000000000000000000000000000000000000000600052601260045260246000fd5b7f4e487b7100000000000000000000000000000000000000000000000000000000600052602260045260246000fd5b7f4e487b7100000000000000000000000000000000000000000000000000000000600052604160045260246000fd5b6000601f19601f8301169050919050565b7f4552433732313a207472616e7366657220746f206e6f6e20455243373231526560008201527f63656976657220696d706c656d656e7465720000000000000000000000000000602082015250565b7f4f776e61626c653a206e6577206f776e657220697320746865207a65726f206160008201527f6464726573730000000000000000000000000000000000000000000000000000602082015250565b7f4552433732313a20746f6b656e20616c7265616479206d696e74656400000000600082015250565b7f4552433732313a207472616e7366657220746f20746865207a65726f2061646460008201527f7265737300000000000000000000000000000000000000000000000000000000602082015250565b7f4552433732313a20617070726f766520746f2063616c6c657200000000000000600082015250565b7f4552433732313a206f70657261746f7220717565727920666f72206e6f6e657860008201527f697374656e7420746f6b656e0000000000000000000000000000000000000000602082015250565b7f4552433732313a20617070726f76652063616c6c6572206973206e6f74206f7760008201527f6e6572206e6f7220617070726f76656420666f7220616c6c0000000000000000602082015250565b7f4552433732313a2062616c616e636520717565727920666f7220746865207a6560008201527f726f206164647265737300000000000000000000000000000000000000000000602082015250565b7f4552433732313a206f776e657220717565727920666f72206e6f6e657869737460008201527f656e7420746f6b656e0000000000000000000000000000000000000000000000602082015250565b7f4552433732313a206d696e7420746f20746865207a65726f2061646472657373600082015250565b7f4552433732313a20617070726f76656420717565727920666f72206e6f6e657860008201527f697374656e7420746f6b656e0000000000000000000000000000000000000000602082015250565b7f4f776e61626c653a2063616c6c6572206973206e6f7420746865206f776e6572600082015250565b7f4552433732313a207472616e73666572206f6620746f6b656e2074686174206960008201527f73206e6f74206f776e0000000000000000000000000000000000000000000000602082015250565b7f4552433732313a20617070726f76616c20746f2063757272656e74206f776e6560008201527f7200000000000000000000000000000000000000000000000000000000000000602082015250565b7f4552433732313a207472616e736665722063616c6c6572206973206e6f74206f60008201527f776e6572206e6f7220617070726f766564000000000000000000000000000000602082015250565b6131e281612b82565b81146131ed57600080fd5b50565b6131f981612b94565b811461320457600080fd5b50565b61321081612ba0565b811461321b57600080fd5b50565b61322781612bcc565b811461323257600080fd5b50565b61323e81612bfe565b811461324957600080fd5b5056fea2646970667358221220dfb9f0d8b610da20b1855eba8614a9716e16f6eb7117ceaaebeac5aed26efbb764736f6c63430008030033",
  "immutableReferences": {},
  "source": "// SPDX-License-Identifier: MIT\r\npragma solidity ^0.8.3;\r\n\r\nimport \"@openzeppelin/contracts/token/ERC721/ERC721.sol\";\r\nimport \"@openzeppelin/contracts/access/Ownable.sol\";\r\nimport \"./StringUtils.sol\";\r\n\r\ncontract OwnableDelegateProxy {}\r\n\r\ncontract ProxyRegistry {\r\n    mapping(address => OwnableDelegateProxy) public proxies;\r\n}\r\n\r\n/**\r\n * @title ERC721Tradable\r\n * ERC721Tradable - ERC721 contract that whitelists a trading address, and has minting functionality.\r\n */\r\ncontract ERC721Tradable is ERC721, Ownable {\r\n    using StringUtils for string;\r\n    address proxyRegistryAddress;\r\n    uint256 private _currentTokenId = 0;\r\n    mapping (uint256 => uint256) public tokenSupply;\r\n\r\n    constructor(\r\n        string memory _name,\r\n        string memory _symbol,\r\n        address _proxyRegistryAddress\r\n    ) public ERC721(_name, _symbol) {\r\n        proxyRegistryAddress = _proxyRegistryAddress;\r\n    }\r\n\r\n    /**\r\n     * @dev Mints a token to an address with a tokenURI.\r\n     * @param _to address of the future owner of the token\r\n     */\r\n    function mintTo(address _to) public onlyOwner {\r\n        uint256 newTokenId = _getNextTokenId();\r\n        _mint(_to, newTokenId);\r\n        _incrementTokenId();\r\n    }\r\n\r\n    \r\n    /**\r\n    * @dev Returns the total quantity for a token ID\r\n    * @param _id uint256 ID of the token to query\r\n    * @return amount of token in existence\r\n    */\r\n    function totalSupply(uint256 _id) public view returns (uint256) {\r\n        return tokenSupply[_id];\r\n    }\r\n\r\n    /**\r\n     * @dev calculates the next token ID based on value of _currentTokenId\r\n     * @return uint256 for the next token ID\r\n     */\r\n    function _getNextTokenId() private returns (uint256) {\r\n        return _currentTokenId++;\r\n    }\r\n\r\n    /**\r\n     * @dev increments the value of _currentTokenId\r\n     */\r\n    function _incrementTokenId() private {\r\n        _currentTokenId++;\r\n    }\r\n\r\n    function baseTokenURI() public virtual pure returns (string memory) {\r\n        return \"\";\r\n    }\r\n\r\n    function tokenURI(uint256 _tokenId) public override pure returns (string memory) {\r\n        return StringUtils.strConcat(baseTokenURI(), StringUtils.uint2str(_tokenId));\r\n    }\r\n\r\n    /**\r\n     * Override isApprovedForAll to whitelist user's OpenSea proxy accounts to enable gas-less listings.\r\n     */\r\n    function isApprovedForAll(address owner, address operator) override\r\n        public\r\n        view\r\n        returns (bool)\r\n    {\r\n        // Whitelist OpenSea proxy contract for easy trading.\r\n        ProxyRegistry proxyRegistry = ProxyRegistry(proxyRegistryAddress);\r\n        if (address(proxyRegistry.proxies(owner)) == operator) {\r\n            return true;\r\n        }\r\n\r\n        return super.isApprovedForAll(owner, operator);\r\n    }\r\n}\r\n\r\n",
  "sourcePath": "C:\\Users\\editr\\OneDrive\\Desktop\\etherprojects\\SoulSwap\\contracts\\ERC721Tradable.sol",
  "compiler": {
    "name": "solc",
    "version": "0.8.3+commit.8d00100c.Emscripten.clang"
  },
  "schemaVersion": "3.3.3",
  "updatedAt": "2021-04-28T23:51:10.157Z",
  "devdoc": {
    "kind": "dev",
    "methods": {
      "approve(address,uint256)": {
        "details": "See {IERC721-approve}."
      },
      "balanceOf(address)": {
        "details": "See {IERC721-balanceOf}."
      },
      "getApproved(uint256)": {
        "details": "See {IERC721-getApproved}."
      },
      "mintTo(address)": {
        "details": "Mints a token to an address with a tokenURI.",
        "params": {
          "_to": "address of the future owner of the token"
        }
      },
      "name()": {
        "details": "See {IERC721Metadata-name}."
      },
      "owner()": {
        "details": "Returns the address of the current owner."
      },
      "ownerOf(uint256)": {
        "details": "See {IERC721-ownerOf}."
      },
      "renounceOwnership()": {
        "details": "Leaves the contract without owner. It will not be possible to call `onlyOwner` functions anymore. Can only be called by the current owner. NOTE: Renouncing ownership will leave the contract without an owner, thereby removing any functionality that is only available to the owner."
      },
      "safeTransferFrom(address,address,uint256)": {
        "details": "See {IERC721-safeTransferFrom}."
      },
      "safeTransferFrom(address,address,uint256,bytes)": {
        "details": "See {IERC721-safeTransferFrom}."
      },
      "setApprovalForAll(address,bool)": {
        "details": "See {IERC721-setApprovalForAll}."
      },
      "supportsInterface(bytes4)": {
        "details": "See {IERC165-supportsInterface}."
      },
      "symbol()": {
        "details": "See {IERC721Metadata-symbol}."
      },
      "totalSupply(uint256)": {
        "details": "Returns the total quantity for a token ID",
        "params": {
          "_id": "uint256 ID of the token to query"
        },
        "returns": {
          "_0": "amount of token in existence"
        }
      },
      "transferFrom(address,address,uint256)": {
        "details": "See {IERC721-transferFrom}."
      },
      "transferOwnership(address)": {
        "details": "Transfers ownership of the contract to a new account (`newOwner`). Can only be called by the current owner."
      }
    },
    "title": "ERC721Tradable ERC721Tradable - ERC721 contract that whitelists a trading address, and has minting functionality.",
    "version": 1
  },
  "userdoc": {
    "kind": "user",
    "methods": {
      "isApprovedForAll(address,address)": {
        "notice": "Override isApprovedForAll to whitelist user's OpenSea proxy accounts to enable gas-less listings."
      }
    },
    "version": 1
  }
}