{
  "contractName": "ERC721Tradable",
  "abi": [
    {
      "inputs": [
        {
          "internalType": "string",
          "name": "_name",
          "type": "string"
        },
        {
          "internalType": "string",
          "name": "_symbol",
          "type": "string"
        },
        {
          "internalType": "address",
          "name": "_proxyRegistryAddress",
          "type": "address"
        }
      ],
      "stateMutability": "nonpayable",
      "type": "constructor"
    },
    {
      "anonymous": false,
      "inputs": [
        {
          "indexed": true,
          "internalType": "address",
          "name": "owner",
          "type": "address"
        },
        {
          "indexed": true,
          "internalType": "address",
          "name": "approved",
          "type": "address"
        },
        {
          "indexed": true,
          "internalType": "uint256",
          "name": "tokenId",
          "type": "uint256"
        }
      ],
      "name": "Approval",
      "type": "event"
    },
    {
      "anonymous": false,
      "inputs": [
        {
          "indexed": true,
          "internalType": "address",
          "name": "owner",
          "type": "address"
        },
        {
          "indexed": true,
          "internalType": "address",
          "name": "operator",
          "type": "address"
        },
        {
          "indexed": false,
          "internalType": "bool",
          "name": "approved",
          "type": "bool"
        }
      ],
      "name": "ApprovalForAll",
      "type": "event"
    },
    {
      "anonymous": false,
      "inputs": [
        {
          "indexed": true,
          "internalType": "address",
          "name": "previousOwner",
          "type": "address"
        },
        {
          "indexed": true,
          "internalType": "address",
          "name": "newOwner",
          "type": "address"
        }
      ],
      "name": "OwnershipTransferred",
      "type": "event"
    },
    {
      "anonymous": false,
      "inputs": [
        {
          "indexed": true,
          "internalType": "address",
          "name": "from",
          "type": "address"
        },
        {
          "indexed": true,
          "internalType": "address",
          "name": "to",
          "type": "address"
        },
        {
          "indexed": true,
          "internalType": "uint256",
          "name": "tokenId",
          "type": "uint256"
        }
      ],
      "name": "Transfer",
      "type": "event"
    },
    {
      "inputs": [
        {
          "internalType": "address",
          "name": "to",
          "type": "address"
        },
        {
          "internalType": "uint256",
          "name": "tokenId",
          "type": "uint256"
        }
      ],
      "name": "approve",
      "outputs": [],
      "stateMutability": "nonpayable",
      "type": "function"
    },
    {
      "inputs": [
        {
          "internalType": "address",
          "name": "owner",
          "type": "address"
        }
      ],
      "name": "balanceOf",
      "outputs": [
        {
          "internalType": "uint256",
          "name": "",
          "type": "uint256"
        }
      ],
      "stateMutability": "view",
      "type": "function"
    },
    {
      "inputs": [
        {
          "internalType": "uint256",
          "name": "tokenId",
          "type": "uint256"
        }
      ],
      "name": "getApproved",
      "outputs": [
        {
          "internalType": "address",
          "name": "",
          "type": "address"
        }
      ],
      "stateMutability": "view",
      "type": "function"
    },
    {
      "inputs": [],
      "name": "name",
      "outputs": [
        {
          "internalType": "string",
          "name": "",
          "type": "string"
        }
      ],
      "stateMutability": "view",
      "type": "function"
    },
    {
      "inputs": [],
      "name": "owner",
      "outputs": [
        {
          "internalType": "address",
          "name": "",
          "type": "address"
        }
      ],
      "stateMutability": "view",
      "type": "function"
    },
    {
      "inputs": [
        {
          "internalType": "uint256",
          "name": "tokenId",
          "type": "uint256"
        }
      ],
      "name": "ownerOf",
      "outputs": [
        {
          "internalType": "address",
          "name": "",
          "type": "address"
        }
      ],
      "stateMutability": "view",
      "type": "function"
    },
    {
      "inputs": [],
      "name": "renounceOwnership",
      "outputs": [],
      "stateMutability": "nonpayable",
      "type": "function"
    },
    {
      "inputs": [
        {
          "internalType": "address",
          "name": "from",
          "type": "address"
        },
        {
          "internalType": "address",
          "name": "to",
          "type": "address"
        },
        {
          "internalType": "uint256",
          "name": "tokenId",
          "type": "uint256"
        }
      ],
      "name": "safeTransferFrom",
      "outputs": [],
      "stateMutability": "nonpayable",
      "type": "function"
    },
    {
      "inputs": [
        {
          "internalType": "address",
          "name": "from",
          "type": "address"
        },
        {
          "internalType": "address",
          "name": "to",
          "type": "address"
        },
        {
          "internalType": "uint256",
          "name": "tokenId",
          "type": "uint256"
        },
        {
          "internalType": "bytes",
          "name": "_data",
          "type": "bytes"
        }
      ],
      "name": "safeTransferFrom",
      "outputs": [],
      "stateMutability": "nonpayable",
      "type": "function"
    },
    {
      "inputs": [
        {
          "internalType": "address",
          "name": "operator",
          "type": "address"
        },
        {
          "internalType": "bool",
          "name": "approved",
          "type": "bool"
        }
      ],
      "name": "setApprovalForAll",
      "outputs": [],
      "stateMutability": "nonpayable",
      "type": "function"
    },
    {
      "inputs": [
        {
          "internalType": "bytes4",
          "name": "interfaceId",
          "type": "bytes4"
        }
      ],
      "name": "supportsInterface",
      "outputs": [
        {
          "internalType": "bool",
          "name": "",
          "type": "bool"
        }
      ],
      "stateMutability": "view",
      "type": "function"
    },
    {
      "inputs": [],
      "name": "symbol",
      "outputs": [
        {
          "internalType": "string",
          "name": "",
          "type": "string"
        }
      ],
      "stateMutability": "view",
      "type": "function"
    },
    {
      "inputs": [
        {
          "internalType": "uint256",
          "name": "",
          "type": "uint256"
        }
      ],
      "name": "tokenSupply",
      "outputs": [
        {
          "internalType": "uint256",
          "name": "",
          "type": "uint256"
        }
      ],
      "stateMutability": "view",
      "type": "function"
    },
    {
      "inputs": [
        {
          "internalType": "address",
          "name": "from",
          "type": "address"
        },
        {
          "internalType": "address",
          "name": "to",
          "type": "address"
        },
        {
          "internalType": "uint256",
          "name": "tokenId",
          "type": "uint256"
        }
      ],
      "name": "transferFrom",
      "outputs": [],
      "stateMutability": "nonpayable",
      "type": "function"
    },
    {
      "inputs": [
        {
          "internalType": "address",
          "name": "newOwner",
          "type": "address"
        }
      ],
      "name": "transferOwnership",
      "outputs": [],
      "stateMutability": "nonpayable",
      "type": "function"
    },
    {
      "inputs": [
        {
          "internalType": "address",
          "name": "_to",
          "type": "address"
        }
      ],
      "name": "mintTo",
      "outputs": [],
      "stateMutability": "nonpayable",
      "type": "function"
    },
    {
      "inputs": [
        {
          "internalType": "address",
          "name": "to",
          "type": "address"
        },
        {
          "internalType": "string",
          "name": "_tokenURI",
          "type": "string"
        }
      ],
      "name": "mintToken",
      "outputs": [
        {
          "internalType": "uint256",
          "name": "",
          "type": "uint256"
        }
      ],
      "stateMutability": "nonpayable",
      "type": "function"
    },
    {
      "inputs": [
        {
          "internalType": "uint256",
          "name": "_id",
          "type": "uint256"
        }
      ],
      "name": "totalSupply",
      "outputs": [
        {
          "internalType": "uint256",
          "name": "",
          "type": "uint256"
        }
      ],
      "stateMutability": "view",
      "type": "function"
    },
    {
      "inputs": [
        {
          "internalType": "address",
          "name": "to",
          "type": "address"
        },
        {
          "internalType": "uint256",
          "name": "tokenId",
          "type": "uint256"
        }
      ],
      "name": "safeMint",
      "outputs": [],
      "stateMutability": "nonpayable",
      "type": "function"
    },
    {
      "inputs": [
        {
          "internalType": "uint256",
          "name": "tokenId",
          "type": "uint256"
        }
      ],
      "name": "tokenURI",
      "outputs": [
        {
          "internalType": "string",
          "name": "",
          "type": "string"
        }
      ],
      "stateMutability": "view",
      "type": "function"
    },
    {
      "inputs": [
        {
          "internalType": "address",
          "name": "owner",
          "type": "address"
        },
        {
          "internalType": "address",
          "name": "operator",
          "type": "address"
        }
      ],
      "name": "isApprovedForAll",
      "outputs": [
        {
          "internalType": "bool",
          "name": "",
          "type": "bool"
        }
      ],
      "stateMutability": "view",
      "type": "function"
    }
  ],
  "bytecode": "0x60806040523480156200001157600080fd5b50604051620037f1380380620037f18339818101604052810190620000379190620002b1565b828281600090805190602001906200005192919062000178565b5080600190805190602001906200006a92919062000178565b50505060006200007f6200017060201b60201c565b905080600660006101000a81548173ffffffffffffffffffffffffffffffffffffffff021916908373ffffffffffffffffffffffffffffffffffffffff1602179055508073ffffffffffffffffffffffffffffffffffffffff16600073ffffffffffffffffffffffffffffffffffffffff167f8be0079c531659141344cd1fd0a4f28419497f9722a3daafe3b4186f6b6457e060405160405180910390a35080600860006101000a81548173ffffffffffffffffffffffffffffffffffffffff021916908373ffffffffffffffffffffffffffffffffffffffff1602179055506000600981905550505050620004b8565b600033905090565b82805462000186906200040a565b90600052602060002090601f016020900481019282620001aa5760008555620001f6565b82601f10620001c557805160ff1916838001178555620001f6565b82800160010185558215620001f6579182015b82811115620001f5578251825591602001919060010190620001d8565b5b50905062000205919062000209565b5090565b5b80821115620002245760008160009055506001016200020a565b5090565b60006200023f62000239846200036d565b62000339565b9050828152602081018484840111156200025857600080fd5b62000265848285620003d4565b509392505050565b6000815190506200027e816200049e565b92915050565b600082601f8301126200029657600080fd5b8151620002a884826020860162000228565b91505092915050565b600080600060608486031215620002c757600080fd5b600084015167ffffffffffffffff811115620002e257600080fd5b620002f08682870162000284565b935050602084015167ffffffffffffffff8111156200030e57600080fd5b6200031c8682870162000284565b92505060406200032f868287016200026d565b9150509250925092565b6000604051905081810181811067ffffffffffffffff821117156200036357620003626200046f565b5b8060405250919050565b600067ffffffffffffffff8211156200038b576200038a6200046f565b5b601f19601f8301169050602081019050919050565b6000620003ad82620003b4565b9050919050565b600073ffffffffffffffffffffffffffffffffffffffff82169050919050565b60005b83811015620003f4578082015181840152602081019050620003d7565b8381111562000404576000848401525b50505050565b600060028204905060018216806200042357607f821691505b602082108114156200043a576200043962000440565b5b50919050565b7f4e487b7100000000000000000000000000000000000000000000000000000000600052602260045260246000fd5b7f4e487b7100000000000000000000000000000000000000000000000000000000600052604160045260246000fd5b620004a981620003a0565b8114620004b557600080fd5b50565b61332980620004c86000396000f3fe608060405234801561001057600080fd5b50600436106101375760003560e01c8063715018a6116100b8578063a22cb4651161007c578063a22cb4651461034c578063b88d4fde14610368578063bd85b03914610384578063c87b56dd146103b4578063e985e9c5146103e4578063f2fde38b1461041457610137565b8063715018a6146102ce578063755edd17146102d85780638da5cb5b146102f457806395d89b4114610312578063a14481941461033057610137565b80632693ebf2116100ff5780632693ebf2146101f25780633d02d0c91461022257806342842e0e146102525780636352211e1461026e57806370a082311461029e57610137565b806301ffc9a71461013c57806306fdde031461016c578063081812fc1461018a578063095ea7b3146101ba57806323b872dd146101d6575b600080fd5b61015660048036038101906101519190612363565b610430565b6040516101639190612bf6565b60405180910390f35b610174610512565b6040516101819190612c11565b60405180910390f35b6101a4600480360381019061019f91906123de565b6105a4565b6040516101b19190612b8f565b60405180910390f35b6101d460048036038101906101cf9190612327565b610629565b005b6101f060048036038101906101eb91906121cd565b610741565b005b61020c600480360381019061020791906123de565b6107a1565b6040516102199190612e73565b60405180910390f35b61023c600480360381019061023791906122d3565b6107b9565b6040516102499190612e73565b60405180910390f35b61026c600480360381019061026791906121cd565b6107f7565b005b610288600480360381019061028391906123de565b610817565b6040516102959190612b8f565b60405180910390f35b6102b860048036038101906102b39190612168565b6108c9565b6040516102c59190612e73565b60405180910390f35b6102d6610981565b005b6102f260048036038101906102ed9190612168565b610abe565b005b6102fc610b5c565b6040516103099190612b8f565b60405180910390f35b61031a610b86565b6040516103279190612c11565b60405180910390f35b61034a60048036038101906103459190612327565b610c18565b005b61036660048036038101906103619190612297565b610ca2565b005b610382600480360381019061037d919061221c565b610e23565b005b61039e600480360381019061039991906123de565b610e85565b6040516103ab9190612e73565b60405180910390f35b6103ce60048036038101906103c991906123de565b610ea2565b6040516103db9190612c11565b60405180910390f35b6103fe60048036038101906103f99190612191565b610eb4565b60405161040b9190612bf6565b60405180910390f35b61042e60048036038101906104299190612168565b610fb6565b005b60007f80ac58cd000000000000000000000000000000000000000000000000000000007bffffffffffffffffffffffffffffffffffffffffffffffffffffffff1916827bffffffffffffffffffffffffffffffffffffffffffffffffffffffff191614806104fb57507f5b5e139f000000000000000000000000000000000000000000000000000000007bffffffffffffffffffffffffffffffffffffffffffffffffffffffff1916827bffffffffffffffffffffffffffffffffffffffffffffffffffffffff1916145b8061050b575061050a82611162565b5b9050919050565b606060008054610521906130e5565b80601f016020809104026020016040519081016040528092919081815260200182805461054d906130e5565b801561059a5780601f1061056f5761010080835404028352916020019161059a565b820191906000526020600020905b81548152906001019060200180831161057d57829003601f168201915b5050505050905090565b60006105af826111cc565b6105ee576040517f08c379a00000000000000000000000000000000000000000000000000000000081526004016105e590612db3565b60405180910390fd5b6004600083815260200190815260200160002060009054906101000a900473ffffffffffffffffffffffffffffffffffffffff169050919050565b600061063482610817565b90508073ffffffffffffffffffffffffffffffffffffffff168373ffffffffffffffffffffffffffffffffffffffff1614156106a5576040517f08c379a000000000000000000000000000000000000000000000000000000000815260040161069c90612e33565b60405180910390fd5b8073ffffffffffffffffffffffffffffffffffffffff166106c4611238565b73ffffffffffffffffffffffffffffffffffffffff1614806106f357506106f2816106ed611238565b611240565b5b610732576040517f08c379a000000000000000000000000000000000000000000000000000000000815260040161072990612cf3565b60405180910390fd5b61073c83836112d4565b505050565b61075261074c611238565b8261138d565b610791576040517f08c379a000000000000000000000000000000000000000000000000000000000815260040161078890612e53565b60405180910390fd5b61079c83838361146b565b505050565b600a6020528060005260406000206000915090505481565b60008060095490506107cb84826116c7565b6107d581846116e5565b600960008154809291906107e890613117565b91905055508091505092915050565b61081283838360405180602001604052806000815250610e23565b505050565b6000806002600084815260200190815260200160002060009054906101000a900473ffffffffffffffffffffffffffffffffffffffff169050600073ffffffffffffffffffffffffffffffffffffffff168173ffffffffffffffffffffffffffffffffffffffff1614156108c0576040517f08c379a00000000000000000000000000000000000000000000000000000000081526004016108b790612d33565b60405180910390fd5b80915050919050565b60008073ffffffffffffffffffffffffffffffffffffffff168273ffffffffffffffffffffffffffffffffffffffff16141561093a576040517f08c379a000000000000000000000000000000000000000000000000000000000815260040161093190612d13565b60405180910390fd5b600360008373ffffffffffffffffffffffffffffffffffffffff1673ffffffffffffffffffffffffffffffffffffffff168152602001908152602001600020549050919050565b610989611238565b73ffffffffffffffffffffffffffffffffffffffff166109a7610b5c565b73ffffffffffffffffffffffffffffffffffffffff16146109fd576040517f08c379a00000000000000000000000000000000000000000000000000000000081526004016109f490612dd3565b60405180910390fd5b600073ffffffffffffffffffffffffffffffffffffffff16600660009054906101000a900473ffffffffffffffffffffffffffffffffffffffff1673ffffffffffffffffffffffffffffffffffffffff167f8be0079c531659141344cd1fd0a4f28419497f9722a3daafe3b4186f6b6457e060405160405180910390a36000600660006101000a81548173ffffffffffffffffffffffffffffffffffffffff021916908373ffffffffffffffffffffffffffffffffffffffff160217905550565b610ac6611238565b73ffffffffffffffffffffffffffffffffffffffff16610ae4610b5c565b73ffffffffffffffffffffffffffffffffffffffff1614610b3a576040517f08c379a0000000000000000000000000000000000000000000000000000000008152600401610b3190612dd3565b60405180910390fd5b6000610b44611759565b9050610b508282611763565b610b58611931565b5050565b6000600660009054906101000a900473ffffffffffffffffffffffffffffffffffffffff16905090565b606060018054610b95906130e5565b80601f0160208091040260200160405190810160405280929190818152602001828054610bc1906130e5565b8015610c0e5780601f10610be357610100808354040283529160200191610c0e565b820191906000526020600020905b815481529060010190602001808311610bf157829003601f168201915b5050505050905090565b610c20611238565b73ffffffffffffffffffffffffffffffffffffffff16610c3e610b5c565b73ffffffffffffffffffffffffffffffffffffffff1614610c94576040517f08c379a0000000000000000000000000000000000000000000000000000000008152600401610c8b90612dd3565b60405180910390fd5b610c9e82826116c7565b5050565b610caa611238565b73ffffffffffffffffffffffffffffffffffffffff168273ffffffffffffffffffffffffffffffffffffffff161415610d18576040517f08c379a0000000000000000000000000000000000000000000000000000000008152600401610d0f90612cb3565b60405180910390fd5b8060056000610d25611238565b73ffffffffffffffffffffffffffffffffffffffff1673ffffffffffffffffffffffffffffffffffffffff16815260200190815260200160002060008473ffffffffffffffffffffffffffffffffffffffff1673ffffffffffffffffffffffffffffffffffffffff16815260200190815260200160002060006101000a81548160ff0219169083151502179055508173ffffffffffffffffffffffffffffffffffffffff16610dd2611238565b73ffffffffffffffffffffffffffffffffffffffff167f17307eab39ab6107e8899845ad3d59bd9653f200f220920489ca2b5937696c3183604051610e179190612bf6565b60405180910390a35050565b610e34610e2e611238565b8361138d565b610e73576040517f08c379a0000000000000000000000000000000000000000000000000000000008152600401610e6a90612e53565b60405180910390fd5b610e7f8484848461194b565b50505050565b6000600a6000838152602001908152602001600020549050919050565b6060610ead826119a7565b9050919050565b600080600860009054906101000a900473ffffffffffffffffffffffffffffffffffffffff1690508273ffffffffffffffffffffffffffffffffffffffff168173ffffffffffffffffffffffffffffffffffffffff1663c4552791866040518263ffffffff1660e01b8152600401610f2c9190612b8f565b60206040518083038186803b158015610f4457600080fd5b505afa158015610f58573d6000803e3d6000fd5b505050506040513d601f19601f82011682018060405250810190610f7c91906123b5565b73ffffffffffffffffffffffffffffffffffffffff161415610fa2576001915050610fb0565b610fac8484611240565b9150505b92915050565b610fbe611238565b73ffffffffffffffffffffffffffffffffffffffff16610fdc610b5c565b73ffffffffffffffffffffffffffffffffffffffff1614611032576040517f08c379a000000000000000000000000000000000000000000000000000000000815260040161102990612dd3565b60405180910390fd5b600073ffffffffffffffffffffffffffffffffffffffff168173ffffffffffffffffffffffffffffffffffffffff1614156110a2576040517f08c379a000000000000000000000000000000000000000000000000000000000815260040161109990612c53565b60405180910390fd5b8073ffffffffffffffffffffffffffffffffffffffff16600660009054906101000a900473ffffffffffffffffffffffffffffffffffffffff1673ffffffffffffffffffffffffffffffffffffffff167f8be0079c531659141344cd1fd0a4f28419497f9722a3daafe3b4186f6b6457e060405160405180910390a380600660006101000a81548173ffffffffffffffffffffffffffffffffffffffff021916908373ffffffffffffffffffffffffffffffffffffffff16021790555050565b60007f01ffc9a7000000000000000000000000000000000000000000000000000000007bffffffffffffffffffffffffffffffffffffffffffffffffffffffff1916827bffffffffffffffffffffffffffffffffffffffffffffffffffffffff1916149050919050565b60008073ffffffffffffffffffffffffffffffffffffffff166002600084815260200190815260200160002060009054906101000a900473ffffffffffffffffffffffffffffffffffffffff1673ffffffffffffffffffffffffffffffffffffffff1614159050919050565b600033905090565b6000600560008473ffffffffffffffffffffffffffffffffffffffff1673ffffffffffffffffffffffffffffffffffffffff16815260200190815260200160002060008373ffffffffffffffffffffffffffffffffffffffff1673ffffffffffffffffffffffffffffffffffffffff16815260200190815260200160002060009054906101000a900460ff16905092915050565b816004600083815260200190815260200160002060006101000a81548173ffffffffffffffffffffffffffffffffffffffff021916908373ffffffffffffffffffffffffffffffffffffffff160217905550808273ffffffffffffffffffffffffffffffffffffffff1661134783610817565b73ffffffffffffffffffffffffffffffffffffffff167f8c5be1e5ebec7d5bd14f71427d1e84f3dd0314c0f7b2291e5b200ac8c7c3b92560405160405180910390a45050565b6000611398826111cc565b6113d7576040517f08c379a00000000000000000000000000000000000000000000000000000000081526004016113ce90612cd3565b60405180910390fd5b60006113e283610817565b90508073ffffffffffffffffffffffffffffffffffffffff168473ffffffffffffffffffffffffffffffffffffffff16148061145157508373ffffffffffffffffffffffffffffffffffffffff16611439846105a4565b73ffffffffffffffffffffffffffffffffffffffff16145b8061146257506114618185611240565b5b91505092915050565b8273ffffffffffffffffffffffffffffffffffffffff1661148b82610817565b73ffffffffffffffffffffffffffffffffffffffff16146114e1576040517f08c379a00000000000000000000000000000000000000000000000000000000081526004016114d890612df3565b60405180910390fd5b600073ffffffffffffffffffffffffffffffffffffffff168273ffffffffffffffffffffffffffffffffffffffff161415611551576040517f08c379a000000000000000000000000000000000000000000000000000000000815260040161154890612c93565b60405180910390fd5b61155c838383611af9565b6115676000826112d4565b6001600360008573ffffffffffffffffffffffffffffffffffffffff1673ffffffffffffffffffffffffffffffffffffffff16815260200190815260200160002060008282546115b79190612fe9565b925050819055506001600360008473ffffffffffffffffffffffffffffffffffffffff1673ffffffffffffffffffffffffffffffffffffffff168152602001908152602001600020600082825461160e9190612f62565b92505081905550816002600083815260200190815260200160002060006101000a81548173ffffffffffffffffffffffffffffffffffffffff021916908373ffffffffffffffffffffffffffffffffffffffff160217905550808273ffffffffffffffffffffffffffffffffffffffff168473ffffffffffffffffffffffffffffffffffffffff167fddf252ad1be2c89b69c2b068fc378daa952ba7f163c4a11628f55a4df523b3ef60405160405180910390a4505050565b6116e1828260405180602001604052806000815250611afe565b5050565b6116ee826111cc565b61172d576040517f08c379a000000000000000000000000000000000000000000000000000000000815260040161172490612d53565b60405180910390fd5b80600760008481526020019081526020016000209080519060200190611754929190611f77565b505050565b6000600954905090565b600073ffffffffffffffffffffffffffffffffffffffff168273ffffffffffffffffffffffffffffffffffffffff1614156117d3576040517f08c379a00000000000000000000000000000000000000000000000000000000081526004016117ca90612d73565b60405180910390fd5b6117dc816111cc565b1561181c576040517f08c379a000000000000000000000000000000000000000000000000000000000815260040161181390612c73565b60405180910390fd5b61182860008383611af9565b6001600360008473ffffffffffffffffffffffffffffffffffffffff1673ffffffffffffffffffffffffffffffffffffffff16815260200190815260200160002060008282546118789190612f62565b92505081905550816002600083815260200190815260200160002060006101000a81548173ffffffffffffffffffffffffffffffffffffffff021916908373ffffffffffffffffffffffffffffffffffffffff160217905550808273ffffffffffffffffffffffffffffffffffffffff16600073ffffffffffffffffffffffffffffffffffffffff167fddf252ad1be2c89b69c2b068fc378daa952ba7f163c4a11628f55a4df523b3ef60405160405180910390a45050565b6009600081548092919061194490613117565b9190505550565b61195684848461146b565b61196284848484611b59565b6119a1576040517f08c379a000000000000000000000000000000000000000000000000000000000815260040161199890612c33565b60405180910390fd5b50505050565b60606119b2826111cc565b6119f1576040517f08c379a00000000000000000000000000000000000000000000000000000000081526004016119e890612d93565b60405180910390fd5b6000600760008481526020019081526020016000208054611a11906130e5565b80601f0160208091040260200160405190810160405280929190818152602001828054611a3d906130e5565b8015611a8a5780601f10611a5f57610100808354040283529160200191611a8a565b820191906000526020600020905b815481529060010190602001808311611a6d57829003601f168201915b505050505090506000611a9b611cf0565b9050600081511415611ab1578192505050611af4565b600082511115611ae6578082604051602001611ace929190612b6b565b60405160208183030381529060405292505050611af4565b611aef84611d10565b925050505b919050565b505050565b611b088383611763565b611b156000848484611b59565b611b54576040517f08c379a0000000000000000000000000000000000000000000000000000000008152600401611b4b90612c33565b60405180910390fd5b505050565b6000611b7a8473ffffffffffffffffffffffffffffffffffffffff16611db7565b15611ce3578373ffffffffffffffffffffffffffffffffffffffff1663150b7a02611ba3611238565b8786866040518563ffffffff1660e01b8152600401611bc59493929190612baa565b602060405180830381600087803b158015611bdf57600080fd5b505af1925050508015611c1057506040513d601f19601f82011682018060405250810190611c0d919061238c565b60015b611c93573d8060008114611c40576040519150601f19603f3d011682016040523d82523d6000602084013e611c45565b606091505b50600081511415611c8b576040517f08c379a0000000000000000000000000000000000000000000000000000000008152600401611c8290612c33565b60405180910390fd5b805181602001fd5b63150b7a0260e01b7bffffffffffffffffffffffffffffffffffffffffffffffffffffffff1916817bffffffffffffffffffffffffffffffffffffffffffffffffffffffff191614915050611ce8565b600190505b949350505050565b60606040518060600160405280602281526020016132d260229139905090565b6060611d1b826111cc565b611d5a576040517f08c379a0000000000000000000000000000000000000000000000000000000008152600401611d5190612e13565b60405180910390fd5b6000611d64611cf0565b90506000815111611d845760405180602001604052806000815250611daf565b80611d8e84611dca565b604051602001611d9f929190612b6b565b6040516020818303038152906040525b915050919050565b600080823b905060008111915050919050565b60606000821415611e12576040518060400160405280600181526020017f30000000000000000000000000000000000000000000000000000000000000008152509050611f72565b600082905060005b60008214611e44578080611e2d90613117565b915050600a82611e3d9190612fb8565b9150611e1a565b60008167ffffffffffffffff811115611e86577f4e487b7100000000000000000000000000000000000000000000000000000000600052604160045260246000fd5b6040519080825280601f01601f191660200182016040528015611eb85781602001600182028036833780820191505090505b5090505b60008514611f6b57600182611ed19190612fe9565b9150600a85611ee09190613160565b6030611eec9190612f62565b60f81b818381518110611f28577f4e487b7100000000000000000000000000000000000000000000000000000000600052603260045260246000fd5b60200101907effffffffffffffffffffffffffffffffffffffffffffffffffffffffffffff1916908160001a905350600a85611f649190612fb8565b9450611ebc565b8093505050505b919050565b828054611f83906130e5565b90600052602060002090601f016020900481019282611fa55760008555611fec565b82601f10611fbe57805160ff1916838001178555611fec565b82800160010185558215611fec579182015b82811115611feb578251825591602001919060010190611fd0565b5b509050611ff99190611ffd565b5090565b5b80821115612016576000816000905550600101611ffe565b5090565b600061202d61202884612ebf565b612e8e565b90508281526020810184848401111561204557600080fd5b6120508482856130a3565b509392505050565b600061206b61206684612eef565b612e8e565b90508281526020810184848401111561208357600080fd5b61208e8482856130a3565b509392505050565b6000813590506120a58161325e565b92915050565b6000813590506120ba81613275565b92915050565b6000813590506120cf8161328c565b92915050565b6000815190506120e48161328c565b92915050565b600082601f8301126120fb57600080fd5b813561210b84826020860161201a565b91505092915050565b600081519050612123816132a3565b92915050565b600082601f83011261213a57600080fd5b813561214a848260208601612058565b91505092915050565b600081359050612162816132ba565b92915050565b60006020828403121561217a57600080fd5b600061218884828501612096565b91505092915050565b600080604083850312156121a457600080fd5b60006121b285828601612096565b92505060206121c385828601612096565b9150509250929050565b6000806000606084860312156121e257600080fd5b60006121f086828701612096565b935050602061220186828701612096565b925050604061221286828701612153565b9150509250925092565b6000806000806080858703121561223257600080fd5b600061224087828801612096565b945050602061225187828801612096565b935050604061226287828801612153565b925050606085013567ffffffffffffffff81111561227f57600080fd5b61228b878288016120ea565b91505092959194509250565b600080604083850312156122aa57600080fd5b60006122b885828601612096565b92505060206122c9858286016120ab565b9150509250929050565b600080604083850312156122e657600080fd5b60006122f485828601612096565b925050602083013567ffffffffffffffff81111561231157600080fd5b61231d85828601612129565b9150509250929050565b6000806040838503121561233a57600080fd5b600061234885828601612096565b925050602061235985828601612153565b9150509250929050565b60006020828403121561237557600080fd5b6000612383848285016120c0565b91505092915050565b60006020828403121561239e57600080fd5b60006123ac848285016120d5565b91505092915050565b6000602082840312156123c757600080fd5b60006123d584828501612114565b91505092915050565b6000602082840312156123f057600080fd5b60006123fe84828501612153565b91505092915050565b6124108161301d565b82525050565b61241f8161302f565b82525050565b600061243082612f1f565b61243a8185612f35565b935061244a8185602086016130b2565b6124538161324d565b840191505092915050565b600061246982612f2a565b6124738185612f46565b93506124838185602086016130b2565b61248c8161324d565b840191505092915050565b60006124a282612f2a565b6124ac8185612f57565b93506124bc8185602086016130b2565b80840191505092915050565b60006124d5603283612f46565b91507f4552433732313a207472616e7366657220746f206e6f6e20455243373231526560008301527f63656976657220696d706c656d656e74657200000000000000000000000000006020830152604082019050919050565b600061253b602683612f46565b91507f4f776e61626c653a206e6577206f776e657220697320746865207a65726f206160008301527f64647265737300000000000000000000000000000000000000000000000000006020830152604082019050919050565b60006125a1601c83612f46565b91507f4552433732313a20746f6b656e20616c7265616479206d696e746564000000006000830152602082019050919050565b60006125e1602483612f46565b91507f4552433732313a207472616e7366657220746f20746865207a65726f2061646460008301527f72657373000000000000000000000000000000000000000000000000000000006020830152604082019050919050565b6000612647601983612f46565b91507f4552433732313a20617070726f766520746f2063616c6c6572000000000000006000830152602082019050919050565b6000612687602c83612f46565b91507f4552433732313a206f70657261746f7220717565727920666f72206e6f6e657860008301527f697374656e7420746f6b656e00000000000000000000000000000000000000006020830152604082019050919050565b60006126ed603883612f46565b91507f4552433732313a20617070726f76652063616c6c6572206973206e6f74206f7760008301527f6e6572206e6f7220617070726f76656420666f7220616c6c00000000000000006020830152604082019050919050565b6000612753602a83612f46565b91507f4552433732313a2062616c616e636520717565727920666f7220746865207a6560008301527f726f2061646472657373000000000000000000000000000000000000000000006020830152604082019050919050565b60006127b9602983612f46565b91507f4552433732313a206f776e657220717565727920666f72206e6f6e657869737460008301527f656e7420746f6b656e00000000000000000000000000000000000000000000006020830152604082019050919050565b600061281f602e83612f46565b91507f45524337323155524953746f726167653a2055524920736574206f66206e6f6e60008301527f6578697374656e7420746f6b656e0000000000000000000000000000000000006020830152604082019050919050565b6000612885602083612f46565b91507f4552433732313a206d696e7420746f20746865207a65726f20616464726573736000830152602082019050919050565b60006128c5603183612f46565b91507f45524337323155524953746f726167653a2055524920717565727920666f722060008301527f6e6f6e6578697374656e7420746f6b656e0000000000000000000000000000006020830152604082019050919050565b600061292b602c83612f46565b91507f4552433732313a20617070726f76656420717565727920666f72206e6f6e657860008301527f697374656e7420746f6b656e00000000000000000000000000000000000000006020830152604082019050919050565b6000612991602083612f46565b91507f4f776e61626c653a2063616c6c6572206973206e6f7420746865206f776e65726000830152602082019050919050565b60006129d1602983612f46565b91507f4552433732313a207472616e73666572206f6620746f6b656e2074686174206960008301527f73206e6f74206f776e00000000000000000000000000000000000000000000006020830152604082019050919050565b6000612a37602f83612f46565b91507f4552433732314d657461646174613a2055524920717565727920666f72206e6f60008301527f6e6578697374656e7420746f6b656e00000000000000000000000000000000006020830152604082019050919050565b6000612a9d602183612f46565b91507f4552433732313a20617070726f76616c20746f2063757272656e74206f776e6560008301527f72000000000000000000000000000000000000000000000000000000000000006020830152604082019050919050565b6000612b03603183612f46565b91507f4552433732313a207472616e736665722063616c6c6572206973206e6f74206f60008301527f776e6572206e6f7220617070726f7665640000000000000000000000000000006020830152604082019050919050565b612b6581613099565b82525050565b6000612b778285612497565b9150612b838284612497565b91508190509392505050565b6000602082019050612ba46000830184612407565b92915050565b6000608082019050612bbf6000830187612407565b612bcc6020830186612407565b612bd96040830185612b5c565b8181036060830152612beb8184612425565b905095945050505050565b6000602082019050612c0b6000830184612416565b92915050565b60006020820190508181036000830152612c2b818461245e565b905092915050565b60006020820190508181036000830152612c4c816124c8565b9050919050565b60006020820190508181036000830152612c6c8161252e565b9050919050565b60006020820190508181036000830152612c8c81612594565b9050919050565b60006020820190508181036000830152612cac816125d4565b9050919050565b60006020820190508181036000830152612ccc8161263a565b9050919050565b60006020820190508181036000830152612cec8161267a565b9050919050565b60006020820190508181036000830152612d0c816126e0565b9050919050565b60006020820190508181036000830152612d2c81612746565b9050919050565b60006020820190508181036000830152612d4c816127ac565b9050919050565b60006020820190508181036000830152612d6c81612812565b9050919050565b60006020820190508181036000830152612d8c81612878565b9050919050565b60006020820190508181036000830152612dac816128b8565b9050919050565b60006020820190508181036000830152612dcc8161291e565b9050919050565b60006020820190508181036000830152612dec81612984565b9050919050565b60006020820190508181036000830152612e0c816129c4565b9050919050565b60006020820190508181036000830152612e2c81612a2a565b9050919050565b60006020820190508181036000830152612e4c81612a90565b9050919050565b60006020820190508181036000830152612e6c81612af6565b9050919050565b6000602082019050612e886000830184612b5c565b92915050565b6000604051905081810181811067ffffffffffffffff82111715612eb557612eb461321e565b5b8060405250919050565b600067ffffffffffffffff821115612eda57612ed961321e565b5b601f19601f8301169050602081019050919050565b600067ffffffffffffffff821115612f0a57612f0961321e565b5b601f19601f8301169050602081019050919050565b600081519050919050565b600081519050919050565b600082825260208201905092915050565b600082825260208201905092915050565b600081905092915050565b6000612f6d82613099565b9150612f7883613099565b9250827fffffffffffffffffffffffffffffffffffffffffffffffffffffffffffffffff03821115612fad57612fac613191565b5b828201905092915050565b6000612fc382613099565b9150612fce83613099565b925082612fde57612fdd6131c0565b5b828204905092915050565b6000612ff482613099565b9150612fff83613099565b92508282101561301257613011613191565b5b828203905092915050565b600061302882613079565b9050919050565b60008115159050919050565b60007fffffffff0000000000000000000000000000000000000000000000000000000082169050919050565b60006130728261301d565b9050919050565b600073ffffffffffffffffffffffffffffffffffffffff82169050919050565b6000819050919050565b82818337600083830152505050565b60005b838110156130d05780820151818401526020810190506130b5565b838111156130df576000848401525b50505050565b600060028204905060018216806130fd57607f821691505b60208210811415613111576131106131ef565b5b50919050565b600061312282613099565b91507fffffffffffffffffffffffffffffffffffffffffffffffffffffffffffffffff82141561315557613154613191565b5b600182019050919050565b600061316b82613099565b915061317683613099565b925082613186576131856131c0565b5b828206905092915050565b7f4e487b7100000000000000000000000000000000000000000000000000000000600052601160045260246000fd5b7f4e487b7100000000000000000000000000000000000000000000000000000000600052601260045260246000fd5b7f4e487b7100000000000000000000000000000000000000000000000000000000600052602260045260246000fd5b7f4e487b7100000000000000000000000000000000000000000000000000000000600052604160045260246000fd5b6000601f19601f8301169050919050565b6132678161301d565b811461327257600080fd5b50565b61327e8161302f565b811461328957600080fd5b50565b6132958161303b565b81146132a057600080fd5b50565b6132ac81613067565b81146132b757600080fd5b50565b6132c381613099565b81146132ce57600080fd5b5056fe68747470733a2f2f676174657761792e70696e6174612e636c6f75642f697066732fa2646970667358221220577e4c4f54cf796128a6aebb5c31cf0fd0b87178d35288c8a7ff9ef780788f4d64736f6c63430008000033",
  "immutableReferences": {},
  "source": "// SPDX-License-Identifier: MIT\r\npragma solidity ^0.8.0;\r\n\r\nimport \"@openzeppelin/contracts/token/ERC721/ERC721.sol\";\r\nimport \"@openzeppelin/contracts/access/Ownable.sol\";\r\nimport \"@openzeppelin/contracts/token/ERC721/extensions/ERC721URIStorage.sol\";\r\nimport \"./StringUtils.sol\";\r\n\r\ncontract OwnableDelegateProxy {}\r\n\r\ncontract ProxyRegistry {\r\n    mapping(address => OwnableDelegateProxy) public proxies;\r\n}\r\n\r\n/**\r\n * @title ERC721Tradable\r\n * ERC721Tradable - ERC721 contract that whitelists a trading address, and has minting functionality.\r\n */\r\ncontract ERC721Tradable is ERC721, Ownable, ERC721URIStorage  {\r\n    using StringUtils for string;\r\n    address proxyRegistryAddress;\r\n    uint256 private tokenCounter;\r\n\r\n    mapping (uint256 => uint256) public tokenSupply;\r\n\r\n    constructor(\r\n        string memory _name,\r\n        string memory _symbol,\r\n        address _proxyRegistryAddress\r\n    ) public ERC721(_name, _symbol) {\r\n        proxyRegistryAddress = _proxyRegistryAddress;\r\n        tokenCounter = 0;\r\n    }\r\n\r\n    /**\r\n     * @dev Mints a token to an address with a tokenURI.\r\n     * @param _to address of the future owner of the token\r\n     */\r\n    function mintTo(address _to) public onlyOwner {\r\n        uint256 newTokenId = getTokenCounter();\r\n        _mint(_to, newTokenId);\r\n        _incrementTokenId();\r\n    }\r\n\r\n     function mintToken(address to, string memory _tokenURI) public returns (uint256){\r\n        uint256 newTokenId = tokenCounter;\r\n        _safeMint(to, newTokenId);\r\n        _setTokenURI(newTokenId, _tokenURI);\r\n        tokenCounter++;\r\n\r\n        return newTokenId;\r\n    }\r\n\r\n    \r\n    /**\r\n    * @dev Returns the total quantity for a token ID\r\n    * @param _id uint256 ID of the token to query\r\n    * @return amount of token in existence\r\n    */\r\n    function totalSupply(uint256 _id) public view returns (uint256) {\r\n        return tokenSupply[_id];\r\n    }\r\n\r\n    /**\r\n     * @dev calculates the next token ID based on value of tokenCounter\r\n     * @return uint256 for the next token ID\r\n     */\r\n    function getTokenCounter() private returns (uint256) {\r\n        return tokenCounter;\r\n    }\r\n\r\n    /**\r\n     * @dev increments the value of tokenCounter\r\n     */\r\n    function _incrementTokenId() private {\r\n        tokenCounter++;\r\n    }\r\n\r\n    function safeMint(address to, uint256 tokenId) public onlyOwner {\r\n        _safeMint(to, tokenId);\r\n    }\r\n\r\n    function _baseURI() internal pure override returns (string memory) {\r\n        return \"https://gateway.pinata.cloud/ipfs/\";\r\n    }\r\n\r\n    function _burn(uint256 tokenId) internal override(ERC721, ERC721URIStorage) {\r\n        super._burn(tokenId);\r\n    }\r\n\r\n    function tokenURI(uint256 tokenId)\r\n        public\r\n        view\r\n        override(ERC721, ERC721URIStorage)\r\n        returns (string memory)\r\n    {\r\n        return super.tokenURI(tokenId);\r\n    }\r\n\r\n    /**\r\n     * Override isApprovedForAll to whitelist user's OpenSea proxy accounts to enable gas-less listings.\r\n     */\r\n    function isApprovedForAll(address owner, address operator) override\r\n        public\r\n        view\r\n        returns (bool)\r\n    {\r\n        // Whitelist OpenSea proxy contract for easy trading.\r\n        ProxyRegistry proxyRegistry = ProxyRegistry(proxyRegistryAddress);\r\n        if (address(proxyRegistry.proxies(owner)) == operator) {\r\n            return true;\r\n        }\r\n\r\n        return super.isApprovedForAll(owner, operator);\r\n    }\r\n}\r\n\r\n",
  "sourcePath": "C:\\Users\\editr\\OneDrive\\Desktop\\etherprojects\\SoulSwap\\contracts\\ERC721Tradable.sol",
  "compiler": {
    "name": "solc",
    "version": "0.8.0+commit.c7dfd78e.Emscripten.clang"
  },
  "schemaVersion": "3.3.3",
  "updatedAt": "2021-05-04T05:15:24.350Z",
  "devdoc": {
    "kind": "dev",
    "methods": {
      "approve(address,uint256)": {
        "details": "See {IERC721-approve}."
      },
      "balanceOf(address)": {
        "details": "See {IERC721-balanceOf}."
      },
      "getApproved(uint256)": {
        "details": "See {IERC721-getApproved}."
      },
      "mintTo(address)": {
        "details": "Mints a token to an address with a tokenURI.",
        "params": {
          "_to": "address of the future owner of the token"
        }
      },
      "name()": {
        "details": "See {IERC721Metadata-name}."
      },
      "owner()": {
        "details": "Returns the address of the current owner."
      },
      "ownerOf(uint256)": {
        "details": "See {IERC721-ownerOf}."
      },
      "renounceOwnership()": {
        "details": "Leaves the contract without owner. It will not be possible to call `onlyOwner` functions anymore. Can only be called by the current owner. NOTE: Renouncing ownership will leave the contract without an owner, thereby removing any functionality that is only available to the owner."
      },
      "safeTransferFrom(address,address,uint256)": {
        "details": "See {IERC721-safeTransferFrom}."
      },
      "safeTransferFrom(address,address,uint256,bytes)": {
        "details": "See {IERC721-safeTransferFrom}."
      },
      "setApprovalForAll(address,bool)": {
        "details": "See {IERC721-setApprovalForAll}."
      },
      "supportsInterface(bytes4)": {
        "details": "See {IERC165-supportsInterface}."
      },
      "symbol()": {
        "details": "See {IERC721Metadata-symbol}."
      },
      "totalSupply(uint256)": {
        "details": "Returns the total quantity for a token ID",
        "params": {
          "_id": "uint256 ID of the token to query"
        },
        "returns": {
          "_0": "amount of token in existence"
        }
      },
      "transferFrom(address,address,uint256)": {
        "details": "See {IERC721-transferFrom}."
      },
      "transferOwnership(address)": {
        "details": "Transfers ownership of the contract to a new account (`newOwner`). Can only be called by the current owner."
      }
    },
    "title": "ERC721Tradable ERC721Tradable - ERC721 contract that whitelists a trading address, and has minting functionality.",
    "version": 1
  },
  "userdoc": {
    "kind": "user",
    "methods": {
      "isApprovedForAll(address,address)": {
        "notice": "Override isApprovedForAll to whitelist user's OpenSea proxy accounts to enable gas-less listings."
      }
    },
    "version": 1
  }
}