{
  "contractName": "ProxyRegistry",
  "abi": [
    {
      "inputs": [
        {
          "internalType": "address",
          "name": "",
          "type": "address"
        }
      ],
      "name": "proxies",
      "outputs": [
        {
          "internalType": "contract OwnableDelegateProxy",
          "name": "",
          "type": "address"
        }
      ],
      "stateMutability": "view",
      "type": "function"
    }
  ],
  "bytecode": "0x608060405234801561001057600080fd5b5061019e806100206000396000f3fe608060405234801561001057600080fd5b506004361061002b5760003560e01c8063c455279114610030575b600080fd5b61004a600480360381019061004591906100a8565b610060565b60405161005791906100e0565b60405180910390f35b60006020528060005260406000206000915054906101000a900473ffffffffffffffffffffffffffffffffffffffff1681565b6000813590506100a281610151565b92915050565b6000602082840312156100ba57600080fd5b60006100c884828501610093565b91505092915050565b6100da8161012d565b82525050565b60006020820190506100f560008301846100d1565b92915050565b60006101068261010d565b9050919050565b600073ffffffffffffffffffffffffffffffffffffffff82169050919050565b60006101388261013f565b9050919050565b600061014a8261010d565b9050919050565b61015a816100fb565b811461016557600080fd5b5056fea2646970667358221220dc6891d9ee5b3f30168a3afd5868895b532dc404d83817bef0d41302b0bbdb7d64736f6c63430008000033",
  "immutableReferences": {},
  "source": "// SPDX-License-Identifier: MIT\r\npragma solidity ^0.8.0;\r\n\r\nimport \"@openzeppelin/contracts/token/ERC721/ERC721.sol\";\r\nimport \"@openzeppelin/contracts/access/Ownable.sol\";\r\nimport \"@openzeppelin/contracts/token/ERC721/extensions/ERC721URIStorage.sol\";\r\nimport \"./StringUtils.sol\";\r\n\r\ncontract OwnableDelegateProxy {}\r\n\r\ncontract ProxyRegistry {\r\n    mapping(address => OwnableDelegateProxy) public proxies;\r\n}\r\n\r\n/**-\r\n * @title ERC721Tradable\r\n * ERC721Tradable - ERC721 contract that whitelists a trading address, and has minting functionality.\r\n */\r\ncontract ERC721Tradable is ERC721, Ownable, ERC721URIStorage  {\r\n    using StringUtils for string;\r\n    address proxyRegistryAddress;\r\n    uint256 private tokenCounter;\r\n\r\n    constructor(\r\n        string memory _name,\r\n        string memory _symbol,\r\n        address _proxyRegistryAddress\r\n    ) public ERC721(_name, _symbol) {\r\n        proxyRegistryAddress = _proxyRegistryAddress;\r\n        tokenCounter = 0;\r\n    }\r\n\r\n    /**\r\n     * @dev Mints a token to an address with a tokenURI.\r\n     * @param _to address of the future owner of the token\r\n     */\r\n    function mintTo(address _to) public onlyOwner {\r\n        uint256 newTokenId = getTokenCounter();\r\n        _mint(_to, newTokenId);\r\n        _incrementTokenId();\r\n    }\r\n\r\n     function mintToken(address to, string memory _tokenURI) public returns (uint256){\r\n        uint256 newTokenId = tokenCounter;\r\n        _safeMint(to, newTokenId);\r\n        _setTokenURI(newTokenId, _tokenURI);\r\n        tokenCounter++;\r\n\r\n        return newTokenId;\r\n    }\r\n\r\n    /**\r\n     * @dev calculates the next token ID based on value of tokenCounter\r\n     * @return uint256 for the next token ID\r\n     */\r\n    function getTokenCounter() private returns (uint256) {\r\n        return tokenCounter;\r\n    }\r\n\r\n    /**\r\n     * @dev increments the value of tokenCounter\r\n     */\r\n    function _incrementTokenId() private {\r\n        tokenCounter++;\r\n    }\r\n\r\n    function safeMint(address to, uint256 tokenId) public onlyOwner {\r\n        _safeMint(to, tokenId);\r\n    }\r\n\r\n    function _baseURI() internal pure override returns (string memory) {\r\n        return \"https://gateway.pinata.cloud/ipfs/\";\r\n    }\r\n\r\n    function _burn(uint256 tokenId) internal override(ERC721, ERC721URIStorage) {\r\n        super._burn(tokenId);\r\n    }\r\n\r\n    function tokenURI(uint256 tokenId)\r\n        public\r\n        view\r\n        override(ERC721, ERC721URIStorage)\r\n        returns (string memory)\r\n    {\r\n        return super.tokenURI(tokenId);\r\n    }\r\n\r\n    /**\r\n     * Override isApprovedForAll to whitelist user's OpenSea proxy accounts to enable gas-less listings.\r\n     */\r\n    function isApprovedForAll(address owner, address operator) override\r\n        public\r\n        view\r\n        returns (bool)\r\n    {\r\n        // Whitelist OpenSea proxy contract for easy trading.\r\n        ProxyRegistry proxyRegistry = ProxyRegistry(proxyRegistryAddress);\r\n        if (address(proxyRegistry.proxies(owner)) == operator) {\r\n            return true;\r\n        }\r\n\r\n        return super.isApprovedForAll(owner, operator);\r\n    }\r\n}\r\n\r\n",
  "sourcePath": "C:\\Users\\editr\\OneDrive\\Desktop\\etherprojects\\SoulSwap\\contracts\\ERC721Tradable.sol",
  "compiler": {
    "name": "solc",
    "version": "0.8.0+commit.c7dfd78e.Emscripten.clang"
  },
  "schemaVersion": "3.3.3",
  "updatedAt": "2021-05-07T03:37:07.581Z",
  "devdoc": {
    "kind": "dev",
    "methods": {},
    "version": 1
  },
  "userdoc": {
    "kind": "user",
    "methods": {},
    "version": 1
  }
}