{
  "contractName": "SoulFragment",
  "abi": [
    {
      "inputs": [
        {
          "internalType": "address",
          "name": "_proxyRegistryAddress",
          "type": "address"
        }
      ],
      "stateMutability": "nonpayable",
      "type": "constructor"
    },
    {
      "anonymous": false,
      "inputs": [
        {
          "indexed": true,
          "internalType": "address",
          "name": "owner",
          "type": "address"
        },
        {
          "indexed": true,
          "internalType": "address",
          "name": "approved",
          "type": "address"
        },
        {
          "indexed": true,
          "internalType": "uint256",
          "name": "tokenId",
          "type": "uint256"
        }
      ],
      "name": "Approval",
      "type": "event"
    },
    {
      "anonymous": false,
      "inputs": [
        {
          "indexed": true,
          "internalType": "address",
          "name": "owner",
          "type": "address"
        },
        {
          "indexed": true,
          "internalType": "address",
          "name": "operator",
          "type": "address"
        },
        {
          "indexed": false,
          "internalType": "bool",
          "name": "approved",
          "type": "bool"
        }
      ],
      "name": "ApprovalForAll",
      "type": "event"
    },
    {
      "anonymous": false,
      "inputs": [
        {
          "indexed": true,
          "internalType": "address",
          "name": "previousOwner",
          "type": "address"
        },
        {
          "indexed": true,
          "internalType": "address",
          "name": "newOwner",
          "type": "address"
        }
      ],
      "name": "OwnershipTransferred",
      "type": "event"
    },
    {
      "anonymous": false,
      "inputs": [
        {
          "indexed": true,
          "internalType": "address",
          "name": "from",
          "type": "address"
        },
        {
          "indexed": true,
          "internalType": "address",
          "name": "to",
          "type": "address"
        },
        {
          "indexed": true,
          "internalType": "uint256",
          "name": "tokenId",
          "type": "uint256"
        }
      ],
      "name": "Transfer",
      "type": "event"
    },
    {
      "inputs": [
        {
          "internalType": "address",
          "name": "to",
          "type": "address"
        },
        {
          "internalType": "uint256",
          "name": "tokenId",
          "type": "uint256"
        }
      ],
      "name": "approve",
      "outputs": [],
      "stateMutability": "nonpayable",
      "type": "function"
    },
    {
      "inputs": [
        {
          "internalType": "address",
          "name": "owner",
          "type": "address"
        }
      ],
      "name": "balanceOf",
      "outputs": [
        {
          "internalType": "uint256",
          "name": "",
          "type": "uint256"
        }
      ],
      "stateMutability": "view",
      "type": "function"
    },
    {
      "inputs": [
        {
          "internalType": "uint256",
          "name": "tokenId",
          "type": "uint256"
        }
      ],
      "name": "getApproved",
      "outputs": [
        {
          "internalType": "address",
          "name": "",
          "type": "address"
        }
      ],
      "stateMutability": "view",
      "type": "function"
    },
    {
      "inputs": [
        {
          "internalType": "address",
          "name": "owner",
          "type": "address"
        },
        {
          "internalType": "address",
          "name": "operator",
          "type": "address"
        }
      ],
      "name": "isApprovedForAll",
      "outputs": [
        {
          "internalType": "bool",
          "name": "",
          "type": "bool"
        }
      ],
      "stateMutability": "view",
      "type": "function"
    },
    {
      "inputs": [
        {
          "internalType": "address",
          "name": "_to",
          "type": "address"
        }
      ],
      "name": "mintTo",
      "outputs": [],
      "stateMutability": "nonpayable",
      "type": "function"
    },
    {
      "inputs": [],
      "name": "name",
      "outputs": [
        {
          "internalType": "string",
          "name": "",
          "type": "string"
        }
      ],
      "stateMutability": "view",
      "type": "function"
    },
    {
      "inputs": [],
      "name": "owner",
      "outputs": [
        {
          "internalType": "address",
          "name": "",
          "type": "address"
        }
      ],
      "stateMutability": "view",
      "type": "function"
    },
    {
      "inputs": [
        {
          "internalType": "uint256",
          "name": "tokenId",
          "type": "uint256"
        }
      ],
      "name": "ownerOf",
      "outputs": [
        {
          "internalType": "address",
          "name": "",
          "type": "address"
        }
      ],
      "stateMutability": "view",
      "type": "function"
    },
    {
      "inputs": [],
      "name": "renounceOwnership",
      "outputs": [],
      "stateMutability": "nonpayable",
      "type": "function"
    },
    {
      "inputs": [
        {
          "internalType": "address",
          "name": "from",
          "type": "address"
        },
        {
          "internalType": "address",
          "name": "to",
          "type": "address"
        },
        {
          "internalType": "uint256",
          "name": "tokenId",
          "type": "uint256"
        }
      ],
      "name": "safeTransferFrom",
      "outputs": [],
      "stateMutability": "nonpayable",
      "type": "function"
    },
    {
      "inputs": [
        {
          "internalType": "address",
          "name": "from",
          "type": "address"
        },
        {
          "internalType": "address",
          "name": "to",
          "type": "address"
        },
        {
          "internalType": "uint256",
          "name": "tokenId",
          "type": "uint256"
        },
        {
          "internalType": "bytes",
          "name": "_data",
          "type": "bytes"
        }
      ],
      "name": "safeTransferFrom",
      "outputs": [],
      "stateMutability": "nonpayable",
      "type": "function"
    },
    {
      "inputs": [
        {
          "internalType": "address",
          "name": "operator",
          "type": "address"
        },
        {
          "internalType": "bool",
          "name": "approved",
          "type": "bool"
        }
      ],
      "name": "setApprovalForAll",
      "outputs": [],
      "stateMutability": "nonpayable",
      "type": "function"
    },
    {
      "inputs": [
        {
          "internalType": "bytes4",
          "name": "interfaceId",
          "type": "bytes4"
        }
      ],
      "name": "supportsInterface",
      "outputs": [
        {
          "internalType": "bool",
          "name": "",
          "type": "bool"
        }
      ],
      "stateMutability": "view",
      "type": "function"
    },
    {
      "inputs": [],
      "name": "symbol",
      "outputs": [
        {
          "internalType": "string",
          "name": "",
          "type": "string"
        }
      ],
      "stateMutability": "view",
      "type": "function"
    },
    {
      "inputs": [
        {
          "internalType": "uint256",
          "name": "",
          "type": "uint256"
        }
      ],
      "name": "tokenSupply",
      "outputs": [
        {
          "internalType": "uint256",
          "name": "",
          "type": "uint256"
        }
      ],
      "stateMutability": "view",
      "type": "function"
    },
    {
      "inputs": [
        {
          "internalType": "uint256",
          "name": "_tokenId",
          "type": "uint256"
        }
      ],
      "name": "tokenURI",
      "outputs": [
        {
          "internalType": "string",
          "name": "",
          "type": "string"
        }
      ],
      "stateMutability": "pure",
      "type": "function"
    },
    {
      "inputs": [
        {
          "internalType": "uint256",
          "name": "_id",
          "type": "uint256"
        }
      ],
      "name": "totalSupply",
      "outputs": [
        {
          "internalType": "uint256",
          "name": "",
          "type": "uint256"
        }
      ],
      "stateMutability": "view",
      "type": "function"
    },
    {
      "inputs": [
        {
          "internalType": "address",
          "name": "from",
          "type": "address"
        },
        {
          "internalType": "address",
          "name": "to",
          "type": "address"
        },
        {
          "internalType": "uint256",
          "name": "tokenId",
          "type": "uint256"
        }
      ],
      "name": "transferFrom",
      "outputs": [],
      "stateMutability": "nonpayable",
      "type": "function"
    },
    {
      "inputs": [
        {
          "internalType": "address",
          "name": "newOwner",
          "type": "address"
        }
      ],
      "name": "transferOwnership",
      "outputs": [],
      "stateMutability": "nonpayable",
      "type": "function"
    },
    {
      "inputs": [],
      "name": "baseTokenURI",
      "outputs": [
        {
          "internalType": "string",
          "name": "",
          "type": "string"
        }
      ],
      "stateMutability": "pure",
      "type": "function"
    },
    {
      "inputs": [],
      "name": "contractURI",
      "outputs": [
        {
          "internalType": "string",
          "name": "",
          "type": "string"
        }
      ],
      "stateMutability": "pure",
      "type": "function"
    }
  ],
  "bytecode": "0x608060405260006008553480156200001657600080fd5b50604051620036ea380380620036ea83398181016040528101906200003c9190620002aa565b6040518060400160405280600c81526020017f536f756c467261676d656e7400000000000000000000000000000000000000008152506040518060400160405280600481526020017f534f554c000000000000000000000000000000000000000000000000000000008152508282828160009080519060200190620000c3929190620001e3565b508060019080519060200190620000dc929190620001e3565b5050506000620000f1620001db60201b60201c565b905080600660006101000a81548173ffffffffffffffffffffffffffffffffffffffff021916908373ffffffffffffffffffffffffffffffffffffffff1602179055508073ffffffffffffffffffffffffffffffffffffffff16600073ffffffffffffffffffffffffffffffffffffffff167f8be0079c531659141344cd1fd0a4f28419497f9722a3daafe3b4186f6b6457e060405160405180910390a35080600760006101000a81548173ffffffffffffffffffffffffffffffffffffffff021916908373ffffffffffffffffffffffffffffffffffffffff1602179055505050505062000389565b600033905090565b828054620001f1906200030a565b90600052602060002090601f01602090048101928262000215576000855562000261565b82601f106200023057805160ff191683800117855562000261565b8280016001018555821562000261579182015b828111156200026057825182559160200191906001019062000243565b5b50905062000270919062000274565b5090565b5b808211156200028f57600081600090555060010162000275565b5090565b600081519050620002a4816200036f565b92915050565b600060208284031215620002bd57600080fd5b6000620002cd8482850162000293565b91505092915050565b6000620002e382620002ea565b9050919050565b600073ffffffffffffffffffffffffffffffffffffffff82169050919050565b600060028204905060018216806200032357607f821691505b602082108114156200033a576200033962000340565b5b50919050565b7f4e487b7100000000000000000000000000000000000000000000000000000000600052602260045260246000fd5b6200037a81620002d6565b81146200038657600080fd5b50565b61335180620003996000396000f3fe608060405234801561001057600080fd5b50600436106101375760003560e01c8063755edd17116100b8578063bd85b0391161007c578063bd85b03914610338578063c87b56dd14610368578063d547cfb714610398578063e8a3d485146103b6578063e985e9c5146103d4578063f2fde38b1461040457610137565b8063755edd17146102a85780638da5cb5b146102c457806395d89b41146102e2578063a22cb46514610300578063b88d4fde1461031c57610137565b80632693ebf2116100ff5780632693ebf2146101f257806342842e0e146102225780636352211e1461023e57806370a082311461026e578063715018a61461029e57610137565b806301ffc9a71461013c57806306fdde031461016c578063081812fc1461018a578063095ea7b3146101ba57806323b872dd146101d6575b600080fd5b6101566004803603810190610151919061240b565b610420565b60405161016391906127c2565b60405180910390f35b610174610502565b60405161018191906127dd565b60405180910390f35b6101a4600480360381019061019f9190612486565b610594565b6040516101b1919061275b565b60405180910390f35b6101d460048036038101906101cf91906123cf565b610619565b005b6101f060048036038101906101eb91906122c9565b610731565b005b61020c60048036038101906102079190612486565b610791565b60405161021991906129df565b60405180910390f35b61023c600480360381019061023791906122c9565b6107a9565b005b61025860048036038101906102539190612486565b6107c9565b604051610265919061275b565b60405180910390f35b61028860048036038101906102839190612264565b61087b565b60405161029591906129df565b60405180910390f35b6102a6610933565b005b6102c260048036038101906102bd9190612264565b610a70565b005b6102cc610b0e565b6040516102d9919061275b565b60405180910390f35b6102ea610b38565b6040516102f791906127dd565b60405180910390f35b61031a60048036038101906103159190612393565b610bca565b005b61033660048036038101906103319190612318565b610d4b565b005b610352600480360381019061034d9190612486565b610dad565b60405161035f91906129df565b60405180910390f35b610382600480360381019061037d9190612486565b610dca565b60405161038f91906127dd565b60405180910390f35b6103a0610dec565b6040516103ad91906127dd565b60405180910390f35b6103be610e0c565b6040516103cb91906127dd565b60405180910390f35b6103ee60048036038101906103e9919061228d565b610e2c565b6040516103fb91906127c2565b60405180910390f35b61041e60048036038101906104199190612264565b610f2e565b005b60007f80ac58cd000000000000000000000000000000000000000000000000000000007bffffffffffffffffffffffffffffffffffffffffffffffffffffffff1916827bffffffffffffffffffffffffffffffffffffffffffffffffffffffff191614806104eb57507f5b5e139f000000000000000000000000000000000000000000000000000000007bffffffffffffffffffffffffffffffffffffffffffffffffffffffff1916827bffffffffffffffffffffffffffffffffffffffffffffffffffffffff1916145b806104fb57506104fa826110da565b5b9050919050565b60606000805461051190612ca9565b80601f016020809104026020016040519081016040528092919081815260200182805461053d90612ca9565b801561058a5780601f1061055f5761010080835404028352916020019161058a565b820191906000526020600020905b81548152906001019060200180831161056d57829003601f168201915b5050505050905090565b600061059f82611144565b6105de576040517f08c379a00000000000000000000000000000000000000000000000000000000081526004016105d59061293f565b60405180910390fd5b6004600083815260200190815260200160002060009054906101000a900473ffffffffffffffffffffffffffffffffffffffff169050919050565b6000610624826107c9565b90508073ffffffffffffffffffffffffffffffffffffffff168373ffffffffffffffffffffffffffffffffffffffff161415610695576040517f08c379a000000000000000000000000000000000000000000000000000000000815260040161068c9061299f565b60405180910390fd5b8073ffffffffffffffffffffffffffffffffffffffff166106b46111b0565b73ffffffffffffffffffffffffffffffffffffffff1614806106e357506106e2816106dd6111b0565b6111b8565b5b610722576040517f08c379a0000000000000000000000000000000000000000000000000000000008152600401610719906128bf565b60405180910390fd5b61072c838361124c565b505050565b61074261073c6111b0565b82611305565b610781576040517f08c379a0000000000000000000000000000000000000000000000000000000008152600401610778906129bf565b60405180910390fd5b61078c8383836113e3565b505050565b60096020528060005260406000206000915090505481565b6107c483838360405180602001604052806000815250610d4b565b505050565b6000806002600084815260200190815260200160002060009054906101000a900473ffffffffffffffffffffffffffffffffffffffff169050600073ffffffffffffffffffffffffffffffffffffffff168173ffffffffffffffffffffffffffffffffffffffff161415610872576040517f08c379a0000000000000000000000000000000000000000000000000000000008152600401610869906128ff565b60405180910390fd5b80915050919050565b60008073ffffffffffffffffffffffffffffffffffffffff168273ffffffffffffffffffffffffffffffffffffffff1614156108ec576040517f08c379a00000000000000000000000000000000000000000000000000000000081526004016108e3906128df565b60405180910390fd5b600360008373ffffffffffffffffffffffffffffffffffffffff1673ffffffffffffffffffffffffffffffffffffffff168152602001908152602001600020549050919050565b61093b6111b0565b73ffffffffffffffffffffffffffffffffffffffff16610959610b0e565b73ffffffffffffffffffffffffffffffffffffffff16146109af576040517f08c379a00000000000000000000000000000000000000000000000000000000081526004016109a69061295f565b60405180910390fd5b600073ffffffffffffffffffffffffffffffffffffffff16600660009054906101000a900473ffffffffffffffffffffffffffffffffffffffff1673ffffffffffffffffffffffffffffffffffffffff167f8be0079c531659141344cd1fd0a4f28419497f9722a3daafe3b4186f6b6457e060405160405180910390a36000600660006101000a81548173ffffffffffffffffffffffffffffffffffffffff021916908373ffffffffffffffffffffffffffffffffffffffff160217905550565b610a786111b0565b73ffffffffffffffffffffffffffffffffffffffff16610a96610b0e565b73ffffffffffffffffffffffffffffffffffffffff1614610aec576040517f08c379a0000000000000000000000000000000000000000000000000000000008152600401610ae39061295f565b60405180910390fd5b6000610af661163f565b9050610b02828261165d565b610b0a61182b565b5050565b6000600660009054906101000a900473ffffffffffffffffffffffffffffffffffffffff16905090565b606060018054610b4790612ca9565b80601f0160208091040260200160405190810160405280929190818152602001828054610b7390612ca9565b8015610bc05780601f10610b9557610100808354040283529160200191610bc0565b820191906000526020600020905b815481529060010190602001808311610ba357829003601f168201915b5050505050905090565b610bd26111b0565b73ffffffffffffffffffffffffffffffffffffffff168273ffffffffffffffffffffffffffffffffffffffff161415610c40576040517f08c379a0000000000000000000000000000000000000000000000000000000008152600401610c379061287f565b60405180910390fd5b8060056000610c4d6111b0565b73ffffffffffffffffffffffffffffffffffffffff1673ffffffffffffffffffffffffffffffffffffffff16815260200190815260200160002060008473ffffffffffffffffffffffffffffffffffffffff1673ffffffffffffffffffffffffffffffffffffffff16815260200190815260200160002060006101000a81548160ff0219169083151502179055508173ffffffffffffffffffffffffffffffffffffffff16610cfa6111b0565b73ffffffffffffffffffffffffffffffffffffffff167f17307eab39ab6107e8899845ad3d59bd9653f200f220920489ca2b5937696c3183604051610d3f91906127c2565b60405180910390a35050565b610d5c610d566111b0565b83611305565b610d9b576040517f08c379a0000000000000000000000000000000000000000000000000000000008152600401610d92906129bf565b60405180910390fd5b610da784848484611845565b50505050565b600060096000838152602001908152602001600020549050919050565b6060610de5610dd7610dec565b610de0846118a1565b611a76565b9050919050565b60606040518060600160405280603881526020016132e460389139905090565b606060405180608001604052806045815260200161329f60459139905090565b600080600760009054906101000a900473ffffffffffffffffffffffffffffffffffffffff1690508273ffffffffffffffffffffffffffffffffffffffff168173ffffffffffffffffffffffffffffffffffffffff1663c4552791866040518263ffffffff1660e01b8152600401610ea4919061275b565b60206040518083038186803b158015610ebc57600080fd5b505afa158015610ed0573d6000803e3d6000fd5b505050506040513d601f19601f82011682018060405250810190610ef4919061245d565b73ffffffffffffffffffffffffffffffffffffffff161415610f1a576001915050610f28565b610f2484846111b8565b9150505b92915050565b610f366111b0565b73ffffffffffffffffffffffffffffffffffffffff16610f54610b0e565b73ffffffffffffffffffffffffffffffffffffffff1614610faa576040517f08c379a0000000000000000000000000000000000000000000000000000000008152600401610fa19061295f565b60405180910390fd5b600073ffffffffffffffffffffffffffffffffffffffff168173ffffffffffffffffffffffffffffffffffffffff16141561101a576040517f08c379a00000000000000000000000000000000000000000000000000000000081526004016110119061281f565b60405180910390fd5b8073ffffffffffffffffffffffffffffffffffffffff16600660009054906101000a900473ffffffffffffffffffffffffffffffffffffffff1673ffffffffffffffffffffffffffffffffffffffff167f8be0079c531659141344cd1fd0a4f28419497f9722a3daafe3b4186f6b6457e060405160405180910390a380600660006101000a81548173ffffffffffffffffffffffffffffffffffffffff021916908373ffffffffffffffffffffffffffffffffffffffff16021790555050565b60007f01ffc9a7000000000000000000000000000000000000000000000000000000007bffffffffffffffffffffffffffffffffffffffffffffffffffffffff1916827bffffffffffffffffffffffffffffffffffffffffffffffffffffffff1916149050919050565b60008073ffffffffffffffffffffffffffffffffffffffff166002600084815260200190815260200160002060009054906101000a900473ffffffffffffffffffffffffffffffffffffffff1673ffffffffffffffffffffffffffffffffffffffff1614159050919050565b600033905090565b6000600560008473ffffffffffffffffffffffffffffffffffffffff1673ffffffffffffffffffffffffffffffffffffffff16815260200190815260200160002060008373ffffffffffffffffffffffffffffffffffffffff1673ffffffffffffffffffffffffffffffffffffffff16815260200190815260200160002060009054906101000a900460ff16905092915050565b816004600083815260200190815260200160002060006101000a81548173ffffffffffffffffffffffffffffffffffffffff021916908373ffffffffffffffffffffffffffffffffffffffff160217905550808273ffffffffffffffffffffffffffffffffffffffff166112bf836107c9565b73ffffffffffffffffffffffffffffffffffffffff167f8c5be1e5ebec7d5bd14f71427d1e84f3dd0314c0f7b2291e5b200ac8c7c3b92560405160405180910390a45050565b600061131082611144565b61134f576040517f08c379a00000000000000000000000000000000000000000000000000000000081526004016113469061289f565b60405180910390fd5b600061135a836107c9565b90508073ffffffffffffffffffffffffffffffffffffffff168473ffffffffffffffffffffffffffffffffffffffff1614806113c957508373ffffffffffffffffffffffffffffffffffffffff166113b184610594565b73ffffffffffffffffffffffffffffffffffffffff16145b806113da57506113d981856111b8565b5b91505092915050565b8273ffffffffffffffffffffffffffffffffffffffff16611403826107c9565b73ffffffffffffffffffffffffffffffffffffffff1614611459576040517f08c379a00000000000000000000000000000000000000000000000000000000081526004016114509061297f565b60405180910390fd5b600073ffffffffffffffffffffffffffffffffffffffff168273ffffffffffffffffffffffffffffffffffffffff1614156114c9576040517f08c379a00000000000000000000000000000000000000000000000000000000081526004016114c09061285f565b60405180910390fd5b6114d4838383611aba565b6114df60008261124c565b6001600360008573ffffffffffffffffffffffffffffffffffffffff1673ffffffffffffffffffffffffffffffffffffffff168152602001908152602001600020600082825461152f9190612ba0565b925050819055506001600360008473ffffffffffffffffffffffffffffffffffffffff1673ffffffffffffffffffffffffffffffffffffffff16815260200190815260200160002060008282546115869190612a88565b92505081905550816002600083815260200190815260200160002060006101000a81548173ffffffffffffffffffffffffffffffffffffffff021916908373ffffffffffffffffffffffffffffffffffffffff160217905550808273ffffffffffffffffffffffffffffffffffffffff168473ffffffffffffffffffffffffffffffffffffffff167fddf252ad1be2c89b69c2b068fc378daa952ba7f163c4a11628f55a4df523b3ef60405160405180910390a4505050565b60006008600081548092919061165490612d0c565b91905055905090565b600073ffffffffffffffffffffffffffffffffffffffff168273ffffffffffffffffffffffffffffffffffffffff1614156116cd576040517f08c379a00000000000000000000000000000000000000000000000000000000081526004016116c49061291f565b60405180910390fd5b6116d681611144565b15611716576040517f08c379a000000000000000000000000000000000000000000000000000000000815260040161170d9061283f565b60405180910390fd5b61172260008383611aba565b6001600360008473ffffffffffffffffffffffffffffffffffffffff1673ffffffffffffffffffffffffffffffffffffffff16815260200190815260200160002060008282546117729190612a88565b92505081905550816002600083815260200190815260200160002060006101000a81548173ffffffffffffffffffffffffffffffffffffffff021916908373ffffffffffffffffffffffffffffffffffffffff160217905550808273ffffffffffffffffffffffffffffffffffffffff16600073ffffffffffffffffffffffffffffffffffffffff167fddf252ad1be2c89b69c2b068fc378daa952ba7f163c4a11628f55a4df523b3ef60405160405180910390a45050565b6008600081548092919061183e90612d0c565b9190505550565b6118508484846113e3565b61185c84848484611abf565b61189b576040517f08c379a0000000000000000000000000000000000000000000000000000000008152600401611892906127ff565b60405180910390fd5b50505050565b606060008214156118e9576040518060400160405280600181526020017f30000000000000000000000000000000000000000000000000000000000000008152509050611a71565b600082905060005b6000821461191b57808061190490612d0c565b915050600a826119149190612b15565b91506118f1565b60008167ffffffffffffffff81111561195d577f4e487b7100000000000000000000000000000000000000000000000000000000600052604160045260246000fd5b6040519080825280601f01601f19166020018201604052801561198f5781602001600182028036833780820191505090505b50905060008290505b60008614611a69576001816119ad9190612ba0565b90506000600a80886119bf9190612b15565b6119c99190612b46565b876119d49190612ba0565b60306119e09190612ade565b905060008160f81b905080848481518110611a24577f4e487b7100000000000000000000000000000000000000000000000000000000600052603260045260246000fd5b60200101907effffffffffffffffffffffffffffffffffffffffffffffffffffffffffffff1916908160001a905350600a88611a609190612b15565b97505050611998565b819450505050505b919050565b6060611ab28383604051806020016040528060008152506040518060200160405280600081525060405180602001604052806000815250611c56565b905092915050565b505050565b6000611ae08473ffffffffffffffffffffffffffffffffffffffff1661216b565b15611c49578373ffffffffffffffffffffffffffffffffffffffff1663150b7a02611b096111b0565b8786866040518563ffffffff1660e01b8152600401611b2b9493929190612776565b602060405180830381600087803b158015611b4557600080fd5b505af1925050508015611b7657506040513d601f19601f82011682018060405250810190611b739190612434565b60015b611bf9573d8060008114611ba6576040519150601f19603f3d011682016040523d82523d6000602084013e611bab565b606091505b50600081511415611bf1576040517f08c379a0000000000000000000000000000000000000000000000000000000008152600401611be8906127ff565b60405180910390fd5b805181602001fd5b63150b7a0260e01b7bffffffffffffffffffffffffffffffffffffffffffffffffffffffff1916817bffffffffffffffffffffffffffffffffffffffffffffffffffffffff191614915050611c4e565b600190505b949350505050565b606060008690506000869050600086905060008690506000869050600081518351855187518951611c879190612a88565b611c919190612a88565b611c9b9190612a88565b611ca59190612a88565b67ffffffffffffffff811115611ce4577f4e487b7100000000000000000000000000000000000000000000000000000000600052604160045260246000fd5b6040519080825280601f01601f191660200182016040528015611d165781602001600182028036833780820191505090505b50905060008190506000805b8851811015611df657888181518110611d64577f4e487b7100000000000000000000000000000000000000000000000000000000600052603260045260246000fd5b602001015160f81c60f81b838380611d7b90612d0c565b945081518110611db4577f4e487b7100000000000000000000000000000000000000000000000000000000600052603260045260246000fd5b60200101907effffffffffffffffffffffffffffffffffffffffffffffffffffffffffffff1916908160001a9053508080611dee90612d0c565b915050611d22565b5060005b8751811015611ece57878181518110611e3c577f4e487b7100000000000000000000000000000000000000000000000000000000600052603260045260246000fd5b602001015160f81c60f81b838380611e5390612d0c565b945081518110611e8c577f4e487b7100000000000000000000000000000000000000000000000000000000600052603260045260246000fd5b60200101907effffffffffffffffffffffffffffffffffffffffffffffffffffffffffffff1916908160001a9053508080611ec690612d0c565b915050611dfa565b5060005b8651811015611fa657868181518110611f14577f4e487b7100000000000000000000000000000000000000000000000000000000600052603260045260246000fd5b602001015160f81c60f81b838380611f2b90612d0c565b945081518110611f64577f4e487b7100000000000000000000000000000000000000000000000000000000600052603260045260246000fd5b60200101907effffffffffffffffffffffffffffffffffffffffffffffffffffffffffffff1916908160001a9053508080611f9e90612d0c565b915050611ed2565b5060005b855181101561207e57858181518110611fec577f4e487b7100000000000000000000000000000000000000000000000000000000600052603260045260246000fd5b602001015160f81c60f81b83838061200390612d0c565b94508151811061203c577f4e487b7100000000000000000000000000000000000000000000000000000000600052603260045260246000fd5b60200101907effffffffffffffffffffffffffffffffffffffffffffffffffffffffffffff1916908160001a905350808061207690612d0c565b915050611faa565b5060005b8451811015612156578481815181106120c4577f4e487b7100000000000000000000000000000000000000000000000000000000600052603260045260246000fd5b602001015160f81c60f81b8383806120db90612d0c565b945081518110612114577f4e487b7100000000000000000000000000000000000000000000000000000000600052603260045260246000fd5b60200101907effffffffffffffffffffffffffffffffffffffffffffffffffffffffffffff1916908160001a905350808061214e90612d0c565b915050612082565b50819850505050505050505095945050505050565b600080823b905060008111915050919050565b600061219161218c84612a1f565b6129fa565b9050828152602081018484840111156121a957600080fd5b6121b4848285612c67565b509392505050565b6000813590506121cb8161322b565b92915050565b6000813590506121e081613242565b92915050565b6000813590506121f581613259565b92915050565b60008151905061220a81613259565b92915050565b600082601f83011261222157600080fd5b813561223184826020860161217e565b91505092915050565b60008151905061224981613270565b92915050565b60008135905061225e81613287565b92915050565b60006020828403121561227657600080fd5b6000612284848285016121bc565b91505092915050565b600080604083850312156122a057600080fd5b60006122ae858286016121bc565b92505060206122bf858286016121bc565b9150509250929050565b6000806000606084860312156122de57600080fd5b60006122ec868287016121bc565b93505060206122fd868287016121bc565b925050604061230e8682870161224f565b9150509250925092565b6000806000806080858703121561232e57600080fd5b600061233c878288016121bc565b945050602061234d878288016121bc565b935050604061235e8782880161224f565b925050606085013567ffffffffffffffff81111561237b57600080fd5b61238787828801612210565b91505092959194509250565b600080604083850312156123a657600080fd5b60006123b4858286016121bc565b92505060206123c5858286016121d1565b9150509250929050565b600080604083850312156123e257600080fd5b60006123f0858286016121bc565b92505060206124018582860161224f565b9150509250929050565b60006020828403121561241d57600080fd5b600061242b848285016121e6565b91505092915050565b60006020828403121561244657600080fd5b6000612454848285016121fb565b91505092915050565b60006020828403121561246f57600080fd5b600061247d8482850161223a565b91505092915050565b60006020828403121561249857600080fd5b60006124a68482850161224f565b91505092915050565b6124b881612bd4565b82525050565b6124c781612be6565b82525050565b60006124d882612a50565b6124e28185612a66565b93506124f2818560208601612c76565b6124fb81612e11565b840191505092915050565b600061251182612a5b565b61251b8185612a77565b935061252b818560208601612c76565b61253481612e11565b840191505092915050565b600061254c603283612a77565b915061255782612e22565b604082019050919050565b600061256f602683612a77565b915061257a82612e71565b604082019050919050565b6000612592601c83612a77565b915061259d82612ec0565b602082019050919050565b60006125b5602483612a77565b91506125c082612ee9565b604082019050919050565b60006125d8601983612a77565b91506125e382612f38565b602082019050919050565b60006125fb602c83612a77565b915061260682612f61565b604082019050919050565b600061261e603883612a77565b915061262982612fb0565b604082019050919050565b6000612641602a83612a77565b915061264c82612fff565b604082019050919050565b6000612664602983612a77565b915061266f8261304e565b604082019050919050565b6000612687602083612a77565b91506126928261309d565b602082019050919050565b60006126aa602c83612a77565b91506126b5826130c6565b604082019050919050565b60006126cd602083612a77565b91506126d882613115565b602082019050919050565b60006126f0602983612a77565b91506126fb8261313e565b604082019050919050565b6000612713602183612a77565b915061271e8261318d565b604082019050919050565b6000612736603183612a77565b9150612741826131dc565b604082019050919050565b61275581612c50565b82525050565b600060208201905061277060008301846124af565b92915050565b600060808201905061278b60008301876124af565b61279860208301866124af565b6127a5604083018561274c565b81810360608301526127b781846124cd565b905095945050505050565b60006020820190506127d760008301846124be565b92915050565b600060208201905081810360008301526127f78184612506565b905092915050565b600060208201905081810360008301526128188161253f565b9050919050565b6000602082019050818103600083015261283881612562565b9050919050565b6000602082019050818103600083015261285881612585565b9050919050565b60006020820190508181036000830152612878816125a8565b9050919050565b60006020820190508181036000830152612898816125cb565b9050919050565b600060208201905081810360008301526128b8816125ee565b9050919050565b600060208201905081810360008301526128d881612611565b9050919050565b600060208201905081810360008301526128f881612634565b9050919050565b6000602082019050818103600083015261291881612657565b9050919050565b600060208201905081810360008301526129388161267a565b9050919050565b600060208201905081810360008301526129588161269d565b9050919050565b60006020820190508181036000830152612978816126c0565b9050919050565b60006020820190508181036000830152612998816126e3565b9050919050565b600060208201905081810360008301526129b881612706565b9050919050565b600060208201905081810360008301526129d881612729565b9050919050565b60006020820190506129f4600083018461274c565b92915050565b6000612a04612a15565b9050612a108282612cdb565b919050565b6000604051905090565b600067ffffffffffffffff821115612a3a57612a39612de2565b5b612a4382612e11565b9050602081019050919050565b600081519050919050565b600081519050919050565b600082825260208201905092915050565b600082825260208201905092915050565b6000612a9382612c50565b9150612a9e83612c50565b9250827fffffffffffffffffffffffffffffffffffffffffffffffffffffffffffffffff03821115612ad357612ad2612d55565b5b828201905092915050565b6000612ae982612c5a565b9150612af483612c5a565b92508260ff03821115612b0a57612b09612d55565b5b828201905092915050565b6000612b2082612c50565b9150612b2b83612c50565b925082612b3b57612b3a612d84565b5b828204905092915050565b6000612b5182612c50565b9150612b5c83612c50565b9250817fffffffffffffffffffffffffffffffffffffffffffffffffffffffffffffffff0483118215151615612b9557612b94612d55565b5b828202905092915050565b6000612bab82612c50565b9150612bb683612c50565b925082821015612bc957612bc8612d55565b5b828203905092915050565b6000612bdf82612c30565b9050919050565b60008115159050919050565b60007fffffffff0000000000000000000000000000000000000000000000000000000082169050919050565b6000612c2982612bd4565b9050919050565b600073ffffffffffffffffffffffffffffffffffffffff82169050919050565b6000819050919050565b600060ff82169050919050565b82818337600083830152505050565b60005b83811015612c94578082015181840152602081019050612c79565b83811115612ca3576000848401525b50505050565b60006002820490506001821680612cc157607f821691505b60208210811415612cd557612cd4612db3565b5b50919050565b612ce482612e11565b810181811067ffffffffffffffff82111715612d0357612d02612de2565b5b80604052505050565b6000612d1782612c50565b91507fffffffffffffffffffffffffffffffffffffffffffffffffffffffffffffffff821415612d4a57612d49612d55565b5b600182019050919050565b7f4e487b7100000000000000000000000000000000000000000000000000000000600052601160045260246000fd5b7f4e487b7100000000000000000000000000000000000000000000000000000000600052601260045260246000fd5b7f4e487b7100000000000000000000000000000000000000000000000000000000600052602260045260246000fd5b7f4e487b7100000000000000000000000000000000000000000000000000000000600052604160045260246000fd5b6000601f19601f8301169050919050565b7f4552433732313a207472616e7366657220746f206e6f6e20455243373231526560008201527f63656976657220696d706c656d656e7465720000000000000000000000000000602082015250565b7f4f776e61626c653a206e6577206f776e657220697320746865207a65726f206160008201527f6464726573730000000000000000000000000000000000000000000000000000602082015250565b7f4552433732313a20746f6b656e20616c7265616479206d696e74656400000000600082015250565b7f4552433732313a207472616e7366657220746f20746865207a65726f2061646460008201527f7265737300000000000000000000000000000000000000000000000000000000602082015250565b7f4552433732313a20617070726f766520746f2063616c6c657200000000000000600082015250565b7f4552433732313a206f70657261746f7220717565727920666f72206e6f6e657860008201527f697374656e7420746f6b656e0000000000000000000000000000000000000000602082015250565b7f4552433732313a20617070726f76652063616c6c6572206973206e6f74206f7760008201527f6e6572206e6f7220617070726f76656420666f7220616c6c0000000000000000602082015250565b7f4552433732313a2062616c616e636520717565727920666f7220746865207a6560008201527f726f206164647265737300000000000000000000000000000000000000000000602082015250565b7f4552433732313a206f776e657220717565727920666f72206e6f6e657869737460008201527f656e7420746f6b656e0000000000000000000000000000000000000000000000602082015250565b7f4552433732313a206d696e7420746f20746865207a65726f2061646472657373600082015250565b7f4552433732313a20617070726f76656420717565727920666f72206e6f6e657860008201527f697374656e7420746f6b656e0000000000000000000000000000000000000000602082015250565b7f4f776e61626c653a2063616c6c6572206973206e6f7420746865206f776e6572600082015250565b7f4552433732313a207472616e73666572206f6620746f6b656e2074686174206960008201527f73206e6f74206f776e0000000000000000000000000000000000000000000000602082015250565b7f4552433732313a20617070726f76616c20746f2063757272656e74206f776e6560008201527f7200000000000000000000000000000000000000000000000000000000000000602082015250565b7f4552433732313a207472616e736665722063616c6c6572206973206e6f74206f60008201527f776e6572206e6f7220617070726f766564000000000000000000000000000000602082015250565b61323481612bd4565b811461323f57600080fd5b50565b61324b81612be6565b811461325657600080fd5b50565b61326281612bf2565b811461326d57600080fd5b50565b61327981612c1e565b811461328457600080fd5b50565b61329081612c50565b811461329b57600080fd5b5056fe68747470733a2f2f736f756c2d667261676d656e74732d6170692e6f70656e7365612e696f2f636f6e74726163742f6f70656e7365612d736f756c2d667261676d656e747368747470733a2f2f736f756c2d667261676d656e74732d6170692e6f70656e7365612e696f2f6170692f736f756c2d667261676d656e742fa2646970667358221220f7b3071e3d547c77fededc9fa94d099c880811e9b1f57eda10c7aa4fac10146064736f6c63430008030033",
  "immutableReferences": {},
  "source": "// SPDX-License-Identifier: MIT\r\npragma solidity ^0.8.3;\r\n\r\nimport \"./ERC721Tradable.sol\";\r\nimport \"@openzeppelin/contracts/access/Ownable.sol\";\r\n\r\n/**\r\n * @title SoulFragment\r\n * SoulFragment - a contract for my non-fungible soul-fragments.\r\n */\r\ncontract SoulFragment is ERC721Tradable {\r\n    constructor(address _proxyRegistryAddress) public\r\n        ERC721Tradable(\"SoulFragment\", \"SOUL\", _proxyRegistryAddress)\r\n    {}\r\n\r\n    function baseTokenURI() public override pure returns (string memory) {\r\n        return \"https://soul-fragments-api.opensea.io/api/soul-fragment/\";\r\n    }\r\n\r\n    function contractURI() public pure returns (string memory) {\r\n        return \"https://soul-fragments-api.opensea.io/contract/opensea-soul-fragments\";\r\n    }\r\n}",
  "sourcePath": "C:\\Users\\editr\\OneDrive\\Desktop\\etherprojects\\SoulSwap\\contracts\\SoulFragment.sol",
  "compiler": {
    "name": "solc",
    "version": "0.8.3+commit.8d00100c.Emscripten.clang"
  },
  "schemaVersion": "3.3.3",
  "updatedAt": "2021-04-28T23:51:10.190Z",
  "devdoc": {
    "kind": "dev",
    "methods": {
      "approve(address,uint256)": {
        "details": "See {IERC721-approve}."
      },
      "balanceOf(address)": {
        "details": "See {IERC721-balanceOf}."
      },
      "getApproved(uint256)": {
        "details": "See {IERC721-getApproved}."
      },
      "mintTo(address)": {
        "details": "Mints a token to an address with a tokenURI.",
        "params": {
          "_to": "address of the future owner of the token"
        }
      },
      "name()": {
        "details": "See {IERC721Metadata-name}."
      },
      "owner()": {
        "details": "Returns the address of the current owner."
      },
      "ownerOf(uint256)": {
        "details": "See {IERC721-ownerOf}."
      },
      "renounceOwnership()": {
        "details": "Leaves the contract without owner. It will not be possible to call `onlyOwner` functions anymore. Can only be called by the current owner. NOTE: Renouncing ownership will leave the contract without an owner, thereby removing any functionality that is only available to the owner."
      },
      "safeTransferFrom(address,address,uint256)": {
        "details": "See {IERC721-safeTransferFrom}."
      },
      "safeTransferFrom(address,address,uint256,bytes)": {
        "details": "See {IERC721-safeTransferFrom}."
      },
      "setApprovalForAll(address,bool)": {
        "details": "See {IERC721-setApprovalForAll}."
      },
      "supportsInterface(bytes4)": {
        "details": "See {IERC165-supportsInterface}."
      },
      "symbol()": {
        "details": "See {IERC721Metadata-symbol}."
      },
      "totalSupply(uint256)": {
        "details": "Returns the total quantity for a token ID",
        "params": {
          "_id": "uint256 ID of the token to query"
        },
        "returns": {
          "_0": "amount of token in existence"
        }
      },
      "transferFrom(address,address,uint256)": {
        "details": "See {IERC721-transferFrom}."
      },
      "transferOwnership(address)": {
        "details": "Transfers ownership of the contract to a new account (`newOwner`). Can only be called by the current owner."
      }
    },
    "title": "SoulFragment SoulFragment - a contract for my non-fungible soul-fragments.",
    "version": 1
  },
  "userdoc": {
    "kind": "user",
    "methods": {
      "isApprovedForAll(address,address)": {
        "notice": "Override isApprovedForAll to whitelist user's OpenSea proxy accounts to enable gas-less listings."
      }
    },
    "version": 1
  }
}