{
  "contractName": "SoulFragment",
  "abi": [
    {
      "inputs": [
        {
          "internalType": "address",
          "name": "_proxyRegistryAddress",
          "type": "address"
        }
      ],
      "stateMutability": "nonpayable",
      "type": "constructor"
    },
    {
      "anonymous": false,
      "inputs": [
        {
          "indexed": true,
          "internalType": "address",
          "name": "owner",
          "type": "address"
        },
        {
          "indexed": true,
          "internalType": "address",
          "name": "approved",
          "type": "address"
        },
        {
          "indexed": true,
          "internalType": "uint256",
          "name": "tokenId",
          "type": "uint256"
        }
      ],
      "name": "Approval",
      "type": "event"
    },
    {
      "anonymous": false,
      "inputs": [
        {
          "indexed": true,
          "internalType": "address",
          "name": "owner",
          "type": "address"
        },
        {
          "indexed": true,
          "internalType": "address",
          "name": "operator",
          "type": "address"
        },
        {
          "indexed": false,
          "internalType": "bool",
          "name": "approved",
          "type": "bool"
        }
      ],
      "name": "ApprovalForAll",
      "type": "event"
    },
    {
      "anonymous": false,
      "inputs": [
        {
          "indexed": true,
          "internalType": "address",
          "name": "previousOwner",
          "type": "address"
        },
        {
          "indexed": true,
          "internalType": "address",
          "name": "newOwner",
          "type": "address"
        }
      ],
      "name": "OwnershipTransferred",
      "type": "event"
    },
    {
      "anonymous": false,
      "inputs": [
        {
          "indexed": true,
          "internalType": "address",
          "name": "from",
          "type": "address"
        },
        {
          "indexed": true,
          "internalType": "address",
          "name": "to",
          "type": "address"
        },
        {
          "indexed": true,
          "internalType": "uint256",
          "name": "tokenId",
          "type": "uint256"
        }
      ],
      "name": "Transfer",
      "type": "event"
    },
    {
      "inputs": [
        {
          "internalType": "address",
          "name": "to",
          "type": "address"
        },
        {
          "internalType": "uint256",
          "name": "tokenId",
          "type": "uint256"
        }
      ],
      "name": "approve",
      "outputs": [],
      "stateMutability": "nonpayable",
      "type": "function"
    },
    {
      "inputs": [
        {
          "internalType": "address",
          "name": "owner",
          "type": "address"
        }
      ],
      "name": "balanceOf",
      "outputs": [
        {
          "internalType": "uint256",
          "name": "",
          "type": "uint256"
        }
      ],
      "stateMutability": "view",
      "type": "function",
      "constant": true
    },
    {
      "inputs": [
        {
          "internalType": "uint256",
          "name": "tokenId",
          "type": "uint256"
        }
      ],
      "name": "getApproved",
      "outputs": [
        {
          "internalType": "address",
          "name": "",
          "type": "address"
        }
      ],
      "stateMutability": "view",
      "type": "function",
      "constant": true
    },
    {
      "inputs": [
        {
          "internalType": "address",
          "name": "owner",
          "type": "address"
        },
        {
          "internalType": "address",
          "name": "operator",
          "type": "address"
        }
      ],
      "name": "isApprovedForAll",
      "outputs": [
        {
          "internalType": "bool",
          "name": "",
          "type": "bool"
        }
      ],
      "stateMutability": "view",
      "type": "function",
      "constant": true
    },
    {
      "inputs": [
        {
          "internalType": "address",
          "name": "_to",
          "type": "address"
        }
      ],
      "name": "mintTo",
      "outputs": [],
      "stateMutability": "nonpayable",
      "type": "function"
    },
    {
      "inputs": [],
      "name": "name",
      "outputs": [
        {
          "internalType": "string",
          "name": "",
          "type": "string"
        }
      ],
      "stateMutability": "view",
      "type": "function",
      "constant": true
    },
    {
      "inputs": [],
      "name": "owner",
      "outputs": [
        {
          "internalType": "address",
          "name": "",
          "type": "address"
        }
      ],
      "stateMutability": "view",
      "type": "function",
      "constant": true
    },
    {
      "inputs": [
        {
          "internalType": "uint256",
          "name": "tokenId",
          "type": "uint256"
        }
      ],
      "name": "ownerOf",
      "outputs": [
        {
          "internalType": "address",
          "name": "",
          "type": "address"
        }
      ],
      "stateMutability": "view",
      "type": "function",
      "constant": true
    },
    {
      "inputs": [],
      "name": "renounceOwnership",
      "outputs": [],
      "stateMutability": "nonpayable",
      "type": "function"
    },
    {
      "inputs": [
        {
          "internalType": "address",
          "name": "from",
          "type": "address"
        },
        {
          "internalType": "address",
          "name": "to",
          "type": "address"
        },
        {
          "internalType": "uint256",
          "name": "tokenId",
          "type": "uint256"
        }
      ],
      "name": "safeTransferFrom",
      "outputs": [],
      "stateMutability": "nonpayable",
      "type": "function"
    },
    {
      "inputs": [
        {
          "internalType": "address",
          "name": "from",
          "type": "address"
        },
        {
          "internalType": "address",
          "name": "to",
          "type": "address"
        },
        {
          "internalType": "uint256",
          "name": "tokenId",
          "type": "uint256"
        },
        {
          "internalType": "bytes",
          "name": "_data",
          "type": "bytes"
        }
      ],
      "name": "safeTransferFrom",
      "outputs": [],
      "stateMutability": "nonpayable",
      "type": "function"
    },
    {
      "inputs": [
        {
          "internalType": "address",
          "name": "operator",
          "type": "address"
        },
        {
          "internalType": "bool",
          "name": "approved",
          "type": "bool"
        }
      ],
      "name": "setApprovalForAll",
      "outputs": [],
      "stateMutability": "nonpayable",
      "type": "function"
    },
    {
      "inputs": [
        {
          "internalType": "bytes4",
          "name": "interfaceId",
          "type": "bytes4"
        }
      ],
      "name": "supportsInterface",
      "outputs": [
        {
          "internalType": "bool",
          "name": "",
          "type": "bool"
        }
      ],
      "stateMutability": "view",
      "type": "function",
      "constant": true
    },
    {
      "inputs": [],
      "name": "symbol",
      "outputs": [
        {
          "internalType": "string",
          "name": "",
          "type": "string"
        }
      ],
      "stateMutability": "view",
      "type": "function",
      "constant": true
    },
    {
      "inputs": [
        {
          "internalType": "uint256",
          "name": "",
          "type": "uint256"
        }
      ],
      "name": "tokenSupply",
      "outputs": [
        {
          "internalType": "uint256",
          "name": "",
          "type": "uint256"
        }
      ],
      "stateMutability": "view",
      "type": "function",
      "constant": true
    },
    {
      "inputs": [
        {
          "internalType": "uint256",
          "name": "_tokenId",
          "type": "uint256"
        }
      ],
      "name": "tokenURI",
      "outputs": [
        {
          "internalType": "string",
          "name": "",
          "type": "string"
        }
      ],
      "stateMutability": "pure",
      "type": "function",
      "constant": true
    },
    {
      "inputs": [
        {
          "internalType": "uint256",
          "name": "_id",
          "type": "uint256"
        }
      ],
      "name": "totalSupply",
      "outputs": [
        {
          "internalType": "uint256",
          "name": "",
          "type": "uint256"
        }
      ],
      "stateMutability": "view",
      "type": "function",
      "constant": true
    },
    {
      "inputs": [
        {
          "internalType": "address",
          "name": "from",
          "type": "address"
        },
        {
          "internalType": "address",
          "name": "to",
          "type": "address"
        },
        {
          "internalType": "uint256",
          "name": "tokenId",
          "type": "uint256"
        }
      ],
      "name": "transferFrom",
      "outputs": [],
      "stateMutability": "nonpayable",
      "type": "function"
    },
    {
      "inputs": [
        {
          "internalType": "address",
          "name": "newOwner",
          "type": "address"
        }
      ],
      "name": "transferOwnership",
      "outputs": [],
      "stateMutability": "nonpayable",
      "type": "function"
    },
    {
      "inputs": [],
      "name": "baseTokenURI",
      "outputs": [
        {
          "internalType": "string",
          "name": "",
          "type": "string"
        }
      ],
      "stateMutability": "pure",
      "type": "function",
      "constant": true
    },
    {
      "inputs": [],
      "name": "contractURI",
      "outputs": [
        {
          "internalType": "string",
          "name": "",
          "type": "string"
        }
      ],
      "stateMutability": "pure",
      "type": "function",
      "constant": true
    }
  ],
  "bytecode": "0x608060405260006008553480156200001657600080fd5b50604051620036103803806200361083398181016040528101906200003c9190620002aa565b6040518060400160405280600c81526020017f536f756c467261676d656e7400000000000000000000000000000000000000008152506040518060400160405280600481526020017f534f554c000000000000000000000000000000000000000000000000000000008152508282828160009080519060200190620000c3929190620001e3565b508060019080519060200190620000dc929190620001e3565b5050506000620000f1620001db60201b60201c565b905080600660006101000a81548173ffffffffffffffffffffffffffffffffffffffff021916908373ffffffffffffffffffffffffffffffffffffffff1602179055508073ffffffffffffffffffffffffffffffffffffffff16600073ffffffffffffffffffffffffffffffffffffffff167f8be0079c531659141344cd1fd0a4f28419497f9722a3daafe3b4186f6b6457e060405160405180910390a35080600760006101000a81548173ffffffffffffffffffffffffffffffffffffffff021916908373ffffffffffffffffffffffffffffffffffffffff1602179055505050505062000389565b600033905090565b828054620001f1906200030a565b90600052602060002090601f01602090048101928262000215576000855562000261565b82601f106200023057805160ff191683800117855562000261565b8280016001018555821562000261579182015b828111156200026057825182559160200191906001019062000243565b5b50905062000270919062000274565b5090565b5b808211156200028f57600081600090555060010162000275565b5090565b600081519050620002a4816200036f565b92915050565b600060208284031215620002bd57600080fd5b6000620002cd8482850162000293565b91505092915050565b6000620002e382620002ea565b9050919050565b600073ffffffffffffffffffffffffffffffffffffffff82169050919050565b600060028204905060018216806200032357607f821691505b602082108114156200033a576200033962000340565b5b50919050565b7f4e487b7100000000000000000000000000000000000000000000000000000000600052602260045260246000fd5b6200037a81620002d6565b81146200038657600080fd5b50565b61327780620003996000396000f3fe608060405234801561001057600080fd5b50600436106101375760003560e01c8063755edd17116100b8578063bd85b0391161007c578063bd85b03914610338578063c87b56dd14610368578063d547cfb714610398578063e8a3d485146103b6578063e985e9c5146103d4578063f2fde38b1461040457610137565b8063755edd17146102a85780638da5cb5b146102c457806395d89b41146102e2578063a22cb46514610300578063b88d4fde1461031c57610137565b80632693ebf2116100ff5780632693ebf2146101f257806342842e0e146102225780636352211e1461023e57806370a082311461026e578063715018a61461029e57610137565b806301ffc9a71461013c57806306fdde031461016c578063081812fc1461018a578063095ea7b3146101ba57806323b872dd146101d6575b600080fd5b6101566004803603810190610151919061240b565b610420565b6040516101639190612b17565b60405180910390f35b610174610502565b6040516101819190612b32565b60405180910390f35b6101a4600480360381019061019f9190612486565b610594565b6040516101b19190612ab0565b60405180910390f35b6101d460048036038101906101cf91906123cf565b610619565b005b6101f060048036038101906101eb91906122c9565b610731565b005b61020c60048036038101906102079190612486565b610791565b6040516102199190612d34565b60405180910390f35b61023c600480360381019061023791906122c9565b6107a9565b005b61025860048036038101906102539190612486565b6107c9565b6040516102659190612ab0565b60405180910390f35b61028860048036038101906102839190612264565b61087b565b6040516102959190612d34565b60405180910390f35b6102a6610933565b005b6102c260048036038101906102bd9190612264565b610a70565b005b6102cc610b0e565b6040516102d99190612ab0565b60405180910390f35b6102ea610b38565b6040516102f79190612b32565b60405180910390f35b61031a60048036038101906103159190612393565b610bca565b005b61033660048036038101906103319190612318565b610d4b565b005b610352600480360381019061034d9190612486565b610dad565b60405161035f9190612d34565b60405180910390f35b610382600480360381019061037d9190612486565b610dca565b60405161038f9190612b32565b60405180910390f35b6103a0610dec565b6040516103ad9190612b32565b60405180910390f35b6103be610e0c565b6040516103cb9190612b32565b60405180910390f35b6103ee60048036038101906103e9919061228d565b610e2c565b6040516103fb9190612b17565b60405180910390f35b61041e60048036038101906104199190612264565b610f2e565b005b60007f80ac58cd000000000000000000000000000000000000000000000000000000007bffffffffffffffffffffffffffffffffffffffffffffffffffffffff1916827bffffffffffffffffffffffffffffffffffffffffffffffffffffffff191614806104eb57507f5b5e139f000000000000000000000000000000000000000000000000000000007bffffffffffffffffffffffffffffffffffffffffffffffffffffffff1916827bffffffffffffffffffffffffffffffffffffffffffffffffffffffff1916145b806104fb57506104fa826110da565b5b9050919050565b60606000805461051190613009565b80601f016020809104026020016040519081016040528092919081815260200182805461053d90613009565b801561058a5780601f1061055f5761010080835404028352916020019161058a565b820191906000526020600020905b81548152906001019060200180831161056d57829003601f168201915b5050505050905090565b600061059f82611144565b6105de576040517f08c379a00000000000000000000000000000000000000000000000000000000081526004016105d590612c94565b60405180910390fd5b6004600083815260200190815260200160002060009054906101000a900473ffffffffffffffffffffffffffffffffffffffff169050919050565b6000610624826107c9565b90508073ffffffffffffffffffffffffffffffffffffffff168373ffffffffffffffffffffffffffffffffffffffff161415610695576040517f08c379a000000000000000000000000000000000000000000000000000000000815260040161068c90612cf4565b60405180910390fd5b8073ffffffffffffffffffffffffffffffffffffffff166106b46111b0565b73ffffffffffffffffffffffffffffffffffffffff1614806106e357506106e2816106dd6111b0565b6111b8565b5b610722576040517f08c379a000000000000000000000000000000000000000000000000000000000815260040161071990612c14565b60405180910390fd5b61072c838361124c565b505050565b61074261073c6111b0565b82611305565b610781576040517f08c379a000000000000000000000000000000000000000000000000000000000815260040161077890612d14565b60405180910390fd5b61078c8383836113e3565b505050565b60096020528060005260406000206000915090505481565b6107c483838360405180602001604052806000815250610d4b565b505050565b6000806002600084815260200190815260200160002060009054906101000a900473ffffffffffffffffffffffffffffffffffffffff169050600073ffffffffffffffffffffffffffffffffffffffff168173ffffffffffffffffffffffffffffffffffffffff161415610872576040517f08c379a000000000000000000000000000000000000000000000000000000000815260040161086990612c54565b60405180910390fd5b80915050919050565b60008073ffffffffffffffffffffffffffffffffffffffff168273ffffffffffffffffffffffffffffffffffffffff1614156108ec576040517f08c379a00000000000000000000000000000000000000000000000000000000081526004016108e390612c34565b60405180910390fd5b600360008373ffffffffffffffffffffffffffffffffffffffff1673ffffffffffffffffffffffffffffffffffffffff168152602001908152602001600020549050919050565b61093b6111b0565b73ffffffffffffffffffffffffffffffffffffffff16610959610b0e565b73ffffffffffffffffffffffffffffffffffffffff16146109af576040517f08c379a00000000000000000000000000000000000000000000000000000000081526004016109a690612cb4565b60405180910390fd5b600073ffffffffffffffffffffffffffffffffffffffff16600660009054906101000a900473ffffffffffffffffffffffffffffffffffffffff1673ffffffffffffffffffffffffffffffffffffffff167f8be0079c531659141344cd1fd0a4f28419497f9722a3daafe3b4186f6b6457e060405160405180910390a36000600660006101000a81548173ffffffffffffffffffffffffffffffffffffffff021916908373ffffffffffffffffffffffffffffffffffffffff160217905550565b610a786111b0565b73ffffffffffffffffffffffffffffffffffffffff16610a96610b0e565b73ffffffffffffffffffffffffffffffffffffffff1614610aec576040517f08c379a0000000000000000000000000000000000000000000000000000000008152600401610ae390612cb4565b60405180910390fd5b6000610af661163f565b9050610b02828261165d565b610b0a61182b565b5050565b6000600660009054906101000a900473ffffffffffffffffffffffffffffffffffffffff16905090565b606060018054610b4790613009565b80601f0160208091040260200160405190810160405280929190818152602001828054610b7390613009565b8015610bc05780601f10610b9557610100808354040283529160200191610bc0565b820191906000526020600020905b815481529060010190602001808311610ba357829003601f168201915b5050505050905090565b610bd26111b0565b73ffffffffffffffffffffffffffffffffffffffff168273ffffffffffffffffffffffffffffffffffffffff161415610c40576040517f08c379a0000000000000000000000000000000000000000000000000000000008152600401610c3790612bd4565b60405180910390fd5b8060056000610c4d6111b0565b73ffffffffffffffffffffffffffffffffffffffff1673ffffffffffffffffffffffffffffffffffffffff16815260200190815260200160002060008473ffffffffffffffffffffffffffffffffffffffff1673ffffffffffffffffffffffffffffffffffffffff16815260200190815260200160002060006101000a81548160ff0219169083151502179055508173ffffffffffffffffffffffffffffffffffffffff16610cfa6111b0565b73ffffffffffffffffffffffffffffffffffffffff167f17307eab39ab6107e8899845ad3d59bd9653f200f220920489ca2b5937696c3183604051610d3f9190612b17565b60405180910390a35050565b610d5c610d566111b0565b83611305565b610d9b576040517f08c379a0000000000000000000000000000000000000000000000000000000008152600401610d9290612d14565b60405180910390fd5b610da784848484611845565b50505050565b600060096000838152602001908152602001600020549050919050565b6060610de5610dd7610dec565b610de0846118a1565b611a76565b9050919050565b606060405180606001604052806038815260200161320a60389139905090565b60606040518060800160405280604581526020016131c560459139905090565b600080600760009054906101000a900473ffffffffffffffffffffffffffffffffffffffff1690508273ffffffffffffffffffffffffffffffffffffffff168173ffffffffffffffffffffffffffffffffffffffff1663c4552791866040518263ffffffff1660e01b8152600401610ea49190612ab0565b60206040518083038186803b158015610ebc57600080fd5b505afa158015610ed0573d6000803e3d6000fd5b505050506040513d601f19601f82011682018060405250810190610ef4919061245d565b73ffffffffffffffffffffffffffffffffffffffff161415610f1a576001915050610f28565b610f2484846111b8565b9150505b92915050565b610f366111b0565b73ffffffffffffffffffffffffffffffffffffffff16610f54610b0e565b73ffffffffffffffffffffffffffffffffffffffff1614610faa576040517f08c379a0000000000000000000000000000000000000000000000000000000008152600401610fa190612cb4565b60405180910390fd5b600073ffffffffffffffffffffffffffffffffffffffff168173ffffffffffffffffffffffffffffffffffffffff16141561101a576040517f08c379a000000000000000000000000000000000000000000000000000000000815260040161101190612b74565b60405180910390fd5b8073ffffffffffffffffffffffffffffffffffffffff16600660009054906101000a900473ffffffffffffffffffffffffffffffffffffffff1673ffffffffffffffffffffffffffffffffffffffff167f8be0079c531659141344cd1fd0a4f28419497f9722a3daafe3b4186f6b6457e060405160405180910390a380600660006101000a81548173ffffffffffffffffffffffffffffffffffffffff021916908373ffffffffffffffffffffffffffffffffffffffff16021790555050565b60007f01ffc9a7000000000000000000000000000000000000000000000000000000007bffffffffffffffffffffffffffffffffffffffffffffffffffffffff1916827bffffffffffffffffffffffffffffffffffffffffffffffffffffffff1916149050919050565b60008073ffffffffffffffffffffffffffffffffffffffff166002600084815260200190815260200160002060009054906101000a900473ffffffffffffffffffffffffffffffffffffffff1673ffffffffffffffffffffffffffffffffffffffff1614159050919050565b600033905090565b6000600560008473ffffffffffffffffffffffffffffffffffffffff1673ffffffffffffffffffffffffffffffffffffffff16815260200190815260200160002060008373ffffffffffffffffffffffffffffffffffffffff1673ffffffffffffffffffffffffffffffffffffffff16815260200190815260200160002060009054906101000a900460ff16905092915050565b816004600083815260200190815260200160002060006101000a81548173ffffffffffffffffffffffffffffffffffffffff021916908373ffffffffffffffffffffffffffffffffffffffff160217905550808273ffffffffffffffffffffffffffffffffffffffff166112bf836107c9565b73ffffffffffffffffffffffffffffffffffffffff167f8c5be1e5ebec7d5bd14f71427d1e84f3dd0314c0f7b2291e5b200ac8c7c3b92560405160405180910390a45050565b600061131082611144565b61134f576040517f08c379a000000000000000000000000000000000000000000000000000000000815260040161134690612bf4565b60405180910390fd5b600061135a836107c9565b90508073ffffffffffffffffffffffffffffffffffffffff168473ffffffffffffffffffffffffffffffffffffffff1614806113c957508373ffffffffffffffffffffffffffffffffffffffff166113b184610594565b73ffffffffffffffffffffffffffffffffffffffff16145b806113da57506113d981856111b8565b5b91505092915050565b8273ffffffffffffffffffffffffffffffffffffffff16611403826107c9565b73ffffffffffffffffffffffffffffffffffffffff1614611459576040517f08c379a000000000000000000000000000000000000000000000000000000000815260040161145090612cd4565b60405180910390fd5b600073ffffffffffffffffffffffffffffffffffffffff168273ffffffffffffffffffffffffffffffffffffffff1614156114c9576040517f08c379a00000000000000000000000000000000000000000000000000000000081526004016114c090612bb4565b60405180910390fd5b6114d4838383611aba565b6114df60008261124c565b6001600360008573ffffffffffffffffffffffffffffffffffffffff1673ffffffffffffffffffffffffffffffffffffffff168152602001908152602001600020600082825461152f9190612f00565b925050819055506001600360008473ffffffffffffffffffffffffffffffffffffffff1673ffffffffffffffffffffffffffffffffffffffff16815260200190815260200160002060008282546115869190612de8565b92505081905550816002600083815260200190815260200160002060006101000a81548173ffffffffffffffffffffffffffffffffffffffff021916908373ffffffffffffffffffffffffffffffffffffffff160217905550808273ffffffffffffffffffffffffffffffffffffffff168473ffffffffffffffffffffffffffffffffffffffff167fddf252ad1be2c89b69c2b068fc378daa952ba7f163c4a11628f55a4df523b3ef60405160405180910390a4505050565b6000600860008154809291906116549061303b565b91905055905090565b600073ffffffffffffffffffffffffffffffffffffffff168273ffffffffffffffffffffffffffffffffffffffff1614156116cd576040517f08c379a00000000000000000000000000000000000000000000000000000000081526004016116c490612c74565b60405180910390fd5b6116d681611144565b15611716576040517f08c379a000000000000000000000000000000000000000000000000000000000815260040161170d90612b94565b60405180910390fd5b61172260008383611aba565b6001600360008473ffffffffffffffffffffffffffffffffffffffff1673ffffffffffffffffffffffffffffffffffffffff16815260200190815260200160002060008282546117729190612de8565b92505081905550816002600083815260200190815260200160002060006101000a81548173ffffffffffffffffffffffffffffffffffffffff021916908373ffffffffffffffffffffffffffffffffffffffff160217905550808273ffffffffffffffffffffffffffffffffffffffff16600073ffffffffffffffffffffffffffffffffffffffff167fddf252ad1be2c89b69c2b068fc378daa952ba7f163c4a11628f55a4df523b3ef60405160405180910390a45050565b6008600081548092919061183e9061303b565b9190505550565b6118508484846113e3565b61185c84848484611abf565b61189b576040517f08c379a000000000000000000000000000000000000000000000000000000000815260040161189290612b54565b60405180910390fd5b50505050565b606060008214156118e9576040518060400160405280600181526020017f30000000000000000000000000000000000000000000000000000000000000008152509050611a71565b600082905060005b6000821461191b5780806119049061303b565b915050600a826119149190612e75565b91506118f1565b60008167ffffffffffffffff81111561195d577f4e487b7100000000000000000000000000000000000000000000000000000000600052604160045260246000fd5b6040519080825280601f01601f19166020018201604052801561198f5781602001600182028036833780820191505090505b50905060008290505b60008614611a69576001816119ad9190612f00565b90506000600a80886119bf9190612e75565b6119c99190612ea6565b876119d49190612f00565b60306119e09190612e3e565b905060008160f81b905080848481518110611a24577f4e487b7100000000000000000000000000000000000000000000000000000000600052603260045260246000fd5b60200101907effffffffffffffffffffffffffffffffffffffffffffffffffffffffffffff1916908160001a905350600a88611a609190612e75565b97505050611998565b819450505050505b919050565b6060611ab28383604051806020016040528060008152506040518060200160405280600081525060405180602001604052806000815250611c56565b905092915050565b505050565b6000611ae08473ffffffffffffffffffffffffffffffffffffffff1661216b565b15611c49578373ffffffffffffffffffffffffffffffffffffffff1663150b7a02611b096111b0565b8786866040518563ffffffff1660e01b8152600401611b2b9493929190612acb565b602060405180830381600087803b158015611b4557600080fd5b505af1925050508015611b7657506040513d601f19601f82011682018060405250810190611b739190612434565b60015b611bf9573d8060008114611ba6576040519150601f19603f3d011682016040523d82523d6000602084013e611bab565b606091505b50600081511415611bf1576040517f08c379a0000000000000000000000000000000000000000000000000000000008152600401611be890612b54565b60405180910390fd5b805181602001fd5b63150b7a0260e01b7bffffffffffffffffffffffffffffffffffffffffffffffffffffffff1916817bffffffffffffffffffffffffffffffffffffffffffffffffffffffff191614915050611c4e565b600190505b949350505050565b606060008690506000869050600086905060008690506000869050600081518351855187518951611c879190612de8565b611c919190612de8565b611c9b9190612de8565b611ca59190612de8565b67ffffffffffffffff811115611ce4577f4e487b7100000000000000000000000000000000000000000000000000000000600052604160045260246000fd5b6040519080825280601f01601f191660200182016040528015611d165781602001600182028036833780820191505090505b50905060008190506000805b8851811015611df657888181518110611d64577f4e487b7100000000000000000000000000000000000000000000000000000000600052603260045260246000fd5b602001015160f81c60f81b838380611d7b9061303b565b945081518110611db4577f4e487b7100000000000000000000000000000000000000000000000000000000600052603260045260246000fd5b60200101907effffffffffffffffffffffffffffffffffffffffffffffffffffffffffffff1916908160001a9053508080611dee9061303b565b915050611d22565b5060005b8751811015611ece57878181518110611e3c577f4e487b7100000000000000000000000000000000000000000000000000000000600052603260045260246000fd5b602001015160f81c60f81b838380611e539061303b565b945081518110611e8c577f4e487b7100000000000000000000000000000000000000000000000000000000600052603260045260246000fd5b60200101907effffffffffffffffffffffffffffffffffffffffffffffffffffffffffffff1916908160001a9053508080611ec69061303b565b915050611dfa565b5060005b8651811015611fa657868181518110611f14577f4e487b7100000000000000000000000000000000000000000000000000000000600052603260045260246000fd5b602001015160f81c60f81b838380611f2b9061303b565b945081518110611f64577f4e487b7100000000000000000000000000000000000000000000000000000000600052603260045260246000fd5b60200101907effffffffffffffffffffffffffffffffffffffffffffffffffffffffffffff1916908160001a9053508080611f9e9061303b565b915050611ed2565b5060005b855181101561207e57858181518110611fec577f4e487b7100000000000000000000000000000000000000000000000000000000600052603260045260246000fd5b602001015160f81c60f81b8383806120039061303b565b94508151811061203c577f4e487b7100000000000000000000000000000000000000000000000000000000600052603260045260246000fd5b60200101907effffffffffffffffffffffffffffffffffffffffffffffffffffffffffffff1916908160001a90535080806120769061303b565b915050611faa565b5060005b8451811015612156578481815181106120c4577f4e487b7100000000000000000000000000000000000000000000000000000000600052603260045260246000fd5b602001015160f81c60f81b8383806120db9061303b565b945081518110612114577f4e487b7100000000000000000000000000000000000000000000000000000000600052603260045260246000fd5b60200101907effffffffffffffffffffffffffffffffffffffffffffffffffffffffffffff1916908160001a905350808061214e9061303b565b915050612082565b50819850505050505050505095945050505050565b600080823b905060008111915050919050565b600061219161218c84612d80565b612d4f565b9050828152602081018484840111156121a957600080fd5b6121b4848285612fc7565b509392505050565b6000813590506121cb81613151565b92915050565b6000813590506121e081613168565b92915050565b6000813590506121f58161317f565b92915050565b60008151905061220a8161317f565b92915050565b600082601f83011261222157600080fd5b813561223184826020860161217e565b91505092915050565b60008151905061224981613196565b92915050565b60008135905061225e816131ad565b92915050565b60006020828403121561227657600080fd5b6000612284848285016121bc565b91505092915050565b600080604083850312156122a057600080fd5b60006122ae858286016121bc565b92505060206122bf858286016121bc565b9150509250929050565b6000806000606084860312156122de57600080fd5b60006122ec868287016121bc565b93505060206122fd868287016121bc565b925050604061230e8682870161224f565b9150509250925092565b6000806000806080858703121561232e57600080fd5b600061233c878288016121bc565b945050602061234d878288016121bc565b935050604061235e8782880161224f565b925050606085013567ffffffffffffffff81111561237b57600080fd5b61238787828801612210565b91505092959194509250565b600080604083850312156123a657600080fd5b60006123b4858286016121bc565b92505060206123c5858286016121d1565b9150509250929050565b600080604083850312156123e257600080fd5b60006123f0858286016121bc565b92505060206124018582860161224f565b9150509250929050565b60006020828403121561241d57600080fd5b600061242b848285016121e6565b91505092915050565b60006020828403121561244657600080fd5b6000612454848285016121fb565b91505092915050565b60006020828403121561246f57600080fd5b600061247d8482850161223a565b91505092915050565b60006020828403121561249857600080fd5b60006124a68482850161224f565b91505092915050565b6124b881612f34565b82525050565b6124c781612f46565b82525050565b60006124d882612db0565b6124e28185612dc6565b93506124f2818560208601612fd6565b6124fb81613140565b840191505092915050565b600061251182612dbb565b61251b8185612dd7565b935061252b818560208601612fd6565b61253481613140565b840191505092915050565b600061254c603283612dd7565b91507f4552433732313a207472616e7366657220746f206e6f6e20455243373231526560008301527f63656976657220696d706c656d656e74657200000000000000000000000000006020830152604082019050919050565b60006125b2602683612dd7565b91507f4f776e61626c653a206e6577206f776e657220697320746865207a65726f206160008301527f64647265737300000000000000000000000000000000000000000000000000006020830152604082019050919050565b6000612618601c83612dd7565b91507f4552433732313a20746f6b656e20616c7265616479206d696e746564000000006000830152602082019050919050565b6000612658602483612dd7565b91507f4552433732313a207472616e7366657220746f20746865207a65726f2061646460008301527f72657373000000000000000000000000000000000000000000000000000000006020830152604082019050919050565b60006126be601983612dd7565b91507f4552433732313a20617070726f766520746f2063616c6c6572000000000000006000830152602082019050919050565b60006126fe602c83612dd7565b91507f4552433732313a206f70657261746f7220717565727920666f72206e6f6e657860008301527f697374656e7420746f6b656e00000000000000000000000000000000000000006020830152604082019050919050565b6000612764603883612dd7565b91507f4552433732313a20617070726f76652063616c6c6572206973206e6f74206f7760008301527f6e6572206e6f7220617070726f76656420666f7220616c6c00000000000000006020830152604082019050919050565b60006127ca602a83612dd7565b91507f4552433732313a2062616c616e636520717565727920666f7220746865207a6560008301527f726f2061646472657373000000000000000000000000000000000000000000006020830152604082019050919050565b6000612830602983612dd7565b91507f4552433732313a206f776e657220717565727920666f72206e6f6e657869737460008301527f656e7420746f6b656e00000000000000000000000000000000000000000000006020830152604082019050919050565b6000612896602083612dd7565b91507f4552433732313a206d696e7420746f20746865207a65726f20616464726573736000830152602082019050919050565b60006128d6602c83612dd7565b91507f4552433732313a20617070726f76656420717565727920666f72206e6f6e657860008301527f697374656e7420746f6b656e00000000000000000000000000000000000000006020830152604082019050919050565b600061293c602083612dd7565b91507f4f776e61626c653a2063616c6c6572206973206e6f7420746865206f776e65726000830152602082019050919050565b600061297c602983612dd7565b91507f4552433732313a207472616e73666572206f6620746f6b656e2074686174206960008301527f73206e6f74206f776e00000000000000000000000000000000000000000000006020830152604082019050919050565b60006129e2602183612dd7565b91507f4552433732313a20617070726f76616c20746f2063757272656e74206f776e6560008301527f72000000000000000000000000000000000000000000000000000000000000006020830152604082019050919050565b6000612a48603183612dd7565b91507f4552433732313a207472616e736665722063616c6c6572206973206e6f74206f60008301527f776e6572206e6f7220617070726f7665640000000000000000000000000000006020830152604082019050919050565b612aaa81612fb0565b82525050565b6000602082019050612ac560008301846124af565b92915050565b6000608082019050612ae060008301876124af565b612aed60208301866124af565b612afa6040830185612aa1565b8181036060830152612b0c81846124cd565b905095945050505050565b6000602082019050612b2c60008301846124be565b92915050565b60006020820190508181036000830152612b4c8184612506565b905092915050565b60006020820190508181036000830152612b6d8161253f565b9050919050565b60006020820190508181036000830152612b8d816125a5565b9050919050565b60006020820190508181036000830152612bad8161260b565b9050919050565b60006020820190508181036000830152612bcd8161264b565b9050919050565b60006020820190508181036000830152612bed816126b1565b9050919050565b60006020820190508181036000830152612c0d816126f1565b9050919050565b60006020820190508181036000830152612c2d81612757565b9050919050565b60006020820190508181036000830152612c4d816127bd565b9050919050565b60006020820190508181036000830152612c6d81612823565b9050919050565b60006020820190508181036000830152612c8d81612889565b9050919050565b60006020820190508181036000830152612cad816128c9565b9050919050565b60006020820190508181036000830152612ccd8161292f565b9050919050565b60006020820190508181036000830152612ced8161296f565b9050919050565b60006020820190508181036000830152612d0d816129d5565b9050919050565b60006020820190508181036000830152612d2d81612a3b565b9050919050565b6000602082019050612d496000830184612aa1565b92915050565b6000604051905081810181811067ffffffffffffffff82111715612d7657612d75613111565b5b8060405250919050565b600067ffffffffffffffff821115612d9b57612d9a613111565b5b601f19601f8301169050602081019050919050565b600081519050919050565b600081519050919050565b600082825260208201905092915050565b600082825260208201905092915050565b6000612df382612fb0565b9150612dfe83612fb0565b9250827fffffffffffffffffffffffffffffffffffffffffffffffffffffffffffffffff03821115612e3357612e32613084565b5b828201905092915050565b6000612e4982612fba565b9150612e5483612fba565b92508260ff03821115612e6a57612e69613084565b5b828201905092915050565b6000612e8082612fb0565b9150612e8b83612fb0565b925082612e9b57612e9a6130b3565b5b828204905092915050565b6000612eb182612fb0565b9150612ebc83612fb0565b9250817fffffffffffffffffffffffffffffffffffffffffffffffffffffffffffffffff0483118215151615612ef557612ef4613084565b5b828202905092915050565b6000612f0b82612fb0565b9150612f1683612fb0565b925082821015612f2957612f28613084565b5b828203905092915050565b6000612f3f82612f90565b9050919050565b60008115159050919050565b60007fffffffff0000000000000000000000000000000000000000000000000000000082169050919050565b6000612f8982612f34565b9050919050565b600073ffffffffffffffffffffffffffffffffffffffff82169050919050565b6000819050919050565b600060ff82169050919050565b82818337600083830152505050565b60005b83811015612ff4578082015181840152602081019050612fd9565b83811115613003576000848401525b50505050565b6000600282049050600182168061302157607f821691505b60208210811415613035576130346130e2565b5b50919050565b600061304682612fb0565b91507fffffffffffffffffffffffffffffffffffffffffffffffffffffffffffffffff82141561307957613078613084565b5b600182019050919050565b7f4e487b7100000000000000000000000000000000000000000000000000000000600052601160045260246000fd5b7f4e487b7100000000000000000000000000000000000000000000000000000000600052601260045260246000fd5b7f4e487b7100000000000000000000000000000000000000000000000000000000600052602260045260246000fd5b7f4e487b7100000000000000000000000000000000000000000000000000000000600052604160045260246000fd5b6000601f19601f8301169050919050565b61315a81612f34565b811461316557600080fd5b50565b61317181612f46565b811461317c57600080fd5b50565b61318881612f52565b811461319357600080fd5b50565b61319f81612f7e565b81146131aa57600080fd5b50565b6131b681612fb0565b81146131c157600080fd5b5056fe68747470733a2f2f736f756c2d667261676d656e74732d6170692e6f70656e7365612e696f2f636f6e74726163742f6f70656e7365612d736f756c2d667261676d656e747368747470733a2f2f736f756c2d667261676d656e74732d6170692e6f70656e7365612e696f2f6170692f736f756c2d667261676d656e742fa2646970667358221220a21ac0d3b324ce31433d799bf0e9fe1db3a1ad3ba19bec1af1aadf92edad0c6264736f6c63430008000033",
  "immutableReferences": {},
  "source": "// SPDX-License-Identifier: MIT\r\npragma solidity ^0.8.0;\r\n\r\nimport \"./ERC721Tradable.sol\";\r\nimport \"@openzeppelin/contracts/access/Ownable.sol\";\r\n\r\n/**\r\n * @title SoulFragment\r\n * SoulFragment - a contract for my non-fungible soul-fragments.\r\n */\r\ncontract SoulFragment is ERC721Tradable {\r\n    constructor(address _proxyRegistryAddress) public\r\n        ERC721Tradable(\"SoulFragment\", \"SOUL\", _proxyRegistryAddress)\r\n    {}\r\n\r\n    function baseTokenURI() public override pure returns (string memory) {\r\n        return \"https://soul-fragments-api.opensea.io/api/soul-fragment/\";\r\n    }\r\n\r\n    function contractURI() public pure returns (string memory) {\r\n        return \"https://soul-fragments-api.opensea.io/contract/opensea-soul-fragments\";\r\n    }\r\n}",
  "sourcePath": "C:\\Users\\editr\\OneDrive\\Desktop\\etherprojects\\SoulSwap\\contracts\\SoulFragment.sol",
  "compiler": {
    "name": "solc",
    "version": "0.8.0+commit.c7dfd78e.Emscripten.clang"
  },
  "schemaVersion": "3.3.3",
  "updatedAt": "2021-04-29T05:35:14.957Z",
  "networkType": "ethereum",
  "devdoc": {
    "kind": "dev",
    "methods": {
      "approve(address,uint256)": {
        "details": "See {IERC721-approve}."
      },
      "balanceOf(address)": {
        "details": "See {IERC721-balanceOf}."
      },
      "getApproved(uint256)": {
        "details": "See {IERC721-getApproved}."
      },
      "mintTo(address)": {
        "details": "Mints a token to an address with a tokenURI.",
        "params": {
          "_to": "address of the future owner of the token"
        }
      },
      "name()": {
        "details": "See {IERC721Metadata-name}."
      },
      "owner()": {
        "details": "Returns the address of the current owner."
      },
      "ownerOf(uint256)": {
        "details": "See {IERC721-ownerOf}."
      },
      "renounceOwnership()": {
        "details": "Leaves the contract without owner. It will not be possible to call `onlyOwner` functions anymore. Can only be called by the current owner. NOTE: Renouncing ownership will leave the contract without an owner, thereby removing any functionality that is only available to the owner."
      },
      "safeTransferFrom(address,address,uint256)": {
        "details": "See {IERC721-safeTransferFrom}."
      },
      "safeTransferFrom(address,address,uint256,bytes)": {
        "details": "See {IERC721-safeTransferFrom}."
      },
      "setApprovalForAll(address,bool)": {
        "details": "See {IERC721-setApprovalForAll}."
      },
      "supportsInterface(bytes4)": {
        "details": "See {IERC165-supportsInterface}."
      },
      "symbol()": {
        "details": "See {IERC721Metadata-symbol}."
      },
      "totalSupply(uint256)": {
        "details": "Returns the total quantity for a token ID",
        "params": {
          "_id": "uint256 ID of the token to query"
        },
        "returns": {
          "_0": "amount of token in existence"
        }
      },
      "transferFrom(address,address,uint256)": {
        "details": "See {IERC721-transferFrom}."
      },
      "transferOwnership(address)": {
        "details": "Transfers ownership of the contract to a new account (`newOwner`). Can only be called by the current owner."
      }
    },
    "title": "SoulFragment SoulFragment - a contract for my non-fungible soul-fragments.",
    "version": 1
  },
  "userdoc": {
    "kind": "user",
    "methods": {
      "isApprovedForAll(address,address)": {
        "notice": "Override isApprovedForAll to whitelist user's OpenSea proxy accounts to enable gas-less listings."
      }
    },
    "version": 1
  }
}