{
  "contractName": "SoulFragmentFactory",
  "abi": [
    {
      "inputs": [
        {
          "internalType": "address",
          "name": "_proxyRegistryAddress",
          "type": "address"
        },
        {
          "internalType": "address",
          "name": "_nftAddress",
          "type": "address"
        }
      ],
      "stateMutability": "nonpayable",
      "type": "constructor"
    },
    {
      "anonymous": false,
      "inputs": [
        {
          "indexed": true,
          "internalType": "address",
          "name": "previousOwner",
          "type": "address"
        },
        {
          "indexed": true,
          "internalType": "address",
          "name": "newOwner",
          "type": "address"
        }
      ],
      "name": "OwnershipTransferred",
      "type": "event"
    },
    {
      "inputs": [],
      "name": "baseURI",
      "outputs": [
        {
          "internalType": "string",
          "name": "",
          "type": "string"
        }
      ],
      "stateMutability": "view",
      "type": "function",
      "constant": true
    },
    {
      "inputs": [
        {
          "internalType": "bytes32",
          "name": "",
          "type": "bytes32"
        }
      ],
      "name": "currentFragmentCount",
      "outputs": [
        {
          "internalType": "uint256",
          "name": "",
          "type": "uint256"
        }
      ],
      "stateMutability": "view",
      "type": "function",
      "constant": true
    },
    {
      "inputs": [
        {
          "internalType": "bytes32",
          "name": "",
          "type": "bytes32"
        }
      ],
      "name": "maxFragmentSupply",
      "outputs": [
        {
          "internalType": "uint256",
          "name": "",
          "type": "uint256"
        }
      ],
      "stateMutability": "view",
      "type": "function",
      "constant": true
    },
    {
      "inputs": [],
      "name": "nftAddress",
      "outputs": [
        {
          "internalType": "address",
          "name": "",
          "type": "address"
        }
      ],
      "stateMutability": "view",
      "type": "function",
      "constant": true
    },
    {
      "inputs": [],
      "name": "owner",
      "outputs": [
        {
          "internalType": "address",
          "name": "",
          "type": "address"
        }
      ],
      "stateMutability": "view",
      "type": "function",
      "constant": true
    },
    {
      "inputs": [],
      "name": "proxyRegistryAddress",
      "outputs": [
        {
          "internalType": "address",
          "name": "",
          "type": "address"
        }
      ],
      "stateMutability": "view",
      "type": "function",
      "constant": true
    },
    {
      "inputs": [],
      "name": "renounceOwnership",
      "outputs": [],
      "stateMutability": "nonpayable",
      "type": "function"
    },
    {
      "inputs": [],
      "name": "name",
      "outputs": [
        {
          "internalType": "string",
          "name": "",
          "type": "string"
        }
      ],
      "stateMutability": "view",
      "type": "function",
      "constant": true
    },
    {
      "inputs": [],
      "name": "symbol",
      "outputs": [
        {
          "internalType": "string",
          "name": "",
          "type": "string"
        }
      ],
      "stateMutability": "view",
      "type": "function",
      "constant": true
    },
    {
      "inputs": [],
      "name": "supportsFactoryInterface",
      "outputs": [
        {
          "internalType": "bool",
          "name": "",
          "type": "bool"
        }
      ],
      "stateMutability": "view",
      "type": "function",
      "constant": true
    },
    {
      "inputs": [],
      "name": "numOptions",
      "outputs": [
        {
          "internalType": "uint256",
          "name": "",
          "type": "uint256"
        }
      ],
      "stateMutability": "view",
      "type": "function",
      "constant": true
    },
    {
      "inputs": [
        {
          "internalType": "address",
          "name": "newOwner",
          "type": "address"
        }
      ],
      "name": "transferOwnership",
      "outputs": [],
      "stateMutability": "nonpayable",
      "type": "function"
    },
    {
      "inputs": [
        {
          "internalType": "uint256",
          "name": "_optionId",
          "type": "uint256"
        },
        {
          "internalType": "address",
          "name": "_toAddress",
          "type": "address"
        }
      ],
      "name": "mint",
      "outputs": [],
      "stateMutability": "nonpayable",
      "type": "function"
    },
    {
      "inputs": [
        {
          "internalType": "string",
          "name": "soulName",
          "type": "string"
        },
        {
          "internalType": "uint256",
          "name": "total",
          "type": "uint256"
        }
      ],
      "name": "setMaxFragmentSupply",
      "outputs": [],
      "stateMutability": "nonpayable",
      "type": "function"
    },
    {
      "inputs": [
        {
          "internalType": "string",
          "name": "soulName",
          "type": "string"
        }
      ],
      "name": "getMaxFragmentSupply",
      "outputs": [
        {
          "internalType": "uint256",
          "name": "",
          "type": "uint256"
        }
      ],
      "stateMutability": "view",
      "type": "function",
      "constant": true
    },
    {
      "inputs": [
        {
          "internalType": "string",
          "name": "soulName",
          "type": "string"
        }
      ],
      "name": "getCurrentFragmentCount",
      "outputs": [
        {
          "internalType": "uint256",
          "name": "",
          "type": "uint256"
        }
      ],
      "stateMutability": "view",
      "type": "function",
      "constant": true
    },
    {
      "inputs": [
        {
          "internalType": "string",
          "name": "_tokenURI",
          "type": "string"
        },
        {
          "internalType": "address",
          "name": "_toAddress",
          "type": "address"
        },
        {
          "internalType": "uint256",
          "name": "totalRequest",
          "type": "uint256"
        },
        {
          "internalType": "string",
          "name": "soulName",
          "type": "string"
        }
      ],
      "name": "mintTokenURI",
      "outputs": [],
      "stateMutability": "nonpayable",
      "type": "function"
    },
    {
      "inputs": [
        {
          "internalType": "bytes32",
          "name": "hashedSoulName",
          "type": "bytes32"
        }
      ],
      "name": "_canMint",
      "outputs": [
        {
          "internalType": "bool",
          "name": "",
          "type": "bool"
        }
      ],
      "stateMutability": "view",
      "type": "function",
      "constant": true
    },
    {
      "inputs": [
        {
          "internalType": "uint256",
          "name": "_optionId",
          "type": "uint256"
        }
      ],
      "name": "canMint",
      "outputs": [
        {
          "internalType": "bool",
          "name": "",
          "type": "bool"
        }
      ],
      "stateMutability": "view",
      "type": "function",
      "constant": true
    },
    {
      "inputs": [
        {
          "internalType": "string",
          "name": "metadataURI",
          "type": "string"
        }
      ],
      "name": "tokenURI",
      "outputs": [
        {
          "internalType": "string",
          "name": "",
          "type": "string"
        }
      ],
      "stateMutability": "view",
      "type": "function",
      "constant": true
    },
    {
      "inputs": [
        {
          "internalType": "uint256",
          "name": "_optionId",
          "type": "uint256"
        }
      ],
      "name": "tokenURI",
      "outputs": [
        {
          "internalType": "string",
          "name": "",
          "type": "string"
        }
      ],
      "stateMutability": "view",
      "type": "function",
      "constant": true
    },
    {
      "inputs": [
        {
          "internalType": "address",
          "name": "_from",
          "type": "address"
        },
        {
          "internalType": "address",
          "name": "_to",
          "type": "address"
        },
        {
          "internalType": "uint256",
          "name": "_tokenId",
          "type": "uint256"
        }
      ],
      "name": "transferFrom",
      "outputs": [],
      "stateMutability": "nonpayable",
      "type": "function"
    },
    {
      "inputs": [
        {
          "internalType": "address",
          "name": "_owner",
          "type": "address"
        },
        {
          "internalType": "address",
          "name": "_operator",
          "type": "address"
        }
      ],
      "name": "isApprovedForAll",
      "outputs": [
        {
          "internalType": "bool",
          "name": "",
          "type": "bool"
        }
      ],
      "stateMutability": "view",
      "type": "function",
      "constant": true
    },
    {
      "inputs": [
        {
          "internalType": "uint256",
          "name": "_tokenId",
          "type": "uint256"
        }
      ],
      "name": "ownerOf",
      "outputs": [
        {
          "internalType": "address",
          "name": "_owner",
          "type": "address"
        }
      ],
      "stateMutability": "view",
      "type": "function",
      "constant": true
    }
  ],
  "bytecode": "0x6080604052604051806060016040528060228152602001620024ac602291396003908051906020019062000035929190620001ab565b503480156200004357600080fd5b50604051620024ce380380620024ce833981810160405281019062000069919062000272565b60006200007b620001a360201b60201c565b9050806000806101000a81548173ffffffffffffffffffffffffffffffffffffffff021916908373ffffffffffffffffffffffffffffffffffffffff1602179055508073ffffffffffffffffffffffffffffffffffffffff16600073ffffffffffffffffffffffffffffffffffffffff167f8be0079c531659141344cd1fd0a4f28419497f9722a3daafe3b4186f6b6457e060405160405180910390a35081600160006101000a81548173ffffffffffffffffffffffffffffffffffffffff021916908373ffffffffffffffffffffffffffffffffffffffff16021790555080600260006101000a81548173ffffffffffffffffffffffffffffffffffffffff021916908373ffffffffffffffffffffffffffffffffffffffff160217905550505062000366565b600033905090565b828054620001b990620002e7565b90600052602060002090601f016020900481019282620001dd576000855562000229565b82601f10620001f857805160ff191683800117855562000229565b8280016001018555821562000229579182015b82811115620002285782518255916020019190600101906200020b565b5b5090506200023891906200023c565b5090565b5b80821115620002575760008160009055506001016200023d565b5090565b6000815190506200026c816200034c565b92915050565b600080604083850312156200028657600080fd5b600062000296858286016200025b565b9250506020620002a9858286016200025b565b9150509250929050565b6000620002c082620002c7565b9050919050565b600073ffffffffffffffffffffffffffffffffffffffff82169050919050565b600060028204905060018216806200030057607f821691505b602082108114156200031757620003166200031d565b5b50919050565b7f4e487b7100000000000000000000000000000000000000000000000000000000600052602260045260246000fd5b6200035781620002b3565b81146200036357600080fd5b50565b61213680620003766000396000f3fe608060405234801561001057600080fd5b50600436106101585760003560e01c806394bf804d116100c3578063c87b56dd1161007c578063c87b56dd146103c9578063cd7c0326146103f9578063e43b02d914610417578063e8a314c414610447578063e985e9c514610477578063f2fde38b146104a757610158565b806394bf804d1461030957806395d89b4114610325578063b7c18cdf14610343578063b7c780531461035f578063bc3fe9f71461037b578063c311c523146103ab57610158565b80635dd871a3116101155780635dd871a314610233578063608127c8146102635780636352211e146102935780636c0360eb146102c3578063715018a6146102e15780638da5cb5b146102eb57610158565b806306fdde031461015d57806323b872dd1461017b5780634838bcde146101975780634b97aed9146101c75780634cf12d26146101e55780635bf8633a14610215575b600080fd5b6101656104c3565b6040516101729190611c43565b60405180910390f35b61019560048036038101906101909190611814565b610500565b005b6101b160048036038101906101ac9190611863565b61050f565b6040516101be9190611c28565b60405180910390f35b6101cf610552565b6040516101dc9190611cc5565b60405180910390f35b6101ff60048036038101906101fa91906118b5565b610557565b60405161020c9190611c43565b60405180910390f35b61021d6105f4565b60405161022a9190611bdd565b60405180910390f35b61024d600480360381019061024891906119dd565b61061a565b60405161025a9190611c28565b60405180910390f35b61027d600480360381019061027891906118b5565b610621565b60405161028a9190611cc5565b60405180910390f35b6102ad60048036038101906102a891906119dd565b610669565b6040516102ba9190611bdd565b60405180910390f35b6102cb61067a565b6040516102d89190611c43565b60405180910390f35b6102e9610708565b005b6102f3610842565b6040516103009190611bdd565b60405180910390f35b610323600480360381019061031e9190611a2f565b61086b565b005b61032d61086f565b60405161033a9190611c43565b60405180910390f35b61035d60048036038101906103589190611989565b6108ac565b005b610379600480360381019061037491906118f6565b610911565b005b61039560048036038101906103909190611863565b610a6a565b6040516103a29190611cc5565b60405180910390f35b6103b3610a82565b6040516103c09190611c28565b60405180910390f35b6103e360048036038101906103de91906119dd565b610a8b565b6040516103f09190611c43565b60405180910390f35b610401610b30565b60405161040e9190611bdd565b60405180910390f35b610431600480360381019061042c9190611863565b610b56565b60405161043e9190611cc5565b60405180910390f35b610461600480360381019061045c91906118b5565b610b6e565b60405161046e9190611cc5565b60405180910390f35b610491600480360381019061048c91906117d8565b610bb6565b60405161049e9190611c28565b60405180910390f35b6104c160048036038101906104bc91906117af565b610d6a565b005b60606040518060400160405280600d81526020017f536f756c20467261676d656e7400000000000000000000000000000000000000815250905090565b61050a818361086b565b505050565b6000600460008381526020019081526020016000205460056000848152602001908152602001600020541015610548576001905061054d565b600090505b919050565b600090565b60606105ed6003805461056990611f5c565b80601f016020809104026020016040519081016040528092919081815260200182805461059590611f5c565b80156105e25780601f106105b7576101008083540402835291602001916105e2565b820191906000526020600020905b8154815290600101906020018083116105c557829003601f168201915b505050505083610dff565b9050919050565b600260009054906101000a900473ffffffffffffffffffffffffffffffffffffffff1681565b6000919050565b600080826040516020016106359190611c43565b6040516020818303038152906040528051906020012090506005600082815260200190815260200160002054915050919050565b6000610673610842565b9050919050565b6003805461068790611f5c565b80601f01602080910402602001604051908101604052809291908181526020018280546106b390611f5c565b80156107005780601f106106d557610100808354040283529160200191610700565b820191906000526020600020905b8154815290600101906020018083116106e357829003601f168201915b505050505081565b610710610e43565b73ffffffffffffffffffffffffffffffffffffffff1661072e610842565b73ffffffffffffffffffffffffffffffffffffffff1614610784576040517f08c379a000000000000000000000000000000000000000000000000000000000815260040161077b90611c85565b60405180910390fd5b600073ffffffffffffffffffffffffffffffffffffffff1660008054906101000a900473ffffffffffffffffffffffffffffffffffffffff1673ffffffffffffffffffffffffffffffffffffffff167f8be0079c531659141344cd1fd0a4f28419497f9722a3daafe3b4186f6b6457e060405160405180910390a360008060006101000a81548173ffffffffffffffffffffffffffffffffffffffff021916908373ffffffffffffffffffffffffffffffffffffffff160217905550565b60008060009054906101000a900473ffffffffffffffffffffffffffffffffffffffff16905090565b5050565b60606040518060400160405280600581526020017f534f554c53000000000000000000000000000000000000000000000000000000815250905090565b6000826040516020016108bf9190611c43565b60405160208183030381529060405280519060200120905060006004600083815260200190815260200160002054141561090c578160046000838152602001908152602001600020819055505b505050565b6000816040516020016109249190611c43565b6040516020818303038152906040528051906020012090506109458161050f565b610984576040517f08c379a000000000000000000000000000000000000000000000000000000000815260040161097b90611ca5565b60405180910390fd5b6000600260009054906101000a900473ffffffffffffffffffffffffffffffffffffffff1690508073ffffffffffffffffffffffffffffffffffffffff16633d02d0c986886040518363ffffffff1660e01b81526004016109e6929190611bf8565b602060405180830381600087803b158015610a0057600080fd5b505af1158015610a14573d6000803e3d6000fd5b505050506040513d601f19601f82011682018060405250810190610a389190611a06565b50600560008381526020019081526020016000206000815480929190610a5d90611f8e565b9190505550505050505050565b60046020528060005260406000206000915090505481565b60006001905090565b6060610b2960038054610a9d90611f5c565b80601f0160208091040260200160405190810160405280929190818152602001828054610ac990611f5c565b8015610b165780601f10610aeb57610100808354040283529160200191610b16565b820191906000526020600020905b815481529060010190602001808311610af957829003601f168201915b5050505050610b2484610e4b565b610dff565b9050919050565b600160009054906101000a900473ffffffffffffffffffffffffffffffffffffffff1681565b60056020528060005260406000206000915090505481565b60008082604051602001610b829190611c43565b6040516020818303038152906040528051906020012090506004600082815260200190815260200160002054915050919050565b60008273ffffffffffffffffffffffffffffffffffffffff16610bd7610842565b73ffffffffffffffffffffffffffffffffffffffff16148015610c2557508173ffffffffffffffffffffffffffffffffffffffff168373ffffffffffffffffffffffffffffffffffffffff16145b15610c335760019050610d64565b6000600160009054906101000a900473ffffffffffffffffffffffffffffffffffffffff1690508373ffffffffffffffffffffffffffffffffffffffff16610c79610842565b73ffffffffffffffffffffffffffffffffffffffff16148015610d4f57508273ffffffffffffffffffffffffffffffffffffffff168173ffffffffffffffffffffffffffffffffffffffff1663c4552791866040518263ffffffff1660e01b8152600401610ce79190611bdd565b60206040518083038186803b158015610cff57600080fd5b505afa158015610d13573d6000803e3d6000fd5b505050506040513d601f19601f82011682018060405250810190610d37919061188c565b73ffffffffffffffffffffffffffffffffffffffff16145b15610d5e576001915050610d64565b60009150505b92915050565b610d72610e43565b73ffffffffffffffffffffffffffffffffffffffff16610d90610842565b73ffffffffffffffffffffffffffffffffffffffff1614610de6576040517f08c379a0000000000000000000000000000000000000000000000000000000008152600401610ddd90611c85565b60405180910390fd5b6000610df0610842565b9050610dfb82611020565b5050565b6060610e3b83836040518060200160405280600081525060405180602001604052806000815250604051806020016040528060008152506111c9565b905092915050565b600033905090565b60606000821415610e93576040518060400160405280600181526020017f3000000000000000000000000000000000000000000000000000000000000000815250905061101b565b600082905060005b60008214610ec5578080610eae90611f8e565b915050600a82610ebe9190611dea565b9150610e9b565b60008167ffffffffffffffff811115610f07577f4e487b7100000000000000000000000000000000000000000000000000000000600052604160045260246000fd5b6040519080825280601f01601f191660200182016040528015610f395781602001600182028036833780820191505090505b50905060008290505b6000861461101357600181610f579190611e75565b90506000600a8088610f699190611dea565b610f739190611e1b565b87610f7e9190611e75565b6030610f8a9190611db3565b905060008160f81b905080848481518110610fce577f4e487b7100000000000000000000000000000000000000000000000000000000600052603260045260246000fd5b60200101907effffffffffffffffffffffffffffffffffffffffffffffffffffffffffffff1916908160001a905350600a8861100a9190611dea565b97505050610f42565b819450505050505b919050565b611028610e43565b73ffffffffffffffffffffffffffffffffffffffff16611046610842565b73ffffffffffffffffffffffffffffffffffffffff161461109c576040517f08c379a000000000000000000000000000000000000000000000000000000000815260040161109390611c85565b60405180910390fd5b600073ffffffffffffffffffffffffffffffffffffffff168173ffffffffffffffffffffffffffffffffffffffff16141561110c576040517f08c379a000000000000000000000000000000000000000000000000000000000815260040161110390611c65565b60405180910390fd5b8073ffffffffffffffffffffffffffffffffffffffff1660008054906101000a900473ffffffffffffffffffffffffffffffffffffffff1673ffffffffffffffffffffffffffffffffffffffff167f8be0079c531659141344cd1fd0a4f28419497f9722a3daafe3b4186f6b6457e060405160405180910390a3806000806101000a81548173ffffffffffffffffffffffffffffffffffffffff021916908373ffffffffffffffffffffffffffffffffffffffff16021790555050565b6060600086905060008690506000869050600086905060008690506000815183518551875189516111fa9190611d5d565b6112049190611d5d565b61120e9190611d5d565b6112189190611d5d565b67ffffffffffffffff811115611257577f4e487b7100000000000000000000000000000000000000000000000000000000600052604160045260246000fd5b6040519080825280601f01601f1916602001820160405280156112895781602001600182028036833780820191505090505b50905060008190506000805b8851811015611369578881815181106112d7577f4e487b7100000000000000000000000000000000000000000000000000000000600052603260045260246000fd5b602001015160f81c60f81b8383806112ee90611f8e565b945081518110611327577f4e487b7100000000000000000000000000000000000000000000000000000000600052603260045260246000fd5b60200101907effffffffffffffffffffffffffffffffffffffffffffffffffffffffffffff1916908160001a905350808061136190611f8e565b915050611295565b5060005b8751811015611441578781815181106113af577f4e487b7100000000000000000000000000000000000000000000000000000000600052603260045260246000fd5b602001015160f81c60f81b8383806113c690611f8e565b9450815181106113ff577f4e487b7100000000000000000000000000000000000000000000000000000000600052603260045260246000fd5b60200101907effffffffffffffffffffffffffffffffffffffffffffffffffffffffffffff1916908160001a905350808061143990611f8e565b91505061136d565b5060005b865181101561151957868181518110611487577f4e487b7100000000000000000000000000000000000000000000000000000000600052603260045260246000fd5b602001015160f81c60f81b83838061149e90611f8e565b9450815181106114d7577f4e487b7100000000000000000000000000000000000000000000000000000000600052603260045260246000fd5b60200101907effffffffffffffffffffffffffffffffffffffffffffffffffffffffffffff1916908160001a905350808061151190611f8e565b915050611445565b5060005b85518110156115f15785818151811061155f577f4e487b7100000000000000000000000000000000000000000000000000000000600052603260045260246000fd5b602001015160f81c60f81b83838061157690611f8e565b9450815181106115af577f4e487b7100000000000000000000000000000000000000000000000000000000600052603260045260246000fd5b60200101907effffffffffffffffffffffffffffffffffffffffffffffffffffffffffffff1916908160001a90535080806115e990611f8e565b91505061151d565b5060005b84518110156116c957848181518110611637577f4e487b7100000000000000000000000000000000000000000000000000000000600052603260045260246000fd5b602001015160f81c60f81b83838061164e90611f8e565b945081518110611687577f4e487b7100000000000000000000000000000000000000000000000000000000600052603260045260246000fd5b60200101907effffffffffffffffffffffffffffffffffffffffffffffffffffffffffffff1916908160001a90535080806116c190611f8e565b9150506115f5565b50819850505050505050505095945050505050565b60006116f16116ec84611d11565b611ce0565b90508281526020810184848401111561170957600080fd5b611714848285611f1a565b509392505050565b60008135905061172b816120a4565b92915050565b600081359050611740816120bb565b92915050565b600081519050611755816120d2565b92915050565b600082601f83011261176c57600080fd5b813561177c8482602086016116de565b91505092915050565b600081359050611794816120e9565b92915050565b6000815190506117a9816120e9565b92915050565b6000602082840312156117c157600080fd5b60006117cf8482850161171c565b91505092915050565b600080604083850312156117eb57600080fd5b60006117f98582860161171c565b925050602061180a8582860161171c565b9150509250929050565b60008060006060848603121561182957600080fd5b60006118378682870161171c565b93505060206118488682870161171c565b925050604061185986828701611785565b9150509250925092565b60006020828403121561187557600080fd5b600061188384828501611731565b91505092915050565b60006020828403121561189e57600080fd5b60006118ac84828501611746565b91505092915050565b6000602082840312156118c757600080fd5b600082013567ffffffffffffffff8111156118e157600080fd5b6118ed8482850161175b565b91505092915050565b6000806000806080858703121561190c57600080fd5b600085013567ffffffffffffffff81111561192657600080fd5b6119328782880161175b565b94505060206119438782880161171c565b935050604061195487828801611785565b925050606085013567ffffffffffffffff81111561197157600080fd5b61197d8782880161175b565b91505092959194509250565b6000806040838503121561199c57600080fd5b600083013567ffffffffffffffff8111156119b657600080fd5b6119c28582860161175b565b92505060206119d385828601611785565b9150509250929050565b6000602082840312156119ef57600080fd5b60006119fd84828501611785565b91505092915050565b600060208284031215611a1857600080fd5b6000611a268482850161179a565b91505092915050565b60008060408385031215611a4257600080fd5b6000611a5085828601611785565b9250506020611a618582860161171c565b9150509250929050565b611a7481611ea9565b82525050565b611a8381611ebb565b82525050565b6000611a9482611d41565b611a9e8185611d4c565b9350611aae818560208601611f29565b611ab781612093565b840191505092915050565b6000611acf602683611d4c565b91507f4f776e61626c653a206e6577206f776e657220697320746865207a65726f206160008301527f64647265737300000000000000000000000000000000000000000000000000006020830152604082019050919050565b6000611b35602083611d4c565b91507f4f776e61626c653a2063616c6c6572206973206e6f7420746865206f776e65726000830152602082019050919050565b6000611b75602583611d4c565b91507f7265717565737420697320686967686572207468616e20746865206d6178207360008301527f7570706c790000000000000000000000000000000000000000000000000000006020830152604082019050919050565b611bd781611f03565b82525050565b6000602082019050611bf26000830184611a6b565b92915050565b6000604082019050611c0d6000830185611a6b565b8181036020830152611c1f8184611a89565b90509392505050565b6000602082019050611c3d6000830184611a7a565b92915050565b60006020820190508181036000830152611c5d8184611a89565b905092915050565b60006020820190508181036000830152611c7e81611ac2565b9050919050565b60006020820190508181036000830152611c9e81611b28565b9050919050565b60006020820190508181036000830152611cbe81611b68565b9050919050565b6000602082019050611cda6000830184611bce565b92915050565b6000604051905081810181811067ffffffffffffffff82111715611d0757611d06612064565b5b8060405250919050565b600067ffffffffffffffff821115611d2c57611d2b612064565b5b601f19601f8301169050602081019050919050565b600081519050919050565b600082825260208201905092915050565b6000611d6882611f03565b9150611d7383611f03565b9250827fffffffffffffffffffffffffffffffffffffffffffffffffffffffffffffffff03821115611da857611da7611fd7565b5b828201905092915050565b6000611dbe82611f0d565b9150611dc983611f0d565b92508260ff03821115611ddf57611dde611fd7565b5b828201905092915050565b6000611df582611f03565b9150611e0083611f03565b925082611e1057611e0f612006565b5b828204905092915050565b6000611e2682611f03565b9150611e3183611f03565b9250817fffffffffffffffffffffffffffffffffffffffffffffffffffffffffffffffff0483118215151615611e6a57611e69611fd7565b5b828202905092915050565b6000611e8082611f03565b9150611e8b83611f03565b925082821015611e9e57611e9d611fd7565b5b828203905092915050565b6000611eb482611ee3565b9050919050565b60008115159050919050565b6000819050919050565b6000611edc82611ea9565b9050919050565b600073ffffffffffffffffffffffffffffffffffffffff82169050919050565b6000819050919050565b600060ff82169050919050565b82818337600083830152505050565b60005b83811015611f47578082015181840152602081019050611f2c565b83811115611f56576000848401525b50505050565b60006002820490506001821680611f7457607f821691505b60208210811415611f8857611f87612035565b5b50919050565b6000611f9982611f03565b91507fffffffffffffffffffffffffffffffffffffffffffffffffffffffffffffffff821415611fcc57611fcb611fd7565b5b600182019050919050565b7f4e487b7100000000000000000000000000000000000000000000000000000000600052601160045260246000fd5b7f4e487b7100000000000000000000000000000000000000000000000000000000600052601260045260246000fd5b7f4e487b7100000000000000000000000000000000000000000000000000000000600052602260045260246000fd5b7f4e487b7100000000000000000000000000000000000000000000000000000000600052604160045260246000fd5b6000601f19601f8301169050919050565b6120ad81611ea9565b81146120b857600080fd5b50565b6120c481611ec7565b81146120cf57600080fd5b50565b6120db81611ed1565b81146120e657600080fd5b50565b6120f281611f03565b81146120fd57600080fd5b5056fea2646970667358221220ff5074f71435a83110611ed6f3679de7f3c0134c201c81adea568cd02daf92e464736f6c6343000800003368747470733a2f2f676174657761792e70696e6174612e636c6f75642f697066732f",
  "immutableReferences": {},
  "source": "// SPDX-License-Identifier: MIT\r\npragma solidity ^0.8.0;\r\n\r\nimport \"@openzeppelin/contracts/access/Ownable.sol\";\r\nimport \"./IFactoryERC721.sol\";\r\nimport \"./SoulFragment.sol\";\r\nimport \"./StringUtils.sol\";\r\nimport './SoulLootBox.sol';\r\n\r\ncontract SoulFragmentFactory is IFactoryERC721, Ownable {\r\n    using Strings for string;\r\n\r\n    // event Transfer(\r\n    //     address indexed from,\r\n    //     address indexed to,\r\n    //     uint256 indexed tokenId\r\n    // );\r\n\r\n    address public proxyRegistryAddress;\r\n    address public nftAddress;\r\n    string public baseURI = \"https://gateway.pinata.cloud/ipfs/\";\r\n\r\n    mapping (bytes32 => uint) public maxFragmentSupply; \r\n    mapping (bytes32 => uint) public currentFragmentCount; \r\n\r\n    // /*\r\n    //  * Enforce the existence of only 100 OpenSea souls.\r\n    //  */\r\n    // uint256 SOUL_SUPPLY = 100;\r\n\r\n    // /*\r\n    //  * Three different options for minting Souls (basic, premium, and gold).\r\n    //  */\r\n    // uint256 NUM_OPTIONS = 3;\r\n    // uint256 SINGLE_SOUL_OPTION = 0;\r\n    // uint256 MULTIPLE_SOUL_OPTION = 1;\r\n    // uint256 LOOTBOX_OPTION = 2;\r\n    // uint256 NUM_SOULS_IN_MULTIPLE_SOUL_OPTION = 4;\r\n\r\n    constructor(address _proxyRegistryAddress, address _nftAddress) public {\r\n        proxyRegistryAddress = _proxyRegistryAddress;\r\n        nftAddress = _nftAddress;\r\n        // lootBoxNftAddress = address(\r\n        //     new SoulLootBox(_proxyRegistryAddress, address(this))\r\n        // );\r\n\r\n     //   fireTransferEvents(address(0), owner());\r\n    }\r\n\r\n    function name() external override view returns (string memory) {\r\n        return \"Soul Fragment\";\r\n    }\r\n\r\n    function symbol() external override view returns (string memory) {\r\n        return \"SOULS\";\r\n    }\r\n\r\n    function supportsFactoryInterface() public override view returns (bool) {\r\n        return true;\r\n    }\r\n\r\n    function numOptions() public override view returns (uint256) {\r\n        //return NUM_OPTIONS;\r\n        return 0;\r\n    }\r\n\r\n    function transferOwnership(address newOwner) public override onlyOwner {\r\n        address _prevOwner = owner();\r\n        super.transferOwnership(newOwner);\r\n     //   fireTransferEvents(_prevOwner, newOwner);\r\n    }\r\n\r\n    // function fireTransferEvents(address _from, address _to) private {\r\n    //     for (uint256 i = 0; i < NUM_OPTIONS; i++) {\r\n    //         emit Transfer(_from, _to, i);\r\n    //     }\r\n    // }\r\n\r\n    function mint(uint256 _optionId, address _toAddress) public override {\r\n        // Must be sent from the owner proxy or owner.\r\n        // ProxyRegistry proxyRegistry = ProxyRegistry(proxyRegistryAddress);\r\n        // assert(\r\n        //     address(proxyRegistry.proxies(owner())) == msg.sender ||\r\n        //         owner() == msg.sender ||\r\n        //         msg.sender == lootBoxNftAddress\r\n        // );\r\n        // require(canMint(_optionId));\r\n\r\n        // SoulFragment openSeaSoul = SoulFragment(nftAddress);\r\n        // if (_optionId == SINGLE_SOUL_OPTION) {\r\n        //     openSeaSoul.mintTo(_toAddress);\r\n        // } else if (_optionId == MULTIPLE_SOUL_OPTION) {\r\n        //     for (\r\n        //         uint256 i = 0;\r\n        //         i < NUM_SOULS_IN_MULTIPLE_SOUL_OPTION;\r\n        //         i++\r\n        //     ) {\r\n        //         openSeaSoul.mintTo(_toAddress);\r\n        //     }\r\n        // } else if (_optionId == LOOTBOX_OPTION) {\r\n        //     SoulLootBox openSeaSoulLootBox = SoulLootBox(\r\n        //         lootBoxNftAddress\r\n        //     );\r\n        //     openSeaSoulLootBox.mintTo(_toAddress);\r\n        // }\r\n    }\r\n\r\n    //Can only ever be set once\r\n    function setMaxFragmentSupply(string memory soulName, uint total) public {\r\n        bytes32 hashed = keccak256(abi.encode(soulName));\r\n        if(maxFragmentSupply[hashed] == 0) {\r\n            maxFragmentSupply[hashed] = total;\r\n        }\r\n    }\r\n\r\n    function getMaxFragmentSupply(string memory soulName) public view returns (uint)  {\r\n        bytes32 hashed = keccak256(abi.encode(soulName));\r\n        return maxFragmentSupply[hashed];\r\n    }\r\n\r\n    function getCurrentFragmentCount(string memory soulName) public view returns (uint)  {\r\n        bytes32 hashed = keccak256(abi.encode(soulName));\r\n        return currentFragmentCount[hashed];\r\n    }\r\n\r\n    function mintTokenURI(string memory _tokenURI, address _toAddress, uint totalRequest, string memory soulName) public {\r\n        bytes32 hashed = keccak256(abi.encode(soulName));\r\n        require(_canMint(hashed), \"request is higher than the max supply\");\r\n        SoulFragment openSeaSoul = SoulFragment(nftAddress);\r\n        openSeaSoul.mintToken(_toAddress, _tokenURI);\r\n        currentFragmentCount[hashed]++;\r\n    }\r\n\r\n    function _canMint(bytes32 hashedSoulName) public view returns (bool) {\r\n        if(currentFragmentCount[hashedSoulName] < maxFragmentSupply[hashedSoulName]) {\r\n            return true;\r\n        }\r\n        return false;\r\n    }\r\n\r\n    function canMint(uint256 _optionId) public override view returns (bool) {\r\n        return false;\r\n        // if (_optionId >= NUM_OPTIONS) {\r\n        //     return false;\r\n        // }\r\n\r\n        // SoulFragment openSeaSoul = SoulFragment(nftAddress);\r\n        // uint256 soulSupply = openSeaSoul.totalSupply(_optionId);\r\n\r\n        // uint256 numItemsAllocated = 0;\r\n        // if (_optionId == SINGLE_SOUL_OPTION) {\r\n        //     numItemsAllocated = 1;\r\n        // } else if (_optionId == MULTIPLE_SOUL_OPTION) {\r\n        //     numItemsAllocated = NUM_SOULS_IN_MULTIPLE_SOUL_OPTION;\r\n        // } else if (_optionId == LOOTBOX_OPTION) {\r\n        //     SoulLootBox openSeaSoulLootBox = SoulLootBox(\r\n        //         lootBoxNftAddress\r\n        //     );\r\n        //     numItemsAllocated = openSeaSoulLootBox.itemsPerLootbox();\r\n        // }\r\n        // return soulSupply < (SOUL_SUPPLY - numItemsAllocated);\r\n    }\r\n\r\n    function tokenURI(uint256 _optionId) external override view returns (string memory) {\r\n        return StringUtils.strConcat(baseURI, StringUtils.uint2str(_optionId));\r\n    }\r\n\r\n    function tokenURI(string memory metadataURI) external view returns (string memory) {\r\n        return StringUtils.strConcat(baseURI, metadataURI);\r\n    }\r\n\r\n    /**\r\n     * Hack to get things to work automatically on OpenSea.\r\n     * Use transferFrom so the frontend doesn't have to worry about different method names.\r\n     */\r\n    function transferFrom(\r\n        address _from,\r\n        address _to,\r\n        uint256 _tokenId\r\n    ) public {\r\n        mint(_tokenId, _to);\r\n    }\r\n\r\n    /**\r\n     * Hack to get things to work automatically on OpenSea.\r\n     * Use isApprovedForAll so the frontend doesn't have to worry about different method names.\r\n     */\r\n    function isApprovedForAll(address _owner, address _operator)\r\n        public\r\n        view\r\n        returns (bool)\r\n    {\r\n        if (owner() == _owner && _owner == _operator) {\r\n            return true;\r\n        }\r\n\r\n        ProxyRegistry proxyRegistry = ProxyRegistry(proxyRegistryAddress);\r\n        if (\r\n            owner() == _owner &&\r\n            address(proxyRegistry.proxies(_owner)) == _operator\r\n        ) {\r\n            return true;\r\n        }\r\n\r\n        return false;\r\n    }\r\n\r\n    /**\r\n     * Hack to get things to work automatically on OpenSea.\r\n     * Use isApprovedForAll so the frontend doesn't have to worry about different method names.\r\n     */\r\n    function ownerOf(uint256 _tokenId) public view returns (address _owner) {\r\n        return owner();\r\n    }\r\n}",
  "sourcePath": "C:\\Users\\editr\\OneDrive\\Desktop\\etherprojects\\SoulSwap\\contracts\\SoulFragmentFactory.sol",
  "compiler": {
    "name": "solc",
    "version": "0.8.0+commit.c7dfd78e.Emscripten.clang"
  },
  "schemaVersion": "3.3.3",
  "updatedAt": "2021-05-07T03:39:21.470Z",
  "networkType": "ethereum",
  "devdoc": {
    "kind": "dev",
    "methods": {
      "canMint(uint256)": {
        "details": "Returns whether the option ID can be minted. Can return false if the developer wishes to restrict a total supply per option ID (or overall)."
      },
      "mint(uint256,address)": {
        "details": "Mints asset(s) in accordance to a specific address with a particular \"option\". This should be callable only by the contract owner or the owner's Wyvern Proxy (later universal login will solve this). Options should also be delineated 0 - (numOptions() - 1) for convenient indexing.",
        "params": {
          "_optionId": "the option id",
          "_toAddress": "address of the future owner of the asset(s)"
        }
      },
      "owner()": {
        "details": "Returns the address of the current owner."
      },
      "renounceOwnership()": {
        "details": "Leaves the contract without owner. It will not be possible to call `onlyOwner` functions anymore. Can only be called by the current owner. NOTE: Renouncing ownership will leave the contract without an owner, thereby removing any functionality that is only available to the owner."
      },
      "tokenURI(uint256)": {
        "details": "Returns a URL specifying some metadata about the option. This metadata can be of the same structure as the ERC721 metadata."
      },
      "transferOwnership(address)": {
        "details": "Transfers ownership of the contract to a new account (`newOwner`). Can only be called by the current owner."
      }
    },
    "version": 1
  },
  "userdoc": {
    "kind": "user",
    "methods": {
      "isApprovedForAll(address,address)": {
        "notice": "Hack to get things to work automatically on OpenSea. Use isApprovedForAll so the frontend doesn't have to worry about different method names."
      },
      "name()": {
        "notice": "Returns the name of this factory."
      },
      "numOptions()": {
        "notice": "Number of options the factory supports."
      },
      "ownerOf(uint256)": {
        "notice": "Hack to get things to work automatically on OpenSea. Use isApprovedForAll so the frontend doesn't have to worry about different method names."
      },
      "supportsFactoryInterface()": {
        "notice": "Indicates that this is a factory contract. Ideally would use EIP 165 supportsInterface()"
      },
      "symbol()": {
        "notice": "Returns the symbol for this factory."
      },
      "transferFrom(address,address,uint256)": {
        "notice": "Hack to get things to work automatically on OpenSea. Use transferFrom so the frontend doesn't have to worry about different method names."
      }
    },
    "version": 1
  }
}