{
  "contractName": "SoulLootBox",
  "abi": [
    {
      "inputs": [
        {
          "internalType": "address",
          "name": "_proxyRegistryAddress",
          "type": "address"
        },
        {
          "internalType": "address",
          "name": "_factoryAddress",
          "type": "address"
        }
      ],
      "stateMutability": "nonpayable",
      "type": "constructor"
    },
    {
      "anonymous": false,
      "inputs": [
        {
          "indexed": true,
          "internalType": "address",
          "name": "owner",
          "type": "address"
        },
        {
          "indexed": true,
          "internalType": "address",
          "name": "approved",
          "type": "address"
        },
        {
          "indexed": true,
          "internalType": "uint256",
          "name": "tokenId",
          "type": "uint256"
        }
      ],
      "name": "Approval",
      "type": "event"
    },
    {
      "anonymous": false,
      "inputs": [
        {
          "indexed": true,
          "internalType": "address",
          "name": "owner",
          "type": "address"
        },
        {
          "indexed": true,
          "internalType": "address",
          "name": "operator",
          "type": "address"
        },
        {
          "indexed": false,
          "internalType": "bool",
          "name": "approved",
          "type": "bool"
        }
      ],
      "name": "ApprovalForAll",
      "type": "event"
    },
    {
      "anonymous": false,
      "inputs": [
        {
          "indexed": true,
          "internalType": "address",
          "name": "previousOwner",
          "type": "address"
        },
        {
          "indexed": true,
          "internalType": "address",
          "name": "newOwner",
          "type": "address"
        }
      ],
      "name": "OwnershipTransferred",
      "type": "event"
    },
    {
      "anonymous": false,
      "inputs": [
        {
          "indexed": true,
          "internalType": "address",
          "name": "from",
          "type": "address"
        },
        {
          "indexed": true,
          "internalType": "address",
          "name": "to",
          "type": "address"
        },
        {
          "indexed": true,
          "internalType": "uint256",
          "name": "tokenId",
          "type": "uint256"
        }
      ],
      "name": "Transfer",
      "type": "event"
    },
    {
      "inputs": [
        {
          "internalType": "address",
          "name": "to",
          "type": "address"
        },
        {
          "internalType": "uint256",
          "name": "tokenId",
          "type": "uint256"
        }
      ],
      "name": "approve",
      "outputs": [],
      "stateMutability": "nonpayable",
      "type": "function"
    },
    {
      "inputs": [
        {
          "internalType": "address",
          "name": "owner",
          "type": "address"
        }
      ],
      "name": "balanceOf",
      "outputs": [
        {
          "internalType": "uint256",
          "name": "",
          "type": "uint256"
        }
      ],
      "stateMutability": "view",
      "type": "function"
    },
    {
      "inputs": [
        {
          "internalType": "uint256",
          "name": "tokenId",
          "type": "uint256"
        }
      ],
      "name": "getApproved",
      "outputs": [
        {
          "internalType": "address",
          "name": "",
          "type": "address"
        }
      ],
      "stateMutability": "view",
      "type": "function"
    },
    {
      "inputs": [
        {
          "internalType": "address",
          "name": "owner",
          "type": "address"
        },
        {
          "internalType": "address",
          "name": "operator",
          "type": "address"
        }
      ],
      "name": "isApprovedForAll",
      "outputs": [
        {
          "internalType": "bool",
          "name": "",
          "type": "bool"
        }
      ],
      "stateMutability": "view",
      "type": "function"
    },
    {
      "inputs": [
        {
          "internalType": "address",
          "name": "_to",
          "type": "address"
        }
      ],
      "name": "mintTo",
      "outputs": [],
      "stateMutability": "nonpayable",
      "type": "function"
    },
    {
      "inputs": [
        {
          "internalType": "address",
          "name": "to",
          "type": "address"
        },
        {
          "internalType": "string",
          "name": "_tokenURI",
          "type": "string"
        }
      ],
      "name": "mintToken",
      "outputs": [
        {
          "internalType": "uint256",
          "name": "",
          "type": "uint256"
        }
      ],
      "stateMutability": "nonpayable",
      "type": "function"
    },
    {
      "inputs": [],
      "name": "name",
      "outputs": [
        {
          "internalType": "string",
          "name": "",
          "type": "string"
        }
      ],
      "stateMutability": "view",
      "type": "function"
    },
    {
      "inputs": [],
      "name": "owner",
      "outputs": [
        {
          "internalType": "address",
          "name": "",
          "type": "address"
        }
      ],
      "stateMutability": "view",
      "type": "function"
    },
    {
      "inputs": [
        {
          "internalType": "uint256",
          "name": "tokenId",
          "type": "uint256"
        }
      ],
      "name": "ownerOf",
      "outputs": [
        {
          "internalType": "address",
          "name": "",
          "type": "address"
        }
      ],
      "stateMutability": "view",
      "type": "function"
    },
    {
      "inputs": [],
      "name": "renounceOwnership",
      "outputs": [],
      "stateMutability": "nonpayable",
      "type": "function"
    },
    {
      "inputs": [
        {
          "internalType": "address",
          "name": "to",
          "type": "address"
        },
        {
          "internalType": "uint256",
          "name": "tokenId",
          "type": "uint256"
        }
      ],
      "name": "safeMint",
      "outputs": [],
      "stateMutability": "nonpayable",
      "type": "function"
    },
    {
      "inputs": [
        {
          "internalType": "address",
          "name": "from",
          "type": "address"
        },
        {
          "internalType": "address",
          "name": "to",
          "type": "address"
        },
        {
          "internalType": "uint256",
          "name": "tokenId",
          "type": "uint256"
        }
      ],
      "name": "safeTransferFrom",
      "outputs": [],
      "stateMutability": "nonpayable",
      "type": "function"
    },
    {
      "inputs": [
        {
          "internalType": "address",
          "name": "from",
          "type": "address"
        },
        {
          "internalType": "address",
          "name": "to",
          "type": "address"
        },
        {
          "internalType": "uint256",
          "name": "tokenId",
          "type": "uint256"
        },
        {
          "internalType": "bytes",
          "name": "_data",
          "type": "bytes"
        }
      ],
      "name": "safeTransferFrom",
      "outputs": [],
      "stateMutability": "nonpayable",
      "type": "function"
    },
    {
      "inputs": [
        {
          "internalType": "address",
          "name": "operator",
          "type": "address"
        },
        {
          "internalType": "bool",
          "name": "approved",
          "type": "bool"
        }
      ],
      "name": "setApprovalForAll",
      "outputs": [],
      "stateMutability": "nonpayable",
      "type": "function"
    },
    {
      "inputs": [
        {
          "internalType": "bytes4",
          "name": "interfaceId",
          "type": "bytes4"
        }
      ],
      "name": "supportsInterface",
      "outputs": [
        {
          "internalType": "bool",
          "name": "",
          "type": "bool"
        }
      ],
      "stateMutability": "view",
      "type": "function"
    },
    {
      "inputs": [],
      "name": "symbol",
      "outputs": [
        {
          "internalType": "string",
          "name": "",
          "type": "string"
        }
      ],
      "stateMutability": "view",
      "type": "function"
    },
    {
      "inputs": [
        {
          "internalType": "uint256",
          "name": "tokenId",
          "type": "uint256"
        }
      ],
      "name": "tokenURI",
      "outputs": [
        {
          "internalType": "string",
          "name": "",
          "type": "string"
        }
      ],
      "stateMutability": "view",
      "type": "function"
    },
    {
      "inputs": [
        {
          "internalType": "address",
          "name": "from",
          "type": "address"
        },
        {
          "internalType": "address",
          "name": "to",
          "type": "address"
        },
        {
          "internalType": "uint256",
          "name": "tokenId",
          "type": "uint256"
        }
      ],
      "name": "transferFrom",
      "outputs": [],
      "stateMutability": "nonpayable",
      "type": "function"
    },
    {
      "inputs": [
        {
          "internalType": "address",
          "name": "newOwner",
          "type": "address"
        }
      ],
      "name": "transferOwnership",
      "outputs": [],
      "stateMutability": "nonpayable",
      "type": "function"
    },
    {
      "inputs": [
        {
          "internalType": "uint256",
          "name": "_tokenId",
          "type": "uint256"
        }
      ],
      "name": "unpack",
      "outputs": [],
      "stateMutability": "nonpayable",
      "type": "function"
    },
    {
      "inputs": [],
      "name": "baseTokenURI",
      "outputs": [
        {
          "internalType": "string",
          "name": "",
          "type": "string"
        }
      ],
      "stateMutability": "pure",
      "type": "function"
    },
    {
      "inputs": [],
      "name": "itemsPerLootbox",
      "outputs": [
        {
          "internalType": "uint256",
          "name": "",
          "type": "uint256"
        }
      ],
      "stateMutability": "view",
      "type": "function"
    }
  ],
  "bytecode": "0x60806040526003600a556000600b553480156200001b57600080fd5b5060405162003867380380620038678339818101604052810190620000419190620002f9565b6040518060400160405280600b81526020017f536f756c4c6f6f74426f780000000000000000000000000000000000000000008152506040518060400160405280600781526020017f4c4f4f54424f58000000000000000000000000000000000000000000000000008152508382828160009080519060200190620000c892919062000232565b508060019080519060200190620000e192919062000232565b5050506000620000f66200022a60201b60201c565b905080600660006101000a81548173ffffffffffffffffffffffffffffffffffffffff021916908373ffffffffffffffffffffffffffffffffffffffff1602179055508073ffffffffffffffffffffffffffffffffffffffff16600073ffffffffffffffffffffffffffffffffffffffff167f8be0079c531659141344cd1fd0a4f28419497f9722a3daafe3b4186f6b6457e060405160405180910390a35080600860006101000a81548173ffffffffffffffffffffffffffffffffffffffff021916908373ffffffffffffffffffffffffffffffffffffffff160217905550600060098190555050505080600c60006101000a81548173ffffffffffffffffffffffffffffffffffffffff021916908373ffffffffffffffffffffffffffffffffffffffff1602179055505050620003ed565b600033905090565b82805462000240906200036e565b90600052602060002090601f016020900481019282620002645760008555620002b0565b82601f106200027f57805160ff1916838001178555620002b0565b82800160010185558215620002b0579182015b82811115620002af57825182559160200191906001019062000292565b5b509050620002bf9190620002c3565b5090565b5b80821115620002de576000816000905550600101620002c4565b5090565b600081519050620002f381620003d3565b92915050565b600080604083850312156200030d57600080fd5b60006200031d85828601620002e2565b92505060206200033085828601620002e2565b9150509250929050565b600062000347826200034e565b9050919050565b600073ffffffffffffffffffffffffffffffffffffffff82169050919050565b600060028204905060018216806200038757607f821691505b602082108114156200039e576200039d620003a4565b5b50919050565b7f4e487b7100000000000000000000000000000000000000000000000000000000600052602260045260246000fd5b620003de816200033a565b8114620003ea57600080fd5b50565b61346a80620003fd6000396000f3fe608060405234801561001057600080fd5b50600436106101425760003560e01c8063755edd17116100b8578063a22cb4651161007c578063a22cb46514610361578063b88d4fde1461037d578063c87b56dd14610399578063d547cfb7146103c9578063e985e9c5146103e7578063f2fde38b1461041757610142565b8063755edd17146102d15780638a02be68146102ed5780638da5cb5b1461030957806395d89b4114610327578063a14481941461034557610142565b806323b872dd1161010a57806323b872dd146101ff5780633d02d0c91461021b57806342842e0e1461024b5780636352211e1461026757806370a0823114610297578063715018a6146102c757610142565b806301ffc9a71461014757806306fdde0314610177578063081812fc14610195578063095ea7b3146101c557806319d554e1146101e1575b600080fd5b610161600480360381019061015c9190612456565b610433565b60405161016e9190612ce9565b60405180910390f35b61017f610515565b60405161018c9190612d04565b60405180910390f35b6101af60048036038101906101aa91906124d1565b6105a7565b6040516101bc9190612c82565b60405180910390f35b6101df60048036038101906101da919061241a565b61062c565b005b6101e9610744565b6040516101f69190612f66565b60405180910390f35b610219600480360381019061021491906122c0565b61074e565b005b610235600480360381019061023091906123c6565b6107ae565b6040516102429190612f66565b60405180910390f35b610265600480360381019061026091906122c0565b6107ec565b005b610281600480360381019061027c91906124d1565b61080c565b60405161028e9190612c82565b60405180910390f35b6102b160048036038101906102ac919061225b565b6108be565b6040516102be9190612f66565b60405180910390f35b6102cf610976565b005b6102eb60048036038101906102e6919061225b565b610ab3565b005b610307600480360381019061030291906124d1565b610b51565b005b610311610c4c565b60405161031e9190612c82565b60405180910390f35b61032f610c76565b60405161033c9190612d04565b60405180910390f35b61035f600480360381019061035a919061241a565b610d08565b005b61037b6004803603810190610376919061238a565b610d92565b005b6103976004803603810190610392919061230f565b610f13565b005b6103b360048036038101906103ae91906124d1565b610f75565b6040516103c09190612d04565b60405180910390f35b6103d1610f87565b6040516103de9190612d04565b60405180910390f35b61040160048036038101906103fc9190612284565b610fa7565b60405161040e9190612ce9565b60405180910390f35b610431600480360381019061042c919061225b565b6110a9565b005b60007f80ac58cd000000000000000000000000000000000000000000000000000000007bffffffffffffffffffffffffffffffffffffffffffffffffffffffff1916827bffffffffffffffffffffffffffffffffffffffffffffffffffffffff191614806104fe57507f5b5e139f000000000000000000000000000000000000000000000000000000007bffffffffffffffffffffffffffffffffffffffffffffffffffffffff1916827bffffffffffffffffffffffffffffffffffffffffffffffffffffffff1916145b8061050e575061050d82611255565b5b9050919050565b60606000805461052490613201565b80601f016020809104026020016040519081016040528092919081815260200182805461055090613201565b801561059d5780601f106105725761010080835404028352916020019161059d565b820191906000526020600020905b81548152906001019060200180831161058057829003601f168201915b5050505050905090565b60006105b2826112bf565b6105f1576040517f08c379a00000000000000000000000000000000000000000000000000000000081526004016105e890612ea6565b60405180910390fd5b6004600083815260200190815260200160002060009054906101000a900473ffffffffffffffffffffffffffffffffffffffff169050919050565b60006106378261080c565b90508073ffffffffffffffffffffffffffffffffffffffff168373ffffffffffffffffffffffffffffffffffffffff1614156106a8576040517f08c379a000000000000000000000000000000000000000000000000000000000815260040161069f90612f26565b60405180910390fd5b8073ffffffffffffffffffffffffffffffffffffffff166106c761132b565b73ffffffffffffffffffffffffffffffffffffffff1614806106f657506106f5816106f061132b565b611333565b5b610735576040517f08c379a000000000000000000000000000000000000000000000000000000000815260040161072c90612de6565b60405180910390fd5b61073f83836113c7565b505050565b6000600a54905090565b61075f61075961132b565b82611480565b61079e576040517f08c379a000000000000000000000000000000000000000000000000000000000815260040161079590612f46565b60405180910390fd5b6107a983838361155e565b505050565b60008060095490506107c084826117ba565b6107ca81846117d8565b600960008154809291906107dd90613233565b91905055508091505092915050565b61080783838360405180602001604052806000815250610f13565b505050565b6000806002600084815260200190815260200160002060009054906101000a900473ffffffffffffffffffffffffffffffffffffffff169050600073ffffffffffffffffffffffffffffffffffffffff168173ffffffffffffffffffffffffffffffffffffffff1614156108b5576040517f08c379a00000000000000000000000000000000000000000000000000000000081526004016108ac90612e26565b60405180910390fd5b80915050919050565b60008073ffffffffffffffffffffffffffffffffffffffff168273ffffffffffffffffffffffffffffffffffffffff16141561092f576040517f08c379a000000000000000000000000000000000000000000000000000000000815260040161092690612e06565b60405180910390fd5b600360008373ffffffffffffffffffffffffffffffffffffffff1673ffffffffffffffffffffffffffffffffffffffff168152602001908152602001600020549050919050565b61097e61132b565b73ffffffffffffffffffffffffffffffffffffffff1661099c610c4c565b73ffffffffffffffffffffffffffffffffffffffff16146109f2576040517f08c379a00000000000000000000000000000000000000000000000000000000081526004016109e990612ec6565b60405180910390fd5b600073ffffffffffffffffffffffffffffffffffffffff16600660009054906101000a900473ffffffffffffffffffffffffffffffffffffffff1673ffffffffffffffffffffffffffffffffffffffff167f8be0079c531659141344cd1fd0a4f28419497f9722a3daafe3b4186f6b6457e060405160405180910390a36000600660006101000a81548173ffffffffffffffffffffffffffffffffffffffff021916908373ffffffffffffffffffffffffffffffffffffffff160217905550565b610abb61132b565b73ffffffffffffffffffffffffffffffffffffffff16610ad9610c4c565b73ffffffffffffffffffffffffffffffffffffffff1614610b2f576040517f08c379a0000000000000000000000000000000000000000000000000000000008152600401610b2690612ec6565b60405180910390fd5b6000610b3961184c565b9050610b458282611856565b610b4d611a24565b5050565b3373ffffffffffffffffffffffffffffffffffffffff16610b718261080c565b73ffffffffffffffffffffffffffffffffffffffff1614610b9157600080fd5b60005b600a54811015610c48576000600c60009054906101000a900473ffffffffffffffffffffffffffffffffffffffff1690508073ffffffffffffffffffffffffffffffffffffffff166394bf804d600b54336040518363ffffffff1660e01b8152600401610c02929190612f81565b600060405180830381600087803b158015610c1c57600080fd5b505af1158015610c30573d6000803e3d6000fd5b50505050508080610c4090613233565b915050610b94565b5050565b6000600660009054906101000a900473ffffffffffffffffffffffffffffffffffffffff16905090565b606060018054610c8590613201565b80601f0160208091040260200160405190810160405280929190818152602001828054610cb190613201565b8015610cfe5780601f10610cd357610100808354040283529160200191610cfe565b820191906000526020600020905b815481529060010190602001808311610ce157829003601f168201915b5050505050905090565b610d1061132b565b73ffffffffffffffffffffffffffffffffffffffff16610d2e610c4c565b73ffffffffffffffffffffffffffffffffffffffff1614610d84576040517f08c379a0000000000000000000000000000000000000000000000000000000008152600401610d7b90612ec6565b60405180910390fd5b610d8e82826117ba565b5050565b610d9a61132b565b73ffffffffffffffffffffffffffffffffffffffff168273ffffffffffffffffffffffffffffffffffffffff161415610e08576040517f08c379a0000000000000000000000000000000000000000000000000000000008152600401610dff90612da6565b60405180910390fd5b8060056000610e1561132b565b73ffffffffffffffffffffffffffffffffffffffff1673ffffffffffffffffffffffffffffffffffffffff16815260200190815260200160002060008473ffffffffffffffffffffffffffffffffffffffff1673ffffffffffffffffffffffffffffffffffffffff16815260200190815260200160002060006101000a81548160ff0219169083151502179055508173ffffffffffffffffffffffffffffffffffffffff16610ec261132b565b73ffffffffffffffffffffffffffffffffffffffff167f17307eab39ab6107e8899845ad3d59bd9653f200f220920489ca2b5937696c3183604051610f079190612ce9565b60405180910390a35050565b610f24610f1e61132b565b83611480565b610f63576040517f08c379a0000000000000000000000000000000000000000000000000000000008152600401610f5a90612f46565b60405180910390fd5b610f6f84848484611a3e565b50505050565b6060610f8082611a9a565b9050919050565b60606040518060600160405280602581526020016133ee60259139905090565b600080600860009054906101000a900473ffffffffffffffffffffffffffffffffffffffff1690508273ffffffffffffffffffffffffffffffffffffffff168173ffffffffffffffffffffffffffffffffffffffff1663c4552791866040518263ffffffff1660e01b815260040161101f9190612c82565b60206040518083038186803b15801561103757600080fd5b505afa15801561104b573d6000803e3d6000fd5b505050506040513d601f19601f8201168201806040525081019061106f91906124a8565b73ffffffffffffffffffffffffffffffffffffffff1614156110955760019150506110a3565b61109f8484611333565b9150505b92915050565b6110b161132b565b73ffffffffffffffffffffffffffffffffffffffff166110cf610c4c565b73ffffffffffffffffffffffffffffffffffffffff1614611125576040517f08c379a000000000000000000000000000000000000000000000000000000000815260040161111c90612ec6565b60405180910390fd5b600073ffffffffffffffffffffffffffffffffffffffff168173ffffffffffffffffffffffffffffffffffffffff161415611195576040517f08c379a000000000000000000000000000000000000000000000000000000000815260040161118c90612d46565b60405180910390fd5b8073ffffffffffffffffffffffffffffffffffffffff16600660009054906101000a900473ffffffffffffffffffffffffffffffffffffffff1673ffffffffffffffffffffffffffffffffffffffff167f8be0079c531659141344cd1fd0a4f28419497f9722a3daafe3b4186f6b6457e060405160405180910390a380600660006101000a81548173ffffffffffffffffffffffffffffffffffffffff021916908373ffffffffffffffffffffffffffffffffffffffff16021790555050565b60007f01ffc9a7000000000000000000000000000000000000000000000000000000007bffffffffffffffffffffffffffffffffffffffffffffffffffffffff1916827bffffffffffffffffffffffffffffffffffffffffffffffffffffffff1916149050919050565b60008073ffffffffffffffffffffffffffffffffffffffff166002600084815260200190815260200160002060009054906101000a900473ffffffffffffffffffffffffffffffffffffffff1673ffffffffffffffffffffffffffffffffffffffff1614159050919050565b600033905090565b6000600560008473ffffffffffffffffffffffffffffffffffffffff1673ffffffffffffffffffffffffffffffffffffffff16815260200190815260200160002060008373ffffffffffffffffffffffffffffffffffffffff1673ffffffffffffffffffffffffffffffffffffffff16815260200190815260200160002060009054906101000a900460ff16905092915050565b816004600083815260200190815260200160002060006101000a81548173ffffffffffffffffffffffffffffffffffffffff021916908373ffffffffffffffffffffffffffffffffffffffff160217905550808273ffffffffffffffffffffffffffffffffffffffff1661143a8361080c565b73ffffffffffffffffffffffffffffffffffffffff167f8c5be1e5ebec7d5bd14f71427d1e84f3dd0314c0f7b2291e5b200ac8c7c3b92560405160405180910390a45050565b600061148b826112bf565b6114ca576040517f08c379a00000000000000000000000000000000000000000000000000000000081526004016114c190612dc6565b60405180910390fd5b60006114d58361080c565b90508073ffffffffffffffffffffffffffffffffffffffff168473ffffffffffffffffffffffffffffffffffffffff16148061154457508373ffffffffffffffffffffffffffffffffffffffff1661152c846105a7565b73ffffffffffffffffffffffffffffffffffffffff16145b8061155557506115548185611333565b5b91505092915050565b8273ffffffffffffffffffffffffffffffffffffffff1661157e8261080c565b73ffffffffffffffffffffffffffffffffffffffff16146115d4576040517f08c379a00000000000000000000000000000000000000000000000000000000081526004016115cb90612ee6565b60405180910390fd5b600073ffffffffffffffffffffffffffffffffffffffff168273ffffffffffffffffffffffffffffffffffffffff161415611644576040517f08c379a000000000000000000000000000000000000000000000000000000000815260040161163b90612d86565b60405180910390fd5b61164f838383611bec565b61165a6000826113c7565b6001600360008573ffffffffffffffffffffffffffffffffffffffff1673ffffffffffffffffffffffffffffffffffffffff16815260200190815260200160002060008282546116aa9190613105565b925050819055506001600360008473ffffffffffffffffffffffffffffffffffffffff1673ffffffffffffffffffffffffffffffffffffffff1681526020019081526020016000206000828254611701919061307e565b92505081905550816002600083815260200190815260200160002060006101000a81548173ffffffffffffffffffffffffffffffffffffffff021916908373ffffffffffffffffffffffffffffffffffffffff160217905550808273ffffffffffffffffffffffffffffffffffffffff168473ffffffffffffffffffffffffffffffffffffffff167fddf252ad1be2c89b69c2b068fc378daa952ba7f163c4a11628f55a4df523b3ef60405160405180910390a4505050565b6117d4828260405180602001604052806000815250611bf1565b5050565b6117e1826112bf565b611820576040517f08c379a000000000000000000000000000000000000000000000000000000000815260040161181790612e46565b60405180910390fd5b8060076000848152602001908152602001600020908051906020019061184792919061206a565b505050565b6000600954905090565b600073ffffffffffffffffffffffffffffffffffffffff168273ffffffffffffffffffffffffffffffffffffffff1614156118c6576040517f08c379a00000000000000000000000000000000000000000000000000000000081526004016118bd90612e66565b60405180910390fd5b6118cf816112bf565b1561190f576040517f08c379a000000000000000000000000000000000000000000000000000000000815260040161190690612d66565b60405180910390fd5b61191b60008383611bec565b6001600360008473ffffffffffffffffffffffffffffffffffffffff1673ffffffffffffffffffffffffffffffffffffffff168152602001908152602001600020600082825461196b919061307e565b92505081905550816002600083815260200190815260200160002060006101000a81548173ffffffffffffffffffffffffffffffffffffffff021916908373ffffffffffffffffffffffffffffffffffffffff160217905550808273ffffffffffffffffffffffffffffffffffffffff16600073ffffffffffffffffffffffffffffffffffffffff167fddf252ad1be2c89b69c2b068fc378daa952ba7f163c4a11628f55a4df523b3ef60405160405180910390a45050565b60096000815480929190611a3790613233565b9190505550565b611a4984848461155e565b611a5584848484611c4c565b611a94576040517f08c379a0000000000000000000000000000000000000000000000000000000008152600401611a8b90612d26565b60405180910390fd5b50505050565b6060611aa5826112bf565b611ae4576040517f08c379a0000000000000000000000000000000000000000000000000000000008152600401611adb90612e86565b60405180910390fd5b6000600760008481526020019081526020016000208054611b0490613201565b80601f0160208091040260200160405190810160405280929190818152602001828054611b3090613201565b8015611b7d5780601f10611b5257610100808354040283529160200191611b7d565b820191906000526020600020905b815481529060010190602001808311611b6057829003601f168201915b505050505090506000611b8e611de3565b9050600081511415611ba4578192505050611be7565b600082511115611bd9578082604051602001611bc1929190612c5e565b60405160208183030381529060405292505050611be7565b611be284611e03565b925050505b919050565b505050565b611bfb8383611856565b611c086000848484611c4c565b611c47576040517f08c379a0000000000000000000000000000000000000000000000000000000008152600401611c3e90612d26565b60405180910390fd5b505050565b6000611c6d8473ffffffffffffffffffffffffffffffffffffffff16611eaa565b15611dd6578373ffffffffffffffffffffffffffffffffffffffff1663150b7a02611c9661132b565b8786866040518563ffffffff1660e01b8152600401611cb89493929190612c9d565b602060405180830381600087803b158015611cd257600080fd5b505af1925050508015611d0357506040513d601f19601f82011682018060405250810190611d00919061247f565b60015b611d86573d8060008114611d33576040519150601f19603f3d011682016040523d82523d6000602084013e611d38565b606091505b50600081511415611d7e576040517f08c379a0000000000000000000000000000000000000000000000000000000008152600401611d7590612d26565b60405180910390fd5b805181602001fd5b63150b7a0260e01b7bffffffffffffffffffffffffffffffffffffffffffffffffffffffff1916817bffffffffffffffffffffffffffffffffffffffffffffffffffffffff191614915050611ddb565b600190505b949350505050565b606060405180606001604052806022815260200161341360229139905090565b6060611e0e826112bf565b611e4d576040517f08c379a0000000000000000000000000000000000000000000000000000000008152600401611e4490612f06565b60405180910390fd5b6000611e57611de3565b90506000815111611e775760405180602001604052806000815250611ea2565b80611e8184611ebd565b604051602001611e92929190612c5e565b6040516020818303038152906040525b915050919050565b600080823b905060008111915050919050565b60606000821415611f05576040518060400160405280600181526020017f30000000000000000000000000000000000000000000000000000000000000008152509050612065565b600082905060005b60008214611f37578080611f2090613233565b915050600a82611f3091906130d4565b9150611f0d565b60008167ffffffffffffffff811115611f79577f4e487b7100000000000000000000000000000000000000000000000000000000600052604160045260246000fd5b6040519080825280601f01601f191660200182016040528015611fab5781602001600182028036833780820191505090505b5090505b6000851461205e57600182611fc49190613105565b9150600a85611fd3919061327c565b6030611fdf919061307e565b60f81b81838151811061201b577f4e487b7100000000000000000000000000000000000000000000000000000000600052603260045260246000fd5b60200101907effffffffffffffffffffffffffffffffffffffffffffffffffffffffffffff1916908160001a905350600a8561205791906130d4565b9450611faf565b8093505050505b919050565b82805461207690613201565b90600052602060002090601f01602090048101928261209857600085556120df565b82601f106120b157805160ff19168380011785556120df565b828001600101855582156120df579182015b828111156120de5782518255916020019190600101906120c3565b5b5090506120ec91906120f0565b5090565b5b808211156121095760008160009055506001016120f1565b5090565b600061212061211b84612fdb565b612faa565b90508281526020810184848401111561213857600080fd5b6121438482856131bf565b509392505050565b600061215e6121598461300b565b612faa565b90508281526020810184848401111561217657600080fd5b6121818482856131bf565b509392505050565b6000813590506121988161337a565b92915050565b6000813590506121ad81613391565b92915050565b6000813590506121c2816133a8565b92915050565b6000815190506121d7816133a8565b92915050565b600082601f8301126121ee57600080fd5b81356121fe84826020860161210d565b91505092915050565b600081519050612216816133bf565b92915050565b600082601f83011261222d57600080fd5b813561223d84826020860161214b565b91505092915050565b600081359050612255816133d6565b92915050565b60006020828403121561226d57600080fd5b600061227b84828501612189565b91505092915050565b6000806040838503121561229757600080fd5b60006122a585828601612189565b92505060206122b685828601612189565b9150509250929050565b6000806000606084860312156122d557600080fd5b60006122e386828701612189565b93505060206122f486828701612189565b925050604061230586828701612246565b9150509250925092565b6000806000806080858703121561232557600080fd5b600061233387828801612189565b945050602061234487828801612189565b935050604061235587828801612246565b925050606085013567ffffffffffffffff81111561237257600080fd5b61237e878288016121dd565b91505092959194509250565b6000806040838503121561239d57600080fd5b60006123ab85828601612189565b92505060206123bc8582860161219e565b9150509250929050565b600080604083850312156123d957600080fd5b60006123e785828601612189565b925050602083013567ffffffffffffffff81111561240457600080fd5b6124108582860161221c565b9150509250929050565b6000806040838503121561242d57600080fd5b600061243b85828601612189565b925050602061244c85828601612246565b9150509250929050565b60006020828403121561246857600080fd5b6000612476848285016121b3565b91505092915050565b60006020828403121561249157600080fd5b600061249f848285016121c8565b91505092915050565b6000602082840312156124ba57600080fd5b60006124c884828501612207565b91505092915050565b6000602082840312156124e357600080fd5b60006124f184828501612246565b91505092915050565b61250381613139565b82525050565b6125128161314b565b82525050565b60006125238261303b565b61252d8185613051565b935061253d8185602086016131ce565b61254681613369565b840191505092915050565b600061255c82613046565b6125668185613062565b93506125768185602086016131ce565b61257f81613369565b840191505092915050565b600061259582613046565b61259f8185613073565b93506125af8185602086016131ce565b80840191505092915050565b60006125c8603283613062565b91507f4552433732313a207472616e7366657220746f206e6f6e20455243373231526560008301527f63656976657220696d706c656d656e74657200000000000000000000000000006020830152604082019050919050565b600061262e602683613062565b91507f4f776e61626c653a206e6577206f776e657220697320746865207a65726f206160008301527f64647265737300000000000000000000000000000000000000000000000000006020830152604082019050919050565b6000612694601c83613062565b91507f4552433732313a20746f6b656e20616c7265616479206d696e746564000000006000830152602082019050919050565b60006126d4602483613062565b91507f4552433732313a207472616e7366657220746f20746865207a65726f2061646460008301527f72657373000000000000000000000000000000000000000000000000000000006020830152604082019050919050565b600061273a601983613062565b91507f4552433732313a20617070726f766520746f2063616c6c6572000000000000006000830152602082019050919050565b600061277a602c83613062565b91507f4552433732313a206f70657261746f7220717565727920666f72206e6f6e657860008301527f697374656e7420746f6b656e00000000000000000000000000000000000000006020830152604082019050919050565b60006127e0603883613062565b91507f4552433732313a20617070726f76652063616c6c6572206973206e6f74206f7760008301527f6e6572206e6f7220617070726f76656420666f7220616c6c00000000000000006020830152604082019050919050565b6000612846602a83613062565b91507f4552433732313a2062616c616e636520717565727920666f7220746865207a6560008301527f726f2061646472657373000000000000000000000000000000000000000000006020830152604082019050919050565b60006128ac602983613062565b91507f4552433732313a206f776e657220717565727920666f72206e6f6e657869737460008301527f656e7420746f6b656e00000000000000000000000000000000000000000000006020830152604082019050919050565b6000612912602e83613062565b91507f45524337323155524953746f726167653a2055524920736574206f66206e6f6e60008301527f6578697374656e7420746f6b656e0000000000000000000000000000000000006020830152604082019050919050565b6000612978602083613062565b91507f4552433732313a206d696e7420746f20746865207a65726f20616464726573736000830152602082019050919050565b60006129b8603183613062565b91507f45524337323155524953746f726167653a2055524920717565727920666f722060008301527f6e6f6e6578697374656e7420746f6b656e0000000000000000000000000000006020830152604082019050919050565b6000612a1e602c83613062565b91507f4552433732313a20617070726f76656420717565727920666f72206e6f6e657860008301527f697374656e7420746f6b656e00000000000000000000000000000000000000006020830152604082019050919050565b6000612a84602083613062565b91507f4f776e61626c653a2063616c6c6572206973206e6f7420746865206f776e65726000830152602082019050919050565b6000612ac4602983613062565b91507f4552433732313a207472616e73666572206f6620746f6b656e2074686174206960008301527f73206e6f74206f776e00000000000000000000000000000000000000000000006020830152604082019050919050565b6000612b2a602f83613062565b91507f4552433732314d657461646174613a2055524920717565727920666f72206e6f60008301527f6e6578697374656e7420746f6b656e00000000000000000000000000000000006020830152604082019050919050565b6000612b90602183613062565b91507f4552433732313a20617070726f76616c20746f2063757272656e74206f776e6560008301527f72000000000000000000000000000000000000000000000000000000000000006020830152604082019050919050565b6000612bf6603183613062565b91507f4552433732313a207472616e736665722063616c6c6572206973206e6f74206f60008301527f776e6572206e6f7220617070726f7665640000000000000000000000000000006020830152604082019050919050565b612c58816131b5565b82525050565b6000612c6a828561258a565b9150612c76828461258a565b91508190509392505050565b6000602082019050612c9760008301846124fa565b92915050565b6000608082019050612cb260008301876124fa565b612cbf60208301866124fa565b612ccc6040830185612c4f565b8181036060830152612cde8184612518565b905095945050505050565b6000602082019050612cfe6000830184612509565b92915050565b60006020820190508181036000830152612d1e8184612551565b905092915050565b60006020820190508181036000830152612d3f816125bb565b9050919050565b60006020820190508181036000830152612d5f81612621565b9050919050565b60006020820190508181036000830152612d7f81612687565b9050919050565b60006020820190508181036000830152612d9f816126c7565b9050919050565b60006020820190508181036000830152612dbf8161272d565b9050919050565b60006020820190508181036000830152612ddf8161276d565b9050919050565b60006020820190508181036000830152612dff816127d3565b9050919050565b60006020820190508181036000830152612e1f81612839565b9050919050565b60006020820190508181036000830152612e3f8161289f565b9050919050565b60006020820190508181036000830152612e5f81612905565b9050919050565b60006020820190508181036000830152612e7f8161296b565b9050919050565b60006020820190508181036000830152612e9f816129ab565b9050919050565b60006020820190508181036000830152612ebf81612a11565b9050919050565b60006020820190508181036000830152612edf81612a77565b9050919050565b60006020820190508181036000830152612eff81612ab7565b9050919050565b60006020820190508181036000830152612f1f81612b1d565b9050919050565b60006020820190508181036000830152612f3f81612b83565b9050919050565b60006020820190508181036000830152612f5f81612be9565b9050919050565b6000602082019050612f7b6000830184612c4f565b92915050565b6000604082019050612f966000830185612c4f565b612fa360208301846124fa565b9392505050565b6000604051905081810181811067ffffffffffffffff82111715612fd157612fd061333a565b5b8060405250919050565b600067ffffffffffffffff821115612ff657612ff561333a565b5b601f19601f8301169050602081019050919050565b600067ffffffffffffffff8211156130265761302561333a565b5b601f19601f8301169050602081019050919050565b600081519050919050565b600081519050919050565b600082825260208201905092915050565b600082825260208201905092915050565b600081905092915050565b6000613089826131b5565b9150613094836131b5565b9250827fffffffffffffffffffffffffffffffffffffffffffffffffffffffffffffffff038211156130c9576130c86132ad565b5b828201905092915050565b60006130df826131b5565b91506130ea836131b5565b9250826130fa576130f96132dc565b5b828204905092915050565b6000613110826131b5565b915061311b836131b5565b92508282101561312e5761312d6132ad565b5b828203905092915050565b600061314482613195565b9050919050565b60008115159050919050565b60007fffffffff0000000000000000000000000000000000000000000000000000000082169050919050565b600061318e82613139565b9050919050565b600073ffffffffffffffffffffffffffffffffffffffff82169050919050565b6000819050919050565b82818337600083830152505050565b60005b838110156131ec5780820151818401526020810190506131d1565b838111156131fb576000848401525b50505050565b6000600282049050600182168061321957607f821691505b6020821081141561322d5761322c61330b565b5b50919050565b600061323e826131b5565b91507fffffffffffffffffffffffffffffffffffffffffffffffffffffffffffffffff821415613271576132706132ad565b5b600182019050919050565b6000613287826131b5565b9150613292836131b5565b9250826132a2576132a16132dc565b5b828206905092915050565b7f4e487b7100000000000000000000000000000000000000000000000000000000600052601160045260246000fd5b7f4e487b7100000000000000000000000000000000000000000000000000000000600052601260045260246000fd5b7f4e487b7100000000000000000000000000000000000000000000000000000000600052602260045260246000fd5b7f4e487b7100000000000000000000000000000000000000000000000000000000600052604160045260246000fd5b6000601f19601f8301169050919050565b61338381613139565b811461338e57600080fd5b50565b61339a8161314b565b81146133a557600080fd5b50565b6133b181613157565b81146133bc57600080fd5b50565b6133c881613183565b81146133d357600080fd5b50565b6133df816131b5565b81146133ea57600080fd5b5056fe68747470733a2f2f736f756c732d6170692e6f70656e7365612e696f2f6170692f626f782f68747470733a2f2f676174657761792e70696e6174612e636c6f75642f697066732fa264697066735822122026b0c28e678ee438b272d2d9ca5d0a3ee89a86989ac4c24ff8917feca07d8a0d64736f6c63430008000033",
  "immutableReferences": {},
  "source": "// SPDX-License-Identifier: MIT\r\npragma solidity ^0.8.0;\r\n\r\n\r\nimport './ERC721Tradable.sol';\r\nimport './SoulFragment.sol';\r\nimport './IFactoryERC721.sol';\r\nimport './SoulFragmentFactory.sol';\r\nimport '@openzeppelin/contracts/access/Ownable.sol';\r\n\r\n/**\r\n * @title SoulLootBox\r\n *\r\n * SoulLootBox - a tradeable loot box of Souls.\r\n */\r\ncontract SoulLootBox is ERC721Tradable {\r\n    uint256 NUM_SOULS_PER_BOX = 3;\r\n    uint256 OPTION_ID = 0;\r\n    address factoryAddress;\r\n\r\n    constructor(address _proxyRegistryAddress, address _factoryAddress)\r\n        public\r\n        ERC721Tradable(\"SoulLootBox\", \"LOOTBOX\", _proxyRegistryAddress)\r\n    {\r\n        factoryAddress = _factoryAddress;\r\n    }\r\n\r\n    function unpack(uint256 _tokenId) public {\r\n        require(ownerOf(_tokenId) == msg.sender);\r\n\r\n        // Insert custom logic for configuring the item here.\r\n        for (uint256 i = 0; i < NUM_SOULS_PER_BOX; i++) {\r\n            // Mint the ERC721 item(s).\r\n            SoulFragmentFactory factory = SoulFragmentFactory(factoryAddress);\r\n            factory.mint(OPTION_ID, msg.sender);\r\n        }\r\n\r\n        //TODO: Advanced item sale structure\r\n        // Burn the presale item.\r\n       // _burn(msg.sender, _tokenId);\r\n    }\r\n\r\n    function baseTokenURI() public pure returns (string memory) {\r\n        return \"https://souls-api.opensea.io/api/box/\";\r\n    }\r\n\r\n    function itemsPerLootbox() public view returns (uint256) {\r\n        return NUM_SOULS_PER_BOX;\r\n    }\r\n}",
  "sourcePath": "C:\\Users\\editr\\OneDrive\\Desktop\\etherprojects\\SoulSwap\\contracts\\SoulLootBox.sol",
  "compiler": {
    "name": "solc",
    "version": "0.8.0+commit.c7dfd78e.Emscripten.clang"
  },
  "schemaVersion": "3.3.3",
  "updatedAt": "2021-05-06T05:58:35.235Z",
  "networkType": "ethereum",
  "devdoc": {
    "kind": "dev",
    "methods": {
      "approve(address,uint256)": {
        "details": "See {IERC721-approve}."
      },
      "balanceOf(address)": {
        "details": "See {IERC721-balanceOf}."
      },
      "getApproved(uint256)": {
        "details": "See {IERC721-getApproved}."
      },
      "mintTo(address)": {
        "details": "Mints a token to an address with a tokenURI.",
        "params": {
          "_to": "address of the future owner of the token"
        }
      },
      "name()": {
        "details": "See {IERC721Metadata-name}."
      },
      "owner()": {
        "details": "Returns the address of the current owner."
      },
      "ownerOf(uint256)": {
        "details": "See {IERC721-ownerOf}."
      },
      "renounceOwnership()": {
        "details": "Leaves the contract without owner. It will not be possible to call `onlyOwner` functions anymore. Can only be called by the current owner. NOTE: Renouncing ownership will leave the contract without an owner, thereby removing any functionality that is only available to the owner."
      },
      "safeTransferFrom(address,address,uint256)": {
        "details": "See {IERC721-safeTransferFrom}."
      },
      "safeTransferFrom(address,address,uint256,bytes)": {
        "details": "See {IERC721-safeTransferFrom}."
      },
      "setApprovalForAll(address,bool)": {
        "details": "See {IERC721-setApprovalForAll}."
      },
      "supportsInterface(bytes4)": {
        "details": "See {IERC165-supportsInterface}."
      },
      "symbol()": {
        "details": "See {IERC721Metadata-symbol}."
      },
      "transferFrom(address,address,uint256)": {
        "details": "See {IERC721-transferFrom}."
      },
      "transferOwnership(address)": {
        "details": "Transfers ownership of the contract to a new account (`newOwner`). Can only be called by the current owner."
      }
    },
    "title": "SoulLootBox SoulLootBox - a tradeable loot box of Souls.",
    "version": 1
  },
  "userdoc": {
    "kind": "user",
    "methods": {
      "isApprovedForAll(address,address)": {
        "notice": "Override isApprovedForAll to whitelist user's OpenSea proxy accounts to enable gas-less listings."
      }
    },
    "version": 1
  }
}