{
  "contractName": "SoulLootBox",
  "abi": [
    {
      "inputs": [
        {
          "internalType": "address",
          "name": "_proxyRegistryAddress",
          "type": "address"
        },
        {
          "internalType": "address",
          "name": "_factoryAddress",
          "type": "address"
        }
      ],
      "stateMutability": "nonpayable",
      "type": "constructor"
    },
    {
      "anonymous": false,
      "inputs": [
        {
          "indexed": true,
          "internalType": "address",
          "name": "owner",
          "type": "address"
        },
        {
          "indexed": true,
          "internalType": "address",
          "name": "approved",
          "type": "address"
        },
        {
          "indexed": true,
          "internalType": "uint256",
          "name": "tokenId",
          "type": "uint256"
        }
      ],
      "name": "Approval",
      "type": "event"
    },
    {
      "anonymous": false,
      "inputs": [
        {
          "indexed": true,
          "internalType": "address",
          "name": "owner",
          "type": "address"
        },
        {
          "indexed": true,
          "internalType": "address",
          "name": "operator",
          "type": "address"
        },
        {
          "indexed": false,
          "internalType": "bool",
          "name": "approved",
          "type": "bool"
        }
      ],
      "name": "ApprovalForAll",
      "type": "event"
    },
    {
      "anonymous": false,
      "inputs": [
        {
          "indexed": true,
          "internalType": "address",
          "name": "previousOwner",
          "type": "address"
        },
        {
          "indexed": true,
          "internalType": "address",
          "name": "newOwner",
          "type": "address"
        }
      ],
      "name": "OwnershipTransferred",
      "type": "event"
    },
    {
      "anonymous": false,
      "inputs": [
        {
          "indexed": true,
          "internalType": "address",
          "name": "from",
          "type": "address"
        },
        {
          "indexed": true,
          "internalType": "address",
          "name": "to",
          "type": "address"
        },
        {
          "indexed": true,
          "internalType": "uint256",
          "name": "tokenId",
          "type": "uint256"
        }
      ],
      "name": "Transfer",
      "type": "event"
    },
    {
      "inputs": [
        {
          "internalType": "address",
          "name": "to",
          "type": "address"
        },
        {
          "internalType": "uint256",
          "name": "tokenId",
          "type": "uint256"
        }
      ],
      "name": "approve",
      "outputs": [],
      "stateMutability": "nonpayable",
      "type": "function"
    },
    {
      "inputs": [
        {
          "internalType": "address",
          "name": "owner",
          "type": "address"
        }
      ],
      "name": "balanceOf",
      "outputs": [
        {
          "internalType": "uint256",
          "name": "",
          "type": "uint256"
        }
      ],
      "stateMutability": "view",
      "type": "function"
    },
    {
      "inputs": [
        {
          "internalType": "uint256",
          "name": "tokenId",
          "type": "uint256"
        }
      ],
      "name": "getApproved",
      "outputs": [
        {
          "internalType": "address",
          "name": "",
          "type": "address"
        }
      ],
      "stateMutability": "view",
      "type": "function"
    },
    {
      "inputs": [
        {
          "internalType": "address",
          "name": "owner",
          "type": "address"
        },
        {
          "internalType": "address",
          "name": "operator",
          "type": "address"
        }
      ],
      "name": "isApprovedForAll",
      "outputs": [
        {
          "internalType": "bool",
          "name": "",
          "type": "bool"
        }
      ],
      "stateMutability": "view",
      "type": "function"
    },
    {
      "inputs": [
        {
          "internalType": "address",
          "name": "_to",
          "type": "address"
        }
      ],
      "name": "mintTo",
      "outputs": [],
      "stateMutability": "nonpayable",
      "type": "function"
    },
    {
      "inputs": [],
      "name": "name",
      "outputs": [
        {
          "internalType": "string",
          "name": "",
          "type": "string"
        }
      ],
      "stateMutability": "view",
      "type": "function"
    },
    {
      "inputs": [],
      "name": "owner",
      "outputs": [
        {
          "internalType": "address",
          "name": "",
          "type": "address"
        }
      ],
      "stateMutability": "view",
      "type": "function"
    },
    {
      "inputs": [
        {
          "internalType": "uint256",
          "name": "tokenId",
          "type": "uint256"
        }
      ],
      "name": "ownerOf",
      "outputs": [
        {
          "internalType": "address",
          "name": "",
          "type": "address"
        }
      ],
      "stateMutability": "view",
      "type": "function"
    },
    {
      "inputs": [],
      "name": "renounceOwnership",
      "outputs": [],
      "stateMutability": "nonpayable",
      "type": "function"
    },
    {
      "inputs": [
        {
          "internalType": "address",
          "name": "from",
          "type": "address"
        },
        {
          "internalType": "address",
          "name": "to",
          "type": "address"
        },
        {
          "internalType": "uint256",
          "name": "tokenId",
          "type": "uint256"
        }
      ],
      "name": "safeTransferFrom",
      "outputs": [],
      "stateMutability": "nonpayable",
      "type": "function"
    },
    {
      "inputs": [
        {
          "internalType": "address",
          "name": "from",
          "type": "address"
        },
        {
          "internalType": "address",
          "name": "to",
          "type": "address"
        },
        {
          "internalType": "uint256",
          "name": "tokenId",
          "type": "uint256"
        },
        {
          "internalType": "bytes",
          "name": "_data",
          "type": "bytes"
        }
      ],
      "name": "safeTransferFrom",
      "outputs": [],
      "stateMutability": "nonpayable",
      "type": "function"
    },
    {
      "inputs": [
        {
          "internalType": "address",
          "name": "operator",
          "type": "address"
        },
        {
          "internalType": "bool",
          "name": "approved",
          "type": "bool"
        }
      ],
      "name": "setApprovalForAll",
      "outputs": [],
      "stateMutability": "nonpayable",
      "type": "function"
    },
    {
      "inputs": [
        {
          "internalType": "bytes4",
          "name": "interfaceId",
          "type": "bytes4"
        }
      ],
      "name": "supportsInterface",
      "outputs": [
        {
          "internalType": "bool",
          "name": "",
          "type": "bool"
        }
      ],
      "stateMutability": "view",
      "type": "function"
    },
    {
      "inputs": [],
      "name": "symbol",
      "outputs": [
        {
          "internalType": "string",
          "name": "",
          "type": "string"
        }
      ],
      "stateMutability": "view",
      "type": "function"
    },
    {
      "inputs": [
        {
          "internalType": "uint256",
          "name": "",
          "type": "uint256"
        }
      ],
      "name": "tokenSupply",
      "outputs": [
        {
          "internalType": "uint256",
          "name": "",
          "type": "uint256"
        }
      ],
      "stateMutability": "view",
      "type": "function"
    },
    {
      "inputs": [
        {
          "internalType": "uint256",
          "name": "_tokenId",
          "type": "uint256"
        }
      ],
      "name": "tokenURI",
      "outputs": [
        {
          "internalType": "string",
          "name": "",
          "type": "string"
        }
      ],
      "stateMutability": "pure",
      "type": "function"
    },
    {
      "inputs": [
        {
          "internalType": "uint256",
          "name": "_id",
          "type": "uint256"
        }
      ],
      "name": "totalSupply",
      "outputs": [
        {
          "internalType": "uint256",
          "name": "",
          "type": "uint256"
        }
      ],
      "stateMutability": "view",
      "type": "function"
    },
    {
      "inputs": [
        {
          "internalType": "address",
          "name": "from",
          "type": "address"
        },
        {
          "internalType": "address",
          "name": "to",
          "type": "address"
        },
        {
          "internalType": "uint256",
          "name": "tokenId",
          "type": "uint256"
        }
      ],
      "name": "transferFrom",
      "outputs": [],
      "stateMutability": "nonpayable",
      "type": "function"
    },
    {
      "inputs": [
        {
          "internalType": "address",
          "name": "newOwner",
          "type": "address"
        }
      ],
      "name": "transferOwnership",
      "outputs": [],
      "stateMutability": "nonpayable",
      "type": "function"
    },
    {
      "inputs": [
        {
          "internalType": "uint256",
          "name": "_tokenId",
          "type": "uint256"
        }
      ],
      "name": "unpack",
      "outputs": [],
      "stateMutability": "nonpayable",
      "type": "function"
    },
    {
      "inputs": [],
      "name": "baseTokenURI",
      "outputs": [
        {
          "internalType": "string",
          "name": "",
          "type": "string"
        }
      ],
      "stateMutability": "pure",
      "type": "function"
    },
    {
      "inputs": [],
      "name": "itemsPerLootbox",
      "outputs": [
        {
          "internalType": "uint256",
          "name": "",
          "type": "uint256"
        }
      ],
      "stateMutability": "view",
      "type": "function"
    }
  ],
  "bytecode": "0x608060405260006008556003600a556000600b553480156200002057600080fd5b506040516200374e3803806200374e8339818101604052810190620000469190620002f6565b6040518060400160405280600b81526020017f536f756c4c6f6f74426f780000000000000000000000000000000000000000008152506040518060400160405280600781526020017f4c4f4f54424f58000000000000000000000000000000000000000000000000008152508382828160009080519060200190620000cd9291906200022f565b508060019080519060200190620000e69291906200022f565b5050506000620000fb6200022760201b60201c565b905080600660006101000a81548173ffffffffffffffffffffffffffffffffffffffff021916908373ffffffffffffffffffffffffffffffffffffffff1602179055508073ffffffffffffffffffffffffffffffffffffffff16600073ffffffffffffffffffffffffffffffffffffffff167f8be0079c531659141344cd1fd0a4f28419497f9722a3daafe3b4186f6b6457e060405160405180910390a35080600760006101000a81548173ffffffffffffffffffffffffffffffffffffffff021916908373ffffffffffffffffffffffffffffffffffffffff16021790555050505080600c60006101000a81548173ffffffffffffffffffffffffffffffffffffffff021916908373ffffffffffffffffffffffffffffffffffffffff1602179055505050620003ea565b600033905090565b8280546200023d906200036b565b90600052602060002090601f016020900481019282620002615760008555620002ad565b82601f106200027c57805160ff1916838001178555620002ad565b82800160010185558215620002ad579182015b82811115620002ac5782518255916020019190600101906200028f565b5b509050620002bc9190620002c0565b5090565b5b80821115620002db576000816000905550600101620002c1565b5090565b600081519050620002f081620003d0565b92915050565b600080604083850312156200030a57600080fd5b60006200031a85828601620002df565b92505060206200032d85828601620002df565b9150509250929050565b600062000344826200034b565b9050919050565b600073ffffffffffffffffffffffffffffffffffffffff82169050919050565b600060028204905060018216806200038457607f821691505b602082108114156200039b576200039a620003a1565b5b50919050565b7f4e487b7100000000000000000000000000000000000000000000000000000000600052602260045260246000fd5b620003db8162000337565b8114620003e757600080fd5b50565b61335480620003fa6000396000f3fe608060405234801561001057600080fd5b50600436106101425760003560e01c8063755edd17116100b8578063b88d4fde1161007c578063b88d4fde14610361578063bd85b0391461037d578063c87b56dd146103ad578063d547cfb7146103dd578063e985e9c5146103fb578063f2fde38b1461042b57610142565b8063755edd17146102d15780638a02be68146102ed5780638da5cb5b1461030957806395d89b4114610327578063a22cb4651461034557610142565b806323b872dd1161010a57806323b872dd146101ff5780632693ebf21461021b57806342842e0e1461024b5780636352211e1461026757806370a0823114610297578063715018a6146102c757610142565b806301ffc9a71461014757806306fdde0314610177578063081812fc14610195578063095ea7b3146101c557806319d554e1146101e1575b600080fd5b610161600480360381019061015c9190612517565b610447565b60405161016e9190612c23565b60405180910390f35b61017f610529565b60405161018c9190612c3e565b60405180910390f35b6101af60048036038101906101aa9190612592565b6105bb565b6040516101bc9190612bbc565b60405180910390f35b6101df60048036038101906101da91906124db565b610640565b005b6101e9610758565b6040516101f69190612e40565b60405180910390f35b610219600480360381019061021491906123d5565b610762565b005b61023560048036038101906102309190612592565b6107c2565b6040516102429190612e40565b60405180910390f35b610265600480360381019061026091906123d5565b6107da565b005b610281600480360381019061027c9190612592565b6107fa565b60405161028e9190612bbc565b60405180910390f35b6102b160048036038101906102ac9190612370565b6108ac565b6040516102be9190612e40565b60405180910390f35b6102cf610964565b005b6102eb60048036038101906102e69190612370565b610aa1565b005b61030760048036038101906103029190612592565b610b3f565b005b610311610c3a565b60405161031e9190612bbc565b60405180910390f35b61032f610c64565b60405161033c9190612c3e565b60405180910390f35b61035f600480360381019061035a919061249f565b610cf6565b005b61037b60048036038101906103769190612424565b610e77565b005b61039760048036038101906103929190612592565b610ed9565b6040516103a49190612e40565b60405180910390f35b6103c760048036038101906103c29190612592565b610ef6565b6040516103d49190612c3e565b60405180910390f35b6103e5610f18565b6040516103f29190612c3e565b60405180910390f35b61041560048036038101906104109190612399565b610f38565b6040516104229190612c23565b60405180910390f35b61044560048036038101906104409190612370565b61103a565b005b60007f80ac58cd000000000000000000000000000000000000000000000000000000007bffffffffffffffffffffffffffffffffffffffffffffffffffffffff1916827bffffffffffffffffffffffffffffffffffffffffffffffffffffffff1916148061051257507f5b5e139f000000000000000000000000000000000000000000000000000000007bffffffffffffffffffffffffffffffffffffffffffffffffffffffff1916827bffffffffffffffffffffffffffffffffffffffffffffffffffffffff1916145b806105225750610521826111e6565b5b9050919050565b6060600080546105389061313e565b80601f01602080910402602001604051908101604052809291908181526020018280546105649061313e565b80156105b15780601f10610586576101008083540402835291602001916105b1565b820191906000526020600020905b81548152906001019060200180831161059457829003601f168201915b5050505050905090565b60006105c682611250565b610605576040517f08c379a00000000000000000000000000000000000000000000000000000000081526004016105fc90612da0565b60405180910390fd5b6004600083815260200190815260200160002060009054906101000a900473ffffffffffffffffffffffffffffffffffffffff169050919050565b600061064b826107fa565b90508073ffffffffffffffffffffffffffffffffffffffff168373ffffffffffffffffffffffffffffffffffffffff1614156106bc576040517f08c379a00000000000000000000000000000000000000000000000000000000081526004016106b390612e00565b60405180910390fd5b8073ffffffffffffffffffffffffffffffffffffffff166106db6112bc565b73ffffffffffffffffffffffffffffffffffffffff16148061070a5750610709816107046112bc565b6112c4565b5b610749576040517f08c379a000000000000000000000000000000000000000000000000000000000815260040161074090612d20565b60405180910390fd5b6107538383611358565b505050565b6000600a54905090565b61077361076d6112bc565b82611411565b6107b2576040517f08c379a00000000000000000000000000000000000000000000000000000000081526004016107a990612e20565b60405180910390fd5b6107bd8383836114ef565b505050565b60096020528060005260406000206000915090505481565b6107f583838360405180602001604052806000815250610e77565b505050565b6000806002600084815260200190815260200160002060009054906101000a900473ffffffffffffffffffffffffffffffffffffffff169050600073ffffffffffffffffffffffffffffffffffffffff168173ffffffffffffffffffffffffffffffffffffffff1614156108a3576040517f08c379a000000000000000000000000000000000000000000000000000000000815260040161089a90612d60565b60405180910390fd5b80915050919050565b60008073ffffffffffffffffffffffffffffffffffffffff168273ffffffffffffffffffffffffffffffffffffffff16141561091d576040517f08c379a000000000000000000000000000000000000000000000000000000000815260040161091490612d40565b60405180910390fd5b600360008373ffffffffffffffffffffffffffffffffffffffff1673ffffffffffffffffffffffffffffffffffffffff168152602001908152602001600020549050919050565b61096c6112bc565b73ffffffffffffffffffffffffffffffffffffffff1661098a610c3a565b73ffffffffffffffffffffffffffffffffffffffff16146109e0576040517f08c379a00000000000000000000000000000000000000000000000000000000081526004016109d790612dc0565b60405180910390fd5b600073ffffffffffffffffffffffffffffffffffffffff16600660009054906101000a900473ffffffffffffffffffffffffffffffffffffffff1673ffffffffffffffffffffffffffffffffffffffff167f8be0079c531659141344cd1fd0a4f28419497f9722a3daafe3b4186f6b6457e060405160405180910390a36000600660006101000a81548173ffffffffffffffffffffffffffffffffffffffff021916908373ffffffffffffffffffffffffffffffffffffffff160217905550565b610aa96112bc565b73ffffffffffffffffffffffffffffffffffffffff16610ac7610c3a565b73ffffffffffffffffffffffffffffffffffffffff1614610b1d576040517f08c379a0000000000000000000000000000000000000000000000000000000008152600401610b1490612dc0565b60405180910390fd5b6000610b2761174b565b9050610b338282611769565b610b3b611937565b5050565b3373ffffffffffffffffffffffffffffffffffffffff16610b5f826107fa565b73ffffffffffffffffffffffffffffffffffffffff1614610b7f57600080fd5b60005b600a54811015610c36576000600c60009054906101000a900473ffffffffffffffffffffffffffffffffffffffff1690508073ffffffffffffffffffffffffffffffffffffffff166394bf804d600b54336040518363ffffffff1660e01b8152600401610bf0929190612e5b565b600060405180830381600087803b158015610c0a57600080fd5b505af1158015610c1e573d6000803e3d6000fd5b50505050508080610c2e90613170565b915050610b82565b5050565b6000600660009054906101000a900473ffffffffffffffffffffffffffffffffffffffff16905090565b606060018054610c739061313e565b80601f0160208091040260200160405190810160405280929190818152602001828054610c9f9061313e565b8015610cec5780601f10610cc157610100808354040283529160200191610cec565b820191906000526020600020905b815481529060010190602001808311610ccf57829003601f168201915b5050505050905090565b610cfe6112bc565b73ffffffffffffffffffffffffffffffffffffffff168273ffffffffffffffffffffffffffffffffffffffff161415610d6c576040517f08c379a0000000000000000000000000000000000000000000000000000000008152600401610d6390612ce0565b60405180910390fd5b8060056000610d796112bc565b73ffffffffffffffffffffffffffffffffffffffff1673ffffffffffffffffffffffffffffffffffffffff16815260200190815260200160002060008473ffffffffffffffffffffffffffffffffffffffff1673ffffffffffffffffffffffffffffffffffffffff16815260200190815260200160002060006101000a81548160ff0219169083151502179055508173ffffffffffffffffffffffffffffffffffffffff16610e266112bc565b73ffffffffffffffffffffffffffffffffffffffff167f17307eab39ab6107e8899845ad3d59bd9653f200f220920489ca2b5937696c3183604051610e6b9190612c23565b60405180910390a35050565b610e88610e826112bc565b83611411565b610ec7576040517f08c379a0000000000000000000000000000000000000000000000000000000008152600401610ebe90612e20565b60405180910390fd5b610ed384848484611951565b50505050565b600060096000838152602001908152602001600020549050919050565b6060610f11610f03610f18565b610f0c846119ad565b611b82565b9050919050565b60606040518060600160405280602581526020016132fa60259139905090565b600080600760009054906101000a900473ffffffffffffffffffffffffffffffffffffffff1690508273ffffffffffffffffffffffffffffffffffffffff168173ffffffffffffffffffffffffffffffffffffffff1663c4552791866040518263ffffffff1660e01b8152600401610fb09190612bbc565b60206040518083038186803b158015610fc857600080fd5b505afa158015610fdc573d6000803e3d6000fd5b505050506040513d601f19601f820116820180604052508101906110009190612569565b73ffffffffffffffffffffffffffffffffffffffff161415611026576001915050611034565b61103084846112c4565b9150505b92915050565b6110426112bc565b73ffffffffffffffffffffffffffffffffffffffff16611060610c3a565b73ffffffffffffffffffffffffffffffffffffffff16146110b6576040517f08c379a00000000000000000000000000000000000000000000000000000000081526004016110ad90612dc0565b60405180910390fd5b600073ffffffffffffffffffffffffffffffffffffffff168173ffffffffffffffffffffffffffffffffffffffff161415611126576040517f08c379a000000000000000000000000000000000000000000000000000000000815260040161111d90612c80565b60405180910390fd5b8073ffffffffffffffffffffffffffffffffffffffff16600660009054906101000a900473ffffffffffffffffffffffffffffffffffffffff1673ffffffffffffffffffffffffffffffffffffffff167f8be0079c531659141344cd1fd0a4f28419497f9722a3daafe3b4186f6b6457e060405160405180910390a380600660006101000a81548173ffffffffffffffffffffffffffffffffffffffff021916908373ffffffffffffffffffffffffffffffffffffffff16021790555050565b60007f01ffc9a7000000000000000000000000000000000000000000000000000000007bffffffffffffffffffffffffffffffffffffffffffffffffffffffff1916827bffffffffffffffffffffffffffffffffffffffffffffffffffffffff1916149050919050565b60008073ffffffffffffffffffffffffffffffffffffffff166002600084815260200190815260200160002060009054906101000a900473ffffffffffffffffffffffffffffffffffffffff1673ffffffffffffffffffffffffffffffffffffffff1614159050919050565b600033905090565b6000600560008473ffffffffffffffffffffffffffffffffffffffff1673ffffffffffffffffffffffffffffffffffffffff16815260200190815260200160002060008373ffffffffffffffffffffffffffffffffffffffff1673ffffffffffffffffffffffffffffffffffffffff16815260200190815260200160002060009054906101000a900460ff16905092915050565b816004600083815260200190815260200160002060006101000a81548173ffffffffffffffffffffffffffffffffffffffff021916908373ffffffffffffffffffffffffffffffffffffffff160217905550808273ffffffffffffffffffffffffffffffffffffffff166113cb836107fa565b73ffffffffffffffffffffffffffffffffffffffff167f8c5be1e5ebec7d5bd14f71427d1e84f3dd0314c0f7b2291e5b200ac8c7c3b92560405160405180910390a45050565b600061141c82611250565b61145b576040517f08c379a000000000000000000000000000000000000000000000000000000000815260040161145290612d00565b60405180910390fd5b6000611466836107fa565b90508073ffffffffffffffffffffffffffffffffffffffff168473ffffffffffffffffffffffffffffffffffffffff1614806114d557508373ffffffffffffffffffffffffffffffffffffffff166114bd846105bb565b73ffffffffffffffffffffffffffffffffffffffff16145b806114e657506114e581856112c4565b5b91505092915050565b8273ffffffffffffffffffffffffffffffffffffffff1661150f826107fa565b73ffffffffffffffffffffffffffffffffffffffff1614611565576040517f08c379a000000000000000000000000000000000000000000000000000000000815260040161155c90612de0565b60405180910390fd5b600073ffffffffffffffffffffffffffffffffffffffff168273ffffffffffffffffffffffffffffffffffffffff1614156115d5576040517f08c379a00000000000000000000000000000000000000000000000000000000081526004016115cc90612cc0565b60405180910390fd5b6115e0838383611bc6565b6115eb600082611358565b6001600360008573ffffffffffffffffffffffffffffffffffffffff1673ffffffffffffffffffffffffffffffffffffffff168152602001908152602001600020600082825461163b9190613035565b925050819055506001600360008473ffffffffffffffffffffffffffffffffffffffff1673ffffffffffffffffffffffffffffffffffffffff16815260200190815260200160002060008282546116929190612f1d565b92505081905550816002600083815260200190815260200160002060006101000a81548173ffffffffffffffffffffffffffffffffffffffff021916908373ffffffffffffffffffffffffffffffffffffffff160217905550808273ffffffffffffffffffffffffffffffffffffffff168473ffffffffffffffffffffffffffffffffffffffff167fddf252ad1be2c89b69c2b068fc378daa952ba7f163c4a11628f55a4df523b3ef60405160405180910390a4505050565b60006008600081548092919061176090613170565b91905055905090565b600073ffffffffffffffffffffffffffffffffffffffff168273ffffffffffffffffffffffffffffffffffffffff1614156117d9576040517f08c379a00000000000000000000000000000000000000000000000000000000081526004016117d090612d80565b60405180910390fd5b6117e281611250565b15611822576040517f08c379a000000000000000000000000000000000000000000000000000000000815260040161181990612ca0565b60405180910390fd5b61182e60008383611bc6565b6001600360008473ffffffffffffffffffffffffffffffffffffffff1673ffffffffffffffffffffffffffffffffffffffff168152602001908152602001600020600082825461187e9190612f1d565b92505081905550816002600083815260200190815260200160002060006101000a81548173ffffffffffffffffffffffffffffffffffffffff021916908373ffffffffffffffffffffffffffffffffffffffff160217905550808273ffffffffffffffffffffffffffffffffffffffff16600073ffffffffffffffffffffffffffffffffffffffff167fddf252ad1be2c89b69c2b068fc378daa952ba7f163c4a11628f55a4df523b3ef60405160405180910390a45050565b6008600081548092919061194a90613170565b9190505550565b61195c8484846114ef565b61196884848484611bcb565b6119a7576040517f08c379a000000000000000000000000000000000000000000000000000000000815260040161199e90612c60565b60405180910390fd5b50505050565b606060008214156119f5576040518060400160405280600181526020017f30000000000000000000000000000000000000000000000000000000000000008152509050611b7d565b600082905060005b60008214611a27578080611a1090613170565b915050600a82611a209190612faa565b91506119fd565b60008167ffffffffffffffff811115611a69577f4e487b7100000000000000000000000000000000000000000000000000000000600052604160045260246000fd5b6040519080825280601f01601f191660200182016040528015611a9b5781602001600182028036833780820191505090505b50905060008290505b60008614611b7557600181611ab99190613035565b90506000600a8088611acb9190612faa565b611ad59190612fdb565b87611ae09190613035565b6030611aec9190612f73565b905060008160f81b905080848481518110611b30577f4e487b7100000000000000000000000000000000000000000000000000000000600052603260045260246000fd5b60200101907effffffffffffffffffffffffffffffffffffffffffffffffffffffffffffff1916908160001a905350600a88611b6c9190612faa565b97505050611aa4565b819450505050505b919050565b6060611bbe8383604051806020016040528060008152506040518060200160405280600081525060405180602001604052806000815250611d62565b905092915050565b505050565b6000611bec8473ffffffffffffffffffffffffffffffffffffffff16612277565b15611d55578373ffffffffffffffffffffffffffffffffffffffff1663150b7a02611c156112bc565b8786866040518563ffffffff1660e01b8152600401611c379493929190612bd7565b602060405180830381600087803b158015611c5157600080fd5b505af1925050508015611c8257506040513d601f19601f82011682018060405250810190611c7f9190612540565b60015b611d05573d8060008114611cb2576040519150601f19603f3d011682016040523d82523d6000602084013e611cb7565b606091505b50600081511415611cfd576040517f08c379a0000000000000000000000000000000000000000000000000000000008152600401611cf490612c60565b60405180910390fd5b805181602001fd5b63150b7a0260e01b7bffffffffffffffffffffffffffffffffffffffffffffffffffffffff1916817bffffffffffffffffffffffffffffffffffffffffffffffffffffffff191614915050611d5a565b600190505b949350505050565b606060008690506000869050600086905060008690506000869050600081518351855187518951611d939190612f1d565b611d9d9190612f1d565b611da79190612f1d565b611db19190612f1d565b67ffffffffffffffff811115611df0577f4e487b7100000000000000000000000000000000000000000000000000000000600052604160045260246000fd5b6040519080825280601f01601f191660200182016040528015611e225781602001600182028036833780820191505090505b50905060008190506000805b8851811015611f0257888181518110611e70577f4e487b7100000000000000000000000000000000000000000000000000000000600052603260045260246000fd5b602001015160f81c60f81b838380611e8790613170565b945081518110611ec0577f4e487b7100000000000000000000000000000000000000000000000000000000600052603260045260246000fd5b60200101907effffffffffffffffffffffffffffffffffffffffffffffffffffffffffffff1916908160001a9053508080611efa90613170565b915050611e2e565b5060005b8751811015611fda57878181518110611f48577f4e487b7100000000000000000000000000000000000000000000000000000000600052603260045260246000fd5b602001015160f81c60f81b838380611f5f90613170565b945081518110611f98577f4e487b7100000000000000000000000000000000000000000000000000000000600052603260045260246000fd5b60200101907effffffffffffffffffffffffffffffffffffffffffffffffffffffffffffff1916908160001a9053508080611fd290613170565b915050611f06565b5060005b86518110156120b257868181518110612020577f4e487b7100000000000000000000000000000000000000000000000000000000600052603260045260246000fd5b602001015160f81c60f81b83838061203790613170565b945081518110612070577f4e487b7100000000000000000000000000000000000000000000000000000000600052603260045260246000fd5b60200101907effffffffffffffffffffffffffffffffffffffffffffffffffffffffffffff1916908160001a90535080806120aa90613170565b915050611fde565b5060005b855181101561218a578581815181106120f8577f4e487b7100000000000000000000000000000000000000000000000000000000600052603260045260246000fd5b602001015160f81c60f81b83838061210f90613170565b945081518110612148577f4e487b7100000000000000000000000000000000000000000000000000000000600052603260045260246000fd5b60200101907effffffffffffffffffffffffffffffffffffffffffffffffffffffffffffff1916908160001a905350808061218290613170565b9150506120b6565b5060005b8451811015612262578481815181106121d0577f4e487b7100000000000000000000000000000000000000000000000000000000600052603260045260246000fd5b602001015160f81c60f81b8383806121e790613170565b945081518110612220577f4e487b7100000000000000000000000000000000000000000000000000000000600052603260045260246000fd5b60200101907effffffffffffffffffffffffffffffffffffffffffffffffffffffffffffff1916908160001a905350808061225a90613170565b91505061218e565b50819850505050505050505095945050505050565b600080823b905060008111915050919050565b600061229d61229884612eb5565b612e84565b9050828152602081018484840111156122b557600080fd5b6122c08482856130fc565b509392505050565b6000813590506122d781613286565b92915050565b6000813590506122ec8161329d565b92915050565b600081359050612301816132b4565b92915050565b600081519050612316816132b4565b92915050565b600082601f83011261232d57600080fd5b813561233d84826020860161228a565b91505092915050565b600081519050612355816132cb565b92915050565b60008135905061236a816132e2565b92915050565b60006020828403121561238257600080fd5b6000612390848285016122c8565b91505092915050565b600080604083850312156123ac57600080fd5b60006123ba858286016122c8565b92505060206123cb858286016122c8565b9150509250929050565b6000806000606084860312156123ea57600080fd5b60006123f8868287016122c8565b9350506020612409868287016122c8565b925050604061241a8682870161235b565b9150509250925092565b6000806000806080858703121561243a57600080fd5b6000612448878288016122c8565b9450506020612459878288016122c8565b935050604061246a8782880161235b565b925050606085013567ffffffffffffffff81111561248757600080fd5b6124938782880161231c565b91505092959194509250565b600080604083850312156124b257600080fd5b60006124c0858286016122c8565b92505060206124d1858286016122dd565b9150509250929050565b600080604083850312156124ee57600080fd5b60006124fc858286016122c8565b925050602061250d8582860161235b565b9150509250929050565b60006020828403121561252957600080fd5b6000612537848285016122f2565b91505092915050565b60006020828403121561255257600080fd5b600061256084828501612307565b91505092915050565b60006020828403121561257b57600080fd5b600061258984828501612346565b91505092915050565b6000602082840312156125a457600080fd5b60006125b28482850161235b565b91505092915050565b6125c481613069565b82525050565b6125d38161307b565b82525050565b60006125e482612ee5565b6125ee8185612efb565b93506125fe81856020860161310b565b61260781613275565b840191505092915050565b600061261d82612ef0565b6126278185612f0c565b935061263781856020860161310b565b61264081613275565b840191505092915050565b6000612658603283612f0c565b91507f4552433732313a207472616e7366657220746f206e6f6e20455243373231526560008301527f63656976657220696d706c656d656e74657200000000000000000000000000006020830152604082019050919050565b60006126be602683612f0c565b91507f4f776e61626c653a206e6577206f776e657220697320746865207a65726f206160008301527f64647265737300000000000000000000000000000000000000000000000000006020830152604082019050919050565b6000612724601c83612f0c565b91507f4552433732313a20746f6b656e20616c7265616479206d696e746564000000006000830152602082019050919050565b6000612764602483612f0c565b91507f4552433732313a207472616e7366657220746f20746865207a65726f2061646460008301527f72657373000000000000000000000000000000000000000000000000000000006020830152604082019050919050565b60006127ca601983612f0c565b91507f4552433732313a20617070726f766520746f2063616c6c6572000000000000006000830152602082019050919050565b600061280a602c83612f0c565b91507f4552433732313a206f70657261746f7220717565727920666f72206e6f6e657860008301527f697374656e7420746f6b656e00000000000000000000000000000000000000006020830152604082019050919050565b6000612870603883612f0c565b91507f4552433732313a20617070726f76652063616c6c6572206973206e6f74206f7760008301527f6e6572206e6f7220617070726f76656420666f7220616c6c00000000000000006020830152604082019050919050565b60006128d6602a83612f0c565b91507f4552433732313a2062616c616e636520717565727920666f7220746865207a6560008301527f726f2061646472657373000000000000000000000000000000000000000000006020830152604082019050919050565b600061293c602983612f0c565b91507f4552433732313a206f776e657220717565727920666f72206e6f6e657869737460008301527f656e7420746f6b656e00000000000000000000000000000000000000000000006020830152604082019050919050565b60006129a2602083612f0c565b91507f4552433732313a206d696e7420746f20746865207a65726f20616464726573736000830152602082019050919050565b60006129e2602c83612f0c565b91507f4552433732313a20617070726f76656420717565727920666f72206e6f6e657860008301527f697374656e7420746f6b656e00000000000000000000000000000000000000006020830152604082019050919050565b6000612a48602083612f0c565b91507f4f776e61626c653a2063616c6c6572206973206e6f7420746865206f776e65726000830152602082019050919050565b6000612a88602983612f0c565b91507f4552433732313a207472616e73666572206f6620746f6b656e2074686174206960008301527f73206e6f74206f776e00000000000000000000000000000000000000000000006020830152604082019050919050565b6000612aee602183612f0c565b91507f4552433732313a20617070726f76616c20746f2063757272656e74206f776e6560008301527f72000000000000000000000000000000000000000000000000000000000000006020830152604082019050919050565b6000612b54603183612f0c565b91507f4552433732313a207472616e736665722063616c6c6572206973206e6f74206f60008301527f776e6572206e6f7220617070726f7665640000000000000000000000000000006020830152604082019050919050565b612bb6816130e5565b82525050565b6000602082019050612bd160008301846125bb565b92915050565b6000608082019050612bec60008301876125bb565b612bf960208301866125bb565b612c066040830185612bad565b8181036060830152612c1881846125d9565b905095945050505050565b6000602082019050612c3860008301846125ca565b92915050565b60006020820190508181036000830152612c588184612612565b905092915050565b60006020820190508181036000830152612c798161264b565b9050919050565b60006020820190508181036000830152612c99816126b1565b9050919050565b60006020820190508181036000830152612cb981612717565b9050919050565b60006020820190508181036000830152612cd981612757565b9050919050565b60006020820190508181036000830152612cf9816127bd565b9050919050565b60006020820190508181036000830152612d19816127fd565b9050919050565b60006020820190508181036000830152612d3981612863565b9050919050565b60006020820190508181036000830152612d59816128c9565b9050919050565b60006020820190508181036000830152612d798161292f565b9050919050565b60006020820190508181036000830152612d9981612995565b9050919050565b60006020820190508181036000830152612db9816129d5565b9050919050565b60006020820190508181036000830152612dd981612a3b565b9050919050565b60006020820190508181036000830152612df981612a7b565b9050919050565b60006020820190508181036000830152612e1981612ae1565b9050919050565b60006020820190508181036000830152612e3981612b47565b9050919050565b6000602082019050612e556000830184612bad565b92915050565b6000604082019050612e706000830185612bad565b612e7d60208301846125bb565b9392505050565b6000604051905081810181811067ffffffffffffffff82111715612eab57612eaa613246565b5b8060405250919050565b600067ffffffffffffffff821115612ed057612ecf613246565b5b601f19601f8301169050602081019050919050565b600081519050919050565b600081519050919050565b600082825260208201905092915050565b600082825260208201905092915050565b6000612f28826130e5565b9150612f33836130e5565b9250827fffffffffffffffffffffffffffffffffffffffffffffffffffffffffffffffff03821115612f6857612f676131b9565b5b828201905092915050565b6000612f7e826130ef565b9150612f89836130ef565b92508260ff03821115612f9f57612f9e6131b9565b5b828201905092915050565b6000612fb5826130e5565b9150612fc0836130e5565b925082612fd057612fcf6131e8565b5b828204905092915050565b6000612fe6826130e5565b9150612ff1836130e5565b9250817fffffffffffffffffffffffffffffffffffffffffffffffffffffffffffffffff048311821515161561302a576130296131b9565b5b828202905092915050565b6000613040826130e5565b915061304b836130e5565b92508282101561305e5761305d6131b9565b5b828203905092915050565b6000613074826130c5565b9050919050565b60008115159050919050565b60007fffffffff0000000000000000000000000000000000000000000000000000000082169050919050565b60006130be82613069565b9050919050565b600073ffffffffffffffffffffffffffffffffffffffff82169050919050565b6000819050919050565b600060ff82169050919050565b82818337600083830152505050565b60005b8381101561312957808201518184015260208101905061310e565b83811115613138576000848401525b50505050565b6000600282049050600182168061315657607f821691505b6020821081141561316a57613169613217565b5b50919050565b600061317b826130e5565b91507fffffffffffffffffffffffffffffffffffffffffffffffffffffffffffffffff8214156131ae576131ad6131b9565b5b600182019050919050565b7f4e487b7100000000000000000000000000000000000000000000000000000000600052601160045260246000fd5b7f4e487b7100000000000000000000000000000000000000000000000000000000600052601260045260246000fd5b7f4e487b7100000000000000000000000000000000000000000000000000000000600052602260045260246000fd5b7f4e487b7100000000000000000000000000000000000000000000000000000000600052604160045260246000fd5b6000601f19601f8301169050919050565b61328f81613069565b811461329a57600080fd5b50565b6132a68161307b565b81146132b157600080fd5b50565b6132bd81613087565b81146132c857600080fd5b50565b6132d4816130b3565b81146132df57600080fd5b50565b6132eb816130e5565b81146132f657600080fd5b5056fe68747470733a2f2f736f756c732d6170692e6f70656e7365612e696f2f6170692f626f782fa26469706673582212204047ef4179211cfe175bb982a7c9292f5436ac5e8acf501f7a9ae2f2ac458abf64736f6c63430008000033",
  "immutableReferences": {},
  "source": "// SPDX-License-Identifier: MIT\r\npragma solidity ^0.8.0;\r\n\r\n\r\nimport './ERC721Tradable.sol';\r\nimport './SoulFragment.sol';\r\nimport './IFactoryERC721.sol';\r\nimport './SoulFragmentFactory.sol';\r\nimport '@openzeppelin/contracts/access/Ownable.sol';\r\n\r\n/**\r\n * @title SoulLootBox\r\n *\r\n * SoulLootBox - a tradeable loot box of Souls.\r\n */\r\ncontract SoulLootBox is ERC721Tradable {\r\n    uint256 NUM_SOULS_PER_BOX = 3;\r\n    uint256 OPTION_ID = 0;\r\n    address factoryAddress;\r\n\r\n    constructor(address _proxyRegistryAddress, address _factoryAddress)\r\n        public\r\n        ERC721Tradable(\"SoulLootBox\", \"LOOTBOX\", _proxyRegistryAddress)\r\n    {\r\n        factoryAddress = _factoryAddress;\r\n    }\r\n\r\n    function unpack(uint256 _tokenId) public {\r\n        require(ownerOf(_tokenId) == msg.sender);\r\n\r\n        // Insert custom logic for configuring the item here.\r\n        for (uint256 i = 0; i < NUM_SOULS_PER_BOX; i++) {\r\n            // Mint the ERC721 item(s).\r\n            SoulFragmentFactory factory = SoulFragmentFactory(factoryAddress);\r\n            factory.mint(OPTION_ID, msg.sender);\r\n        }\r\n\r\n        //TODO: Advanced item sale structure\r\n        // Burn the presale item.\r\n       // _burn(msg.sender, _tokenId);\r\n    }\r\n\r\n    function baseTokenURI() public override pure returns (string memory) {\r\n        return \"https://souls-api.opensea.io/api/box/\";\r\n    }\r\n\r\n    function itemsPerLootbox() public view returns (uint256) {\r\n        return NUM_SOULS_PER_BOX;\r\n    }\r\n}",
  "sourcePath": "C:\\Users\\editr\\OneDrive\\Desktop\\etherprojects\\SoulSwap\\contracts\\SoulLootBox.sol",
  "compiler": {
    "name": "solc",
    "version": "0.8.0+commit.c7dfd78e.Emscripten.clang"
  },
  "schemaVersion": "3.3.3",
  "updatedAt": "2021-04-29T05:35:14.979Z",
  "networkType": "ethereum",
  "devdoc": {
    "kind": "dev",
    "methods": {
      "approve(address,uint256)": {
        "details": "See {IERC721-approve}."
      },
      "balanceOf(address)": {
        "details": "See {IERC721-balanceOf}."
      },
      "getApproved(uint256)": {
        "details": "See {IERC721-getApproved}."
      },
      "mintTo(address)": {
        "details": "Mints a token to an address with a tokenURI.",
        "params": {
          "_to": "address of the future owner of the token"
        }
      },
      "name()": {
        "details": "See {IERC721Metadata-name}."
      },
      "owner()": {
        "details": "Returns the address of the current owner."
      },
      "ownerOf(uint256)": {
        "details": "See {IERC721-ownerOf}."
      },
      "renounceOwnership()": {
        "details": "Leaves the contract without owner. It will not be possible to call `onlyOwner` functions anymore. Can only be called by the current owner. NOTE: Renouncing ownership will leave the contract without an owner, thereby removing any functionality that is only available to the owner."
      },
      "safeTransferFrom(address,address,uint256)": {
        "details": "See {IERC721-safeTransferFrom}."
      },
      "safeTransferFrom(address,address,uint256,bytes)": {
        "details": "See {IERC721-safeTransferFrom}."
      },
      "setApprovalForAll(address,bool)": {
        "details": "See {IERC721-setApprovalForAll}."
      },
      "supportsInterface(bytes4)": {
        "details": "See {IERC165-supportsInterface}."
      },
      "symbol()": {
        "details": "See {IERC721Metadata-symbol}."
      },
      "totalSupply(uint256)": {
        "details": "Returns the total quantity for a token ID",
        "params": {
          "_id": "uint256 ID of the token to query"
        },
        "returns": {
          "_0": "amount of token in existence"
        }
      },
      "transferFrom(address,address,uint256)": {
        "details": "See {IERC721-transferFrom}."
      },
      "transferOwnership(address)": {
        "details": "Transfers ownership of the contract to a new account (`newOwner`). Can only be called by the current owner."
      }
    },
    "title": "SoulLootBox SoulLootBox - a tradeable loot box of Souls.",
    "version": 1
  },
  "userdoc": {
    "kind": "user",
    "methods": {
      "isApprovedForAll(address,address)": {
        "notice": "Override isApprovedForAll to whitelist user's OpenSea proxy accounts to enable gas-less listings."
      }
    },
    "version": 1
  }
}