{
  "contractName": "SoulFragmentFactory",
  "abi": [
    {
      "inputs": [
        {
          "internalType": "address",
          "name": "_proxyRegistryAddress",
          "type": "address"
        },
        {
          "internalType": "address",
          "name": "_nftAddress",
          "type": "address"
        }
      ],
      "stateMutability": "nonpayable",
      "type": "constructor"
    },
    {
      "anonymous": false,
      "inputs": [
        {
          "indexed": true,
          "internalType": "address",
          "name": "previousOwner",
          "type": "address"
        },
        {
          "indexed": true,
          "internalType": "address",
          "name": "newOwner",
          "type": "address"
        }
      ],
      "name": "OwnershipTransferred",
      "type": "event"
    },
    {
      "inputs": [],
      "name": "baseURI",
      "outputs": [
        {
          "internalType": "string",
          "name": "",
          "type": "string"
        }
      ],
      "stateMutability": "view",
      "type": "function"
    },
    {
      "inputs": [
        {
          "internalType": "string",
          "name": "",
          "type": "string"
        }
      ],
      "name": "currentFragmentCount",
      "outputs": [
        {
          "internalType": "uint256",
          "name": "",
          "type": "uint256"
        }
      ],
      "stateMutability": "view",
      "type": "function"
    },
    {
      "inputs": [
        {
          "internalType": "string",
          "name": "",
          "type": "string"
        }
      ],
      "name": "maxFragmentSupply",
      "outputs": [
        {
          "internalType": "uint256",
          "name": "",
          "type": "uint256"
        }
      ],
      "stateMutability": "view",
      "type": "function"
    },
    {
      "inputs": [],
      "name": "nftAddress",
      "outputs": [
        {
          "internalType": "address",
          "name": "",
          "type": "address"
        }
      ],
      "stateMutability": "view",
      "type": "function"
    },
    {
      "inputs": [],
      "name": "owner",
      "outputs": [
        {
          "internalType": "address",
          "name": "",
          "type": "address"
        }
      ],
      "stateMutability": "view",
      "type": "function"
    },
    {
      "inputs": [],
      "name": "proxyRegistryAddress",
      "outputs": [
        {
          "internalType": "address",
          "name": "",
          "type": "address"
        }
      ],
      "stateMutability": "view",
      "type": "function"
    },
    {
      "inputs": [],
      "name": "renounceOwnership",
      "outputs": [],
      "stateMutability": "nonpayable",
      "type": "function"
    },
    {
      "inputs": [],
      "name": "name",
      "outputs": [
        {
          "internalType": "string",
          "name": "",
          "type": "string"
        }
      ],
      "stateMutability": "view",
      "type": "function"
    },
    {
      "inputs": [],
      "name": "symbol",
      "outputs": [
        {
          "internalType": "string",
          "name": "",
          "type": "string"
        }
      ],
      "stateMutability": "view",
      "type": "function"
    },
    {
      "inputs": [],
      "name": "supportsFactoryInterface",
      "outputs": [
        {
          "internalType": "bool",
          "name": "",
          "type": "bool"
        }
      ],
      "stateMutability": "view",
      "type": "function"
    },
    {
      "inputs": [],
      "name": "numOptions",
      "outputs": [
        {
          "internalType": "uint256",
          "name": "",
          "type": "uint256"
        }
      ],
      "stateMutability": "view",
      "type": "function"
    },
    {
      "inputs": [
        {
          "internalType": "address",
          "name": "newOwner",
          "type": "address"
        }
      ],
      "name": "transferOwnership",
      "outputs": [],
      "stateMutability": "nonpayable",
      "type": "function"
    },
    {
      "inputs": [
        {
          "internalType": "uint256",
          "name": "_optionId",
          "type": "uint256"
        },
        {
          "internalType": "address",
          "name": "_toAddress",
          "type": "address"
        }
      ],
      "name": "mint",
      "outputs": [],
      "stateMutability": "nonpayable",
      "type": "function"
    },
    {
      "inputs": [
        {
          "internalType": "string",
          "name": "soulName",
          "type": "string"
        },
        {
          "internalType": "uint256",
          "name": "total",
          "type": "uint256"
        }
      ],
      "name": "setMaxFragmentSupply",
      "outputs": [],
      "stateMutability": "nonpayable",
      "type": "function"
    },
    {
      "inputs": [
        {
          "internalType": "string",
          "name": "_tokenURI",
          "type": "string"
        },
        {
          "internalType": "address",
          "name": "_toAddress",
          "type": "address"
        },
        {
          "internalType": "uint256",
          "name": "totalRequest",
          "type": "uint256"
        },
        {
          "internalType": "string",
          "name": "soulName",
          "type": "string"
        }
      ],
      "name": "mintTokenURI",
      "outputs": [],
      "stateMutability": "nonpayable",
      "type": "function"
    },
    {
      "inputs": [
        {
          "internalType": "string",
          "name": "soulName",
          "type": "string"
        },
        {
          "internalType": "uint256",
          "name": "totalRequest",
          "type": "uint256"
        }
      ],
      "name": "_canMint",
      "outputs": [
        {
          "internalType": "bool",
          "name": "",
          "type": "bool"
        }
      ],
      "stateMutability": "view",
      "type": "function"
    },
    {
      "inputs": [
        {
          "internalType": "uint256",
          "name": "_optionId",
          "type": "uint256"
        }
      ],
      "name": "canMint",
      "outputs": [
        {
          "internalType": "bool",
          "name": "",
          "type": "bool"
        }
      ],
      "stateMutability": "view",
      "type": "function"
    },
    {
      "inputs": [
        {
          "internalType": "string",
          "name": "metadataURI",
          "type": "string"
        }
      ],
      "name": "tokenURI",
      "outputs": [
        {
          "internalType": "string",
          "name": "",
          "type": "string"
        }
      ],
      "stateMutability": "view",
      "type": "function"
    },
    {
      "inputs": [
        {
          "internalType": "uint256",
          "name": "_optionId",
          "type": "uint256"
        }
      ],
      "name": "tokenURI",
      "outputs": [
        {
          "internalType": "string",
          "name": "",
          "type": "string"
        }
      ],
      "stateMutability": "view",
      "type": "function"
    },
    {
      "inputs": [
        {
          "internalType": "address",
          "name": "_owner",
          "type": "address"
        },
        {
          "internalType": "address",
          "name": "_operator",
          "type": "address"
        }
      ],
      "name": "isApprovedForAll",
      "outputs": [
        {
          "internalType": "bool",
          "name": "",
          "type": "bool"
        }
      ],
      "stateMutability": "view",
      "type": "function"
    },
    {
      "inputs": [
        {
          "internalType": "uint256",
          "name": "_tokenId",
          "type": "uint256"
        }
      ],
      "name": "ownerOf",
      "outputs": [
        {
          "internalType": "address",
          "name": "_owner",
          "type": "address"
        }
      ],
      "stateMutability": "view",
      "type": "function"
    }
  ],
  "bytecode": "0x60806040526040518060600160405280602281526020016200223f602291396003908051906020019062000035929190620001ab565b503480156200004357600080fd5b506040516200226138038062002261833981810160405281019062000069919062000272565b60006200007b620001a360201b60201c565b9050806000806101000a81548173ffffffffffffffffffffffffffffffffffffffff021916908373ffffffffffffffffffffffffffffffffffffffff1602179055508073ffffffffffffffffffffffffffffffffffffffff16600073ffffffffffffffffffffffffffffffffffffffff167f8be0079c531659141344cd1fd0a4f28419497f9722a3daafe3b4186f6b6457e060405160405180910390a35081600160006101000a81548173ffffffffffffffffffffffffffffffffffffffff021916908373ffffffffffffffffffffffffffffffffffffffff16021790555080600260006101000a81548173ffffffffffffffffffffffffffffffffffffffff021916908373ffffffffffffffffffffffffffffffffffffffff160217905550505062000366565b600033905090565b828054620001b990620002e7565b90600052602060002090601f016020900481019282620001dd576000855562000229565b82601f10620001f857805160ff191683800117855562000229565b8280016001018555821562000229579182015b82811115620002285782518255916020019190600101906200020b565b5b5090506200023891906200023c565b5090565b5b80821115620002575760008160009055506001016200023d565b5090565b6000815190506200026c816200034c565b92915050565b600080604083850312156200028657600080fd5b600062000296858286016200025b565b9250506020620002a9858286016200025b565b9150509250929050565b6000620002c082620002c7565b9050919050565b600073ffffffffffffffffffffffffffffffffffffffff82169050919050565b600060028204905060018216806200030057607f821691505b602082108114156200031757620003166200031d565b5b50919050565b7f4e487b7100000000000000000000000000000000000000000000000000000000600052602260045260246000fd5b6200035781620002b3565b81146200036357600080fd5b50565b611ec980620003766000396000f3fe608060405234801561001057600080fd5b50600436106101375760003560e01c806394bf804d116100b8578063c311c5231161007c578063c311c5231461033e578063c87b56dd1461035c578063cd7c03261461038c578063e985e9c5146103aa578063f2fde38b146103da578063fed6932f146103f657610137565b806394bf804d1461029c57806395d89b41146102b8578063b43b4e14146102d6578063b7c18cdf14610306578063b7c780531461032257610137565b80635dd871a3116100ff5780635dd871a3146101f65780636352211e146102265780636c0360eb14610256578063715018a6146102745780638da5cb5b1461027e57610137565b806306fdde031461013c5780634b04d6aa1461015a5780634b97aed91461018a5780634cf12d26146101a85780635bf8633a146101d8575b600080fd5b610144610426565b6040516101519190611a0c565b60405180910390f35b610174600480360381019061016f919061169c565b610463565b6040516101819190611a6e565b60405180910390f35b610192610491565b60405161019f9190611a6e565b60405180910390f35b6101c260048036038101906101bd919061169c565b610496565b6040516101cf9190611a0c565b60405180910390f35b6101e0610533565b6040516101ed91906119a6565b60405180910390f35b610210600480360381019061020b91906117c4565b610559565b60405161021d91906119f1565b60405180910390f35b610240600480360381019061023b91906117c4565b610560565b60405161024d91906119a6565b60405180910390f35b61025e610571565b60405161026b9190611a0c565b60405180910390f35b61027c6105ff565b005b610286610739565b60405161029391906119a6565b60405180910390f35b6102b660048036038101906102b19190611816565b610762565b005b6102c0610766565b6040516102cd9190611a0c565b60405180910390f35b6102f060048036038101906102eb919061169c565b6107a3565b6040516102fd9190611a6e565b60405180910390f35b610320600480360381019061031b9190611770565b6107d1565b005b61033c600480360381019061033791906116dd565b610823565b005b6103466108f2565b60405161035391906119f1565b60405180910390f35b610376600480360381019061037191906117c4565b6108fb565b6040516103839190611a0c565b60405180910390f35b6103946109a0565b6040516103a191906119a6565b60405180910390f35b6103c460048036038101906103bf9190611637565b6109c6565b6040516103d191906119f1565b60405180910390f35b6103f460048036038101906103ef919061160e565b610b7a565b005b610410600480360381019061040b9190611770565b610c0f565b60405161041d91906119f1565b60405180910390f35b60606040518060400160405280601681526020017f4f70656e53656120536f756c204974656d2053616c6500000000000000000000815250905090565b6004818051602081018201805184825260208301602085012081835280955050505050506000915090505481565b600090565b606061052c600380546104a890611d06565b80601f01602080910402602001604051908101604052809291908181526020018280546104d490611d06565b80156105215780601f106104f657610100808354040283529160200191610521565b820191906000526020600020905b81548152906001019060200180831161050457829003601f168201915b505050505083610c73565b9050919050565b600260009054906101000a900473ffffffffffffffffffffffffffffffffffffffff1681565b6000919050565b600061056a610739565b9050919050565b6003805461057e90611d06565b80601f01602080910402602001604051908101604052809291908181526020018280546105aa90611d06565b80156105f75780601f106105cc576101008083540402835291602001916105f7565b820191906000526020600020905b8154815290600101906020018083116105da57829003601f168201915b505050505081565b610607610cb7565b73ffffffffffffffffffffffffffffffffffffffff16610625610739565b73ffffffffffffffffffffffffffffffffffffffff161461067b576040517f08c379a000000000000000000000000000000000000000000000000000000000815260040161067290611a4e565b60405180910390fd5b600073ffffffffffffffffffffffffffffffffffffffff1660008054906101000a900473ffffffffffffffffffffffffffffffffffffffff1673ffffffffffffffffffffffffffffffffffffffff167f8be0079c531659141344cd1fd0a4f28419497f9722a3daafe3b4186f6b6457e060405160405180910390a360008060006101000a81548173ffffffffffffffffffffffffffffffffffffffff021916908373ffffffffffffffffffffffffffffffffffffffff160217905550565b60008060009054906101000a900473ffffffffffffffffffffffffffffffffffffffff16905090565b5050565b60606040518060400160405280600481526020017f534f554c00000000000000000000000000000000000000000000000000000000815250905090565b6005818051602081018201805184825260208301602085012081835280955050505050506000915090505481565b60006004836040516107e3919061198f565b908152602001604051809103902054146107fc57600080fd5b8060048360405161080d919061198f565b9081526020016040518091039020819055505050565b61082d8183610c0f565b61083657600080fd5b6000600260009054906101000a900473ffffffffffffffffffffffffffffffffffffffff1690508073ffffffffffffffffffffffffffffffffffffffff16633d02d0c985876040518363ffffffff1660e01b81526004016108989291906119c1565b602060405180830381600087803b1580156108b257600080fd5b505af11580156108c6573d6000803e3d6000fd5b505050506040513d601f19601f820116820180604052508101906108ea91906117ed565b505050505050565b60006001905090565b60606109996003805461090d90611d06565b80601f016020809104026020016040519081016040528092919081815260200182805461093990611d06565b80156109865780601f1061095b57610100808354040283529160200191610986565b820191906000526020600020905b81548152906001019060200180831161096957829003601f168201915b505050505061099484610cbf565b610c73565b9050919050565b600160009054906101000a900473ffffffffffffffffffffffffffffffffffffffff1681565b60008273ffffffffffffffffffffffffffffffffffffffff166109e7610739565b73ffffffffffffffffffffffffffffffffffffffff16148015610a3557508173ffffffffffffffffffffffffffffffffffffffff168373ffffffffffffffffffffffffffffffffffffffff16145b15610a435760019050610b74565b6000600160009054906101000a900473ffffffffffffffffffffffffffffffffffffffff1690508373ffffffffffffffffffffffffffffffffffffffff16610a89610739565b73ffffffffffffffffffffffffffffffffffffffff16148015610b5f57508273ffffffffffffffffffffffffffffffffffffffff168173ffffffffffffffffffffffffffffffffffffffff1663c4552791866040518263ffffffff1660e01b8152600401610af791906119a6565b60206040518083038186803b158015610b0f57600080fd5b505afa158015610b23573d6000803e3d6000fd5b505050506040513d601f19601f82011682018060405250810190610b479190611673565b73ffffffffffffffffffffffffffffffffffffffff16145b15610b6e576001915050610b74565b60009150505b92915050565b610b82610cb7565b73ffffffffffffffffffffffffffffffffffffffff16610ba0610739565b73ffffffffffffffffffffffffffffffffffffffff1614610bf6576040517f08c379a0000000000000000000000000000000000000000000000000000000008152600401610bed90611a4e565b60405180910390fd5b6000610c00610739565b9050610c0b82610e94565b5050565b6000600583604051610c21919061198f565b908152602001604051809103902054600484604051610c40919061198f565b908152602001604051809103902054610c599190611c29565b8211610c685760009050610c6d565b600190505b92915050565b6060610caf838360405180602001604052806000815250604051806020016040528060008152506040518060200160405280600081525061103d565b905092915050565b600033905090565b60606000821415610d07576040518060400160405280600181526020017f30000000000000000000000000000000000000000000000000000000000000008152509050610e8f565b600082905060005b60008214610d39578080610d2290611d38565b915050600a82610d329190611b9e565b9150610d0f565b60008167ffffffffffffffff811115610d7b577f4e487b7100000000000000000000000000000000000000000000000000000000600052604160045260246000fd5b6040519080825280601f01601f191660200182016040528015610dad5781602001600182028036833780820191505090505b50905060008290505b60008614610e8757600181610dcb9190611c29565b90506000600a8088610ddd9190611b9e565b610de79190611bcf565b87610df29190611c29565b6030610dfe9190611b67565b905060008160f81b905080848481518110610e42577f4e487b7100000000000000000000000000000000000000000000000000000000600052603260045260246000fd5b60200101907effffffffffffffffffffffffffffffffffffffffffffffffffffffffffffff1916908160001a905350600a88610e7e9190611b9e565b97505050610db6565b819450505050505b919050565b610e9c610cb7565b73ffffffffffffffffffffffffffffffffffffffff16610eba610739565b73ffffffffffffffffffffffffffffffffffffffff1614610f10576040517f08c379a0000000000000000000000000000000000000000000000000000000008152600401610f0790611a4e565b60405180910390fd5b600073ffffffffffffffffffffffffffffffffffffffff168173ffffffffffffffffffffffffffffffffffffffff161415610f80576040517f08c379a0000000000000000000000000000000000000000000000000000000008152600401610f7790611a2e565b60405180910390fd5b8073ffffffffffffffffffffffffffffffffffffffff1660008054906101000a900473ffffffffffffffffffffffffffffffffffffffff1673ffffffffffffffffffffffffffffffffffffffff167f8be0079c531659141344cd1fd0a4f28419497f9722a3daafe3b4186f6b6457e060405160405180910390a3806000806101000a81548173ffffffffffffffffffffffffffffffffffffffff021916908373ffffffffffffffffffffffffffffffffffffffff16021790555050565b60606000869050600086905060008690506000869050600086905060008151835185518751895161106e9190611b11565b6110789190611b11565b6110829190611b11565b61108c9190611b11565b67ffffffffffffffff8111156110cb577f4e487b7100000000000000000000000000000000000000000000000000000000600052604160045260246000fd5b6040519080825280601f01601f1916602001820160405280156110fd5781602001600182028036833780820191505090505b50905060008190506000805b88518110156111dd5788818151811061114b577f4e487b7100000000000000000000000000000000000000000000000000000000600052603260045260246000fd5b602001015160f81c60f81b83838061116290611d38565b94508151811061119b577f4e487b7100000000000000000000000000000000000000000000000000000000600052603260045260246000fd5b60200101907effffffffffffffffffffffffffffffffffffffffffffffffffffffffffffff1916908160001a90535080806111d590611d38565b915050611109565b5060005b87518110156112b557878181518110611223577f4e487b7100000000000000000000000000000000000000000000000000000000600052603260045260246000fd5b602001015160f81c60f81b83838061123a90611d38565b945081518110611273577f4e487b7100000000000000000000000000000000000000000000000000000000600052603260045260246000fd5b60200101907effffffffffffffffffffffffffffffffffffffffffffffffffffffffffffff1916908160001a90535080806112ad90611d38565b9150506111e1565b5060005b865181101561138d578681815181106112fb577f4e487b7100000000000000000000000000000000000000000000000000000000600052603260045260246000fd5b602001015160f81c60f81b83838061131290611d38565b94508151811061134b577f4e487b7100000000000000000000000000000000000000000000000000000000600052603260045260246000fd5b60200101907effffffffffffffffffffffffffffffffffffffffffffffffffffffffffffff1916908160001a905350808061138590611d38565b9150506112b9565b5060005b8551811015611465578581815181106113d3577f4e487b7100000000000000000000000000000000000000000000000000000000600052603260045260246000fd5b602001015160f81c60f81b8383806113ea90611d38565b945081518110611423577f4e487b7100000000000000000000000000000000000000000000000000000000600052603260045260246000fd5b60200101907effffffffffffffffffffffffffffffffffffffffffffffffffffffffffffff1916908160001a905350808061145d90611d38565b915050611391565b5060005b845181101561153d578481815181106114ab577f4e487b7100000000000000000000000000000000000000000000000000000000600052603260045260246000fd5b602001015160f81c60f81b8383806114c290611d38565b9450815181106114fb577f4e487b7100000000000000000000000000000000000000000000000000000000600052603260045260246000fd5b60200101907effffffffffffffffffffffffffffffffffffffffffffffffffffffffffffff1916908160001a905350808061153590611d38565b915050611469565b50819850505050505050505095945050505050565b600061156561156084611aba565b611a89565b90508281526020810184848401111561157d57600080fd5b611588848285611cc4565b509392505050565b60008135905061159f81611e4e565b92915050565b6000815190506115b481611e65565b92915050565b600082601f8301126115cb57600080fd5b81356115db848260208601611552565b91505092915050565b6000813590506115f381611e7c565b92915050565b60008151905061160881611e7c565b92915050565b60006020828403121561162057600080fd5b600061162e84828501611590565b91505092915050565b6000806040838503121561164a57600080fd5b600061165885828601611590565b925050602061166985828601611590565b9150509250929050565b60006020828403121561168557600080fd5b6000611693848285016115a5565b91505092915050565b6000602082840312156116ae57600080fd5b600082013567ffffffffffffffff8111156116c857600080fd5b6116d4848285016115ba565b91505092915050565b600080600080608085870312156116f357600080fd5b600085013567ffffffffffffffff81111561170d57600080fd5b611719878288016115ba565b945050602061172a87828801611590565b935050604061173b878288016115e4565b925050606085013567ffffffffffffffff81111561175857600080fd5b611764878288016115ba565b91505092959194509250565b6000806040838503121561178357600080fd5b600083013567ffffffffffffffff81111561179d57600080fd5b6117a9858286016115ba565b92505060206117ba858286016115e4565b9150509250929050565b6000602082840312156117d657600080fd5b60006117e4848285016115e4565b91505092915050565b6000602082840312156117ff57600080fd5b600061180d848285016115f9565b91505092915050565b6000806040838503121561182957600080fd5b6000611837858286016115e4565b925050602061184885828601611590565b9150509250929050565b61185b81611c5d565b82525050565b61186a81611c6f565b82525050565b600061187b82611aea565b6118858185611af5565b9350611895818560208601611cd3565b61189e81611e3d565b840191505092915050565b60006118b482611aea565b6118be8185611b06565b93506118ce818560208601611cd3565b80840191505092915050565b60006118e7602683611af5565b91507f4f776e61626c653a206e6577206f776e657220697320746865207a65726f206160008301527f64647265737300000000000000000000000000000000000000000000000000006020830152604082019050919050565b600061194d602083611af5565b91507f4f776e61626c653a2063616c6c6572206973206e6f7420746865206f776e65726000830152602082019050919050565b61198981611cad565b82525050565b600061199b82846118a9565b915081905092915050565b60006020820190506119bb6000830184611852565b92915050565b60006040820190506119d66000830185611852565b81810360208301526119e88184611870565b90509392505050565b6000602082019050611a066000830184611861565b92915050565b60006020820190508181036000830152611a268184611870565b905092915050565b60006020820190508181036000830152611a47816118da565b9050919050565b60006020820190508181036000830152611a6781611940565b9050919050565b6000602082019050611a836000830184611980565b92915050565b6000604051905081810181811067ffffffffffffffff82111715611ab057611aaf611e0e565b5b8060405250919050565b600067ffffffffffffffff821115611ad557611ad4611e0e565b5b601f19601f8301169050602081019050919050565b600081519050919050565b600082825260208201905092915050565b600081905092915050565b6000611b1c82611cad565b9150611b2783611cad565b9250827fffffffffffffffffffffffffffffffffffffffffffffffffffffffffffffffff03821115611b5c57611b5b611d81565b5b828201905092915050565b6000611b7282611cb7565b9150611b7d83611cb7565b92508260ff03821115611b9357611b92611d81565b5b828201905092915050565b6000611ba982611cad565b9150611bb483611cad565b925082611bc457611bc3611db0565b5b828204905092915050565b6000611bda82611cad565b9150611be583611cad565b9250817fffffffffffffffffffffffffffffffffffffffffffffffffffffffffffffffff0483118215151615611c1e57611c1d611d81565b5b828202905092915050565b6000611c3482611cad565b9150611c3f83611cad565b925082821015611c5257611c51611d81565b5b828203905092915050565b6000611c6882611c8d565b9050919050565b60008115159050919050565b6000611c8682611c5d565b9050919050565b600073ffffffffffffffffffffffffffffffffffffffff82169050919050565b6000819050919050565b600060ff82169050919050565b82818337600083830152505050565b60005b83811015611cf1578082015181840152602081019050611cd6565b83811115611d00576000848401525b50505050565b60006002820490506001821680611d1e57607f821691505b60208210811415611d3257611d31611ddf565b5b50919050565b6000611d4382611cad565b91507fffffffffffffffffffffffffffffffffffffffffffffffffffffffffffffffff821415611d7657611d75611d81565b5b600182019050919050565b7f4e487b7100000000000000000000000000000000000000000000000000000000600052601160045260246000fd5b7f4e487b7100000000000000000000000000000000000000000000000000000000600052601260045260246000fd5b7f4e487b7100000000000000000000000000000000000000000000000000000000600052602260045260246000fd5b7f4e487b7100000000000000000000000000000000000000000000000000000000600052604160045260246000fd5b6000601f19601f8301169050919050565b611e5781611c5d565b8114611e6257600080fd5b50565b611e6e81611c7b565b8114611e7957600080fd5b50565b611e8581611cad565b8114611e9057600080fd5b5056fea2646970667358221220266b89e52d6ca6187d29cef7023cebb5853f9a438040b8061aa5392b7a6891da64736f6c6343000800003368747470733a2f2f676174657761792e70696e6174612e636c6f75642f697066732f",
  "immutableReferences": {},
  "source": "// SPDX-License-Identifier: MIT\r\npragma solidity ^0.8.0;\r\n\r\nimport \"@openzeppelin/contracts/access/Ownable.sol\";\r\nimport \"./IFactoryERC721.sol\";\r\nimport \"./SoulFragment.sol\";\r\nimport \"./StringUtils.sol\";\r\nimport './SoulLootBox.sol';\r\n\r\ncontract SoulFragmentFactory is IFactoryERC721, Ownable {\r\n    using Strings for string;\r\n\r\n    // event Transfer(\r\n    //     address indexed from,\r\n    //     address indexed to,\r\n    //     uint256 indexed tokenId\r\n    // );\r\n\r\n    address public proxyRegistryAddress;\r\n    address public nftAddress;\r\n    string public baseURI = \"https://gateway.pinata.cloud/ipfs/\";\r\n\r\n    mapping (string => uint256) public maxFragmentSupply; \r\n    mapping (string => uint256) public currentFragmentCount; \r\n\r\n    // /*\r\n    //  * Enforce the existence of only 100 OpenSea souls.\r\n    //  */\r\n    // uint256 SOUL_SUPPLY = 100;\r\n\r\n    // /*\r\n    //  * Three different options for minting Souls (basic, premium, and gold).\r\n    //  */\r\n    // uint256 NUM_OPTIONS = 3;\r\n    // uint256 SINGLE_SOUL_OPTION = 0;\r\n    // uint256 MULTIPLE_SOUL_OPTION = 1;\r\n    // uint256 LOOTBOX_OPTION = 2;\r\n    // uint256 NUM_SOULS_IN_MULTIPLE_SOUL_OPTION = 4;\r\n\r\n    constructor(address _proxyRegistryAddress, address _nftAddress) public {\r\n        proxyRegistryAddress = _proxyRegistryAddress;\r\n        nftAddress = _nftAddress;\r\n        // lootBoxNftAddress = address(\r\n        //     new SoulLootBox(_proxyRegistryAddress, address(this))\r\n        // );\r\n\r\n     //   fireTransferEvents(address(0), owner());\r\n    }\r\n\r\n    function name() external override view returns (string memory) {\r\n        return \"OpenSea Soul Item Sale\";\r\n    }\r\n\r\n    function symbol() external override view returns (string memory) {\r\n        return \"SOUL\";\r\n    }\r\n\r\n    function supportsFactoryInterface() public override view returns (bool) {\r\n        return true;\r\n    }\r\n\r\n    function numOptions() public override view returns (uint256) {\r\n        //return NUM_OPTIONS;\r\n        return 0;\r\n    }\r\n\r\n    function transferOwnership(address newOwner) public override onlyOwner {\r\n        address _prevOwner = owner();\r\n        super.transferOwnership(newOwner);\r\n     //   fireTransferEvents(_prevOwner, newOwner);\r\n    }\r\n\r\n    // function fireTransferEvents(address _from, address _to) private {\r\n    //     for (uint256 i = 0; i < NUM_OPTIONS; i++) {\r\n    //         emit Transfer(_from, _to, i);\r\n    //     }\r\n    // }\r\n\r\n    function mint(uint256 _optionId, address _toAddress) public override {\r\n        // Must be sent from the owner proxy or owner.\r\n        // ProxyRegistry proxyRegistry = ProxyRegistry(proxyRegistryAddress);\r\n        // assert(\r\n        //     address(proxyRegistry.proxies(owner())) == msg.sender ||\r\n        //         owner() == msg.sender ||\r\n        //         msg.sender == lootBoxNftAddress\r\n        // );\r\n        // require(canMint(_optionId));\r\n\r\n        // SoulFragment openSeaSoul = SoulFragment(nftAddress);\r\n        // if (_optionId == SINGLE_SOUL_OPTION) {\r\n        //     openSeaSoul.mintTo(_toAddress);\r\n        // } else if (_optionId == MULTIPLE_SOUL_OPTION) {\r\n        //     for (\r\n        //         uint256 i = 0;\r\n        //         i < NUM_SOULS_IN_MULTIPLE_SOUL_OPTION;\r\n        //         i++\r\n        //     ) {\r\n        //         openSeaSoul.mintTo(_toAddress);\r\n        //     }\r\n        // } else if (_optionId == LOOTBOX_OPTION) {\r\n        //     SoulLootBox openSeaSoulLootBox = SoulLootBox(\r\n        //         lootBoxNftAddress\r\n        //     );\r\n        //     openSeaSoulLootBox.mintTo(_toAddress);\r\n        // }\r\n    }\r\n\r\n    //Can only ever be set once\r\n    function setMaxFragmentSupply(string memory soulName, uint total) public {\r\n        require(maxFragmentSupply[soulName] == 0);\r\n        maxFragmentSupply[soulName] = total;\r\n    }\r\n\r\n    function mintTokenURI(string memory _tokenURI, address _toAddress, uint totalRequest, string memory soulName) public {\r\n        require(_canMint(soulName, totalRequest));\r\n        SoulFragment openSeaSoul = SoulFragment(nftAddress);\r\n        openSeaSoul.mintToken(_toAddress, _tokenURI);\r\n    }\r\n\r\n    function _canMint(string memory soulName, uint totalRequest) public view returns (bool) {\r\n        if(totalRequest <= (maxFragmentSupply[soulName] - currentFragmentCount[soulName])) {\r\n            return false;\r\n        }\r\n        return true;\r\n    }\r\n\r\n    function canMint(uint256 _optionId) public override view returns (bool) {\r\n        return false;\r\n        // if (_optionId >= NUM_OPTIONS) {\r\n        //     return false;\r\n        // }\r\n\r\n        // SoulFragment openSeaSoul = SoulFragment(nftAddress);\r\n        // uint256 soulSupply = openSeaSoul.totalSupply(_optionId);\r\n\r\n        // uint256 numItemsAllocated = 0;\r\n        // if (_optionId == SINGLE_SOUL_OPTION) {\r\n        //     numItemsAllocated = 1;\r\n        // } else if (_optionId == MULTIPLE_SOUL_OPTION) {\r\n        //     numItemsAllocated = NUM_SOULS_IN_MULTIPLE_SOUL_OPTION;\r\n        // } else if (_optionId == LOOTBOX_OPTION) {\r\n        //     SoulLootBox openSeaSoulLootBox = SoulLootBox(\r\n        //         lootBoxNftAddress\r\n        //     );\r\n        //     numItemsAllocated = openSeaSoulLootBox.itemsPerLootbox();\r\n        // }\r\n        // return soulSupply < (SOUL_SUPPLY - numItemsAllocated);\r\n    }\r\n\r\n    function tokenURI(uint256 _optionId) external override view returns (string memory) {\r\n        return StringUtils.strConcat(baseURI, StringUtils.uint2str(_optionId));\r\n    }\r\n\r\n    function tokenURI(string memory metadataURI) external view returns (string memory) {\r\n        return StringUtils.strConcat(baseURI, metadataURI);\r\n    }\r\n\r\n    // /**\r\n    //  * Hack to get things to work automatically on OpenSea.\r\n    //  * Use transferFrom so the frontend doesn't have to worry about different method names.\r\n    //  */\r\n    // function transferFrom(\r\n    //     address _from,\r\n    //     address _to,\r\n    //     uint256 _tokenId\r\n    // ) public {\r\n    //     mint(_tokenId, _to);\r\n    // }\r\n\r\n    /**\r\n     * Hack to get things to work automatically on OpenSea.\r\n     * Use isApprovedForAll so the frontend doesn't have to worry about different method names.\r\n     */\r\n    function isApprovedForAll(address _owner, address _operator)\r\n        public\r\n        view\r\n        returns (bool)\r\n    {\r\n        if (owner() == _owner && _owner == _operator) {\r\n            return true;\r\n        }\r\n\r\n        ProxyRegistry proxyRegistry = ProxyRegistry(proxyRegistryAddress);\r\n        if (\r\n            owner() == _owner &&\r\n            address(proxyRegistry.proxies(_owner)) == _operator\r\n        ) {\r\n            return true;\r\n        }\r\n\r\n        return false;\r\n    }\r\n\r\n    /**\r\n     * Hack to get things to work automatically on OpenSea.\r\n     * Use isApprovedForAll so the frontend doesn't have to worry about different method names.\r\n     */\r\n    function ownerOf(uint256 _tokenId) public view returns (address _owner) {\r\n        return owner();\r\n    }\r\n}",
  "sourcePath": "C:\\Users\\editr\\OneDrive\\Desktop\\etherprojects\\SoulSwap\\contracts\\SoulFragmentFactory.sol",
  "compiler": {
    "name": "solc",
    "version": "0.8.0+commit.c7dfd78e.Emscripten.clang"
  },
  "schemaVersion": "3.3.3",
  "updatedAt": "2021-05-04T06:35:51.797Z",
  "devdoc": {
    "kind": "dev",
    "methods": {
      "canMint(uint256)": {
        "details": "Returns whether the option ID can be minted. Can return false if the developer wishes to restrict a total supply per option ID (or overall)."
      },
      "mint(uint256,address)": {
        "details": "Mints asset(s) in accordance to a specific address with a particular \"option\". This should be callable only by the contract owner or the owner's Wyvern Proxy (later universal login will solve this). Options should also be delineated 0 - (numOptions() - 1) for convenient indexing.",
        "params": {
          "_optionId": "the option id",
          "_toAddress": "address of the future owner of the asset(s)"
        }
      },
      "owner()": {
        "details": "Returns the address of the current owner."
      },
      "renounceOwnership()": {
        "details": "Leaves the contract without owner. It will not be possible to call `onlyOwner` functions anymore. Can only be called by the current owner. NOTE: Renouncing ownership will leave the contract without an owner, thereby removing any functionality that is only available to the owner."
      },
      "tokenURI(uint256)": {
        "details": "Returns a URL specifying some metadata about the option. This metadata can be of the same structure as the ERC721 metadata."
      },
      "transferOwnership(address)": {
        "details": "Transfers ownership of the contract to a new account (`newOwner`). Can only be called by the current owner."
      }
    },
    "version": 1
  },
  "userdoc": {
    "kind": "user",
    "methods": {
      "isApprovedForAll(address,address)": {
        "notice": "Hack to get things to work automatically on OpenSea. Use isApprovedForAll so the frontend doesn't have to worry about different method names."
      },
      "name()": {
        "notice": "Returns the name of this factory."
      },
      "numOptions()": {
        "notice": "Number of options the factory supports."
      },
      "ownerOf(uint256)": {
        "notice": "Hack to get things to work automatically on OpenSea. Use isApprovedForAll so the frontend doesn't have to worry about different method names."
      },
      "supportsFactoryInterface()": {
        "notice": "Indicates that this is a factory contract. Ideally would use EIP 165 supportsInterface()"
      },
      "symbol()": {
        "notice": "Returns the symbol for this factory."
      }
    },
    "version": 1
  }
}