{
  "contractName": "SoulFragmentFactory",
  "abi": [
    {
      "inputs": [
        {
          "internalType": "address",
          "name": "_proxyRegistryAddress",
          "type": "address"
        },
        {
          "internalType": "address",
          "name": "_nftAddress",
          "type": "address"
        }
      ],
      "stateMutability": "nonpayable",
      "type": "constructor"
    },
    {
      "anonymous": false,
      "inputs": [
        {
          "indexed": true,
          "internalType": "address",
          "name": "previousOwner",
          "type": "address"
        },
        {
          "indexed": true,
          "internalType": "address",
          "name": "newOwner",
          "type": "address"
        }
      ],
      "name": "OwnershipTransferred",
      "type": "event"
    },
    {
      "anonymous": false,
      "inputs": [
        {
          "indexed": true,
          "internalType": "address",
          "name": "from",
          "type": "address"
        },
        {
          "indexed": true,
          "internalType": "address",
          "name": "to",
          "type": "address"
        },
        {
          "indexed": true,
          "internalType": "uint256",
          "name": "tokenId",
          "type": "uint256"
        }
      ],
      "name": "Transfer",
      "type": "event"
    },
    {
      "inputs": [],
      "name": "baseURI",
      "outputs": [
        {
          "internalType": "string",
          "name": "",
          "type": "string"
        }
      ],
      "stateMutability": "view",
      "type": "function",
      "constant": true
    },
    {
      "inputs": [],
      "name": "lootBoxNftAddress",
      "outputs": [
        {
          "internalType": "address",
          "name": "",
          "type": "address"
        }
      ],
      "stateMutability": "view",
      "type": "function",
      "constant": true
    },
    {
      "inputs": [],
      "name": "nftAddress",
      "outputs": [
        {
          "internalType": "address",
          "name": "",
          "type": "address"
        }
      ],
      "stateMutability": "view",
      "type": "function",
      "constant": true
    },
    {
      "inputs": [],
      "name": "owner",
      "outputs": [
        {
          "internalType": "address",
          "name": "",
          "type": "address"
        }
      ],
      "stateMutability": "view",
      "type": "function",
      "constant": true
    },
    {
      "inputs": [],
      "name": "proxyRegistryAddress",
      "outputs": [
        {
          "internalType": "address",
          "name": "",
          "type": "address"
        }
      ],
      "stateMutability": "view",
      "type": "function",
      "constant": true
    },
    {
      "inputs": [],
      "name": "renounceOwnership",
      "outputs": [],
      "stateMutability": "nonpayable",
      "type": "function"
    },
    {
      "inputs": [],
      "name": "name",
      "outputs": [
        {
          "internalType": "string",
          "name": "",
          "type": "string"
        }
      ],
      "stateMutability": "view",
      "type": "function",
      "constant": true
    },
    {
      "inputs": [],
      "name": "symbol",
      "outputs": [
        {
          "internalType": "string",
          "name": "",
          "type": "string"
        }
      ],
      "stateMutability": "view",
      "type": "function",
      "constant": true
    },
    {
      "inputs": [],
      "name": "supportsFactoryInterface",
      "outputs": [
        {
          "internalType": "bool",
          "name": "",
          "type": "bool"
        }
      ],
      "stateMutability": "view",
      "type": "function",
      "constant": true
    },
    {
      "inputs": [],
      "name": "numOptions",
      "outputs": [
        {
          "internalType": "uint256",
          "name": "",
          "type": "uint256"
        }
      ],
      "stateMutability": "view",
      "type": "function",
      "constant": true
    },
    {
      "inputs": [
        {
          "internalType": "address",
          "name": "newOwner",
          "type": "address"
        }
      ],
      "name": "transferOwnership",
      "outputs": [],
      "stateMutability": "nonpayable",
      "type": "function"
    },
    {
      "inputs": [
        {
          "internalType": "uint256",
          "name": "_optionId",
          "type": "uint256"
        },
        {
          "internalType": "address",
          "name": "_toAddress",
          "type": "address"
        }
      ],
      "name": "mint",
      "outputs": [],
      "stateMutability": "nonpayable",
      "type": "function"
    },
    {
      "inputs": [
        {
          "internalType": "uint256",
          "name": "_optionId",
          "type": "uint256"
        },
        {
          "internalType": "string",
          "name": "_tokenURI",
          "type": "string"
        },
        {
          "internalType": "address",
          "name": "_toAddress",
          "type": "address"
        }
      ],
      "name": "mintTokenURI",
      "outputs": [],
      "stateMutability": "nonpayable",
      "type": "function"
    },
    {
      "inputs": [
        {
          "internalType": "uint256",
          "name": "_optionId",
          "type": "uint256"
        }
      ],
      "name": "canMint",
      "outputs": [
        {
          "internalType": "bool",
          "name": "",
          "type": "bool"
        }
      ],
      "stateMutability": "view",
      "type": "function",
      "constant": true
    },
    {
      "inputs": [
        {
          "internalType": "string",
          "name": "metadataURI",
          "type": "string"
        }
      ],
      "name": "tokenURI",
      "outputs": [
        {
          "internalType": "string",
          "name": "",
          "type": "string"
        }
      ],
      "stateMutability": "view",
      "type": "function",
      "constant": true
    },
    {
      "inputs": [
        {
          "internalType": "uint256",
          "name": "_optionId",
          "type": "uint256"
        }
      ],
      "name": "tokenURI",
      "outputs": [
        {
          "internalType": "string",
          "name": "",
          "type": "string"
        }
      ],
      "stateMutability": "view",
      "type": "function",
      "constant": true
    },
    {
      "inputs": [
        {
          "internalType": "address",
          "name": "_from",
          "type": "address"
        },
        {
          "internalType": "address",
          "name": "_to",
          "type": "address"
        },
        {
          "internalType": "uint256",
          "name": "_tokenId",
          "type": "uint256"
        }
      ],
      "name": "transferFrom",
      "outputs": [],
      "stateMutability": "nonpayable",
      "type": "function"
    },
    {
      "inputs": [
        {
          "internalType": "address",
          "name": "_owner",
          "type": "address"
        },
        {
          "internalType": "address",
          "name": "_operator",
          "type": "address"
        }
      ],
      "name": "isApprovedForAll",
      "outputs": [
        {
          "internalType": "bool",
          "name": "",
          "type": "bool"
        }
      ],
      "stateMutability": "view",
      "type": "function",
      "constant": true
    },
    {
      "inputs": [
        {
          "internalType": "uint256",
          "name": "_tokenId",
          "type": "uint256"
        }
      ],
      "name": "ownerOf",
      "outputs": [
        {
          "internalType": "address",
          "name": "_owner",
          "type": "address"
        }
      ],
      "stateMutability": "view",
      "type": "function",
      "constant": true
    }
  ],
  "bytecode": "0x6080604052604051806060016040528060228152602001620027a760229139600490805190602001906200003592919062000298565b50606460055560036006556000600755600160085560026009556004600a553480156200006157600080fd5b50604051620027c9380380620027c983398181016040528101906200008791906200035f565b600062000099620001e360201b60201c565b9050806000806101000a81548173ffffffffffffffffffffffffffffffffffffffff021916908373ffffffffffffffffffffffffffffffffffffffff1602179055508073ffffffffffffffffffffffffffffffffffffffff16600073ffffffffffffffffffffffffffffffffffffffff167f8be0079c531659141344cd1fd0a4f28419497f9722a3daafe3b4186f6b6457e060405160405180910390a35081600160006101000a81548173ffffffffffffffffffffffffffffffffffffffff021916908373ffffffffffffffffffffffffffffffffffffffff16021790555080600260006101000a81548173ffffffffffffffffffffffffffffffffffffffff021916908373ffffffffffffffffffffffffffffffffffffffff160217905550620001db6000620001cf620001eb60201b60201c565b6200021460201b60201c565b5050620004da565b600033905090565b60008060009054906101000a900473ffffffffffffffffffffffffffffffffffffffff16905090565b60005b6006548110156200029357808273ffffffffffffffffffffffffffffffffffffffff168473ffffffffffffffffffffffffffffffffffffffff167fddf252ad1be2c89b69c2b068fc378daa952ba7f163c4a11628f55a4df523b3ef60405160405180910390a480806200028a9062000414565b91505062000217565b505050565b828054620002a690620003de565b90600052602060002090601f016020900481019282620002ca576000855562000316565b82601f10620002e557805160ff191683800117855562000316565b8280016001018555821562000316579182015b8281111562000315578251825591602001919060010190620002f8565b5b50905062000325919062000329565b5090565b5b80821115620003445760008160009055506001016200032a565b5090565b6000815190506200035981620004c0565b92915050565b600080604083850312156200037357600080fd5b6000620003838582860162000348565b9250506020620003968582860162000348565b9150509250929050565b6000620003ad82620003b4565b9050919050565b600073ffffffffffffffffffffffffffffffffffffffff82169050919050565b6000819050919050565b60006002820490506001821680620003f757607f821691505b602082108114156200040e576200040d62000491565b5b50919050565b60006200042182620003d4565b91507fffffffffffffffffffffffffffffffffffffffffffffffffffffffffffffffff82141562000457576200045662000462565b5b600182019050919050565b7f4e487b7100000000000000000000000000000000000000000000000000000000600052601160045260246000fd5b7f4e487b7100000000000000000000000000000000000000000000000000000000600052602260045260246000fd5b620004cb81620003a0565b8114620004d757600080fd5b50565b6122bd80620004ea6000396000f3fe608060405234801561001057600080fd5b50600436106101215760003560e01c80638bc3f891116100ad578063c87b56dd11610071578063c87b56dd146102e6578063cd7c032614610316578063e985e9c514610334578063ec07d02e14610364578063f2fde38b1461038257610121565b80638bc3f891146102545780638da5cb5b1461027057806394bf804d1461028e57806395d89b41146102aa578063c311c523146102c857610121565b80635bf8633a116100f45780635bf8633a146101ae5780635dd871a3146101cc5780636352211e146101fc5780636c0360eb1461022c578063715018a61461024a57610121565b806306fdde031461012657806323b872dd146101445780634b97aed9146101605780634cf12d261461017e575b600080fd5b61012e61039e565b60405161013b9190611e0b565b60405180910390f35b61015e60048036038101906101599190611aeb565b6103db565b005b6101686103ea565b6040516101759190611e6d565b60405180910390f35b61019860048036038101906101939190611b63565b6103f4565b6040516101a59190611e0b565b60405180910390f35b6101b6610491565b6040516101c39190611da5565b60405180910390f35b6101e660048036038101906101e19190611ba4565b6104b7565b6040516101f39190611df0565b60405180910390f35b61021660048036038101906102119190611ba4565b610678565b6040516102239190611da5565b60405180910390f35b610234610689565b6040516102419190611e0b565b60405180910390f35b610252610717565b005b61026e60048036038101906102699190611c32565b610851565b005b610278610917565b6040516102859190611da5565b60405180910390f35b6102a860048036038101906102a39190611bf6565b610940565b005b6102b2610ce1565b6040516102bf9190611e0b565b60405180910390f35b6102d0610d1e565b6040516102dd9190611df0565b60405180910390f35b61030060048036038101906102fb9190611ba4565b610d27565b60405161030d9190611e0b565b60405180910390f35b61031e610dcc565b60405161032b9190611da5565b60405180910390f35b61034e60048036038101906103499190611aaf565b610df2565b60405161035b9190611df0565b60405180910390f35b61036c610fa6565b6040516103799190611da5565b60405180910390f35b61039c60048036038101906103979190611a86565b610fcc565b005b60606040518060400160405280601681526020017f4f70656e53656120536f756c204974656d2053616c6500000000000000000000815250905090565b6103e58183610940565b505050565b6000600654905090565b606061048a60048054610406906120fa565b80601f0160208091040260200160405190810160405280929190818152602001828054610432906120fa565b801561047f5780601f106104545761010080835404028352916020019161047f565b820191906000526020600020905b81548152906001019060200180831161046257829003601f168201915b50505050508361106b565b9050919050565b600260009054906101000a900473ffffffffffffffffffffffffffffffffffffffff1681565b600060065482106104cb5760009050610673565b6000600260009054906101000a900473ffffffffffffffffffffffffffffffffffffffff16905060008173ffffffffffffffffffffffffffffffffffffffff1663bd85b039856040518263ffffffff1660e01b815260040161052d9190611e6d565b60206040518083038186803b15801561054557600080fd5b505afa158015610559573d6000803e3d6000fd5b505050506040513d601f19601f8201168201806040525081019061057d9190611bcd565b90506000600754851415610594576001905061065d565b6008548514156105a857600a54905061065c565b60095485141561065b576000600360009054906101000a900473ffffffffffffffffffffffffffffffffffffffff1690508073ffffffffffffffffffffffffffffffffffffffff166319d554e16040518163ffffffff1660e01b815260040160206040518083038186803b15801561061f57600080fd5b505afa158015610633573d6000803e3d6000fd5b505050506040513d601f19601f820116820180604052508101906106579190611bcd565b9150505b5b5b8060055461066b919061201d565b821093505050505b919050565b6000610682610917565b9050919050565b60048054610696906120fa565b80601f01602080910402602001604051908101604052809291908181526020018280546106c2906120fa565b801561070f5780601f106106e45761010080835404028352916020019161070f565b820191906000526020600020905b8154815290600101906020018083116106f257829003601f168201915b505050505081565b61071f6110af565b73ffffffffffffffffffffffffffffffffffffffff1661073d610917565b73ffffffffffffffffffffffffffffffffffffffff1614610793576040517f08c379a000000000000000000000000000000000000000000000000000000000815260040161078a90611e4d565b60405180910390fd5b600073ffffffffffffffffffffffffffffffffffffffff1660008054906101000a900473ffffffffffffffffffffffffffffffffffffffff1673ffffffffffffffffffffffffffffffffffffffff167f8be0079c531659141344cd1fd0a4f28419497f9722a3daafe3b4186f6b6457e060405160405180910390a360008060006101000a81548173ffffffffffffffffffffffffffffffffffffffff021916908373ffffffffffffffffffffffffffffffffffffffff160217905550565b6000600260009054906101000a900473ffffffffffffffffffffffffffffffffffffffff169050600754841415610911578073ffffffffffffffffffffffffffffffffffffffff16633d02d0c983856040518363ffffffff1660e01b81526004016108bd929190611dc0565b602060405180830381600087803b1580156108d757600080fd5b505af11580156108eb573d6000803e3d6000fd5b505050506040513d601f19601f8201168201806040525081019061090f9190611bcd565b505b50505050565b60008060009054906101000a900473ffffffffffffffffffffffffffffffffffffffff16905090565b6000600160009054906101000a900473ffffffffffffffffffffffffffffffffffffffff1690503373ffffffffffffffffffffffffffffffffffffffff168173ffffffffffffffffffffffffffffffffffffffff1663c45527916109a2610917565b6040518263ffffffff1660e01b81526004016109be9190611da5565b60206040518083038186803b1580156109d657600080fd5b505afa1580156109ea573d6000803e3d6000fd5b505050506040513d601f19601f82011682018060405250810190610a0e9190611b3a565b73ffffffffffffffffffffffffffffffffffffffff161480610a6257503373ffffffffffffffffffffffffffffffffffffffff16610a4a610917565b73ffffffffffffffffffffffffffffffffffffffff16145b80610aba5750600360009054906101000a900473ffffffffffffffffffffffffffffffffffffffff1673ffffffffffffffffffffffffffffffffffffffff163373ffffffffffffffffffffffffffffffffffffffff16145b610aed577f4e487b7100000000000000000000000000000000000000000000000000000000600052600160045260246000fd5b610af6836104b7565b610aff57600080fd5b6000600260009054906101000a900473ffffffffffffffffffffffffffffffffffffffff169050600754841415610ba0578073ffffffffffffffffffffffffffffffffffffffff1663755edd17846040518263ffffffff1660e01b8152600401610b699190611da5565b600060405180830381600087803b158015610b8357600080fd5b505af1158015610b97573d6000803e3d6000fd5b50505050610cdb565b600854841415610c3b5760005b600a54811015610c35578173ffffffffffffffffffffffffffffffffffffffff1663755edd17856040518263ffffffff1660e01b8152600401610bf09190611da5565b600060405180830381600087803b158015610c0a57600080fd5b505af1158015610c1e573d6000803e3d6000fd5b505050508080610c2d9061212c565b915050610bad565b50610cda565b600954841415610cd9576000600360009054906101000a900473ffffffffffffffffffffffffffffffffffffffff1690508073ffffffffffffffffffffffffffffffffffffffff1663755edd17856040518263ffffffff1660e01b8152600401610ca59190611da5565b600060405180830381600087803b158015610cbf57600080fd5b505af1158015610cd3573d6000803e3d6000fd5b50505050505b5b5b50505050565b60606040518060400160405280600481526020017f534f554c00000000000000000000000000000000000000000000000000000000815250905090565b60006001905090565b6060610dc560048054610d39906120fa565b80601f0160208091040260200160405190810160405280929190818152602001828054610d65906120fa565b8015610db25780601f10610d8757610100808354040283529160200191610db2565b820191906000526020600020905b815481529060010190602001808311610d9557829003601f168201915b5050505050610dc0846110b7565b61106b565b9050919050565b600160009054906101000a900473ffffffffffffffffffffffffffffffffffffffff1681565b60008273ffffffffffffffffffffffffffffffffffffffff16610e13610917565b73ffffffffffffffffffffffffffffffffffffffff16148015610e6157508173ffffffffffffffffffffffffffffffffffffffff168373ffffffffffffffffffffffffffffffffffffffff16145b15610e6f5760019050610fa0565b6000600160009054906101000a900473ffffffffffffffffffffffffffffffffffffffff1690508373ffffffffffffffffffffffffffffffffffffffff16610eb5610917565b73ffffffffffffffffffffffffffffffffffffffff16148015610f8b57508273ffffffffffffffffffffffffffffffffffffffff168173ffffffffffffffffffffffffffffffffffffffff1663c4552791866040518263ffffffff1660e01b8152600401610f239190611da5565b60206040518083038186803b158015610f3b57600080fd5b505afa158015610f4f573d6000803e3d6000fd5b505050506040513d601f19601f82011682018060405250810190610f739190611b3a565b73ffffffffffffffffffffffffffffffffffffffff16145b15610f9a576001915050610fa0565b60009150505b92915050565b600360009054906101000a900473ffffffffffffffffffffffffffffffffffffffff1681565b610fd46110af565b73ffffffffffffffffffffffffffffffffffffffff16610ff2610917565b73ffffffffffffffffffffffffffffffffffffffff1614611048576040517f08c379a000000000000000000000000000000000000000000000000000000000815260040161103f90611e4d565b60405180910390fd5b6000611052610917565b905061105d8261128c565b6110678183611435565b5050565b60606110a783836040518060200160405280600081525060405180602001604052806000815250604051806020016040528060008152506114b5565b905092915050565b600033905090565b606060008214156110ff576040518060400160405280600181526020017f30000000000000000000000000000000000000000000000000000000000000008152509050611287565b600082905060005b6000821461113157808061111a9061212c565b915050600a8261112a9190611f92565b9150611107565b60008167ffffffffffffffff811115611173577f4e487b7100000000000000000000000000000000000000000000000000000000600052604160045260246000fd5b6040519080825280601f01601f1916602001820160405280156111a55781602001600182028036833780820191505090505b50905060008290505b6000861461127f576001816111c3919061201d565b90506000600a80886111d59190611f92565b6111df9190611fc3565b876111ea919061201d565b60306111f69190611f5b565b905060008160f81b90508084848151811061123a577f4e487b7100000000000000000000000000000000000000000000000000000000600052603260045260246000fd5b60200101907effffffffffffffffffffffffffffffffffffffffffffffffffffffffffffff1916908160001a905350600a886112769190611f92565b975050506111ae565b819450505050505b919050565b6112946110af565b73ffffffffffffffffffffffffffffffffffffffff166112b2610917565b73ffffffffffffffffffffffffffffffffffffffff1614611308576040517f08c379a00000000000000000000000000000000000000000000000000000000081526004016112ff90611e4d565b60405180910390fd5b600073ffffffffffffffffffffffffffffffffffffffff168173ffffffffffffffffffffffffffffffffffffffff161415611378576040517f08c379a000000000000000000000000000000000000000000000000000000000815260040161136f90611e2d565b60405180910390fd5b8073ffffffffffffffffffffffffffffffffffffffff1660008054906101000a900473ffffffffffffffffffffffffffffffffffffffff1673ffffffffffffffffffffffffffffffffffffffff167f8be0079c531659141344cd1fd0a4f28419497f9722a3daafe3b4186f6b6457e060405160405180910390a3806000806101000a81548173ffffffffffffffffffffffffffffffffffffffff021916908373ffffffffffffffffffffffffffffffffffffffff16021790555050565b60005b6006548110156114b057808273ffffffffffffffffffffffffffffffffffffffff168473ffffffffffffffffffffffffffffffffffffffff167fddf252ad1be2c89b69c2b068fc378daa952ba7f163c4a11628f55a4df523b3ef60405160405180910390a480806114a89061212c565b915050611438565b505050565b6060600086905060008690506000869050600086905060008690506000815183518551875189516114e69190611f05565b6114f09190611f05565b6114fa9190611f05565b6115049190611f05565b67ffffffffffffffff811115611543577f4e487b7100000000000000000000000000000000000000000000000000000000600052604160045260246000fd5b6040519080825280601f01601f1916602001820160405280156115755781602001600182028036833780820191505090505b50905060008190506000805b8851811015611655578881815181106115c3577f4e487b7100000000000000000000000000000000000000000000000000000000600052603260045260246000fd5b602001015160f81c60f81b8383806115da9061212c565b945081518110611613577f4e487b7100000000000000000000000000000000000000000000000000000000600052603260045260246000fd5b60200101907effffffffffffffffffffffffffffffffffffffffffffffffffffffffffffff1916908160001a905350808061164d9061212c565b915050611581565b5060005b875181101561172d5787818151811061169b577f4e487b7100000000000000000000000000000000000000000000000000000000600052603260045260246000fd5b602001015160f81c60f81b8383806116b29061212c565b9450815181106116eb577f4e487b7100000000000000000000000000000000000000000000000000000000600052603260045260246000fd5b60200101907effffffffffffffffffffffffffffffffffffffffffffffffffffffffffffff1916908160001a90535080806117259061212c565b915050611659565b5060005b865181101561180557868181518110611773577f4e487b7100000000000000000000000000000000000000000000000000000000600052603260045260246000fd5b602001015160f81c60f81b83838061178a9061212c565b9450815181106117c3577f4e487b7100000000000000000000000000000000000000000000000000000000600052603260045260246000fd5b60200101907effffffffffffffffffffffffffffffffffffffffffffffffffffffffffffff1916908160001a90535080806117fd9061212c565b915050611731565b5060005b85518110156118dd5785818151811061184b577f4e487b7100000000000000000000000000000000000000000000000000000000600052603260045260246000fd5b602001015160f81c60f81b8383806118629061212c565b94508151811061189b577f4e487b7100000000000000000000000000000000000000000000000000000000600052603260045260246000fd5b60200101907effffffffffffffffffffffffffffffffffffffffffffffffffffffffffffff1916908160001a90535080806118d59061212c565b915050611809565b5060005b84518110156119b557848181518110611923577f4e487b7100000000000000000000000000000000000000000000000000000000600052603260045260246000fd5b602001015160f81c60f81b83838061193a9061212c565b945081518110611973577f4e487b7100000000000000000000000000000000000000000000000000000000600052603260045260246000fd5b60200101907effffffffffffffffffffffffffffffffffffffffffffffffffffffffffffff1916908160001a90535080806119ad9061212c565b9150506118e1565b50819850505050505050505095945050505050565b60006119dd6119d884611eb9565b611e88565b9050828152602081018484840111156119f557600080fd5b611a008482856120b8565b509392505050565b600081359050611a1781612242565b92915050565b600081519050611a2c81612259565b92915050565b600082601f830112611a4357600080fd5b8135611a538482602086016119ca565b91505092915050565b600081359050611a6b81612270565b92915050565b600081519050611a8081612270565b92915050565b600060208284031215611a9857600080fd5b6000611aa684828501611a08565b91505092915050565b60008060408385031215611ac257600080fd5b6000611ad085828601611a08565b9250506020611ae185828601611a08565b9150509250929050565b600080600060608486031215611b0057600080fd5b6000611b0e86828701611a08565b9350506020611b1f86828701611a08565b9250506040611b3086828701611a5c565b9150509250925092565b600060208284031215611b4c57600080fd5b6000611b5a84828501611a1d565b91505092915050565b600060208284031215611b7557600080fd5b600082013567ffffffffffffffff811115611b8f57600080fd5b611b9b84828501611a32565b91505092915050565b600060208284031215611bb657600080fd5b6000611bc484828501611a5c565b91505092915050565b600060208284031215611bdf57600080fd5b6000611bed84828501611a71565b91505092915050565b60008060408385031215611c0957600080fd5b6000611c1785828601611a5c565b9250506020611c2885828601611a08565b9150509250929050565b600080600060608486031215611c4757600080fd5b6000611c5586828701611a5c565b935050602084013567ffffffffffffffff811115611c7257600080fd5b611c7e86828701611a32565b9250506040611c8f86828701611a08565b9150509250925092565b611ca281612051565b82525050565b611cb181612063565b82525050565b6000611cc282611ee9565b611ccc8185611ef4565b9350611cdc8185602086016120c7565b611ce581612231565b840191505092915050565b6000611cfd602683611ef4565b91507f4f776e61626c653a206e6577206f776e657220697320746865207a65726f206160008301527f64647265737300000000000000000000000000000000000000000000000000006020830152604082019050919050565b6000611d63602083611ef4565b91507f4f776e61626c653a2063616c6c6572206973206e6f7420746865206f776e65726000830152602082019050919050565b611d9f816120a1565b82525050565b6000602082019050611dba6000830184611c99565b92915050565b6000604082019050611dd56000830185611c99565b8181036020830152611de78184611cb7565b90509392505050565b6000602082019050611e056000830184611ca8565b92915050565b60006020820190508181036000830152611e258184611cb7565b905092915050565b60006020820190508181036000830152611e4681611cf0565b9050919050565b60006020820190508181036000830152611e6681611d56565b9050919050565b6000602082019050611e826000830184611d96565b92915050565b6000604051905081810181811067ffffffffffffffff82111715611eaf57611eae612202565b5b8060405250919050565b600067ffffffffffffffff821115611ed457611ed3612202565b5b601f19601f8301169050602081019050919050565b600081519050919050565b600082825260208201905092915050565b6000611f10826120a1565b9150611f1b836120a1565b9250827fffffffffffffffffffffffffffffffffffffffffffffffffffffffffffffffff03821115611f5057611f4f612175565b5b828201905092915050565b6000611f66826120ab565b9150611f71836120ab565b92508260ff03821115611f8757611f86612175565b5b828201905092915050565b6000611f9d826120a1565b9150611fa8836120a1565b925082611fb857611fb76121a4565b5b828204905092915050565b6000611fce826120a1565b9150611fd9836120a1565b9250817fffffffffffffffffffffffffffffffffffffffffffffffffffffffffffffffff048311821515161561201257612011612175565b5b828202905092915050565b6000612028826120a1565b9150612033836120a1565b92508282101561204657612045612175565b5b828203905092915050565b600061205c82612081565b9050919050565b60008115159050919050565b600061207a82612051565b9050919050565b600073ffffffffffffffffffffffffffffffffffffffff82169050919050565b6000819050919050565b600060ff82169050919050565b82818337600083830152505050565b60005b838110156120e55780820151818401526020810190506120ca565b838111156120f4576000848401525b50505050565b6000600282049050600182168061211257607f821691505b60208210811415612126576121256121d3565b5b50919050565b6000612137826120a1565b91507fffffffffffffffffffffffffffffffffffffffffffffffffffffffffffffffff82141561216a57612169612175565b5b600182019050919050565b7f4e487b7100000000000000000000000000000000000000000000000000000000600052601160045260246000fd5b7f4e487b7100000000000000000000000000000000000000000000000000000000600052601260045260246000fd5b7f4e487b7100000000000000000000000000000000000000000000000000000000600052602260045260246000fd5b7f4e487b7100000000000000000000000000000000000000000000000000000000600052604160045260246000fd5b6000601f19601f8301169050919050565b61224b81612051565b811461225657600080fd5b50565b6122628161206f565b811461226d57600080fd5b50565b612279816120a1565b811461228457600080fd5b5056fea2646970667358221220ad39378b8f28e92c7186fc108737b476764d277f289f49ff19b9cee389ca926164736f6c6343000800003368747470733a2f2f676174657761792e70696e6174612e636c6f75642f697066732f",
  "immutableReferences": {},
  "source": "// SPDX-License-Identifier: MIT\r\npragma solidity ^0.8.0;\r\n\r\nimport \"@openzeppelin/contracts/access/Ownable.sol\";\r\nimport \"./IFactoryERC721.sol\";\r\nimport \"./SoulFragment.sol\";\r\nimport \"./StringUtils.sol\";\r\nimport './SoulLootBox.sol';\r\n\r\ncontract SoulFragmentFactory is IFactoryERC721, Ownable {\r\n    using Strings for string;\r\n\r\n    event Transfer(\r\n        address indexed from,\r\n        address indexed to,\r\n        uint256 indexed tokenId\r\n    );\r\n\r\n    address public proxyRegistryAddress;\r\n    address public nftAddress;\r\n    address public lootBoxNftAddress;\r\n    string public baseURI = \"https://gateway.pinata.cloud/ipfs/\";\r\n\r\n    /*\r\n     * Enforce the existence of only 100 OpenSea souls.\r\n     */\r\n    uint256 SOUL_SUPPLY = 100;\r\n\r\n    /*\r\n     * Three different options for minting Souls (basic, premium, and gold).\r\n     */\r\n    uint256 NUM_OPTIONS = 3;\r\n    uint256 SINGLE_SOUL_OPTION = 0;\r\n    uint256 MULTIPLE_SOUL_OPTION = 1;\r\n    uint256 LOOTBOX_OPTION = 2;\r\n    uint256 NUM_SOULS_IN_MULTIPLE_SOUL_OPTION = 4;\r\n\r\n    constructor(address _proxyRegistryAddress, address _nftAddress) public {\r\n        proxyRegistryAddress = _proxyRegistryAddress;\r\n        nftAddress = _nftAddress;\r\n        // lootBoxNftAddress = address(\r\n        //     new SoulLootBox(_proxyRegistryAddress, address(this))\r\n        // );\r\n\r\n        fireTransferEvents(address(0), owner());\r\n    }\r\n\r\n    function name() external override view returns (string memory) {\r\n        return \"OpenSea Soul Item Sale\";\r\n    }\r\n\r\n    function symbol() external override view returns (string memory) {\r\n        return \"SOUL\";\r\n    }\r\n\r\n    function supportsFactoryInterface() public override view returns (bool) {\r\n        return true;\r\n    }\r\n\r\n    function numOptions() public override view returns (uint256) {\r\n        return NUM_OPTIONS;\r\n    }\r\n\r\n    function transferOwnership(address newOwner) public override onlyOwner {\r\n        address _prevOwner = owner();\r\n        super.transferOwnership(newOwner);\r\n        fireTransferEvents(_prevOwner, newOwner);\r\n    }\r\n\r\n    function fireTransferEvents(address _from, address _to) private {\r\n        for (uint256 i = 0; i < NUM_OPTIONS; i++) {\r\n            emit Transfer(_from, _to, i);\r\n        }\r\n    }\r\n\r\n    function mint(uint256 _optionId, address _toAddress) public override {\r\n        // Must be sent from the owner proxy or owner.\r\n        ProxyRegistry proxyRegistry = ProxyRegistry(proxyRegistryAddress);\r\n        assert(\r\n            address(proxyRegistry.proxies(owner())) == msg.sender ||\r\n                owner() == msg.sender ||\r\n                msg.sender == lootBoxNftAddress\r\n        );\r\n        require(canMint(_optionId));\r\n\r\n        SoulFragment openSeaSoul = SoulFragment(nftAddress);\r\n        if (_optionId == SINGLE_SOUL_OPTION) {\r\n            openSeaSoul.mintTo(_toAddress);\r\n        } else if (_optionId == MULTIPLE_SOUL_OPTION) {\r\n            for (\r\n                uint256 i = 0;\r\n                i < NUM_SOULS_IN_MULTIPLE_SOUL_OPTION;\r\n                i++\r\n            ) {\r\n                openSeaSoul.mintTo(_toAddress);\r\n            }\r\n        } else if (_optionId == LOOTBOX_OPTION) {\r\n            SoulLootBox openSeaSoulLootBox = SoulLootBox(\r\n                lootBoxNftAddress\r\n            );\r\n            openSeaSoulLootBox.mintTo(_toAddress);\r\n        }\r\n    }\r\n\r\n    function mintTokenURI(uint256 _optionId, string memory _tokenURI, address _toAddress) public {\r\n        SoulFragment openSeaSoul = SoulFragment(nftAddress);\r\n        if (_optionId == SINGLE_SOUL_OPTION) {\r\n            openSeaSoul.mintToken(_toAddress, _tokenURI);\r\n        }\r\n    }\r\n\r\n    function canMint(uint256 _optionId) public override view returns (bool) {\r\n        if (_optionId >= NUM_OPTIONS) {\r\n            return false;\r\n        }\r\n\r\n        SoulFragment openSeaSoul = SoulFragment(nftAddress);\r\n        uint256 soulSupply = openSeaSoul.totalSupply(_optionId);\r\n\r\n        uint256 numItemsAllocated = 0;\r\n        if (_optionId == SINGLE_SOUL_OPTION) {\r\n            numItemsAllocated = 1;\r\n        } else if (_optionId == MULTIPLE_SOUL_OPTION) {\r\n            numItemsAllocated = NUM_SOULS_IN_MULTIPLE_SOUL_OPTION;\r\n        } else if (_optionId == LOOTBOX_OPTION) {\r\n            SoulLootBox openSeaSoulLootBox = SoulLootBox(\r\n                lootBoxNftAddress\r\n            );\r\n            numItemsAllocated = openSeaSoulLootBox.itemsPerLootbox();\r\n        }\r\n        return soulSupply < (SOUL_SUPPLY - numItemsAllocated);\r\n    }\r\n\r\n    function tokenURI(uint256 _optionId) external override view returns (string memory) {\r\n        return StringUtils.strConcat(baseURI, StringUtils.uint2str(_optionId));\r\n    }\r\n\r\n    function tokenURI(string memory metadataURI) external view returns (string memory) {\r\n        return StringUtils.strConcat(baseURI, metadataURI);\r\n    }\r\n\r\n    /**\r\n     * Hack to get things to work automatically on OpenSea.\r\n     * Use transferFrom so the frontend doesn't have to worry about different method names.\r\n     */\r\n    function transferFrom(\r\n        address _from,\r\n        address _to,\r\n        uint256 _tokenId\r\n    ) public {\r\n        mint(_tokenId, _to);\r\n    }\r\n\r\n    /**\r\n     * Hack to get things to work automatically on OpenSea.\r\n     * Use isApprovedForAll so the frontend doesn't have to worry about different method names.\r\n     */\r\n    function isApprovedForAll(address _owner, address _operator)\r\n        public\r\n        view\r\n        returns (bool)\r\n    {\r\n        if (owner() == _owner && _owner == _operator) {\r\n            return true;\r\n        }\r\n\r\n        ProxyRegistry proxyRegistry = ProxyRegistry(proxyRegistryAddress);\r\n        if (\r\n            owner() == _owner &&\r\n            address(proxyRegistry.proxies(_owner)) == _operator\r\n        ) {\r\n            return true;\r\n        }\r\n\r\n        return false;\r\n    }\r\n\r\n    /**\r\n     * Hack to get things to work automatically on OpenSea.\r\n     * Use isApprovedForAll so the frontend doesn't have to worry about different method names.\r\n     */\r\n    function ownerOf(uint256 _tokenId) public view returns (address _owner) {\r\n        return owner();\r\n    }\r\n}",
  "sourcePath": "C:\\Users\\editr\\OneDrive\\Desktop\\etherprojects\\SoulSwap\\contracts\\SoulFragmentFactory.sol",
  "compiler": {
    "name": "solc",
    "version": "0.8.0+commit.c7dfd78e.Emscripten.clang"
  },
  "schemaVersion": "3.3.3",
  "updatedAt": "2021-05-04T05:17:54.813Z",
  "networkType": "ethereum",
  "devdoc": {
    "kind": "dev",
    "methods": {
      "canMint(uint256)": {
        "details": "Returns whether the option ID can be minted. Can return false if the developer wishes to restrict a total supply per option ID (or overall)."
      },
      "mint(uint256,address)": {
        "details": "Mints asset(s) in accordance to a specific address with a particular \"option\". This should be callable only by the contract owner or the owner's Wyvern Proxy (later universal login will solve this). Options should also be delineated 0 - (numOptions() - 1) for convenient indexing.",
        "params": {
          "_optionId": "the option id",
          "_toAddress": "address of the future owner of the asset(s)"
        }
      },
      "owner()": {
        "details": "Returns the address of the current owner."
      },
      "renounceOwnership()": {
        "details": "Leaves the contract without owner. It will not be possible to call `onlyOwner` functions anymore. Can only be called by the current owner. NOTE: Renouncing ownership will leave the contract without an owner, thereby removing any functionality that is only available to the owner."
      },
      "tokenURI(uint256)": {
        "details": "Returns a URL specifying some metadata about the option. This metadata can be of the same structure as the ERC721 metadata."
      },
      "transferOwnership(address)": {
        "details": "Transfers ownership of the contract to a new account (`newOwner`). Can only be called by the current owner."
      }
    },
    "version": 1
  },
  "userdoc": {
    "kind": "user",
    "methods": {
      "isApprovedForAll(address,address)": {
        "notice": "Hack to get things to work automatically on OpenSea. Use isApprovedForAll so the frontend doesn't have to worry about different method names."
      },
      "name()": {
        "notice": "Returns the name of this factory."
      },
      "numOptions()": {
        "notice": "Number of options the factory supports."
      },
      "ownerOf(uint256)": {
        "notice": "Hack to get things to work automatically on OpenSea. Use isApprovedForAll so the frontend doesn't have to worry about different method names."
      },
      "supportsFactoryInterface()": {
        "notice": "Indicates that this is a factory contract. Ideally would use EIP 165 supportsInterface()"
      },
      "symbol()": {
        "notice": "Returns the symbol for this factory."
      },
      "transferFrom(address,address,uint256)": {
        "notice": "Hack to get things to work automatically on OpenSea. Use transferFrom so the frontend doesn't have to worry about different method names."
      }
    },
    "version": 1
  }
}