{
  "contractName": "SoulLootBox",
  "abi": [
    {
      "inputs": [
        {
          "internalType": "address",
          "name": "_proxyRegistryAddress",
          "type": "address"
        },
        {
          "internalType": "address",
          "name": "_factoryAddress",
          "type": "address"
        }
      ],
      "stateMutability": "nonpayable",
      "type": "constructor"
    },
    {
      "anonymous": false,
      "inputs": [
        {
          "indexed": true,
          "internalType": "address",
          "name": "owner",
          "type": "address"
        },
        {
          "indexed": true,
          "internalType": "address",
          "name": "approved",
          "type": "address"
        },
        {
          "indexed": true,
          "internalType": "uint256",
          "name": "tokenId",
          "type": "uint256"
        }
      ],
      "name": "Approval",
      "type": "event"
    },
    {
      "anonymous": false,
      "inputs": [
        {
          "indexed": true,
          "internalType": "address",
          "name": "owner",
          "type": "address"
        },
        {
          "indexed": true,
          "internalType": "address",
          "name": "operator",
          "type": "address"
        },
        {
          "indexed": false,
          "internalType": "bool",
          "name": "approved",
          "type": "bool"
        }
      ],
      "name": "ApprovalForAll",
      "type": "event"
    },
    {
      "anonymous": false,
      "inputs": [
        {
          "indexed": true,
          "internalType": "address",
          "name": "previousOwner",
          "type": "address"
        },
        {
          "indexed": true,
          "internalType": "address",
          "name": "newOwner",
          "type": "address"
        }
      ],
      "name": "OwnershipTransferred",
      "type": "event"
    },
    {
      "anonymous": false,
      "inputs": [
        {
          "indexed": true,
          "internalType": "address",
          "name": "from",
          "type": "address"
        },
        {
          "indexed": true,
          "internalType": "address",
          "name": "to",
          "type": "address"
        },
        {
          "indexed": true,
          "internalType": "uint256",
          "name": "tokenId",
          "type": "uint256"
        }
      ],
      "name": "Transfer",
      "type": "event"
    },
    {
      "inputs": [
        {
          "internalType": "address",
          "name": "to",
          "type": "address"
        },
        {
          "internalType": "uint256",
          "name": "tokenId",
          "type": "uint256"
        }
      ],
      "name": "approve",
      "outputs": [],
      "stateMutability": "nonpayable",
      "type": "function"
    },
    {
      "inputs": [
        {
          "internalType": "address",
          "name": "owner",
          "type": "address"
        }
      ],
      "name": "balanceOf",
      "outputs": [
        {
          "internalType": "uint256",
          "name": "",
          "type": "uint256"
        }
      ],
      "stateMutability": "view",
      "type": "function"
    },
    {
      "inputs": [
        {
          "internalType": "uint256",
          "name": "tokenId",
          "type": "uint256"
        }
      ],
      "name": "getApproved",
      "outputs": [
        {
          "internalType": "address",
          "name": "",
          "type": "address"
        }
      ],
      "stateMutability": "view",
      "type": "function"
    },
    {
      "inputs": [
        {
          "internalType": "address",
          "name": "owner",
          "type": "address"
        },
        {
          "internalType": "address",
          "name": "operator",
          "type": "address"
        }
      ],
      "name": "isApprovedForAll",
      "outputs": [
        {
          "internalType": "bool",
          "name": "",
          "type": "bool"
        }
      ],
      "stateMutability": "view",
      "type": "function"
    },
    {
      "inputs": [
        {
          "internalType": "address",
          "name": "_to",
          "type": "address"
        }
      ],
      "name": "mintTo",
      "outputs": [],
      "stateMutability": "nonpayable",
      "type": "function"
    },
    {
      "inputs": [],
      "name": "name",
      "outputs": [
        {
          "internalType": "string",
          "name": "",
          "type": "string"
        }
      ],
      "stateMutability": "view",
      "type": "function"
    },
    {
      "inputs": [],
      "name": "owner",
      "outputs": [
        {
          "internalType": "address",
          "name": "",
          "type": "address"
        }
      ],
      "stateMutability": "view",
      "type": "function"
    },
    {
      "inputs": [
        {
          "internalType": "uint256",
          "name": "tokenId",
          "type": "uint256"
        }
      ],
      "name": "ownerOf",
      "outputs": [
        {
          "internalType": "address",
          "name": "",
          "type": "address"
        }
      ],
      "stateMutability": "view",
      "type": "function"
    },
    {
      "inputs": [],
      "name": "renounceOwnership",
      "outputs": [],
      "stateMutability": "nonpayable",
      "type": "function"
    },
    {
      "inputs": [
        {
          "internalType": "address",
          "name": "from",
          "type": "address"
        },
        {
          "internalType": "address",
          "name": "to",
          "type": "address"
        },
        {
          "internalType": "uint256",
          "name": "tokenId",
          "type": "uint256"
        }
      ],
      "name": "safeTransferFrom",
      "outputs": [],
      "stateMutability": "nonpayable",
      "type": "function"
    },
    {
      "inputs": [
        {
          "internalType": "address",
          "name": "from",
          "type": "address"
        },
        {
          "internalType": "address",
          "name": "to",
          "type": "address"
        },
        {
          "internalType": "uint256",
          "name": "tokenId",
          "type": "uint256"
        },
        {
          "internalType": "bytes",
          "name": "_data",
          "type": "bytes"
        }
      ],
      "name": "safeTransferFrom",
      "outputs": [],
      "stateMutability": "nonpayable",
      "type": "function"
    },
    {
      "inputs": [
        {
          "internalType": "address",
          "name": "operator",
          "type": "address"
        },
        {
          "internalType": "bool",
          "name": "approved",
          "type": "bool"
        }
      ],
      "name": "setApprovalForAll",
      "outputs": [],
      "stateMutability": "nonpayable",
      "type": "function"
    },
    {
      "inputs": [
        {
          "internalType": "bytes4",
          "name": "interfaceId",
          "type": "bytes4"
        }
      ],
      "name": "supportsInterface",
      "outputs": [
        {
          "internalType": "bool",
          "name": "",
          "type": "bool"
        }
      ],
      "stateMutability": "view",
      "type": "function"
    },
    {
      "inputs": [],
      "name": "symbol",
      "outputs": [
        {
          "internalType": "string",
          "name": "",
          "type": "string"
        }
      ],
      "stateMutability": "view",
      "type": "function"
    },
    {
      "inputs": [
        {
          "internalType": "uint256",
          "name": "",
          "type": "uint256"
        }
      ],
      "name": "tokenSupply",
      "outputs": [
        {
          "internalType": "uint256",
          "name": "",
          "type": "uint256"
        }
      ],
      "stateMutability": "view",
      "type": "function"
    },
    {
      "inputs": [
        {
          "internalType": "uint256",
          "name": "_tokenId",
          "type": "uint256"
        }
      ],
      "name": "tokenURI",
      "outputs": [
        {
          "internalType": "string",
          "name": "",
          "type": "string"
        }
      ],
      "stateMutability": "pure",
      "type": "function"
    },
    {
      "inputs": [
        {
          "internalType": "uint256",
          "name": "_id",
          "type": "uint256"
        }
      ],
      "name": "totalSupply",
      "outputs": [
        {
          "internalType": "uint256",
          "name": "",
          "type": "uint256"
        }
      ],
      "stateMutability": "view",
      "type": "function"
    },
    {
      "inputs": [
        {
          "internalType": "address",
          "name": "from",
          "type": "address"
        },
        {
          "internalType": "address",
          "name": "to",
          "type": "address"
        },
        {
          "internalType": "uint256",
          "name": "tokenId",
          "type": "uint256"
        }
      ],
      "name": "transferFrom",
      "outputs": [],
      "stateMutability": "nonpayable",
      "type": "function"
    },
    {
      "inputs": [
        {
          "internalType": "address",
          "name": "newOwner",
          "type": "address"
        }
      ],
      "name": "transferOwnership",
      "outputs": [],
      "stateMutability": "nonpayable",
      "type": "function"
    },
    {
      "inputs": [
        {
          "internalType": "uint256",
          "name": "_tokenId",
          "type": "uint256"
        }
      ],
      "name": "unpack",
      "outputs": [],
      "stateMutability": "nonpayable",
      "type": "function"
    },
    {
      "inputs": [],
      "name": "baseTokenURI",
      "outputs": [
        {
          "internalType": "string",
          "name": "",
          "type": "string"
        }
      ],
      "stateMutability": "pure",
      "type": "function"
    },
    {
      "inputs": [],
      "name": "itemsPerLootbox",
      "outputs": [
        {
          "internalType": "uint256",
          "name": "",
          "type": "uint256"
        }
      ],
      "stateMutability": "view",
      "type": "function"
    }
  ],
  "bytecode": "0x608060405260006008556003600a556000600b553480156200002057600080fd5b5060405162003828380380620038288339818101604052810190620000469190620002f6565b6040518060400160405280600b81526020017f536f756c4c6f6f74426f780000000000000000000000000000000000000000008152506040518060400160405280600781526020017f4c4f4f54424f58000000000000000000000000000000000000000000000000008152508382828160009080519060200190620000cd9291906200022f565b508060019080519060200190620000e69291906200022f565b5050506000620000fb6200022760201b60201c565b905080600660006101000a81548173ffffffffffffffffffffffffffffffffffffffff021916908373ffffffffffffffffffffffffffffffffffffffff1602179055508073ffffffffffffffffffffffffffffffffffffffff16600073ffffffffffffffffffffffffffffffffffffffff167f8be0079c531659141344cd1fd0a4f28419497f9722a3daafe3b4186f6b6457e060405160405180910390a35080600760006101000a81548173ffffffffffffffffffffffffffffffffffffffff021916908373ffffffffffffffffffffffffffffffffffffffff16021790555050505080600c60006101000a81548173ffffffffffffffffffffffffffffffffffffffff021916908373ffffffffffffffffffffffffffffffffffffffff1602179055505050620003ea565b600033905090565b8280546200023d906200036b565b90600052602060002090601f016020900481019282620002615760008555620002ad565b82601f106200027c57805160ff1916838001178555620002ad565b82800160010185558215620002ad579182015b82811115620002ac5782518255916020019190600101906200028f565b5b509050620002bc9190620002c0565b5090565b5b80821115620002db576000816000905550600101620002c1565b5090565b600081519050620002f081620003d0565b92915050565b600080604083850312156200030a57600080fd5b60006200031a85828601620002df565b92505060206200032d85828601620002df565b9150509250929050565b600062000344826200034b565b9050919050565b600073ffffffffffffffffffffffffffffffffffffffff82169050919050565b600060028204905060018216806200038457607f821691505b602082108114156200039b576200039a620003a1565b5b50919050565b7f4e487b7100000000000000000000000000000000000000000000000000000000600052602260045260246000fd5b620003db8162000337565b8114620003e757600080fd5b50565b61342e80620003fa6000396000f3fe608060405234801561001057600080fd5b50600436106101425760003560e01c8063755edd17116100b8578063b88d4fde1161007c578063b88d4fde14610361578063bd85b0391461037d578063c87b56dd146103ad578063d547cfb7146103dd578063e985e9c5146103fb578063f2fde38b1461042b57610142565b8063755edd17146102d15780638a02be68146102ed5780638da5cb5b1461030957806395d89b4114610327578063a22cb4651461034557610142565b806323b872dd1161010a57806323b872dd146101ff5780632693ebf21461021b57806342842e0e1461024b5780636352211e1461026757806370a0823114610297578063715018a6146102c757610142565b806301ffc9a71461014757806306fdde0314610177578063081812fc14610195578063095ea7b3146101c557806319d554e1146101e1575b600080fd5b610161600480360381019061015c9190612517565b610447565b60405161016e91906128ce565b60405180910390f35b61017f610529565b60405161018c91906128e9565b60405180910390f35b6101af60048036038101906101aa9190612592565b6105bb565b6040516101bc9190612867565b60405180910390f35b6101df60048036038101906101da91906124db565b610640565b005b6101e9610758565b6040516101f69190612aeb565b60405180910390f35b610219600480360381019061021491906123d5565b610762565b005b61023560048036038101906102309190612592565b6107c2565b6040516102429190612aeb565b60405180910390f35b610265600480360381019061026091906123d5565b6107da565b005b610281600480360381019061027c9190612592565b6107fa565b60405161028e9190612867565b60405180910390f35b6102b160048036038101906102ac9190612370565b6108ac565b6040516102be9190612aeb565b60405180910390f35b6102cf610964565b005b6102eb60048036038101906102e69190612370565b610aa1565b005b61030760048036038101906103029190612592565b610b3f565b005b610311610c3a565b60405161031e9190612867565b60405180910390f35b61032f610c64565b60405161033c91906128e9565b60405180910390f35b61035f600480360381019061035a919061249f565b610cf6565b005b61037b60048036038101906103769190612424565b610e77565b005b61039760048036038101906103929190612592565b610ed9565b6040516103a49190612aeb565b60405180910390f35b6103c760048036038101906103c29190612592565b610ef6565b6040516103d491906128e9565b60405180910390f35b6103e5610f18565b6040516103f291906128e9565b60405180910390f35b61041560048036038101906104109190612399565b610f38565b60405161042291906128ce565b60405180910390f35b61044560048036038101906104409190612370565b61103a565b005b60007f80ac58cd000000000000000000000000000000000000000000000000000000007bffffffffffffffffffffffffffffffffffffffffffffffffffffffff1916827bffffffffffffffffffffffffffffffffffffffffffffffffffffffff1916148061051257507f5b5e139f000000000000000000000000000000000000000000000000000000007bffffffffffffffffffffffffffffffffffffffffffffffffffffffff1916827bffffffffffffffffffffffffffffffffffffffffffffffffffffffff1916145b806105225750610521826111e6565b5b9050919050565b60606000805461053890612dde565b80601f016020809104026020016040519081016040528092919081815260200182805461056490612dde565b80156105b15780601f10610586576101008083540402835291602001916105b1565b820191906000526020600020905b81548152906001019060200180831161059457829003601f168201915b5050505050905090565b60006105c682611250565b610605576040517f08c379a00000000000000000000000000000000000000000000000000000000081526004016105fc90612a4b565b60405180910390fd5b6004600083815260200190815260200160002060009054906101000a900473ffffffffffffffffffffffffffffffffffffffff169050919050565b600061064b826107fa565b90508073ffffffffffffffffffffffffffffffffffffffff168373ffffffffffffffffffffffffffffffffffffffff1614156106bc576040517f08c379a00000000000000000000000000000000000000000000000000000000081526004016106b390612aab565b60405180910390fd5b8073ffffffffffffffffffffffffffffffffffffffff166106db6112bc565b73ffffffffffffffffffffffffffffffffffffffff16148061070a5750610709816107046112bc565b6112c4565b5b610749576040517f08c379a0000000000000000000000000000000000000000000000000000000008152600401610740906129cb565b60405180910390fd5b6107538383611358565b505050565b6000600a54905090565b61077361076d6112bc565b82611411565b6107b2576040517f08c379a00000000000000000000000000000000000000000000000000000000081526004016107a990612acb565b60405180910390fd5b6107bd8383836114ef565b505050565b60096020528060005260406000206000915090505481565b6107f583838360405180602001604052806000815250610e77565b505050565b6000806002600084815260200190815260200160002060009054906101000a900473ffffffffffffffffffffffffffffffffffffffff169050600073ffffffffffffffffffffffffffffffffffffffff168173ffffffffffffffffffffffffffffffffffffffff1614156108a3576040517f08c379a000000000000000000000000000000000000000000000000000000000815260040161089a90612a0b565b60405180910390fd5b80915050919050565b60008073ffffffffffffffffffffffffffffffffffffffff168273ffffffffffffffffffffffffffffffffffffffff16141561091d576040517f08c379a0000000000000000000000000000000000000000000000000000000008152600401610914906129eb565b60405180910390fd5b600360008373ffffffffffffffffffffffffffffffffffffffff1673ffffffffffffffffffffffffffffffffffffffff168152602001908152602001600020549050919050565b61096c6112bc565b73ffffffffffffffffffffffffffffffffffffffff1661098a610c3a565b73ffffffffffffffffffffffffffffffffffffffff16146109e0576040517f08c379a00000000000000000000000000000000000000000000000000000000081526004016109d790612a6b565b60405180910390fd5b600073ffffffffffffffffffffffffffffffffffffffff16600660009054906101000a900473ffffffffffffffffffffffffffffffffffffffff1673ffffffffffffffffffffffffffffffffffffffff167f8be0079c531659141344cd1fd0a4f28419497f9722a3daafe3b4186f6b6457e060405160405180910390a36000600660006101000a81548173ffffffffffffffffffffffffffffffffffffffff021916908373ffffffffffffffffffffffffffffffffffffffff160217905550565b610aa96112bc565b73ffffffffffffffffffffffffffffffffffffffff16610ac7610c3a565b73ffffffffffffffffffffffffffffffffffffffff1614610b1d576040517f08c379a0000000000000000000000000000000000000000000000000000000008152600401610b1490612a6b565b60405180910390fd5b6000610b2761174b565b9050610b338282611769565b610b3b611937565b5050565b3373ffffffffffffffffffffffffffffffffffffffff16610b5f826107fa565b73ffffffffffffffffffffffffffffffffffffffff1614610b7f57600080fd5b60005b600a54811015610c36576000600c60009054906101000a900473ffffffffffffffffffffffffffffffffffffffff1690508073ffffffffffffffffffffffffffffffffffffffff166394bf804d600b54336040518363ffffffff1660e01b8152600401610bf0929190612b06565b600060405180830381600087803b158015610c0a57600080fd5b505af1158015610c1e573d6000803e3d6000fd5b50505050508080610c2e90612e41565b915050610b82565b5050565b6000600660009054906101000a900473ffffffffffffffffffffffffffffffffffffffff16905090565b606060018054610c7390612dde565b80601f0160208091040260200160405190810160405280929190818152602001828054610c9f90612dde565b8015610cec5780601f10610cc157610100808354040283529160200191610cec565b820191906000526020600020905b815481529060010190602001808311610ccf57829003601f168201915b5050505050905090565b610cfe6112bc565b73ffffffffffffffffffffffffffffffffffffffff168273ffffffffffffffffffffffffffffffffffffffff161415610d6c576040517f08c379a0000000000000000000000000000000000000000000000000000000008152600401610d639061298b565b60405180910390fd5b8060056000610d796112bc565b73ffffffffffffffffffffffffffffffffffffffff1673ffffffffffffffffffffffffffffffffffffffff16815260200190815260200160002060008473ffffffffffffffffffffffffffffffffffffffff1673ffffffffffffffffffffffffffffffffffffffff16815260200190815260200160002060006101000a81548160ff0219169083151502179055508173ffffffffffffffffffffffffffffffffffffffff16610e266112bc565b73ffffffffffffffffffffffffffffffffffffffff167f17307eab39ab6107e8899845ad3d59bd9653f200f220920489ca2b5937696c3183604051610e6b91906128ce565b60405180910390a35050565b610e88610e826112bc565b83611411565b610ec7576040517f08c379a0000000000000000000000000000000000000000000000000000000008152600401610ebe90612acb565b60405180910390fd5b610ed384848484611951565b50505050565b600060096000838152602001908152602001600020549050919050565b6060610f11610f03610f18565b610f0c846119ad565b611b82565b9050919050565b60606040518060600160405280602581526020016133d460259139905090565b600080600760009054906101000a900473ffffffffffffffffffffffffffffffffffffffff1690508273ffffffffffffffffffffffffffffffffffffffff168173ffffffffffffffffffffffffffffffffffffffff1663c4552791866040518263ffffffff1660e01b8152600401610fb09190612867565b60206040518083038186803b158015610fc857600080fd5b505afa158015610fdc573d6000803e3d6000fd5b505050506040513d601f19601f820116820180604052508101906110009190612569565b73ffffffffffffffffffffffffffffffffffffffff161415611026576001915050611034565b61103084846112c4565b9150505b92915050565b6110426112bc565b73ffffffffffffffffffffffffffffffffffffffff16611060610c3a565b73ffffffffffffffffffffffffffffffffffffffff16146110b6576040517f08c379a00000000000000000000000000000000000000000000000000000000081526004016110ad90612a6b565b60405180910390fd5b600073ffffffffffffffffffffffffffffffffffffffff168173ffffffffffffffffffffffffffffffffffffffff161415611126576040517f08c379a000000000000000000000000000000000000000000000000000000000815260040161111d9061292b565b60405180910390fd5b8073ffffffffffffffffffffffffffffffffffffffff16600660009054906101000a900473ffffffffffffffffffffffffffffffffffffffff1673ffffffffffffffffffffffffffffffffffffffff167f8be0079c531659141344cd1fd0a4f28419497f9722a3daafe3b4186f6b6457e060405160405180910390a380600660006101000a81548173ffffffffffffffffffffffffffffffffffffffff021916908373ffffffffffffffffffffffffffffffffffffffff16021790555050565b60007f01ffc9a7000000000000000000000000000000000000000000000000000000007bffffffffffffffffffffffffffffffffffffffffffffffffffffffff1916827bffffffffffffffffffffffffffffffffffffffffffffffffffffffff1916149050919050565b60008073ffffffffffffffffffffffffffffffffffffffff166002600084815260200190815260200160002060009054906101000a900473ffffffffffffffffffffffffffffffffffffffff1673ffffffffffffffffffffffffffffffffffffffff1614159050919050565b600033905090565b6000600560008473ffffffffffffffffffffffffffffffffffffffff1673ffffffffffffffffffffffffffffffffffffffff16815260200190815260200160002060008373ffffffffffffffffffffffffffffffffffffffff1673ffffffffffffffffffffffffffffffffffffffff16815260200190815260200160002060009054906101000a900460ff16905092915050565b816004600083815260200190815260200160002060006101000a81548173ffffffffffffffffffffffffffffffffffffffff021916908373ffffffffffffffffffffffffffffffffffffffff160217905550808273ffffffffffffffffffffffffffffffffffffffff166113cb836107fa565b73ffffffffffffffffffffffffffffffffffffffff167f8c5be1e5ebec7d5bd14f71427d1e84f3dd0314c0f7b2291e5b200ac8c7c3b92560405160405180910390a45050565b600061141c82611250565b61145b576040517f08c379a0000000000000000000000000000000000000000000000000000000008152600401611452906129ab565b60405180910390fd5b6000611466836107fa565b90508073ffffffffffffffffffffffffffffffffffffffff168473ffffffffffffffffffffffffffffffffffffffff1614806114d557508373ffffffffffffffffffffffffffffffffffffffff166114bd846105bb565b73ffffffffffffffffffffffffffffffffffffffff16145b806114e657506114e581856112c4565b5b91505092915050565b8273ffffffffffffffffffffffffffffffffffffffff1661150f826107fa565b73ffffffffffffffffffffffffffffffffffffffff1614611565576040517f08c379a000000000000000000000000000000000000000000000000000000000815260040161155c90612a8b565b60405180910390fd5b600073ffffffffffffffffffffffffffffffffffffffff168273ffffffffffffffffffffffffffffffffffffffff1614156115d5576040517f08c379a00000000000000000000000000000000000000000000000000000000081526004016115cc9061296b565b60405180910390fd5b6115e0838383611bc6565b6115eb600082611358565b6001600360008573ffffffffffffffffffffffffffffffffffffffff1673ffffffffffffffffffffffffffffffffffffffff168152602001908152602001600020600082825461163b9190612cd5565b925050819055506001600360008473ffffffffffffffffffffffffffffffffffffffff1673ffffffffffffffffffffffffffffffffffffffff16815260200190815260200160002060008282546116929190612bbd565b92505081905550816002600083815260200190815260200160002060006101000a81548173ffffffffffffffffffffffffffffffffffffffff021916908373ffffffffffffffffffffffffffffffffffffffff160217905550808273ffffffffffffffffffffffffffffffffffffffff168473ffffffffffffffffffffffffffffffffffffffff167fddf252ad1be2c89b69c2b068fc378daa952ba7f163c4a11628f55a4df523b3ef60405160405180910390a4505050565b60006008600081548092919061176090612e41565b91905055905090565b600073ffffffffffffffffffffffffffffffffffffffff168273ffffffffffffffffffffffffffffffffffffffff1614156117d9576040517f08c379a00000000000000000000000000000000000000000000000000000000081526004016117d090612a2b565b60405180910390fd5b6117e281611250565b15611822576040517f08c379a00000000000000000000000000000000000000000000000000000000081526004016118199061294b565b60405180910390fd5b61182e60008383611bc6565b6001600360008473ffffffffffffffffffffffffffffffffffffffff1673ffffffffffffffffffffffffffffffffffffffff168152602001908152602001600020600082825461187e9190612bbd565b92505081905550816002600083815260200190815260200160002060006101000a81548173ffffffffffffffffffffffffffffffffffffffff021916908373ffffffffffffffffffffffffffffffffffffffff160217905550808273ffffffffffffffffffffffffffffffffffffffff16600073ffffffffffffffffffffffffffffffffffffffff167fddf252ad1be2c89b69c2b068fc378daa952ba7f163c4a11628f55a4df523b3ef60405160405180910390a45050565b6008600081548092919061194a90612e41565b9190505550565b61195c8484846114ef565b61196884848484611bcb565b6119a7576040517f08c379a000000000000000000000000000000000000000000000000000000000815260040161199e9061290b565b60405180910390fd5b50505050565b606060008214156119f5576040518060400160405280600181526020017f30000000000000000000000000000000000000000000000000000000000000008152509050611b7d565b600082905060005b60008214611a27578080611a1090612e41565b915050600a82611a209190612c4a565b91506119fd565b60008167ffffffffffffffff811115611a69577f4e487b7100000000000000000000000000000000000000000000000000000000600052604160045260246000fd5b6040519080825280601f01601f191660200182016040528015611a9b5781602001600182028036833780820191505090505b50905060008290505b60008614611b7557600181611ab99190612cd5565b90506000600a8088611acb9190612c4a565b611ad59190612c7b565b87611ae09190612cd5565b6030611aec9190612c13565b905060008160f81b905080848481518110611b30577f4e487b7100000000000000000000000000000000000000000000000000000000600052603260045260246000fd5b60200101907effffffffffffffffffffffffffffffffffffffffffffffffffffffffffffff1916908160001a905350600a88611b6c9190612c4a565b97505050611aa4565b819450505050505b919050565b6060611bbe8383604051806020016040528060008152506040518060200160405280600081525060405180602001604052806000815250611d62565b905092915050565b505050565b6000611bec8473ffffffffffffffffffffffffffffffffffffffff16612277565b15611d55578373ffffffffffffffffffffffffffffffffffffffff1663150b7a02611c156112bc565b8786866040518563ffffffff1660e01b8152600401611c379493929190612882565b602060405180830381600087803b158015611c5157600080fd5b505af1925050508015611c8257506040513d601f19601f82011682018060405250810190611c7f9190612540565b60015b611d05573d8060008114611cb2576040519150601f19603f3d011682016040523d82523d6000602084013e611cb7565b606091505b50600081511415611cfd576040517f08c379a0000000000000000000000000000000000000000000000000000000008152600401611cf49061290b565b60405180910390fd5b805181602001fd5b63150b7a0260e01b7bffffffffffffffffffffffffffffffffffffffffffffffffffffffff1916817bffffffffffffffffffffffffffffffffffffffffffffffffffffffff191614915050611d5a565b600190505b949350505050565b606060008690506000869050600086905060008690506000869050600081518351855187518951611d939190612bbd565b611d9d9190612bbd565b611da79190612bbd565b611db19190612bbd565b67ffffffffffffffff811115611df0577f4e487b7100000000000000000000000000000000000000000000000000000000600052604160045260246000fd5b6040519080825280601f01601f191660200182016040528015611e225781602001600182028036833780820191505090505b50905060008190506000805b8851811015611f0257888181518110611e70577f4e487b7100000000000000000000000000000000000000000000000000000000600052603260045260246000fd5b602001015160f81c60f81b838380611e8790612e41565b945081518110611ec0577f4e487b7100000000000000000000000000000000000000000000000000000000600052603260045260246000fd5b60200101907effffffffffffffffffffffffffffffffffffffffffffffffffffffffffffff1916908160001a9053508080611efa90612e41565b915050611e2e565b5060005b8751811015611fda57878181518110611f48577f4e487b7100000000000000000000000000000000000000000000000000000000600052603260045260246000fd5b602001015160f81c60f81b838380611f5f90612e41565b945081518110611f98577f4e487b7100000000000000000000000000000000000000000000000000000000600052603260045260246000fd5b60200101907effffffffffffffffffffffffffffffffffffffffffffffffffffffffffffff1916908160001a9053508080611fd290612e41565b915050611f06565b5060005b86518110156120b257868181518110612020577f4e487b7100000000000000000000000000000000000000000000000000000000600052603260045260246000fd5b602001015160f81c60f81b83838061203790612e41565b945081518110612070577f4e487b7100000000000000000000000000000000000000000000000000000000600052603260045260246000fd5b60200101907effffffffffffffffffffffffffffffffffffffffffffffffffffffffffffff1916908160001a90535080806120aa90612e41565b915050611fde565b5060005b855181101561218a578581815181106120f8577f4e487b7100000000000000000000000000000000000000000000000000000000600052603260045260246000fd5b602001015160f81c60f81b83838061210f90612e41565b945081518110612148577f4e487b7100000000000000000000000000000000000000000000000000000000600052603260045260246000fd5b60200101907effffffffffffffffffffffffffffffffffffffffffffffffffffffffffffff1916908160001a905350808061218290612e41565b9150506120b6565b5060005b8451811015612262578481815181106121d0577f4e487b7100000000000000000000000000000000000000000000000000000000600052603260045260246000fd5b602001015160f81c60f81b8383806121e790612e41565b945081518110612220577f4e487b7100000000000000000000000000000000000000000000000000000000600052603260045260246000fd5b60200101907effffffffffffffffffffffffffffffffffffffffffffffffffffffffffffff1916908160001a905350808061225a90612e41565b91505061218e565b50819850505050505050505095945050505050565b600080823b905060008111915050919050565b600061229d61229884612b54565b612b2f565b9050828152602081018484840111156122b557600080fd5b6122c0848285612d9c565b509392505050565b6000813590506122d781613360565b92915050565b6000813590506122ec81613377565b92915050565b6000813590506123018161338e565b92915050565b6000815190506123168161338e565b92915050565b600082601f83011261232d57600080fd5b813561233d84826020860161228a565b91505092915050565b600081519050612355816133a5565b92915050565b60008135905061236a816133bc565b92915050565b60006020828403121561238257600080fd5b6000612390848285016122c8565b91505092915050565b600080604083850312156123ac57600080fd5b60006123ba858286016122c8565b92505060206123cb858286016122c8565b9150509250929050565b6000806000606084860312156123ea57600080fd5b60006123f8868287016122c8565b9350506020612409868287016122c8565b925050604061241a8682870161235b565b9150509250925092565b6000806000806080858703121561243a57600080fd5b6000612448878288016122c8565b9450506020612459878288016122c8565b935050604061246a8782880161235b565b925050606085013567ffffffffffffffff81111561248757600080fd5b6124938782880161231c565b91505092959194509250565b600080604083850312156124b257600080fd5b60006124c0858286016122c8565b92505060206124d1858286016122dd565b9150509250929050565b600080604083850312156124ee57600080fd5b60006124fc858286016122c8565b925050602061250d8582860161235b565b9150509250929050565b60006020828403121561252957600080fd5b6000612537848285016122f2565b91505092915050565b60006020828403121561255257600080fd5b600061256084828501612307565b91505092915050565b60006020828403121561257b57600080fd5b600061258984828501612346565b91505092915050565b6000602082840312156125a457600080fd5b60006125b28482850161235b565b91505092915050565b6125c481612d09565b82525050565b6125d381612d1b565b82525050565b60006125e482612b85565b6125ee8185612b9b565b93506125fe818560208601612dab565b61260781612f46565b840191505092915050565b600061261d82612b90565b6126278185612bac565b9350612637818560208601612dab565b61264081612f46565b840191505092915050565b6000612658603283612bac565b915061266382612f57565b604082019050919050565b600061267b602683612bac565b915061268682612fa6565b604082019050919050565b600061269e601c83612bac565b91506126a982612ff5565b602082019050919050565b60006126c1602483612bac565b91506126cc8261301e565b604082019050919050565b60006126e4601983612bac565b91506126ef8261306d565b602082019050919050565b6000612707602c83612bac565b915061271282613096565b604082019050919050565b600061272a603883612bac565b9150612735826130e5565b604082019050919050565b600061274d602a83612bac565b915061275882613134565b604082019050919050565b6000612770602983612bac565b915061277b82613183565b604082019050919050565b6000612793602083612bac565b915061279e826131d2565b602082019050919050565b60006127b6602c83612bac565b91506127c1826131fb565b604082019050919050565b60006127d9602083612bac565b91506127e48261324a565b602082019050919050565b60006127fc602983612bac565b915061280782613273565b604082019050919050565b600061281f602183612bac565b915061282a826132c2565b604082019050919050565b6000612842603183612bac565b915061284d82613311565b604082019050919050565b61286181612d85565b82525050565b600060208201905061287c60008301846125bb565b92915050565b600060808201905061289760008301876125bb565b6128a460208301866125bb565b6128b16040830185612858565b81810360608301526128c381846125d9565b905095945050505050565b60006020820190506128e360008301846125ca565b92915050565b600060208201905081810360008301526129038184612612565b905092915050565b600060208201905081810360008301526129248161264b565b9050919050565b600060208201905081810360008301526129448161266e565b9050919050565b6000602082019050818103600083015261296481612691565b9050919050565b60006020820190508181036000830152612984816126b4565b9050919050565b600060208201905081810360008301526129a4816126d7565b9050919050565b600060208201905081810360008301526129c4816126fa565b9050919050565b600060208201905081810360008301526129e48161271d565b9050919050565b60006020820190508181036000830152612a0481612740565b9050919050565b60006020820190508181036000830152612a2481612763565b9050919050565b60006020820190508181036000830152612a4481612786565b9050919050565b60006020820190508181036000830152612a64816127a9565b9050919050565b60006020820190508181036000830152612a84816127cc565b9050919050565b60006020820190508181036000830152612aa4816127ef565b9050919050565b60006020820190508181036000830152612ac481612812565b9050919050565b60006020820190508181036000830152612ae481612835565b9050919050565b6000602082019050612b006000830184612858565b92915050565b6000604082019050612b1b6000830185612858565b612b2860208301846125bb565b9392505050565b6000612b39612b4a565b9050612b458282612e10565b919050565b6000604051905090565b600067ffffffffffffffff821115612b6f57612b6e612f17565b5b612b7882612f46565b9050602081019050919050565b600081519050919050565b600081519050919050565b600082825260208201905092915050565b600082825260208201905092915050565b6000612bc882612d85565b9150612bd383612d85565b9250827fffffffffffffffffffffffffffffffffffffffffffffffffffffffffffffffff03821115612c0857612c07612e8a565b5b828201905092915050565b6000612c1e82612d8f565b9150612c2983612d8f565b92508260ff03821115612c3f57612c3e612e8a565b5b828201905092915050565b6000612c5582612d85565b9150612c6083612d85565b925082612c7057612c6f612eb9565b5b828204905092915050565b6000612c8682612d85565b9150612c9183612d85565b9250817fffffffffffffffffffffffffffffffffffffffffffffffffffffffffffffffff0483118215151615612cca57612cc9612e8a565b5b828202905092915050565b6000612ce082612d85565b9150612ceb83612d85565b925082821015612cfe57612cfd612e8a565b5b828203905092915050565b6000612d1482612d65565b9050919050565b60008115159050919050565b60007fffffffff0000000000000000000000000000000000000000000000000000000082169050919050565b6000612d5e82612d09565b9050919050565b600073ffffffffffffffffffffffffffffffffffffffff82169050919050565b6000819050919050565b600060ff82169050919050565b82818337600083830152505050565b60005b83811015612dc9578082015181840152602081019050612dae565b83811115612dd8576000848401525b50505050565b60006002820490506001821680612df657607f821691505b60208210811415612e0a57612e09612ee8565b5b50919050565b612e1982612f46565b810181811067ffffffffffffffff82111715612e3857612e37612f17565b5b80604052505050565b6000612e4c82612d85565b91507fffffffffffffffffffffffffffffffffffffffffffffffffffffffffffffffff821415612e7f57612e7e612e8a565b5b600182019050919050565b7f4e487b7100000000000000000000000000000000000000000000000000000000600052601160045260246000fd5b7f4e487b7100000000000000000000000000000000000000000000000000000000600052601260045260246000fd5b7f4e487b7100000000000000000000000000000000000000000000000000000000600052602260045260246000fd5b7f4e487b7100000000000000000000000000000000000000000000000000000000600052604160045260246000fd5b6000601f19601f8301169050919050565b7f4552433732313a207472616e7366657220746f206e6f6e20455243373231526560008201527f63656976657220696d706c656d656e7465720000000000000000000000000000602082015250565b7f4f776e61626c653a206e6577206f776e657220697320746865207a65726f206160008201527f6464726573730000000000000000000000000000000000000000000000000000602082015250565b7f4552433732313a20746f6b656e20616c7265616479206d696e74656400000000600082015250565b7f4552433732313a207472616e7366657220746f20746865207a65726f2061646460008201527f7265737300000000000000000000000000000000000000000000000000000000602082015250565b7f4552433732313a20617070726f766520746f2063616c6c657200000000000000600082015250565b7f4552433732313a206f70657261746f7220717565727920666f72206e6f6e657860008201527f697374656e7420746f6b656e0000000000000000000000000000000000000000602082015250565b7f4552433732313a20617070726f76652063616c6c6572206973206e6f74206f7760008201527f6e6572206e6f7220617070726f76656420666f7220616c6c0000000000000000602082015250565b7f4552433732313a2062616c616e636520717565727920666f7220746865207a6560008201527f726f206164647265737300000000000000000000000000000000000000000000602082015250565b7f4552433732313a206f776e657220717565727920666f72206e6f6e657869737460008201527f656e7420746f6b656e0000000000000000000000000000000000000000000000602082015250565b7f4552433732313a206d696e7420746f20746865207a65726f2061646472657373600082015250565b7f4552433732313a20617070726f76656420717565727920666f72206e6f6e657860008201527f697374656e7420746f6b656e0000000000000000000000000000000000000000602082015250565b7f4f776e61626c653a2063616c6c6572206973206e6f7420746865206f776e6572600082015250565b7f4552433732313a207472616e73666572206f6620746f6b656e2074686174206960008201527f73206e6f74206f776e0000000000000000000000000000000000000000000000602082015250565b7f4552433732313a20617070726f76616c20746f2063757272656e74206f776e6560008201527f7200000000000000000000000000000000000000000000000000000000000000602082015250565b7f4552433732313a207472616e736665722063616c6c6572206973206e6f74206f60008201527f776e6572206e6f7220617070726f766564000000000000000000000000000000602082015250565b61336981612d09565b811461337457600080fd5b50565b61338081612d1b565b811461338b57600080fd5b50565b61339781612d27565b81146133a257600080fd5b50565b6133ae81612d53565b81146133b957600080fd5b50565b6133c581612d85565b81146133d057600080fd5b5056fe68747470733a2f2f736f756c732d6170692e6f70656e7365612e696f2f6170692f626f782fa264697066735822122060f18cd6ae96a47f06fdda5f2e039b685c08257699111d02ca39a64ac9e03ae164736f6c63430008030033",
  "immutableReferences": {},
  "source": "// SPDX-License-Identifier: MIT\r\npragma solidity ^0.8.3;\r\n\r\n\r\nimport './ERC721Tradable.sol';\r\nimport './SoulFragment.sol';\r\nimport './IFactoryERC721.sol';\r\nimport './SoulFragmentFactory.sol';\r\nimport '@openzeppelin/contracts/access/Ownable.sol';\r\n\r\n/**\r\n * @title SoulLootBox\r\n *\r\n * SoulLootBox - a tradeable loot box of Souls.\r\n */\r\ncontract SoulLootBox is ERC721Tradable {\r\n    uint256 NUM_SOULS_PER_BOX = 3;\r\n    uint256 OPTION_ID = 0;\r\n    address factoryAddress;\r\n\r\n    constructor(address _proxyRegistryAddress, address _factoryAddress)\r\n        public\r\n        ERC721Tradable(\"SoulLootBox\", \"LOOTBOX\", _proxyRegistryAddress)\r\n    {\r\n        factoryAddress = _factoryAddress;\r\n    }\r\n\r\n    function unpack(uint256 _tokenId) public {\r\n        require(ownerOf(_tokenId) == msg.sender);\r\n\r\n        // Insert custom logic for configuring the item here.\r\n        for (uint256 i = 0; i < NUM_SOULS_PER_BOX; i++) {\r\n            // Mint the ERC721 item(s).\r\n            SoulFragmentFactory factory = SoulFragmentFactory(factoryAddress);\r\n            factory.mint(OPTION_ID, msg.sender);\r\n        }\r\n\r\n        //TODO: Advanced item sale structure\r\n        // Burn the presale item.\r\n       // _burn(msg.sender, _tokenId);\r\n    }\r\n\r\n    function baseTokenURI() public override pure returns (string memory) {\r\n        return \"https://souls-api.opensea.io/api/box/\";\r\n    }\r\n\r\n    function itemsPerLootbox() public view returns (uint256) {\r\n        return NUM_SOULS_PER_BOX;\r\n    }\r\n}",
  "sourcePath": "C:\\Users\\editr\\OneDrive\\Desktop\\etherprojects\\SoulSwap\\contracts\\SoulLootBox.sol",
  "compiler": {
    "name": "solc",
    "version": "0.8.3+commit.8d00100c.Emscripten.clang"
  },
  "schemaVersion": "3.3.3",
  "updatedAt": "2021-04-28T23:51:10.207Z",
  "devdoc": {
    "kind": "dev",
    "methods": {
      "approve(address,uint256)": {
        "details": "See {IERC721-approve}."
      },
      "balanceOf(address)": {
        "details": "See {IERC721-balanceOf}."
      },
      "getApproved(uint256)": {
        "details": "See {IERC721-getApproved}."
      },
      "mintTo(address)": {
        "details": "Mints a token to an address with a tokenURI.",
        "params": {
          "_to": "address of the future owner of the token"
        }
      },
      "name()": {
        "details": "See {IERC721Metadata-name}."
      },
      "owner()": {
        "details": "Returns the address of the current owner."
      },
      "ownerOf(uint256)": {
        "details": "See {IERC721-ownerOf}."
      },
      "renounceOwnership()": {
        "details": "Leaves the contract without owner. It will not be possible to call `onlyOwner` functions anymore. Can only be called by the current owner. NOTE: Renouncing ownership will leave the contract without an owner, thereby removing any functionality that is only available to the owner."
      },
      "safeTransferFrom(address,address,uint256)": {
        "details": "See {IERC721-safeTransferFrom}."
      },
      "safeTransferFrom(address,address,uint256,bytes)": {
        "details": "See {IERC721-safeTransferFrom}."
      },
      "setApprovalForAll(address,bool)": {
        "details": "See {IERC721-setApprovalForAll}."
      },
      "supportsInterface(bytes4)": {
        "details": "See {IERC165-supportsInterface}."
      },
      "symbol()": {
        "details": "See {IERC721Metadata-symbol}."
      },
      "totalSupply(uint256)": {
        "details": "Returns the total quantity for a token ID",
        "params": {
          "_id": "uint256 ID of the token to query"
        },
        "returns": {
          "_0": "amount of token in existence"
        }
      },
      "transferFrom(address,address,uint256)": {
        "details": "See {IERC721-transferFrom}."
      },
      "transferOwnership(address)": {
        "details": "Transfers ownership of the contract to a new account (`newOwner`). Can only be called by the current owner."
      }
    },
    "title": "SoulLootBox SoulLootBox - a tradeable loot box of Souls.",
    "version": 1
  },
  "userdoc": {
    "kind": "user",
    "methods": {
      "isApprovedForAll(address,address)": {
        "notice": "Override isApprovedForAll to whitelist user's OpenSea proxy accounts to enable gas-less listings."
      }
    },
    "version": 1
  }
}