{
  "contractName": "SoulFragmentFactory",
  "abi": [
    {
      "inputs": [
        {
          "internalType": "address",
          "name": "_proxyRegistryAddress",
          "type": "address"
        },
        {
          "internalType": "address",
          "name": "_nftAddress",
          "type": "address"
        }
      ],
      "stateMutability": "nonpayable",
      "type": "constructor"
    },
    {
      "anonymous": false,
      "inputs": [
        {
          "indexed": true,
          "internalType": "address",
          "name": "previousOwner",
          "type": "address"
        },
        {
          "indexed": true,
          "internalType": "address",
          "name": "newOwner",
          "type": "address"
        }
      ],
      "name": "OwnershipTransferred",
      "type": "event"
    },
    {
      "anonymous": false,
      "inputs": [
        {
          "indexed": false,
          "internalType": "string",
          "name": "name",
          "type": "string"
        },
        {
          "indexed": false,
          "internalType": "uint256",
          "name": "amount",
          "type": "uint256"
        },
        {
          "indexed": false,
          "internalType": "string",
          "name": "message",
          "type": "string"
        }
      ],
      "name": "testSupplyChange",
      "type": "event"
    },
    {
      "inputs": [],
      "name": "baseURI",
      "outputs": [
        {
          "internalType": "string",
          "name": "",
          "type": "string"
        }
      ],
      "stateMutability": "view",
      "type": "function",
      "constant": true
    },
    {
      "inputs": [
        {
          "internalType": "string",
          "name": "",
          "type": "string"
        }
      ],
      "name": "currentFragmentCount",
      "outputs": [
        {
          "internalType": "uint256",
          "name": "",
          "type": "uint256"
        }
      ],
      "stateMutability": "view",
      "type": "function",
      "constant": true
    },
    {
      "inputs": [
        {
          "internalType": "string",
          "name": "",
          "type": "string"
        }
      ],
      "name": "maxFragmentSupply",
      "outputs": [
        {
          "internalType": "uint256",
          "name": "",
          "type": "uint256"
        }
      ],
      "stateMutability": "view",
      "type": "function",
      "constant": true
    },
    {
      "inputs": [],
      "name": "nftAddress",
      "outputs": [
        {
          "internalType": "address",
          "name": "",
          "type": "address"
        }
      ],
      "stateMutability": "view",
      "type": "function",
      "constant": true
    },
    {
      "inputs": [],
      "name": "owner",
      "outputs": [
        {
          "internalType": "address",
          "name": "",
          "type": "address"
        }
      ],
      "stateMutability": "view",
      "type": "function",
      "constant": true
    },
    {
      "inputs": [],
      "name": "proxyRegistryAddress",
      "outputs": [
        {
          "internalType": "address",
          "name": "",
          "type": "address"
        }
      ],
      "stateMutability": "view",
      "type": "function",
      "constant": true
    },
    {
      "inputs": [],
      "name": "renounceOwnership",
      "outputs": [],
      "stateMutability": "nonpayable",
      "type": "function"
    },
    {
      "inputs": [],
      "name": "name",
      "outputs": [
        {
          "internalType": "string",
          "name": "",
          "type": "string"
        }
      ],
      "stateMutability": "view",
      "type": "function",
      "constant": true
    },
    {
      "inputs": [],
      "name": "symbol",
      "outputs": [
        {
          "internalType": "string",
          "name": "",
          "type": "string"
        }
      ],
      "stateMutability": "view",
      "type": "function",
      "constant": true
    },
    {
      "inputs": [],
      "name": "supportsFactoryInterface",
      "outputs": [
        {
          "internalType": "bool",
          "name": "",
          "type": "bool"
        }
      ],
      "stateMutability": "view",
      "type": "function",
      "constant": true
    },
    {
      "inputs": [],
      "name": "numOptions",
      "outputs": [
        {
          "internalType": "uint256",
          "name": "",
          "type": "uint256"
        }
      ],
      "stateMutability": "view",
      "type": "function",
      "constant": true
    },
    {
      "inputs": [
        {
          "internalType": "address",
          "name": "newOwner",
          "type": "address"
        }
      ],
      "name": "transferOwnership",
      "outputs": [],
      "stateMutability": "nonpayable",
      "type": "function"
    },
    {
      "inputs": [
        {
          "internalType": "uint256",
          "name": "_optionId",
          "type": "uint256"
        },
        {
          "internalType": "address",
          "name": "_toAddress",
          "type": "address"
        }
      ],
      "name": "mint",
      "outputs": [],
      "stateMutability": "nonpayable",
      "type": "function"
    },
    {
      "inputs": [
        {
          "internalType": "string",
          "name": "soulName",
          "type": "string"
        },
        {
          "internalType": "uint256",
          "name": "total",
          "type": "uint256"
        }
      ],
      "name": "setMaxFragmentSupply",
      "outputs": [],
      "stateMutability": "nonpayable",
      "type": "function"
    },
    {
      "inputs": [
        {
          "internalType": "string",
          "name": "soulName",
          "type": "string"
        }
      ],
      "name": "testGetMaxFragmentSupply",
      "outputs": [],
      "stateMutability": "nonpayable",
      "type": "function"
    },
    {
      "inputs": [
        {
          "internalType": "string",
          "name": "soulName",
          "type": "string"
        }
      ],
      "name": "gettestGetMaxFragmentSupply",
      "outputs": [
        {
          "internalType": "uint256",
          "name": "",
          "type": "uint256"
        }
      ],
      "stateMutability": "view",
      "type": "function",
      "constant": true
    },
    {
      "inputs": [
        {
          "internalType": "string",
          "name": "soulName",
          "type": "string"
        }
      ],
      "name": "getMaxFragmentSupply",
      "outputs": [
        {
          "internalType": "uint256",
          "name": "",
          "type": "uint256"
        }
      ],
      "stateMutability": "view",
      "type": "function",
      "constant": true
    },
    {
      "inputs": [
        {
          "internalType": "string",
          "name": "_tokenURI",
          "type": "string"
        },
        {
          "internalType": "address",
          "name": "_toAddress",
          "type": "address"
        },
        {
          "internalType": "uint256",
          "name": "totalRequest",
          "type": "uint256"
        },
        {
          "internalType": "string",
          "name": "soulName",
          "type": "string"
        }
      ],
      "name": "mintTokenURI",
      "outputs": [],
      "stateMutability": "nonpayable",
      "type": "function"
    },
    {
      "inputs": [
        {
          "internalType": "string",
          "name": "soulName",
          "type": "string"
        },
        {
          "internalType": "uint256",
          "name": "totalRequest",
          "type": "uint256"
        }
      ],
      "name": "_canMint",
      "outputs": [
        {
          "internalType": "bool",
          "name": "",
          "type": "bool"
        }
      ],
      "stateMutability": "view",
      "type": "function",
      "constant": true
    },
    {
      "inputs": [
        {
          "internalType": "uint256",
          "name": "_optionId",
          "type": "uint256"
        }
      ],
      "name": "canMint",
      "outputs": [
        {
          "internalType": "bool",
          "name": "",
          "type": "bool"
        }
      ],
      "stateMutability": "view",
      "type": "function",
      "constant": true
    },
    {
      "inputs": [
        {
          "internalType": "string",
          "name": "metadataURI",
          "type": "string"
        }
      ],
      "name": "tokenURI",
      "outputs": [
        {
          "internalType": "string",
          "name": "",
          "type": "string"
        }
      ],
      "stateMutability": "view",
      "type": "function",
      "constant": true
    },
    {
      "inputs": [
        {
          "internalType": "uint256",
          "name": "_optionId",
          "type": "uint256"
        }
      ],
      "name": "tokenURI",
      "outputs": [
        {
          "internalType": "string",
          "name": "",
          "type": "string"
        }
      ],
      "stateMutability": "view",
      "type": "function",
      "constant": true
    },
    {
      "inputs": [
        {
          "internalType": "address",
          "name": "_owner",
          "type": "address"
        },
        {
          "internalType": "address",
          "name": "_operator",
          "type": "address"
        }
      ],
      "name": "isApprovedForAll",
      "outputs": [
        {
          "internalType": "bool",
          "name": "",
          "type": "bool"
        }
      ],
      "stateMutability": "view",
      "type": "function",
      "constant": true
    },
    {
      "inputs": [
        {
          "internalType": "uint256",
          "name": "_tokenId",
          "type": "uint256"
        }
      ],
      "name": "ownerOf",
      "outputs": [
        {
          "internalType": "address",
          "name": "_owner",
          "type": "address"
        }
      ],
      "stateMutability": "view",
      "type": "function",
      "constant": true
    }
  ],
  "bytecode": "0x6080604052604051806060016040528060228152602001620027f3602291396003908051906020019062000035929190620001ab565b503480156200004357600080fd5b506040516200281538038062002815833981810160405281019062000069919062000272565b60006200007b620001a360201b60201c565b9050806000806101000a81548173ffffffffffffffffffffffffffffffffffffffff021916908373ffffffffffffffffffffffffffffffffffffffff1602179055508073ffffffffffffffffffffffffffffffffffffffff16600073ffffffffffffffffffffffffffffffffffffffff167f8be0079c531659141344cd1fd0a4f28419497f9722a3daafe3b4186f6b6457e060405160405180910390a35081600160006101000a81548173ffffffffffffffffffffffffffffffffffffffff021916908373ffffffffffffffffffffffffffffffffffffffff16021790555080600260006101000a81548173ffffffffffffffffffffffffffffffffffffffff021916908373ffffffffffffffffffffffffffffffffffffffff160217905550505062000366565b600033905090565b828054620001b990620002e7565b90600052602060002090601f016020900481019282620001dd576000855562000229565b82601f10620001f857805160ff191683800117855562000229565b8280016001018555821562000229579182015b82811115620002285782518255916020019190600101906200020b565b5b5090506200023891906200023c565b5090565b5b80821115620002575760008160009055506001016200023d565b5090565b6000815190506200026c816200034c565b92915050565b600080604083850312156200028657600080fd5b600062000296858286016200025b565b9250506020620002a9858286016200025b565b9150509250929050565b6000620002c082620002c7565b9050919050565b600073ffffffffffffffffffffffffffffffffffffffff82169050919050565b600060028204905060018216806200030057607f821691505b602082108114156200031757620003166200031d565b5b50919050565b7f4e487b7100000000000000000000000000000000000000000000000000000000600052602260045260246000fd5b6200035781620002b3565b81146200036357600080fd5b50565b61247d80620003766000396000f3fe608060405234801561001057600080fd5b50600436106101585760003560e01c806395d89b41116100c3578063c87b56dd1161007c578063c87b56dd146103c9578063cd7c0326146103f9578063e8a314c414610417578063e985e9c514610447578063f2fde38b14610477578063fed6932f1461049357610158565b806395d89b41146102f55780639d3a650814610313578063b43b4e1414610343578063b7c18cdf14610373578063b7c780531461038f578063c311c523146103ab57610158565b80635dd871a3116101155780635dd871a3146102335780636352211e146102635780636c0360eb14610293578063715018a6146102b15780638da5cb5b146102bb57806394bf804d146102d957610158565b806306fdde031461015d5780631cd4afee1461017b5780634b04d6aa146101975780634b97aed9146101c75780634cf12d26146101e55780635bf8633a14610215575b600080fd5b6101656104c3565b6040516101729190611ed7565b60405180910390f35b610195600480360381019061019091906119c6565b610500565b005b6101b160048036038101906101ac91906119c6565b610561565b6040516101be9190612022565b60405180910390f35b6101cf61058f565b6040516101dc9190612022565b60405180910390f35b6101ff60048036038101906101fa91906119c6565b610594565b60405161020c9190611ed7565b60405180910390f35b61021d610631565b60405161022a9190611e71565b60405180910390f35b61024d60048036038101906102489190611aee565b610657565b60405161025a9190611ebc565b60405180910390f35b61027d60048036038101906102789190611aee565b61065e565b60405161028a9190611e71565b60405180910390f35b61029b61066f565b6040516102a89190611ed7565b60405180910390f35b6102b96106fd565b005b6102c3610837565b6040516102d09190611e71565b60405180910390f35b6102f360048036038101906102ee9190611b40565b610860565b005b6102fd610864565b60405161030a9190611ed7565b60405180910390f35b61032d600480360381019061032891906119c6565b6108a1565b60405161033a9190612022565b60405180910390f35b61035d600480360381019061035891906119c6565b6108f2565b60405161036a9190612022565b60405180910390f35b61038d60048036038101906103889190611a9a565b610920565b005b6103a960048036038101906103a49190611a07565b610a64565b005b6103b3610bc9565b6040516103c09190611ebc565b60405180910390f35b6103e360048036038101906103de9190611aee565b610bd2565b6040516103f09190611ed7565b60405180910390f35b610401610c77565b60405161040e9190611e71565b60405180910390f35b610431600480360381019061042c91906119c6565b610c9d565b60405161043e9190612022565b60405180910390f35b610461600480360381019061045c9190611961565b610cf0565b60405161046e9190611ebc565b60405180910390f35b610491600480360381019061048c9190611938565b610ea4565b005b6104ad60048036038101906104a89190611a9a565b610f39565b6040516104ba9190611ebc565b60405180910390f35b60606040518060400160405280601181526020017f536f756c467261676d656e742053616c65000000000000000000000000000000815250905090565b6000816040516020016105139190611ed7565b604051602081830303815290604052805190602001209050600460405161053990611e5c565b90815260200160405180910390206000815480929190610558906122ec565b91905055505050565b6004818051602081018201805184825260208301602085012081835280955050505050506000915090505481565b600090565b606061062a600380546105a6906122ba565b80601f01602080910402602001604051908101604052809291908181526020018280546105d2906122ba565b801561061f5780601f106105f45761010080835404028352916020019161061f565b820191906000526020600020905b81548152906001019060200180831161060257829003601f168201915b505050505083610f9d565b9050919050565b600260009054906101000a900473ffffffffffffffffffffffffffffffffffffffff1681565b6000919050565b6000610668610837565b9050919050565b6003805461067c906122ba565b80601f01602080910402602001604051908101604052809291908181526020018280546106a8906122ba565b80156106f55780601f106106ca576101008083540402835291602001916106f5565b820191906000526020600020905b8154815290600101906020018083116106d857829003601f168201915b505050505081565b610705610fe1565b73ffffffffffffffffffffffffffffffffffffffff16610723610837565b73ffffffffffffffffffffffffffffffffffffffff1614610779576040517f08c379a000000000000000000000000000000000000000000000000000000000815260040161077090611fe2565b60405180910390fd5b600073ffffffffffffffffffffffffffffffffffffffff1660008054906101000a900473ffffffffffffffffffffffffffffffffffffffff1673ffffffffffffffffffffffffffffffffffffffff167f8be0079c531659141344cd1fd0a4f28419497f9722a3daafe3b4186f6b6457e060405160405180910390a360008060006101000a81548173ffffffffffffffffffffffffffffffffffffffff021916908373ffffffffffffffffffffffffffffffffffffffff160217905550565b60008060009054906101000a900473ffffffffffffffffffffffffffffffffffffffff16905090565b5050565b60606040518060400160405280600581526020017f534f554c53000000000000000000000000000000000000000000000000000000815250905090565b600080826040516020016108b59190611ed7565b60405160208183030381529060405280519060200120905060046040516108db90611e5c565b908152602001604051809103902054915050919050565b6005818051602081018201805184825260208301602085012081835280955050505050506000915090505481565b6000826040516020016109339190611ed7565b604051602081830303815290604052805190602001209050600060048460405161095d9190611e45565b90815260200160405180910390205414156109cf57816004846040516109839190611e45565b9081526020016040518091039020819055507f266e285da3ba3b0e44b6a0bf71ee161df96ed9c245fc3e3a003b7050a9da5bd883836040516109c6929190611f3c565b60405180910390a15b7f266e285da3ba3b0e44b6a0bf71ee161df96ed9c245fc3e3a003b7050a9da5bd88383604051610a00929190611f7f565b60405180910390a17f266e285da3ba3b0e44b6a0bf71ee161df96ed9c245fc3e3a003b7050a9da5bd883600485604051610a3a9190611e45565b908152602001604051809103902054604051610a57929190611ef9565b60405180910390a1505050565b600081604051602001610a779190611ed7565b604051602081830303815290604052805190602001209050610a998284610f39565b610ad8576040517f08c379a0000000000000000000000000000000000000000000000000000000008152600401610acf90612002565b60405180910390fd5b6000600260009054906101000a900473ffffffffffffffffffffffffffffffffffffffff1690508073ffffffffffffffffffffffffffffffffffffffff16633d02d0c986886040518363ffffffff1660e01b8152600401610b3a929190611e8c565b602060405180830381600087803b158015610b5457600080fd5b505af1158015610b68573d6000803e3d6000fd5b505050506040513d601f19601f82011682018060405250810190610b8c9190611b17565b50600583604051610b9d9190611e45565b90815260200160405180910390206000815480929190610bbc906122ec565b9190505550505050505050565b60006001905090565b6060610c7060038054610be4906122ba565b80601f0160208091040260200160405190810160405280929190818152602001828054610c10906122ba565b8015610c5d5780601f10610c3257610100808354040283529160200191610c5d565b820191906000526020600020905b815481529060010190602001808311610c4057829003601f168201915b5050505050610c6b84610fe9565b610f9d565b9050919050565b600160009054906101000a900473ffffffffffffffffffffffffffffffffffffffff1681565b60008082604051602001610cb19190611ed7565b604051602081830303815290604052805190602001209050600483604051610cd99190611e45565b908152602001604051809103902054915050919050565b60008273ffffffffffffffffffffffffffffffffffffffff16610d11610837565b73ffffffffffffffffffffffffffffffffffffffff16148015610d5f57508173ffffffffffffffffffffffffffffffffffffffff168373ffffffffffffffffffffffffffffffffffffffff16145b15610d6d5760019050610e9e565b6000600160009054906101000a900473ffffffffffffffffffffffffffffffffffffffff1690508373ffffffffffffffffffffffffffffffffffffffff16610db3610837565b73ffffffffffffffffffffffffffffffffffffffff16148015610e8957508273ffffffffffffffffffffffffffffffffffffffff168173ffffffffffffffffffffffffffffffffffffffff1663c4552791866040518263ffffffff1660e01b8152600401610e219190611e71565b60206040518083038186803b158015610e3957600080fd5b505afa158015610e4d573d6000803e3d6000fd5b505050506040513d601f19601f82011682018060405250810190610e71919061199d565b73ffffffffffffffffffffffffffffffffffffffff16145b15610e98576001915050610e9e565b60009150505b92915050565b610eac610fe1565b73ffffffffffffffffffffffffffffffffffffffff16610eca610837565b73ffffffffffffffffffffffffffffffffffffffff1614610f20576040517f08c379a0000000000000000000000000000000000000000000000000000000008152600401610f1790611fe2565b60405180910390fd5b6000610f2a610837565b9050610f35826111be565b5050565b6000600583604051610f4b9190611e45565b908152602001604051809103902054600484604051610f6a9190611e45565b908152602001604051809103902054610f8391906121dd565b8211610f925760019050610f97565b600090505b92915050565b6060610fd98383604051806020016040528060008152506040518060200160405280600081525060405180602001604052806000815250611367565b905092915050565b600033905090565b60606000821415611031576040518060400160405280600181526020017f300000000000000000000000000000000000000000000000000000000000000081525090506111b9565b600082905060005b6000821461106357808061104c906122ec565b915050600a8261105c9190612152565b9150611039565b60008167ffffffffffffffff8111156110a5577f4e487b7100000000000000000000000000000000000000000000000000000000600052604160045260246000fd5b6040519080825280601f01601f1916602001820160405280156110d75781602001600182028036833780820191505090505b50905060008290505b600086146111b1576001816110f591906121dd565b90506000600a80886111079190612152565b6111119190612183565b8761111c91906121dd565b6030611128919061211b565b905060008160f81b90508084848151811061116c577f4e487b7100000000000000000000000000000000000000000000000000000000600052603260045260246000fd5b60200101907effffffffffffffffffffffffffffffffffffffffffffffffffffffffffffff1916908160001a905350600a886111a89190612152565b975050506110e0565b819450505050505b919050565b6111c6610fe1565b73ffffffffffffffffffffffffffffffffffffffff166111e4610837565b73ffffffffffffffffffffffffffffffffffffffff161461123a576040517f08c379a000000000000000000000000000000000000000000000000000000000815260040161123190611fe2565b60405180910390fd5b600073ffffffffffffffffffffffffffffffffffffffff168173ffffffffffffffffffffffffffffffffffffffff1614156112aa576040517f08c379a00000000000000000000000000000000000000000000000000000000081526004016112a190611fc2565b60405180910390fd5b8073ffffffffffffffffffffffffffffffffffffffff1660008054906101000a900473ffffffffffffffffffffffffffffffffffffffff1673ffffffffffffffffffffffffffffffffffffffff167f8be0079c531659141344cd1fd0a4f28419497f9722a3daafe3b4186f6b6457e060405160405180910390a3806000806101000a81548173ffffffffffffffffffffffffffffffffffffffff021916908373ffffffffffffffffffffffffffffffffffffffff16021790555050565b60606000869050600086905060008690506000869050600086905060008151835185518751895161139891906120c5565b6113a291906120c5565b6113ac91906120c5565b6113b691906120c5565b67ffffffffffffffff8111156113f5577f4e487b7100000000000000000000000000000000000000000000000000000000600052604160045260246000fd5b6040519080825280601f01601f1916602001820160405280156114275781602001600182028036833780820191505090505b50905060008190506000805b885181101561150757888181518110611475577f4e487b7100000000000000000000000000000000000000000000000000000000600052603260045260246000fd5b602001015160f81c60f81b83838061148c906122ec565b9450815181106114c5577f4e487b7100000000000000000000000000000000000000000000000000000000600052603260045260246000fd5b60200101907effffffffffffffffffffffffffffffffffffffffffffffffffffffffffffff1916908160001a90535080806114ff906122ec565b915050611433565b5060005b87518110156115df5787818151811061154d577f4e487b7100000000000000000000000000000000000000000000000000000000600052603260045260246000fd5b602001015160f81c60f81b838380611564906122ec565b94508151811061159d577f4e487b7100000000000000000000000000000000000000000000000000000000600052603260045260246000fd5b60200101907effffffffffffffffffffffffffffffffffffffffffffffffffffffffffffff1916908160001a90535080806115d7906122ec565b91505061150b565b5060005b86518110156116b757868181518110611625577f4e487b7100000000000000000000000000000000000000000000000000000000600052603260045260246000fd5b602001015160f81c60f81b83838061163c906122ec565b945081518110611675577f4e487b7100000000000000000000000000000000000000000000000000000000600052603260045260246000fd5b60200101907effffffffffffffffffffffffffffffffffffffffffffffffffffffffffffff1916908160001a90535080806116af906122ec565b9150506115e3565b5060005b855181101561178f578581815181106116fd577f4e487b7100000000000000000000000000000000000000000000000000000000600052603260045260246000fd5b602001015160f81c60f81b838380611714906122ec565b94508151811061174d577f4e487b7100000000000000000000000000000000000000000000000000000000600052603260045260246000fd5b60200101907effffffffffffffffffffffffffffffffffffffffffffffffffffffffffffff1916908160001a9053508080611787906122ec565b9150506116bb565b5060005b8451811015611867578481815181106117d5577f4e487b7100000000000000000000000000000000000000000000000000000000600052603260045260246000fd5b602001015160f81c60f81b8383806117ec906122ec565b945081518110611825577f4e487b7100000000000000000000000000000000000000000000000000000000600052603260045260246000fd5b60200101907effffffffffffffffffffffffffffffffffffffffffffffffffffffffffffff1916908160001a905350808061185f906122ec565b915050611793565b50819850505050505050505095945050505050565b600061188f61188a8461206e565b61203d565b9050828152602081018484840111156118a757600080fd5b6118b2848285612278565b509392505050565b6000813590506118c981612402565b92915050565b6000815190506118de81612419565b92915050565b600082601f8301126118f557600080fd5b813561190584826020860161187c565b91505092915050565b60008135905061191d81612430565b92915050565b60008151905061193281612430565b92915050565b60006020828403121561194a57600080fd5b6000611958848285016118ba565b91505092915050565b6000806040838503121561197457600080fd5b6000611982858286016118ba565b9250506020611993858286016118ba565b9150509250929050565b6000602082840312156119af57600080fd5b60006119bd848285016118cf565b91505092915050565b6000602082840312156119d857600080fd5b600082013567ffffffffffffffff8111156119f257600080fd5b6119fe848285016118e4565b91505092915050565b60008060008060808587031215611a1d57600080fd5b600085013567ffffffffffffffff811115611a3757600080fd5b611a43878288016118e4565b9450506020611a54878288016118ba565b9350506040611a658782880161190e565b925050606085013567ffffffffffffffff811115611a8257600080fd5b611a8e878288016118e4565b91505092959194509250565b60008060408385031215611aad57600080fd5b600083013567ffffffffffffffff811115611ac757600080fd5b611ad3858286016118e4565b9250506020611ae48582860161190e565b9150509250929050565b600060208284031215611b0057600080fd5b6000611b0e8482850161190e565b91505092915050565b600060208284031215611b2957600080fd5b6000611b3784828501611923565b91505092915050565b60008060408385031215611b5357600080fd5b6000611b618582860161190e565b9250506020611b72858286016118ba565b9150509250929050565b611b8581612211565b82525050565b611b9481612223565b82525050565b6000611ba58261209e565b611baf81856120a9565b9350611bbf818560208601612287565b611bc8816123f1565b840191505092915050565b6000611bde8261209e565b611be881856120ba565b9350611bf8818560208601612287565b80840191505092915050565b6000611c116026836120a9565b91507f4f776e61626c653a206e6577206f776e657220697320746865207a65726f206160008301527f64647265737300000000000000000000000000000000000000000000000000006020830152604082019050919050565b6000611c776021836120a9565b91507f7365744d6178467261676d656e74537570706c792077697468206d617070696e60008301527f67000000000000000000000000000000000000000000000000000000000000006020830152604082019050919050565b6000611cdd601e836120a9565b91507f7365744d6178467261676d656e74537570706c7920696e7369646520696600006000830152602082019050919050565b6000611d1d601f836120a9565b91507f7365744d6178467261676d656e74537570706c79206f757473696465206966006000830152602082019050919050565b6000611d5d6020836120a9565b91507f4f776e61626c653a2063616c6c6572206973206e6f7420746865206f776e65726000830152602082019050919050565b6000611d9d6004836120ba565b91507f74657374000000000000000000000000000000000000000000000000000000006000830152600482019050919050565b6000611ddd6025836120a9565b91507f7265717565737420697320686967686572207468616e20746865206d6178207360008301527f7570706c790000000000000000000000000000000000000000000000000000006020830152604082019050919050565b611e3f81612261565b82525050565b6000611e518284611bd3565b915081905092915050565b6000611e6782611d90565b9150819050919050565b6000602082019050611e866000830184611b7c565b92915050565b6000604082019050611ea16000830185611b7c565b8181036020830152611eb38184611b9a565b90509392505050565b6000602082019050611ed16000830184611b8b565b92915050565b60006020820190508181036000830152611ef18184611b9a565b905092915050565b60006060820190508181036000830152611f138185611b9a565b9050611f226020830184611e36565b8181036040830152611f3381611c6a565b90509392505050565b60006060820190508181036000830152611f568185611b9a565b9050611f656020830184611e36565b8181036040830152611f7681611cd0565b90509392505050565b60006060820190508181036000830152611f998185611b9a565b9050611fa86020830184611e36565b8181036040830152611fb981611d10565b90509392505050565b60006020820190508181036000830152611fdb81611c04565b9050919050565b60006020820190508181036000830152611ffb81611d50565b9050919050565b6000602082019050818103600083015261201b81611dd0565b9050919050565b60006020820190506120376000830184611e36565b92915050565b6000604051905081810181811067ffffffffffffffff82111715612064576120636123c2565b5b8060405250919050565b600067ffffffffffffffff821115612089576120886123c2565b5b601f19601f8301169050602081019050919050565b600081519050919050565b600082825260208201905092915050565b600081905092915050565b60006120d082612261565b91506120db83612261565b9250827fffffffffffffffffffffffffffffffffffffffffffffffffffffffffffffffff038211156121105761210f612335565b5b828201905092915050565b60006121268261226b565b91506121318361226b565b92508260ff0382111561214757612146612335565b5b828201905092915050565b600061215d82612261565b915061216883612261565b92508261217857612177612364565b5b828204905092915050565b600061218e82612261565b915061219983612261565b9250817fffffffffffffffffffffffffffffffffffffffffffffffffffffffffffffffff04831182151516156121d2576121d1612335565b5b828202905092915050565b60006121e882612261565b91506121f383612261565b92508282101561220657612205612335565b5b828203905092915050565b600061221c82612241565b9050919050565b60008115159050919050565b600061223a82612211565b9050919050565b600073ffffffffffffffffffffffffffffffffffffffff82169050919050565b6000819050919050565b600060ff82169050919050565b82818337600083830152505050565b60005b838110156122a557808201518184015260208101905061228a565b838111156122b4576000848401525b50505050565b600060028204905060018216806122d257607f821691505b602082108114156122e6576122e5612393565b5b50919050565b60006122f782612261565b91507fffffffffffffffffffffffffffffffffffffffffffffffffffffffffffffffff82141561232a57612329612335565b5b600182019050919050565b7f4e487b7100000000000000000000000000000000000000000000000000000000600052601160045260246000fd5b7f4e487b7100000000000000000000000000000000000000000000000000000000600052601260045260246000fd5b7f4e487b7100000000000000000000000000000000000000000000000000000000600052602260045260246000fd5b7f4e487b7100000000000000000000000000000000000000000000000000000000600052604160045260246000fd5b6000601f19601f8301169050919050565b61240b81612211565b811461241657600080fd5b50565b6124228161222f565b811461242d57600080fd5b50565b61243981612261565b811461244457600080fd5b5056fea26469706673582212201a663c934249704e2bb476960197d9c23fd364d4afd989a6d34a6b15b279a5bb64736f6c6343000800003368747470733a2f2f676174657761792e70696e6174612e636c6f75642f697066732f",
  "immutableReferences": {},
  "source": "// SPDX-License-Identifier: MIT\r\npragma solidity ^0.8.0;\r\n\r\nimport \"@openzeppelin/contracts/access/Ownable.sol\";\r\nimport \"./IFactoryERC721.sol\";\r\nimport \"./SoulFragment.sol\";\r\nimport \"./StringUtils.sol\";\r\nimport './SoulLootBox.sol';\r\n\r\ncontract SoulFragmentFactory is IFactoryERC721, Ownable {\r\n    using Strings for string;\r\n\r\n    // event Transfer(\r\n    //     address indexed from,\r\n    //     address indexed to,\r\n    //     uint256 indexed tokenId\r\n    // );\r\n\r\n    address public proxyRegistryAddress;\r\n    address public nftAddress;\r\n    string public baseURI = \"https://gateway.pinata.cloud/ipfs/\";\r\n\r\n    mapping (string => uint) public maxFragmentSupply; \r\n    mapping (string => uint) public currentFragmentCount; \r\n\r\n\r\n\r\n    // /*\r\n    //  * Enforce the existence of only 100 OpenSea souls.\r\n    //  */\r\n    // uint256 SOUL_SUPPLY = 100;\r\n\r\n    // /*\r\n    //  * Three different options for minting Souls (basic, premium, and gold).\r\n    //  */\r\n    // uint256 NUM_OPTIONS = 3;\r\n    // uint256 SINGLE_SOUL_OPTION = 0;\r\n    // uint256 MULTIPLE_SOUL_OPTION = 1;\r\n    // uint256 LOOTBOX_OPTION = 2;\r\n    // uint256 NUM_SOULS_IN_MULTIPLE_SOUL_OPTION = 4;\r\n\r\n    constructor(address _proxyRegistryAddress, address _nftAddress) public {\r\n        proxyRegistryAddress = _proxyRegistryAddress;\r\n        nftAddress = _nftAddress;\r\n        // lootBoxNftAddress = address(\r\n        //     new SoulLootBox(_proxyRegistryAddress, address(this))\r\n        // );\r\n\r\n     //   fireTransferEvents(address(0), owner());\r\n    }\r\n\r\n    function name() external override view returns (string memory) {\r\n        return \"SoulFragment Sale\";\r\n    }\r\n\r\n    function symbol() external override view returns (string memory) {\r\n        return \"SOULS\";\r\n    }\r\n\r\n    function supportsFactoryInterface() public override view returns (bool) {\r\n        return true;\r\n    }\r\n\r\n    function numOptions() public override view returns (uint256) {\r\n        //return NUM_OPTIONS;\r\n        return 0;\r\n    }\r\n\r\n    function transferOwnership(address newOwner) public override onlyOwner {\r\n        address _prevOwner = owner();\r\n        super.transferOwnership(newOwner);\r\n     //   fireTransferEvents(_prevOwner, newOwner);\r\n    }\r\n\r\n    // function fireTransferEvents(address _from, address _to) private {\r\n    //     for (uint256 i = 0; i < NUM_OPTIONS; i++) {\r\n    //         emit Transfer(_from, _to, i);\r\n    //     }\r\n    // }\r\n\r\n    function mint(uint256 _optionId, address _toAddress) public override {\r\n        // Must be sent from the owner proxy or owner.\r\n        // ProxyRegistry proxyRegistry = ProxyRegistry(proxyRegistryAddress);\r\n        // assert(\r\n        //     address(proxyRegistry.proxies(owner())) == msg.sender ||\r\n        //         owner() == msg.sender ||\r\n        //         msg.sender == lootBoxNftAddress\r\n        // );\r\n        // require(canMint(_optionId));\r\n\r\n        // SoulFragment openSeaSoul = SoulFragment(nftAddress);\r\n        // if (_optionId == SINGLE_SOUL_OPTION) {\r\n        //     openSeaSoul.mintTo(_toAddress);\r\n        // } else if (_optionId == MULTIPLE_SOUL_OPTION) {\r\n        //     for (\r\n        //         uint256 i = 0;\r\n        //         i < NUM_SOULS_IN_MULTIPLE_SOUL_OPTION;\r\n        //         i++\r\n        //     ) {\r\n        //         openSeaSoul.mintTo(_toAddress);\r\n        //     }\r\n        // } else if (_optionId == LOOTBOX_OPTION) {\r\n        //     SoulLootBox openSeaSoulLootBox = SoulLootBox(\r\n        //         lootBoxNftAddress\r\n        //     );\r\n        //     openSeaSoulLootBox.mintTo(_toAddress);\r\n        // }\r\n    }\r\n\r\n    event testSupplyChange(string name, uint amount, string message);\r\n\r\n    //Can only ever be set once\r\n    function setMaxFragmentSupply(string memory soulName, uint total) public {\r\n        bytes5 hashed = bytes5(keccak256(abi.encode(soulName)));\r\n        if(maxFragmentSupply[soulName] == 0) {\r\n            maxFragmentSupply[soulName] = total;\r\n            emit testSupplyChange(soulName, total, \"setMaxFragmentSupply inside if\");\r\n        }\r\n        emit testSupplyChange(soulName, total, \"setMaxFragmentSupply outside if\");\r\n        emit testSupplyChange(soulName, maxFragmentSupply[soulName], \"setMaxFragmentSupply with mapping\");\r\n    }\r\n\r\n    function testGetMaxFragmentSupply(string memory soulName) public  {\r\n        bytes5 hashed = bytes5(keccak256(abi.encode(soulName)));\r\n        maxFragmentSupply[\"test\"]++;\r\n    }\r\n\r\n    function gettestGetMaxFragmentSupply(string memory soulName) public view returns (uint) {\r\n        bytes5 hashed = bytes5(keccak256(abi.encode(soulName)));\r\n        return maxFragmentSupply[\"test\"];\r\n    }\r\n\r\n    function getMaxFragmentSupply(string memory soulName) public view returns (uint)  {\r\n        bytes5 hashed = bytes5(keccak256(abi.encode(soulName)));\r\n        return maxFragmentSupply[soulName];\r\n    }\r\n\r\n    function mintTokenURI(string memory _tokenURI, address _toAddress, uint totalRequest, string memory soulName) public {\r\n        bytes5 hashed = bytes5(keccak256(abi.encode(soulName)));\r\n        require(_canMint(soulName, totalRequest), \"request is higher than the max supply\");\r\n        SoulFragment openSeaSoul = SoulFragment(nftAddress);\r\n        openSeaSoul.mintToken(_toAddress, _tokenURI);\r\n        currentFragmentCount[soulName]++;\r\n    }\r\n\r\n    function _canMint(string memory soulName, uint totalRequest) public view returns (bool) {\r\n        if(totalRequest <= (maxFragmentSupply[soulName] - currentFragmentCount[soulName])) {\r\n            return true;\r\n        }\r\n        return false;\r\n    }\r\n\r\n    function canMint(uint256 _optionId) public override view returns (bool) {\r\n        return false;\r\n        // if (_optionId >= NUM_OPTIONS) {\r\n        //     return false;\r\n        // }\r\n\r\n        // SoulFragment openSeaSoul = SoulFragment(nftAddress);\r\n        // uint256 soulSupply = openSeaSoul.totalSupply(_optionId);\r\n\r\n        // uint256 numItemsAllocated = 0;\r\n        // if (_optionId == SINGLE_SOUL_OPTION) {\r\n        //     numItemsAllocated = 1;\r\n        // } else if (_optionId == MULTIPLE_SOUL_OPTION) {\r\n        //     numItemsAllocated = NUM_SOULS_IN_MULTIPLE_SOUL_OPTION;\r\n        // } else if (_optionId == LOOTBOX_OPTION) {\r\n        //     SoulLootBox openSeaSoulLootBox = SoulLootBox(\r\n        //         lootBoxNftAddress\r\n        //     );\r\n        //     numItemsAllocated = openSeaSoulLootBox.itemsPerLootbox();\r\n        // }\r\n        // return soulSupply < (SOUL_SUPPLY - numItemsAllocated);\r\n    }\r\n\r\n    function tokenURI(uint256 _optionId) external override view returns (string memory) {\r\n        return StringUtils.strConcat(baseURI, StringUtils.uint2str(_optionId));\r\n    }\r\n\r\n    function tokenURI(string memory metadataURI) external view returns (string memory) {\r\n        return StringUtils.strConcat(baseURI, metadataURI);\r\n    }\r\n\r\n    // /**\r\n    //  * Hack to get things to work automatically on OpenSea.\r\n    //  * Use transferFrom so the frontend doesn't have to worry about different method names.\r\n    //  */\r\n    // function transferFrom(\r\n    //     address _from,\r\n    //     address _to,\r\n    //     uint256 _tokenId\r\n    // ) public {\r\n    //     mint(_tokenId, _to);\r\n    // }\r\n\r\n    /**\r\n     * Hack to get things to work automatically on OpenSea.\r\n     * Use isApprovedForAll so the frontend doesn't have to worry about different method names.\r\n     */\r\n    function isApprovedForAll(address _owner, address _operator)\r\n        public\r\n        view\r\n        returns (bool)\r\n    {\r\n        if (owner() == _owner && _owner == _operator) {\r\n            return true;\r\n        }\r\n\r\n        ProxyRegistry proxyRegistry = ProxyRegistry(proxyRegistryAddress);\r\n        if (\r\n            owner() == _owner &&\r\n            address(proxyRegistry.proxies(_owner)) == _operator\r\n        ) {\r\n            return true;\r\n        }\r\n\r\n        return false;\r\n    }\r\n\r\n    /**\r\n     * Hack to get things to work automatically on OpenSea.\r\n     * Use isApprovedForAll so the frontend doesn't have to worry about different method names.\r\n     */\r\n    function ownerOf(uint256 _tokenId) public view returns (address _owner) {\r\n        return owner();\r\n    }\r\n}",
  "sourcePath": "C:\\Users\\editr\\OneDrive\\Desktop\\etherprojects\\SoulSwap\\contracts\\SoulFragmentFactory.sol",
  "compiler": {
    "name": "solc",
    "version": "0.8.0+commit.c7dfd78e.Emscripten.clang"
  },
  "schemaVersion": "3.3.3",
  "updatedAt": "2021-05-06T05:58:35.222Z",
  "networkType": "ethereum",
  "devdoc": {
    "kind": "dev",
    "methods": {
      "canMint(uint256)": {
        "details": "Returns whether the option ID can be minted. Can return false if the developer wishes to restrict a total supply per option ID (or overall)."
      },
      "mint(uint256,address)": {
        "details": "Mints asset(s) in accordance to a specific address with a particular \"option\". This should be callable only by the contract owner or the owner's Wyvern Proxy (later universal login will solve this). Options should also be delineated 0 - (numOptions() - 1) for convenient indexing.",
        "params": {
          "_optionId": "the option id",
          "_toAddress": "address of the future owner of the asset(s)"
        }
      },
      "owner()": {
        "details": "Returns the address of the current owner."
      },
      "renounceOwnership()": {
        "details": "Leaves the contract without owner. It will not be possible to call `onlyOwner` functions anymore. Can only be called by the current owner. NOTE: Renouncing ownership will leave the contract without an owner, thereby removing any functionality that is only available to the owner."
      },
      "tokenURI(uint256)": {
        "details": "Returns a URL specifying some metadata about the option. This metadata can be of the same structure as the ERC721 metadata."
      },
      "transferOwnership(address)": {
        "details": "Transfers ownership of the contract to a new account (`newOwner`). Can only be called by the current owner."
      }
    },
    "version": 1
  },
  "userdoc": {
    "kind": "user",
    "methods": {
      "isApprovedForAll(address,address)": {
        "notice": "Hack to get things to work automatically on OpenSea. Use isApprovedForAll so the frontend doesn't have to worry about different method names."
      },
      "name()": {
        "notice": "Returns the name of this factory."
      },
      "numOptions()": {
        "notice": "Number of options the factory supports."
      },
      "ownerOf(uint256)": {
        "notice": "Hack to get things to work automatically on OpenSea. Use isApprovedForAll so the frontend doesn't have to worry about different method names."
      },
      "supportsFactoryInterface()": {
        "notice": "Indicates that this is a factory contract. Ideally would use EIP 165 supportsInterface()"
      },
      "symbol()": {
        "notice": "Returns the symbol for this factory."
      }
    },
    "version": 1
  }
}