{
  "contractName": "SoulFragmentFactory",
  "abi": [
    {
      "inputs": [
        {
          "internalType": "address",
          "name": "_proxyRegistryAddress",
          "type": "address"
        },
        {
          "internalType": "address",
          "name": "_nftAddress",
          "type": "address"
        }
      ],
      "stateMutability": "nonpayable",
      "type": "constructor"
    },
    {
      "anonymous": false,
      "inputs": [
        {
          "indexed": true,
          "internalType": "address",
          "name": "previousOwner",
          "type": "address"
        },
        {
          "indexed": true,
          "internalType": "address",
          "name": "newOwner",
          "type": "address"
        }
      ],
      "name": "OwnershipTransferred",
      "type": "event"
    },
    {
      "anonymous": false,
      "inputs": [
        {
          "indexed": true,
          "internalType": "address",
          "name": "from",
          "type": "address"
        },
        {
          "indexed": true,
          "internalType": "address",
          "name": "to",
          "type": "address"
        },
        {
          "indexed": true,
          "internalType": "uint256",
          "name": "tokenId",
          "type": "uint256"
        }
      ],
      "name": "Transfer",
      "type": "event"
    },
    {
      "inputs": [],
      "name": "baseURI",
      "outputs": [
        {
          "internalType": "string",
          "name": "",
          "type": "string"
        }
      ],
      "stateMutability": "view",
      "type": "function",
      "constant": true
    },
    {
      "inputs": [],
      "name": "lootBoxNftAddress",
      "outputs": [
        {
          "internalType": "address",
          "name": "",
          "type": "address"
        }
      ],
      "stateMutability": "view",
      "type": "function",
      "constant": true
    },
    {
      "inputs": [],
      "name": "nftAddress",
      "outputs": [
        {
          "internalType": "address",
          "name": "",
          "type": "address"
        }
      ],
      "stateMutability": "view",
      "type": "function",
      "constant": true
    },
    {
      "inputs": [],
      "name": "owner",
      "outputs": [
        {
          "internalType": "address",
          "name": "",
          "type": "address"
        }
      ],
      "stateMutability": "view",
      "type": "function",
      "constant": true
    },
    {
      "inputs": [],
      "name": "proxyRegistryAddress",
      "outputs": [
        {
          "internalType": "address",
          "name": "",
          "type": "address"
        }
      ],
      "stateMutability": "view",
      "type": "function",
      "constant": true
    },
    {
      "inputs": [],
      "name": "renounceOwnership",
      "outputs": [],
      "stateMutability": "nonpayable",
      "type": "function"
    },
    {
      "inputs": [],
      "name": "name",
      "outputs": [
        {
          "internalType": "string",
          "name": "",
          "type": "string"
        }
      ],
      "stateMutability": "view",
      "type": "function",
      "constant": true
    },
    {
      "inputs": [],
      "name": "symbol",
      "outputs": [
        {
          "internalType": "string",
          "name": "",
          "type": "string"
        }
      ],
      "stateMutability": "view",
      "type": "function",
      "constant": true
    },
    {
      "inputs": [],
      "name": "supportsFactoryInterface",
      "outputs": [
        {
          "internalType": "bool",
          "name": "",
          "type": "bool"
        }
      ],
      "stateMutability": "view",
      "type": "function",
      "constant": true
    },
    {
      "inputs": [],
      "name": "numOptions",
      "outputs": [
        {
          "internalType": "uint256",
          "name": "",
          "type": "uint256"
        }
      ],
      "stateMutability": "view",
      "type": "function",
      "constant": true
    },
    {
      "inputs": [
        {
          "internalType": "address",
          "name": "newOwner",
          "type": "address"
        }
      ],
      "name": "transferOwnership",
      "outputs": [],
      "stateMutability": "nonpayable",
      "type": "function"
    },
    {
      "inputs": [
        {
          "internalType": "uint256",
          "name": "_optionId",
          "type": "uint256"
        },
        {
          "internalType": "address",
          "name": "_toAddress",
          "type": "address"
        }
      ],
      "name": "mint",
      "outputs": [],
      "stateMutability": "nonpayable",
      "type": "function"
    },
    {
      "inputs": [
        {
          "internalType": "uint256",
          "name": "_optionId",
          "type": "uint256"
        }
      ],
      "name": "canMint",
      "outputs": [
        {
          "internalType": "bool",
          "name": "",
          "type": "bool"
        }
      ],
      "stateMutability": "view",
      "type": "function",
      "constant": true
    },
    {
      "inputs": [
        {
          "internalType": "uint256",
          "name": "_optionId",
          "type": "uint256"
        }
      ],
      "name": "tokenURI",
      "outputs": [
        {
          "internalType": "string",
          "name": "",
          "type": "string"
        }
      ],
      "stateMutability": "view",
      "type": "function",
      "constant": true
    },
    {
      "inputs": [
        {
          "internalType": "address",
          "name": "_from",
          "type": "address"
        },
        {
          "internalType": "address",
          "name": "_to",
          "type": "address"
        },
        {
          "internalType": "uint256",
          "name": "_tokenId",
          "type": "uint256"
        }
      ],
      "name": "transferFrom",
      "outputs": [],
      "stateMutability": "nonpayable",
      "type": "function"
    },
    {
      "inputs": [
        {
          "internalType": "address",
          "name": "_owner",
          "type": "address"
        },
        {
          "internalType": "address",
          "name": "_operator",
          "type": "address"
        }
      ],
      "name": "isApprovedForAll",
      "outputs": [
        {
          "internalType": "bool",
          "name": "",
          "type": "bool"
        }
      ],
      "stateMutability": "view",
      "type": "function",
      "constant": true
    },
    {
      "inputs": [
        {
          "internalType": "uint256",
          "name": "_tokenId",
          "type": "uint256"
        }
      ],
      "name": "ownerOf",
      "outputs": [
        {
          "internalType": "address",
          "name": "_owner",
          "type": "address"
        }
      ],
      "stateMutability": "view",
      "type": "function",
      "constant": true
    }
  ],
  "bytecode": "0x608060405260405180606001604052806029815260200162005c1860299139600490805190602001906200003592919062000313565b50606460055560036006556000600755600160085560026009556004600a553480156200006157600080fd5b5060405162005c4138038062005c418339818101604052810190620000879190620003e8565b6000620000996200025e60201b60201c565b9050806000806101000a81548173ffffffffffffffffffffffffffffffffffffffff021916908373ffffffffffffffffffffffffffffffffffffffff1602179055508073ffffffffffffffffffffffffffffffffffffffff16600073ffffffffffffffffffffffffffffffffffffffff167f8be0079c531659141344cd1fd0a4f28419497f9722a3daafe3b4186f6b6457e060405160405180910390a35081600160006101000a81548173ffffffffffffffffffffffffffffffffffffffff021916908373ffffffffffffffffffffffffffffffffffffffff16021790555080600260006101000a81548173ffffffffffffffffffffffffffffffffffffffff021916908373ffffffffffffffffffffffffffffffffffffffff1602179055508130604051620001c990620003a4565b620001d69291906200043a565b604051809103906000f080158015620001f3573d6000803e3d6000fd5b50600360006101000a81548173ffffffffffffffffffffffffffffffffffffffff021916908373ffffffffffffffffffffffffffffffffffffffff1602179055506200025660006200024a6200026660201b60201c565b6200028f60201b60201c565b5050620005a1565b600033905090565b60008060009054906101000a900473ffffffffffffffffffffffffffffffffffffffff16905090565b60005b6006548110156200030e57808273ffffffffffffffffffffffffffffffffffffffff168473ffffffffffffffffffffffffffffffffffffffff167fddf252ad1be2c89b69c2b068fc378daa952ba7f163c4a11628f55a4df523b3ef60405160405180910390a480806200030590620004db565b91505062000292565b505050565b8280546200032190620004a5565b90600052602060002090601f01602090048101928262000345576000855562000391565b82601f106200036057805160ff191683800117855562000391565b8280016001018555821562000391579182015b828111156200039057825182559160200191906001019062000373565b5b509050620003a09190620003b2565b5090565b61374e80620024ca83390190565b5b80821115620003cd576000816000905550600101620003b3565b5090565b600081519050620003e28162000587565b92915050565b60008060408385031215620003fc57600080fd5b60006200040c85828601620003d1565b92505060206200041f85828601620003d1565b9150509250929050565b620004348162000467565b82525050565b600060408201905062000451600083018562000429565b62000460602083018462000429565b9392505050565b600062000474826200047b565b9050919050565b600073ffffffffffffffffffffffffffffffffffffffff82169050919050565b6000819050919050565b60006002820490506001821680620004be57607f821691505b60208210811415620004d557620004d462000558565b5b50919050565b6000620004e8826200049b565b91507fffffffffffffffffffffffffffffffffffffffffffffffffffffffffffffffff8214156200051e576200051d62000529565b5b600182019050919050565b7f4e487b7100000000000000000000000000000000000000000000000000000000600052601160045260246000fd5b7f4e487b7100000000000000000000000000000000000000000000000000000000600052602260045260246000fd5b620005928162000467565b81146200059e57600080fd5b50565b611f1980620005b16000396000f3fe608060405234801561001057600080fd5b506004361061010b5760003560e01c80638da5cb5b116100a2578063c87b56dd11610071578063c87b56dd14610284578063cd7c0326146102b4578063e985e9c5146102d2578063ec07d02e14610302578063f2fde38b146103205761010b565b80638da5cb5b1461020e57806394bf804d1461022c57806395d89b4114610248578063c311c523146102665761010b565b80635dd871a3116100de5780635dd871a3146101865780636352211e146101b65780636c0360eb146101e6578063715018a6146102045761010b565b806306fdde031461011057806323b872dd1461012e5780634b97aed91461014a5780635bf8633a14610168575b600080fd5b61011861033c565b6040516101259190611b06565b60405180910390f35b610148600480360381019061014391906118be565b610379565b005b610152610388565b60405161015f9190611b68565b60405180910390f35b610170610392565b60405161017d9190611ad0565b60405180910390f35b6101a0600480360381019061019b9190611936565b6103b8565b6040516101ad9190611aeb565b60405180910390f35b6101d060048036038101906101cb9190611936565b610579565b6040516101dd9190611ad0565b60405180910390f35b6101ee61058a565b6040516101fb9190611b06565b60405180910390f35b61020c610618565b005b610216610752565b6040516102239190611ad0565b60405180910390f35b61024660048036038101906102419190611988565b61077b565b005b610250610b1c565b60405161025d9190611b06565b60405180910390f35b61026e610b59565b60405161027b9190611aeb565b60405180910390f35b61029e60048036038101906102999190611936565b610b62565b6040516102ab9190611b06565b60405180910390f35b6102bc610c07565b6040516102c99190611ad0565b60405180910390f35b6102ec60048036038101906102e79190611882565b610c2d565b6040516102f99190611aeb565b60405180910390f35b61030a610de1565b6040516103179190611ad0565b60405180910390f35b61033a60048036038101906103359190611859565b610e07565b005b60606040518060400160405280601681526020017f4f70656e53656120536f756c204974656d2053616c6500000000000000000000815250905090565b610383818361077b565b505050565b6000600654905090565b600260009054906101000a900473ffffffffffffffffffffffffffffffffffffffff1681565b600060065482106103cc5760009050610574565b6000600260009054906101000a900473ffffffffffffffffffffffffffffffffffffffff16905060008173ffffffffffffffffffffffffffffffffffffffff1663bd85b039856040518263ffffffff1660e01b815260040161042e9190611b68565b60206040518083038186803b15801561044657600080fd5b505afa15801561045a573d6000803e3d6000fd5b505050506040513d601f19601f8201168201806040525081019061047e919061195f565b90506000600754851415610495576001905061055e565b6008548514156104a957600a54905061055d565b60095485141561055c576000600360009054906101000a900473ffffffffffffffffffffffffffffffffffffffff1690508073ffffffffffffffffffffffffffffffffffffffff166319d554e16040518163ffffffff1660e01b815260040160206040518083038186803b15801561052057600080fd5b505afa158015610534573d6000803e3d6000fd5b505050506040513d601f19601f82011682018060405250810190610558919061195f565b9150505b5b5b8060055461056c9190611cb7565b821093505050505b919050565b6000610583610752565b9050919050565b6004805461059790611d85565b80601f01602080910402602001604051908101604052809291908181526020018280546105c390611d85565b80156106105780601f106105e557610100808354040283529160200191610610565b820191906000526020600020905b8154815290600101906020018083116105f357829003601f168201915b505050505081565b610620610ea6565b73ffffffffffffffffffffffffffffffffffffffff1661063e610752565b73ffffffffffffffffffffffffffffffffffffffff1614610694576040517f08c379a000000000000000000000000000000000000000000000000000000000815260040161068b90611b48565b60405180910390fd5b600073ffffffffffffffffffffffffffffffffffffffff1660008054906101000a900473ffffffffffffffffffffffffffffffffffffffff1673ffffffffffffffffffffffffffffffffffffffff167f8be0079c531659141344cd1fd0a4f28419497f9722a3daafe3b4186f6b6457e060405160405180910390a360008060006101000a81548173ffffffffffffffffffffffffffffffffffffffff021916908373ffffffffffffffffffffffffffffffffffffffff160217905550565b60008060009054906101000a900473ffffffffffffffffffffffffffffffffffffffff16905090565b6000600160009054906101000a900473ffffffffffffffffffffffffffffffffffffffff1690503373ffffffffffffffffffffffffffffffffffffffff168173ffffffffffffffffffffffffffffffffffffffff1663c45527916107dd610752565b6040518263ffffffff1660e01b81526004016107f99190611ad0565b60206040518083038186803b15801561081157600080fd5b505afa158015610825573d6000803e3d6000fd5b505050506040513d601f19601f82011682018060405250810190610849919061190d565b73ffffffffffffffffffffffffffffffffffffffff16148061089d57503373ffffffffffffffffffffffffffffffffffffffff16610885610752565b73ffffffffffffffffffffffffffffffffffffffff16145b806108f55750600360009054906101000a900473ffffffffffffffffffffffffffffffffffffffff1673ffffffffffffffffffffffffffffffffffffffff163373ffffffffffffffffffffffffffffffffffffffff16145b610928577f4e487b7100000000000000000000000000000000000000000000000000000000600052600160045260246000fd5b610931836103b8565b61093a57600080fd5b6000600260009054906101000a900473ffffffffffffffffffffffffffffffffffffffff1690506007548414156109db578073ffffffffffffffffffffffffffffffffffffffff1663755edd17846040518263ffffffff1660e01b81526004016109a49190611ad0565b600060405180830381600087803b1580156109be57600080fd5b505af11580156109d2573d6000803e3d6000fd5b50505050610b16565b600854841415610a765760005b600a54811015610a70578173ffffffffffffffffffffffffffffffffffffffff1663755edd17856040518263ffffffff1660e01b8152600401610a2b9190611ad0565b600060405180830381600087803b158015610a4557600080fd5b505af1158015610a59573d6000803e3d6000fd5b505050508080610a6890611db7565b9150506109e8565b50610b15565b600954841415610b14576000600360009054906101000a900473ffffffffffffffffffffffffffffffffffffffff1690508073ffffffffffffffffffffffffffffffffffffffff1663755edd17856040518263ffffffff1660e01b8152600401610ae09190611ad0565b600060405180830381600087803b158015610afa57600080fd5b505af1158015610b0e573d6000803e3d6000fd5b50505050505b5b5b50505050565b60606040518060400160405280600481526020017f534f554c00000000000000000000000000000000000000000000000000000000815250905090565b60006001905090565b6060610c0060048054610b7490611d85565b80601f0160208091040260200160405190810160405280929190818152602001828054610ba090611d85565b8015610bed5780601f10610bc257610100808354040283529160200191610bed565b820191906000526020600020905b815481529060010190602001808311610bd057829003601f168201915b5050505050610bfb84610eae565b611083565b9050919050565b600160009054906101000a900473ffffffffffffffffffffffffffffffffffffffff1681565b60008273ffffffffffffffffffffffffffffffffffffffff16610c4e610752565b73ffffffffffffffffffffffffffffffffffffffff16148015610c9c57508173ffffffffffffffffffffffffffffffffffffffff168373ffffffffffffffffffffffffffffffffffffffff16145b15610caa5760019050610ddb565b6000600160009054906101000a900473ffffffffffffffffffffffffffffffffffffffff1690508373ffffffffffffffffffffffffffffffffffffffff16610cf0610752565b73ffffffffffffffffffffffffffffffffffffffff16148015610dc657508273ffffffffffffffffffffffffffffffffffffffff168173ffffffffffffffffffffffffffffffffffffffff1663c4552791866040518263ffffffff1660e01b8152600401610d5e9190611ad0565b60206040518083038186803b158015610d7657600080fd5b505afa158015610d8a573d6000803e3d6000fd5b505050506040513d601f19601f82011682018060405250810190610dae919061190d565b73ffffffffffffffffffffffffffffffffffffffff16145b15610dd5576001915050610ddb565b60009150505b92915050565b600360009054906101000a900473ffffffffffffffffffffffffffffffffffffffff1681565b610e0f610ea6565b73ffffffffffffffffffffffffffffffffffffffff16610e2d610752565b73ffffffffffffffffffffffffffffffffffffffff1614610e83576040517f08c379a0000000000000000000000000000000000000000000000000000000008152600401610e7a90611b48565b60405180910390fd5b6000610e8d610752565b9050610e98826110c7565b610ea28183611270565b5050565b600033905090565b60606000821415610ef6576040518060400160405280600181526020017f3000000000000000000000000000000000000000000000000000000000000000815250905061107e565b600082905060005b60008214610f28578080610f1190611db7565b915050600a82610f219190611c2c565b9150610efe565b60008167ffffffffffffffff811115610f6a577f4e487b7100000000000000000000000000000000000000000000000000000000600052604160045260246000fd5b6040519080825280601f01601f191660200182016040528015610f9c5781602001600182028036833780820191505090505b50905060008290505b6000861461107657600181610fba9190611cb7565b90506000600a8088610fcc9190611c2c565b610fd69190611c5d565b87610fe19190611cb7565b6030610fed9190611bf5565b905060008160f81b905080848481518110611031577f4e487b7100000000000000000000000000000000000000000000000000000000600052603260045260246000fd5b60200101907effffffffffffffffffffffffffffffffffffffffffffffffffffffffffffff1916908160001a905350600a8861106d9190611c2c565b97505050610fa5565b819450505050505b919050565b60606110bf83836040518060200160405280600081525060405180602001604052806000815250604051806020016040528060008152506112f0565b905092915050565b6110cf610ea6565b73ffffffffffffffffffffffffffffffffffffffff166110ed610752565b73ffffffffffffffffffffffffffffffffffffffff1614611143576040517f08c379a000000000000000000000000000000000000000000000000000000000815260040161113a90611b48565b60405180910390fd5b600073ffffffffffffffffffffffffffffffffffffffff168173ffffffffffffffffffffffffffffffffffffffff1614156111b3576040517f08c379a00000000000000000000000000000000000000000000000000000000081526004016111aa90611b28565b60405180910390fd5b8073ffffffffffffffffffffffffffffffffffffffff1660008054906101000a900473ffffffffffffffffffffffffffffffffffffffff1673ffffffffffffffffffffffffffffffffffffffff167f8be0079c531659141344cd1fd0a4f28419497f9722a3daafe3b4186f6b6457e060405160405180910390a3806000806101000a81548173ffffffffffffffffffffffffffffffffffffffff021916908373ffffffffffffffffffffffffffffffffffffffff16021790555050565b60005b6006548110156112eb57808273ffffffffffffffffffffffffffffffffffffffff168473ffffffffffffffffffffffffffffffffffffffff167fddf252ad1be2c89b69c2b068fc378daa952ba7f163c4a11628f55a4df523b3ef60405160405180910390a480806112e390611db7565b915050611273565b505050565b6060600086905060008690506000869050600086905060008690506000815183518551875189516113219190611b9f565b61132b9190611b9f565b6113359190611b9f565b61133f9190611b9f565b67ffffffffffffffff81111561137e577f4e487b7100000000000000000000000000000000000000000000000000000000600052604160045260246000fd5b6040519080825280601f01601f1916602001820160405280156113b05781602001600182028036833780820191505090505b50905060008190506000805b8851811015611490578881815181106113fe577f4e487b7100000000000000000000000000000000000000000000000000000000600052603260045260246000fd5b602001015160f81c60f81b83838061141590611db7565b94508151811061144e577f4e487b7100000000000000000000000000000000000000000000000000000000600052603260045260246000fd5b60200101907effffffffffffffffffffffffffffffffffffffffffffffffffffffffffffff1916908160001a905350808061148890611db7565b9150506113bc565b5060005b8751811015611568578781815181106114d6577f4e487b7100000000000000000000000000000000000000000000000000000000600052603260045260246000fd5b602001015160f81c60f81b8383806114ed90611db7565b945081518110611526577f4e487b7100000000000000000000000000000000000000000000000000000000600052603260045260246000fd5b60200101907effffffffffffffffffffffffffffffffffffffffffffffffffffffffffffff1916908160001a905350808061156090611db7565b915050611494565b5060005b8651811015611640578681815181106115ae577f4e487b7100000000000000000000000000000000000000000000000000000000600052603260045260246000fd5b602001015160f81c60f81b8383806115c590611db7565b9450815181106115fe577f4e487b7100000000000000000000000000000000000000000000000000000000600052603260045260246000fd5b60200101907effffffffffffffffffffffffffffffffffffffffffffffffffffffffffffff1916908160001a905350808061163890611db7565b91505061156c565b5060005b855181101561171857858181518110611686577f4e487b7100000000000000000000000000000000000000000000000000000000600052603260045260246000fd5b602001015160f81c60f81b83838061169d90611db7565b9450815181106116d6577f4e487b7100000000000000000000000000000000000000000000000000000000600052603260045260246000fd5b60200101907effffffffffffffffffffffffffffffffffffffffffffffffffffffffffffff1916908160001a905350808061171090611db7565b915050611644565b5060005b84518110156117f05784818151811061175e577f4e487b7100000000000000000000000000000000000000000000000000000000600052603260045260246000fd5b602001015160f81c60f81b83838061177590611db7565b9450815181106117ae577f4e487b7100000000000000000000000000000000000000000000000000000000600052603260045260246000fd5b60200101907effffffffffffffffffffffffffffffffffffffffffffffffffffffffffffff1916908160001a90535080806117e890611db7565b91505061171c565b50819850505050505050505095945050505050565b60008135905061181481611e9e565b92915050565b60008151905061182981611eb5565b92915050565b60008135905061183e81611ecc565b92915050565b60008151905061185381611ecc565b92915050565b60006020828403121561186b57600080fd5b600061187984828501611805565b91505092915050565b6000806040838503121561189557600080fd5b60006118a385828601611805565b92505060206118b485828601611805565b9150509250929050565b6000806000606084860312156118d357600080fd5b60006118e186828701611805565b93505060206118f286828701611805565b92505060406119038682870161182f565b9150509250925092565b60006020828403121561191f57600080fd5b600061192d8482850161181a565b91505092915050565b60006020828403121561194857600080fd5b60006119568482850161182f565b91505092915050565b60006020828403121561197157600080fd5b600061197f84828501611844565b91505092915050565b6000806040838503121561199b57600080fd5b60006119a98582860161182f565b92505060206119ba85828601611805565b9150509250929050565b6119cd81611ceb565b82525050565b6119dc81611cfd565b82525050565b60006119ed82611b83565b6119f78185611b8e565b9350611a07818560208601611d52565b611a1081611e8d565b840191505092915050565b6000611a28602683611b8e565b91507f4f776e61626c653a206e6577206f776e657220697320746865207a65726f206160008301527f64647265737300000000000000000000000000000000000000000000000000006020830152604082019050919050565b6000611a8e602083611b8e565b91507f4f776e61626c653a2063616c6c6572206973206e6f7420746865206f776e65726000830152602082019050919050565b611aca81611d3b565b82525050565b6000602082019050611ae560008301846119c4565b92915050565b6000602082019050611b0060008301846119d3565b92915050565b60006020820190508181036000830152611b2081846119e2565b905092915050565b60006020820190508181036000830152611b4181611a1b565b9050919050565b60006020820190508181036000830152611b6181611a81565b9050919050565b6000602082019050611b7d6000830184611ac1565b92915050565b600081519050919050565b600082825260208201905092915050565b6000611baa82611d3b565b9150611bb583611d3b565b9250827fffffffffffffffffffffffffffffffffffffffffffffffffffffffffffffffff03821115611bea57611be9611e00565b5b828201905092915050565b6000611c0082611d45565b9150611c0b83611d45565b92508260ff03821115611c2157611c20611e00565b5b828201905092915050565b6000611c3782611d3b565b9150611c4283611d3b565b925082611c5257611c51611e2f565b5b828204905092915050565b6000611c6882611d3b565b9150611c7383611d3b565b9250817fffffffffffffffffffffffffffffffffffffffffffffffffffffffffffffffff0483118215151615611cac57611cab611e00565b5b828202905092915050565b6000611cc282611d3b565b9150611ccd83611d3b565b925082821015611ce057611cdf611e00565b5b828203905092915050565b6000611cf682611d1b565b9050919050565b60008115159050919050565b6000611d1482611ceb565b9050919050565b600073ffffffffffffffffffffffffffffffffffffffff82169050919050565b6000819050919050565b600060ff82169050919050565b60005b83811015611d70578082015181840152602081019050611d55565b83811115611d7f576000848401525b50505050565b60006002820490506001821680611d9d57607f821691505b60208210811415611db157611db0611e5e565b5b50919050565b6000611dc282611d3b565b91507fffffffffffffffffffffffffffffffffffffffffffffffffffffffffffffffff821415611df557611df4611e00565b5b600182019050919050565b7f4e487b7100000000000000000000000000000000000000000000000000000000600052601160045260246000fd5b7f4e487b7100000000000000000000000000000000000000000000000000000000600052601260045260246000fd5b7f4e487b7100000000000000000000000000000000000000000000000000000000600052602260045260246000fd5b6000601f19601f8301169050919050565b611ea781611ceb565b8114611eb257600080fd5b50565b611ebe81611d09565b8114611ec957600080fd5b50565b611ed581611d3b565b8114611ee057600080fd5b5056fea2646970667358221220ea227960b4adc73355a3aa6b6e8e2fde2ca930ed68e0d2f26a205ab8193dda4d64736f6c63430008000033608060405260006008556003600a556000600b553480156200002057600080fd5b506040516200374e3803806200374e8339818101604052810190620000469190620002f6565b6040518060400160405280600b81526020017f536f756c4c6f6f74426f780000000000000000000000000000000000000000008152506040518060400160405280600781526020017f4c4f4f54424f58000000000000000000000000000000000000000000000000008152508382828160009080519060200190620000cd9291906200022f565b508060019080519060200190620000e69291906200022f565b5050506000620000fb6200022760201b60201c565b905080600660006101000a81548173ffffffffffffffffffffffffffffffffffffffff021916908373ffffffffffffffffffffffffffffffffffffffff1602179055508073ffffffffffffffffffffffffffffffffffffffff16600073ffffffffffffffffffffffffffffffffffffffff167f8be0079c531659141344cd1fd0a4f28419497f9722a3daafe3b4186f6b6457e060405160405180910390a35080600760006101000a81548173ffffffffffffffffffffffffffffffffffffffff021916908373ffffffffffffffffffffffffffffffffffffffff16021790555050505080600c60006101000a81548173ffffffffffffffffffffffffffffffffffffffff021916908373ffffffffffffffffffffffffffffffffffffffff1602179055505050620003ea565b600033905090565b8280546200023d906200036b565b90600052602060002090601f016020900481019282620002615760008555620002ad565b82601f106200027c57805160ff1916838001178555620002ad565b82800160010185558215620002ad579182015b82811115620002ac5782518255916020019190600101906200028f565b5b509050620002bc9190620002c0565b5090565b5b80821115620002db576000816000905550600101620002c1565b5090565b600081519050620002f081620003d0565b92915050565b600080604083850312156200030a57600080fd5b60006200031a85828601620002df565b92505060206200032d85828601620002df565b9150509250929050565b600062000344826200034b565b9050919050565b600073ffffffffffffffffffffffffffffffffffffffff82169050919050565b600060028204905060018216806200038457607f821691505b602082108114156200039b576200039a620003a1565b5b50919050565b7f4e487b7100000000000000000000000000000000000000000000000000000000600052602260045260246000fd5b620003db8162000337565b8114620003e757600080fd5b50565b61335480620003fa6000396000f3fe608060405234801561001057600080fd5b50600436106101425760003560e01c8063755edd17116100b8578063b88d4fde1161007c578063b88d4fde14610361578063bd85b0391461037d578063c87b56dd146103ad578063d547cfb7146103dd578063e985e9c5146103fb578063f2fde38b1461042b57610142565b8063755edd17146102d15780638a02be68146102ed5780638da5cb5b1461030957806395d89b4114610327578063a22cb4651461034557610142565b806323b872dd1161010a57806323b872dd146101ff5780632693ebf21461021b57806342842e0e1461024b5780636352211e1461026757806370a0823114610297578063715018a6146102c757610142565b806301ffc9a71461014757806306fdde0314610177578063081812fc14610195578063095ea7b3146101c557806319d554e1146101e1575b600080fd5b610161600480360381019061015c9190612517565b610447565b60405161016e9190612c23565b60405180910390f35b61017f610529565b60405161018c9190612c3e565b60405180910390f35b6101af60048036038101906101aa9190612592565b6105bb565b6040516101bc9190612bbc565b60405180910390f35b6101df60048036038101906101da91906124db565b610640565b005b6101e9610758565b6040516101f69190612e40565b60405180910390f35b610219600480360381019061021491906123d5565b610762565b005b61023560048036038101906102309190612592565b6107c2565b6040516102429190612e40565b60405180910390f35b610265600480360381019061026091906123d5565b6107da565b005b610281600480360381019061027c9190612592565b6107fa565b60405161028e9190612bbc565b60405180910390f35b6102b160048036038101906102ac9190612370565b6108ac565b6040516102be9190612e40565b60405180910390f35b6102cf610964565b005b6102eb60048036038101906102e69190612370565b610aa1565b005b61030760048036038101906103029190612592565b610b3f565b005b610311610c3a565b60405161031e9190612bbc565b60405180910390f35b61032f610c64565b60405161033c9190612c3e565b60405180910390f35b61035f600480360381019061035a919061249f565b610cf6565b005b61037b60048036038101906103769190612424565b610e77565b005b61039760048036038101906103929190612592565b610ed9565b6040516103a49190612e40565b60405180910390f35b6103c760048036038101906103c29190612592565b610ef6565b6040516103d49190612c3e565b60405180910390f35b6103e5610f18565b6040516103f29190612c3e565b60405180910390f35b61041560048036038101906104109190612399565b610f38565b6040516104229190612c23565b60405180910390f35b61044560048036038101906104409190612370565b61103a565b005b60007f80ac58cd000000000000000000000000000000000000000000000000000000007bffffffffffffffffffffffffffffffffffffffffffffffffffffffff1916827bffffffffffffffffffffffffffffffffffffffffffffffffffffffff1916148061051257507f5b5e139f000000000000000000000000000000000000000000000000000000007bffffffffffffffffffffffffffffffffffffffffffffffffffffffff1916827bffffffffffffffffffffffffffffffffffffffffffffffffffffffff1916145b806105225750610521826111e6565b5b9050919050565b6060600080546105389061313e565b80601f01602080910402602001604051908101604052809291908181526020018280546105649061313e565b80156105b15780601f10610586576101008083540402835291602001916105b1565b820191906000526020600020905b81548152906001019060200180831161059457829003601f168201915b5050505050905090565b60006105c682611250565b610605576040517f08c379a00000000000000000000000000000000000000000000000000000000081526004016105fc90612da0565b60405180910390fd5b6004600083815260200190815260200160002060009054906101000a900473ffffffffffffffffffffffffffffffffffffffff169050919050565b600061064b826107fa565b90508073ffffffffffffffffffffffffffffffffffffffff168373ffffffffffffffffffffffffffffffffffffffff1614156106bc576040517f08c379a00000000000000000000000000000000000000000000000000000000081526004016106b390612e00565b60405180910390fd5b8073ffffffffffffffffffffffffffffffffffffffff166106db6112bc565b73ffffffffffffffffffffffffffffffffffffffff16148061070a5750610709816107046112bc565b6112c4565b5b610749576040517f08c379a000000000000000000000000000000000000000000000000000000000815260040161074090612d20565b60405180910390fd5b6107538383611358565b505050565b6000600a54905090565b61077361076d6112bc565b82611411565b6107b2576040517f08c379a00000000000000000000000000000000000000000000000000000000081526004016107a990612e20565b60405180910390fd5b6107bd8383836114ef565b505050565b60096020528060005260406000206000915090505481565b6107f583838360405180602001604052806000815250610e77565b505050565b6000806002600084815260200190815260200160002060009054906101000a900473ffffffffffffffffffffffffffffffffffffffff169050600073ffffffffffffffffffffffffffffffffffffffff168173ffffffffffffffffffffffffffffffffffffffff1614156108a3576040517f08c379a000000000000000000000000000000000000000000000000000000000815260040161089a90612d60565b60405180910390fd5b80915050919050565b60008073ffffffffffffffffffffffffffffffffffffffff168273ffffffffffffffffffffffffffffffffffffffff16141561091d576040517f08c379a000000000000000000000000000000000000000000000000000000000815260040161091490612d40565b60405180910390fd5b600360008373ffffffffffffffffffffffffffffffffffffffff1673ffffffffffffffffffffffffffffffffffffffff168152602001908152602001600020549050919050565b61096c6112bc565b73ffffffffffffffffffffffffffffffffffffffff1661098a610c3a565b73ffffffffffffffffffffffffffffffffffffffff16146109e0576040517f08c379a00000000000000000000000000000000000000000000000000000000081526004016109d790612dc0565b60405180910390fd5b600073ffffffffffffffffffffffffffffffffffffffff16600660009054906101000a900473ffffffffffffffffffffffffffffffffffffffff1673ffffffffffffffffffffffffffffffffffffffff167f8be0079c531659141344cd1fd0a4f28419497f9722a3daafe3b4186f6b6457e060405160405180910390a36000600660006101000a81548173ffffffffffffffffffffffffffffffffffffffff021916908373ffffffffffffffffffffffffffffffffffffffff160217905550565b610aa96112bc565b73ffffffffffffffffffffffffffffffffffffffff16610ac7610c3a565b73ffffffffffffffffffffffffffffffffffffffff1614610b1d576040517f08c379a0000000000000000000000000000000000000000000000000000000008152600401610b1490612dc0565b60405180910390fd5b6000610b2761174b565b9050610b338282611769565b610b3b611937565b5050565b3373ffffffffffffffffffffffffffffffffffffffff16610b5f826107fa565b73ffffffffffffffffffffffffffffffffffffffff1614610b7f57600080fd5b60005b600a54811015610c36576000600c60009054906101000a900473ffffffffffffffffffffffffffffffffffffffff1690508073ffffffffffffffffffffffffffffffffffffffff166394bf804d600b54336040518363ffffffff1660e01b8152600401610bf0929190612e5b565b600060405180830381600087803b158015610c0a57600080fd5b505af1158015610c1e573d6000803e3d6000fd5b50505050508080610c2e90613170565b915050610b82565b5050565b6000600660009054906101000a900473ffffffffffffffffffffffffffffffffffffffff16905090565b606060018054610c739061313e565b80601f0160208091040260200160405190810160405280929190818152602001828054610c9f9061313e565b8015610cec5780601f10610cc157610100808354040283529160200191610cec565b820191906000526020600020905b815481529060010190602001808311610ccf57829003601f168201915b5050505050905090565b610cfe6112bc565b73ffffffffffffffffffffffffffffffffffffffff168273ffffffffffffffffffffffffffffffffffffffff161415610d6c576040517f08c379a0000000000000000000000000000000000000000000000000000000008152600401610d6390612ce0565b60405180910390fd5b8060056000610d796112bc565b73ffffffffffffffffffffffffffffffffffffffff1673ffffffffffffffffffffffffffffffffffffffff16815260200190815260200160002060008473ffffffffffffffffffffffffffffffffffffffff1673ffffffffffffffffffffffffffffffffffffffff16815260200190815260200160002060006101000a81548160ff0219169083151502179055508173ffffffffffffffffffffffffffffffffffffffff16610e266112bc565b73ffffffffffffffffffffffffffffffffffffffff167f17307eab39ab6107e8899845ad3d59bd9653f200f220920489ca2b5937696c3183604051610e6b9190612c23565b60405180910390a35050565b610e88610e826112bc565b83611411565b610ec7576040517f08c379a0000000000000000000000000000000000000000000000000000000008152600401610ebe90612e20565b60405180910390fd5b610ed384848484611951565b50505050565b600060096000838152602001908152602001600020549050919050565b6060610f11610f03610f18565b610f0c846119ad565b611b82565b9050919050565b60606040518060600160405280602581526020016132fa60259139905090565b600080600760009054906101000a900473ffffffffffffffffffffffffffffffffffffffff1690508273ffffffffffffffffffffffffffffffffffffffff168173ffffffffffffffffffffffffffffffffffffffff1663c4552791866040518263ffffffff1660e01b8152600401610fb09190612bbc565b60206040518083038186803b158015610fc857600080fd5b505afa158015610fdc573d6000803e3d6000fd5b505050506040513d601f19601f820116820180604052508101906110009190612569565b73ffffffffffffffffffffffffffffffffffffffff161415611026576001915050611034565b61103084846112c4565b9150505b92915050565b6110426112bc565b73ffffffffffffffffffffffffffffffffffffffff16611060610c3a565b73ffffffffffffffffffffffffffffffffffffffff16146110b6576040517f08c379a00000000000000000000000000000000000000000000000000000000081526004016110ad90612dc0565b60405180910390fd5b600073ffffffffffffffffffffffffffffffffffffffff168173ffffffffffffffffffffffffffffffffffffffff161415611126576040517f08c379a000000000000000000000000000000000000000000000000000000000815260040161111d90612c80565b60405180910390fd5b8073ffffffffffffffffffffffffffffffffffffffff16600660009054906101000a900473ffffffffffffffffffffffffffffffffffffffff1673ffffffffffffffffffffffffffffffffffffffff167f8be0079c531659141344cd1fd0a4f28419497f9722a3daafe3b4186f6b6457e060405160405180910390a380600660006101000a81548173ffffffffffffffffffffffffffffffffffffffff021916908373ffffffffffffffffffffffffffffffffffffffff16021790555050565b60007f01ffc9a7000000000000000000000000000000000000000000000000000000007bffffffffffffffffffffffffffffffffffffffffffffffffffffffff1916827bffffffffffffffffffffffffffffffffffffffffffffffffffffffff1916149050919050565b60008073ffffffffffffffffffffffffffffffffffffffff166002600084815260200190815260200160002060009054906101000a900473ffffffffffffffffffffffffffffffffffffffff1673ffffffffffffffffffffffffffffffffffffffff1614159050919050565b600033905090565b6000600560008473ffffffffffffffffffffffffffffffffffffffff1673ffffffffffffffffffffffffffffffffffffffff16815260200190815260200160002060008373ffffffffffffffffffffffffffffffffffffffff1673ffffffffffffffffffffffffffffffffffffffff16815260200190815260200160002060009054906101000a900460ff16905092915050565b816004600083815260200190815260200160002060006101000a81548173ffffffffffffffffffffffffffffffffffffffff021916908373ffffffffffffffffffffffffffffffffffffffff160217905550808273ffffffffffffffffffffffffffffffffffffffff166113cb836107fa565b73ffffffffffffffffffffffffffffffffffffffff167f8c5be1e5ebec7d5bd14f71427d1e84f3dd0314c0f7b2291e5b200ac8c7c3b92560405160405180910390a45050565b600061141c82611250565b61145b576040517f08c379a000000000000000000000000000000000000000000000000000000000815260040161145290612d00565b60405180910390fd5b6000611466836107fa565b90508073ffffffffffffffffffffffffffffffffffffffff168473ffffffffffffffffffffffffffffffffffffffff1614806114d557508373ffffffffffffffffffffffffffffffffffffffff166114bd846105bb565b73ffffffffffffffffffffffffffffffffffffffff16145b806114e657506114e581856112c4565b5b91505092915050565b8273ffffffffffffffffffffffffffffffffffffffff1661150f826107fa565b73ffffffffffffffffffffffffffffffffffffffff1614611565576040517f08c379a000000000000000000000000000000000000000000000000000000000815260040161155c90612de0565b60405180910390fd5b600073ffffffffffffffffffffffffffffffffffffffff168273ffffffffffffffffffffffffffffffffffffffff1614156115d5576040517f08c379a00000000000000000000000000000000000000000000000000000000081526004016115cc90612cc0565b60405180910390fd5b6115e0838383611bc6565b6115eb600082611358565b6001600360008573ffffffffffffffffffffffffffffffffffffffff1673ffffffffffffffffffffffffffffffffffffffff168152602001908152602001600020600082825461163b9190613035565b925050819055506001600360008473ffffffffffffffffffffffffffffffffffffffff1673ffffffffffffffffffffffffffffffffffffffff16815260200190815260200160002060008282546116929190612f1d565b92505081905550816002600083815260200190815260200160002060006101000a81548173ffffffffffffffffffffffffffffffffffffffff021916908373ffffffffffffffffffffffffffffffffffffffff160217905550808273ffffffffffffffffffffffffffffffffffffffff168473ffffffffffffffffffffffffffffffffffffffff167fddf252ad1be2c89b69c2b068fc378daa952ba7f163c4a11628f55a4df523b3ef60405160405180910390a4505050565b60006008600081548092919061176090613170565b91905055905090565b600073ffffffffffffffffffffffffffffffffffffffff168273ffffffffffffffffffffffffffffffffffffffff1614156117d9576040517f08c379a00000000000000000000000000000000000000000000000000000000081526004016117d090612d80565b60405180910390fd5b6117e281611250565b15611822576040517f08c379a000000000000000000000000000000000000000000000000000000000815260040161181990612ca0565b60405180910390fd5b61182e60008383611bc6565b6001600360008473ffffffffffffffffffffffffffffffffffffffff1673ffffffffffffffffffffffffffffffffffffffff168152602001908152602001600020600082825461187e9190612f1d565b92505081905550816002600083815260200190815260200160002060006101000a81548173ffffffffffffffffffffffffffffffffffffffff021916908373ffffffffffffffffffffffffffffffffffffffff160217905550808273ffffffffffffffffffffffffffffffffffffffff16600073ffffffffffffffffffffffffffffffffffffffff167fddf252ad1be2c89b69c2b068fc378daa952ba7f163c4a11628f55a4df523b3ef60405160405180910390a45050565b6008600081548092919061194a90613170565b9190505550565b61195c8484846114ef565b61196884848484611bcb565b6119a7576040517f08c379a000000000000000000000000000000000000000000000000000000000815260040161199e90612c60565b60405180910390fd5b50505050565b606060008214156119f5576040518060400160405280600181526020017f30000000000000000000000000000000000000000000000000000000000000008152509050611b7d565b600082905060005b60008214611a27578080611a1090613170565b915050600a82611a209190612faa565b91506119fd565b60008167ffffffffffffffff811115611a69577f4e487b7100000000000000000000000000000000000000000000000000000000600052604160045260246000fd5b6040519080825280601f01601f191660200182016040528015611a9b5781602001600182028036833780820191505090505b50905060008290505b60008614611b7557600181611ab99190613035565b90506000600a8088611acb9190612faa565b611ad59190612fdb565b87611ae09190613035565b6030611aec9190612f73565b905060008160f81b905080848481518110611b30577f4e487b7100000000000000000000000000000000000000000000000000000000600052603260045260246000fd5b60200101907effffffffffffffffffffffffffffffffffffffffffffffffffffffffffffff1916908160001a905350600a88611b6c9190612faa565b97505050611aa4565b819450505050505b919050565b6060611bbe8383604051806020016040528060008152506040518060200160405280600081525060405180602001604052806000815250611d62565b905092915050565b505050565b6000611bec8473ffffffffffffffffffffffffffffffffffffffff16612277565b15611d55578373ffffffffffffffffffffffffffffffffffffffff1663150b7a02611c156112bc565b8786866040518563ffffffff1660e01b8152600401611c379493929190612bd7565b602060405180830381600087803b158015611c5157600080fd5b505af1925050508015611c8257506040513d601f19601f82011682018060405250810190611c7f9190612540565b60015b611d05573d8060008114611cb2576040519150601f19603f3d011682016040523d82523d6000602084013e611cb7565b606091505b50600081511415611cfd576040517f08c379a0000000000000000000000000000000000000000000000000000000008152600401611cf490612c60565b60405180910390fd5b805181602001fd5b63150b7a0260e01b7bffffffffffffffffffffffffffffffffffffffffffffffffffffffff1916817bffffffffffffffffffffffffffffffffffffffffffffffffffffffff191614915050611d5a565b600190505b949350505050565b606060008690506000869050600086905060008690506000869050600081518351855187518951611d939190612f1d565b611d9d9190612f1d565b611da79190612f1d565b611db19190612f1d565b67ffffffffffffffff811115611df0577f4e487b7100000000000000000000000000000000000000000000000000000000600052604160045260246000fd5b6040519080825280601f01601f191660200182016040528015611e225781602001600182028036833780820191505090505b50905060008190506000805b8851811015611f0257888181518110611e70577f4e487b7100000000000000000000000000000000000000000000000000000000600052603260045260246000fd5b602001015160f81c60f81b838380611e8790613170565b945081518110611ec0577f4e487b7100000000000000000000000000000000000000000000000000000000600052603260045260246000fd5b60200101907effffffffffffffffffffffffffffffffffffffffffffffffffffffffffffff1916908160001a9053508080611efa90613170565b915050611e2e565b5060005b8751811015611fda57878181518110611f48577f4e487b7100000000000000000000000000000000000000000000000000000000600052603260045260246000fd5b602001015160f81c60f81b838380611f5f90613170565b945081518110611f98577f4e487b7100000000000000000000000000000000000000000000000000000000600052603260045260246000fd5b60200101907effffffffffffffffffffffffffffffffffffffffffffffffffffffffffffff1916908160001a9053508080611fd290613170565b915050611f06565b5060005b86518110156120b257868181518110612020577f4e487b7100000000000000000000000000000000000000000000000000000000600052603260045260246000fd5b602001015160f81c60f81b83838061203790613170565b945081518110612070577f4e487b7100000000000000000000000000000000000000000000000000000000600052603260045260246000fd5b60200101907effffffffffffffffffffffffffffffffffffffffffffffffffffffffffffff1916908160001a90535080806120aa90613170565b915050611fde565b5060005b855181101561218a578581815181106120f8577f4e487b7100000000000000000000000000000000000000000000000000000000600052603260045260246000fd5b602001015160f81c60f81b83838061210f90613170565b945081518110612148577f4e487b7100000000000000000000000000000000000000000000000000000000600052603260045260246000fd5b60200101907effffffffffffffffffffffffffffffffffffffffffffffffffffffffffffff1916908160001a905350808061218290613170565b9150506120b6565b5060005b8451811015612262578481815181106121d0577f4e487b7100000000000000000000000000000000000000000000000000000000600052603260045260246000fd5b602001015160f81c60f81b8383806121e790613170565b945081518110612220577f4e487b7100000000000000000000000000000000000000000000000000000000600052603260045260246000fd5b60200101907effffffffffffffffffffffffffffffffffffffffffffffffffffffffffffff1916908160001a905350808061225a90613170565b91505061218e565b50819850505050505050505095945050505050565b600080823b905060008111915050919050565b600061229d61229884612eb5565b612e84565b9050828152602081018484840111156122b557600080fd5b6122c08482856130fc565b509392505050565b6000813590506122d781613286565b92915050565b6000813590506122ec8161329d565b92915050565b600081359050612301816132b4565b92915050565b600081519050612316816132b4565b92915050565b600082601f83011261232d57600080fd5b813561233d84826020860161228a565b91505092915050565b600081519050612355816132cb565b92915050565b60008135905061236a816132e2565b92915050565b60006020828403121561238257600080fd5b6000612390848285016122c8565b91505092915050565b600080604083850312156123ac57600080fd5b60006123ba858286016122c8565b92505060206123cb858286016122c8565b9150509250929050565b6000806000606084860312156123ea57600080fd5b60006123f8868287016122c8565b9350506020612409868287016122c8565b925050604061241a8682870161235b565b9150509250925092565b6000806000806080858703121561243a57600080fd5b6000612448878288016122c8565b9450506020612459878288016122c8565b935050604061246a8782880161235b565b925050606085013567ffffffffffffffff81111561248757600080fd5b6124938782880161231c565b91505092959194509250565b600080604083850312156124b257600080fd5b60006124c0858286016122c8565b92505060206124d1858286016122dd565b9150509250929050565b600080604083850312156124ee57600080fd5b60006124fc858286016122c8565b925050602061250d8582860161235b565b9150509250929050565b60006020828403121561252957600080fd5b6000612537848285016122f2565b91505092915050565b60006020828403121561255257600080fd5b600061256084828501612307565b91505092915050565b60006020828403121561257b57600080fd5b600061258984828501612346565b91505092915050565b6000602082840312156125a457600080fd5b60006125b28482850161235b565b91505092915050565b6125c481613069565b82525050565b6125d38161307b565b82525050565b60006125e482612ee5565b6125ee8185612efb565b93506125fe81856020860161310b565b61260781613275565b840191505092915050565b600061261d82612ef0565b6126278185612f0c565b935061263781856020860161310b565b61264081613275565b840191505092915050565b6000612658603283612f0c565b91507f4552433732313a207472616e7366657220746f206e6f6e20455243373231526560008301527f63656976657220696d706c656d656e74657200000000000000000000000000006020830152604082019050919050565b60006126be602683612f0c565b91507f4f776e61626c653a206e6577206f776e657220697320746865207a65726f206160008301527f64647265737300000000000000000000000000000000000000000000000000006020830152604082019050919050565b6000612724601c83612f0c565b91507f4552433732313a20746f6b656e20616c7265616479206d696e746564000000006000830152602082019050919050565b6000612764602483612f0c565b91507f4552433732313a207472616e7366657220746f20746865207a65726f2061646460008301527f72657373000000000000000000000000000000000000000000000000000000006020830152604082019050919050565b60006127ca601983612f0c565b91507f4552433732313a20617070726f766520746f2063616c6c6572000000000000006000830152602082019050919050565b600061280a602c83612f0c565b91507f4552433732313a206f70657261746f7220717565727920666f72206e6f6e657860008301527f697374656e7420746f6b656e00000000000000000000000000000000000000006020830152604082019050919050565b6000612870603883612f0c565b91507f4552433732313a20617070726f76652063616c6c6572206973206e6f74206f7760008301527f6e6572206e6f7220617070726f76656420666f7220616c6c00000000000000006020830152604082019050919050565b60006128d6602a83612f0c565b91507f4552433732313a2062616c616e636520717565727920666f7220746865207a6560008301527f726f2061646472657373000000000000000000000000000000000000000000006020830152604082019050919050565b600061293c602983612f0c565b91507f4552433732313a206f776e657220717565727920666f72206e6f6e657869737460008301527f656e7420746f6b656e00000000000000000000000000000000000000000000006020830152604082019050919050565b60006129a2602083612f0c565b91507f4552433732313a206d696e7420746f20746865207a65726f20616464726573736000830152602082019050919050565b60006129e2602c83612f0c565b91507f4552433732313a20617070726f76656420717565727920666f72206e6f6e657860008301527f697374656e7420746f6b656e00000000000000000000000000000000000000006020830152604082019050919050565b6000612a48602083612f0c565b91507f4f776e61626c653a2063616c6c6572206973206e6f7420746865206f776e65726000830152602082019050919050565b6000612a88602983612f0c565b91507f4552433732313a207472616e73666572206f6620746f6b656e2074686174206960008301527f73206e6f74206f776e00000000000000000000000000000000000000000000006020830152604082019050919050565b6000612aee602183612f0c565b91507f4552433732313a20617070726f76616c20746f2063757272656e74206f776e6560008301527f72000000000000000000000000000000000000000000000000000000000000006020830152604082019050919050565b6000612b54603183612f0c565b91507f4552433732313a207472616e736665722063616c6c6572206973206e6f74206f60008301527f776e6572206e6f7220617070726f7665640000000000000000000000000000006020830152604082019050919050565b612bb6816130e5565b82525050565b6000602082019050612bd160008301846125bb565b92915050565b6000608082019050612bec60008301876125bb565b612bf960208301866125bb565b612c066040830185612bad565b8181036060830152612c1881846125d9565b905095945050505050565b6000602082019050612c3860008301846125ca565b92915050565b60006020820190508181036000830152612c588184612612565b905092915050565b60006020820190508181036000830152612c798161264b565b9050919050565b60006020820190508181036000830152612c99816126b1565b9050919050565b60006020820190508181036000830152612cb981612717565b9050919050565b60006020820190508181036000830152612cd981612757565b9050919050565b60006020820190508181036000830152612cf9816127bd565b9050919050565b60006020820190508181036000830152612d19816127fd565b9050919050565b60006020820190508181036000830152612d3981612863565b9050919050565b60006020820190508181036000830152612d59816128c9565b9050919050565b60006020820190508181036000830152612d798161292f565b9050919050565b60006020820190508181036000830152612d9981612995565b9050919050565b60006020820190508181036000830152612db9816129d5565b9050919050565b60006020820190508181036000830152612dd981612a3b565b9050919050565b60006020820190508181036000830152612df981612a7b565b9050919050565b60006020820190508181036000830152612e1981612ae1565b9050919050565b60006020820190508181036000830152612e3981612b47565b9050919050565b6000602082019050612e556000830184612bad565b92915050565b6000604082019050612e706000830185612bad565b612e7d60208301846125bb565b9392505050565b6000604051905081810181811067ffffffffffffffff82111715612eab57612eaa613246565b5b8060405250919050565b600067ffffffffffffffff821115612ed057612ecf613246565b5b601f19601f8301169050602081019050919050565b600081519050919050565b600081519050919050565b600082825260208201905092915050565b600082825260208201905092915050565b6000612f28826130e5565b9150612f33836130e5565b9250827fffffffffffffffffffffffffffffffffffffffffffffffffffffffffffffffff03821115612f6857612f676131b9565b5b828201905092915050565b6000612f7e826130ef565b9150612f89836130ef565b92508260ff03821115612f9f57612f9e6131b9565b5b828201905092915050565b6000612fb5826130e5565b9150612fc0836130e5565b925082612fd057612fcf6131e8565b5b828204905092915050565b6000612fe6826130e5565b9150612ff1836130e5565b9250817fffffffffffffffffffffffffffffffffffffffffffffffffffffffffffffffff048311821515161561302a576130296131b9565b5b828202905092915050565b6000613040826130e5565b915061304b836130e5565b92508282101561305e5761305d6131b9565b5b828203905092915050565b6000613074826130c5565b9050919050565b60008115159050919050565b60007fffffffff0000000000000000000000000000000000000000000000000000000082169050919050565b60006130be82613069565b9050919050565b600073ffffffffffffffffffffffffffffffffffffffff82169050919050565b6000819050919050565b600060ff82169050919050565b82818337600083830152505050565b60005b8381101561312957808201518184015260208101905061310e565b83811115613138576000848401525b50505050565b6000600282049050600182168061315657607f821691505b6020821081141561316a57613169613217565b5b50919050565b600061317b826130e5565b91507fffffffffffffffffffffffffffffffffffffffffffffffffffffffffffffffff8214156131ae576131ad6131b9565b5b600182019050919050565b7f4e487b7100000000000000000000000000000000000000000000000000000000600052601160045260246000fd5b7f4e487b7100000000000000000000000000000000000000000000000000000000600052601260045260246000fd5b7f4e487b7100000000000000000000000000000000000000000000000000000000600052602260045260246000fd5b7f4e487b7100000000000000000000000000000000000000000000000000000000600052604160045260246000fd5b6000601f19601f8301169050919050565b61328f81613069565b811461329a57600080fd5b50565b6132a68161307b565b81146132b157600080fd5b50565b6132bd81613087565b81146132c857600080fd5b50565b6132d4816130b3565b81146132df57600080fd5b50565b6132eb816130e5565b81146132f657600080fd5b5056fe68747470733a2f2f736f756c732d6170692e6f70656e7365612e696f2f6170692f626f782fa26469706673582212204047ef4179211cfe175bb982a7c9292f5436ac5e8acf501f7a9ae2f2ac458abf64736f6c6343000800003368747470733a2f2f736f756c732d6170692e6f70656e7365612e696f2f6170692f666163746f72792f",
  "immutableReferences": {},
  "source": "// SPDX-License-Identifier: MIT\r\npragma solidity ^0.8.0;\r\n\r\nimport \"@openzeppelin/contracts/access/Ownable.sol\";\r\nimport \"./IFactoryERC721.sol\";\r\nimport \"./SoulFragment.sol\";\r\nimport \"./StringUtils.sol\";\r\nimport './SoulLootBox.sol';\r\n\r\ncontract SoulFragmentFactory is IFactoryERC721, Ownable {\r\n    using Strings for string;\r\n\r\n    event Transfer(\r\n        address indexed from,\r\n        address indexed to,\r\n        uint256 indexed tokenId\r\n    );\r\n\r\n    address public proxyRegistryAddress;\r\n    address public nftAddress;\r\n    address public lootBoxNftAddress;\r\n    string public baseURI = \"https://souls-api.opensea.io/api/factory/\";\r\n\r\n    /*\r\n     * Enforce the existence of only 100 OpenSea souls.\r\n     */\r\n    uint256 SOUL_SUPPLY = 100;\r\n\r\n    /*\r\n     * Three different options for minting Souls (basic, premium, and gold).\r\n     */\r\n    uint256 NUM_OPTIONS = 3;\r\n    uint256 SINGLE_SOUL_OPTION = 0;\r\n    uint256 MULTIPLE_SOUL_OPTION = 1;\r\n    uint256 LOOTBOX_OPTION = 2;\r\n    uint256 NUM_SOULS_IN_MULTIPLE_SOUL_OPTION = 4;\r\n\r\n    constructor(address _proxyRegistryAddress, address _nftAddress) public {\r\n        proxyRegistryAddress = _proxyRegistryAddress;\r\n        nftAddress = _nftAddress;\r\n        lootBoxNftAddress = address(\r\n            new SoulLootBox(_proxyRegistryAddress, address(this))\r\n        );\r\n\r\n        fireTransferEvents(address(0), owner());\r\n    }\r\n\r\n    function name() external override view returns (string memory) {\r\n        return \"OpenSea Soul Item Sale\";\r\n    }\r\n\r\n    function symbol() external override view returns (string memory) {\r\n        return \"SOUL\";\r\n    }\r\n\r\n    function supportsFactoryInterface() public override view returns (bool) {\r\n        return true;\r\n    }\r\n\r\n    function numOptions() public override view returns (uint256) {\r\n        return NUM_OPTIONS;\r\n    }\r\n\r\n    function transferOwnership(address newOwner) public override onlyOwner {\r\n        address _prevOwner = owner();\r\n        super.transferOwnership(newOwner);\r\n        fireTransferEvents(_prevOwner, newOwner);\r\n    }\r\n\r\n    function fireTransferEvents(address _from, address _to) private {\r\n        for (uint256 i = 0; i < NUM_OPTIONS; i++) {\r\n            emit Transfer(_from, _to, i);\r\n        }\r\n    }\r\n\r\n    function mint(uint256 _optionId, address _toAddress) public override {\r\n        // Must be sent from the owner proxy or owner.\r\n        ProxyRegistry proxyRegistry = ProxyRegistry(proxyRegistryAddress);\r\n        assert(\r\n            address(proxyRegistry.proxies(owner())) == msg.sender ||\r\n                owner() == msg.sender ||\r\n                msg.sender == lootBoxNftAddress\r\n        );\r\n        require(canMint(_optionId));\r\n\r\n        SoulFragment openSeaSoul = SoulFragment(nftAddress);\r\n        if (_optionId == SINGLE_SOUL_OPTION) {\r\n            openSeaSoul.mintTo(_toAddress);\r\n        } else if (_optionId == MULTIPLE_SOUL_OPTION) {\r\n            for (\r\n                uint256 i = 0;\r\n                i < NUM_SOULS_IN_MULTIPLE_SOUL_OPTION;\r\n                i++\r\n            ) {\r\n                openSeaSoul.mintTo(_toAddress);\r\n            }\r\n        } else if (_optionId == LOOTBOX_OPTION) {\r\n            SoulLootBox openSeaSoulLootBox = SoulLootBox(\r\n                lootBoxNftAddress\r\n            );\r\n            openSeaSoulLootBox.mintTo(_toAddress);\r\n        }\r\n    }\r\n\r\n    function canMint(uint256 _optionId) public override view returns (bool) {\r\n        if (_optionId >= NUM_OPTIONS) {\r\n            return false;\r\n        }\r\n\r\n        SoulFragment openSeaSoul = SoulFragment(nftAddress);\r\n        uint256 soulSupply = openSeaSoul.totalSupply(_optionId);\r\n\r\n        uint256 numItemsAllocated = 0;\r\n        if (_optionId == SINGLE_SOUL_OPTION) {\r\n            numItemsAllocated = 1;\r\n        } else if (_optionId == MULTIPLE_SOUL_OPTION) {\r\n            numItemsAllocated = NUM_SOULS_IN_MULTIPLE_SOUL_OPTION;\r\n        } else if (_optionId == LOOTBOX_OPTION) {\r\n            SoulLootBox openSeaSoulLootBox = SoulLootBox(\r\n                lootBoxNftAddress\r\n            );\r\n            numItemsAllocated = openSeaSoulLootBox.itemsPerLootbox();\r\n        }\r\n        return soulSupply < (SOUL_SUPPLY - numItemsAllocated);\r\n    }\r\n\r\n    function tokenURI(uint256 _optionId) external override view returns (string memory) {\r\n        return StringUtils.strConcat(baseURI, StringUtils.uint2str(_optionId));\r\n    }\r\n\r\n    /**\r\n     * Hack to get things to work automatically on OpenSea.\r\n     * Use transferFrom so the frontend doesn't have to worry about different method names.\r\n     */\r\n    function transferFrom(\r\n        address _from,\r\n        address _to,\r\n        uint256 _tokenId\r\n    ) public {\r\n        mint(_tokenId, _to);\r\n    }\r\n\r\n    /**\r\n     * Hack to get things to work automatically on OpenSea.\r\n     * Use isApprovedForAll so the frontend doesn't have to worry about different method names.\r\n     */\r\n    function isApprovedForAll(address _owner, address _operator)\r\n        public\r\n        view\r\n        returns (bool)\r\n    {\r\n        if (owner() == _owner && _owner == _operator) {\r\n            return true;\r\n        }\r\n\r\n        ProxyRegistry proxyRegistry = ProxyRegistry(proxyRegistryAddress);\r\n        if (\r\n            owner() == _owner &&\r\n            address(proxyRegistry.proxies(_owner)) == _operator\r\n        ) {\r\n            return true;\r\n        }\r\n\r\n        return false;\r\n    }\r\n\r\n    /**\r\n     * Hack to get things to work automatically on OpenSea.\r\n     * Use isApprovedForAll so the frontend doesn't have to worry about different method names.\r\n     */\r\n    function ownerOf(uint256 _tokenId) public view returns (address _owner) {\r\n        return owner();\r\n    }\r\n}",
  "sourcePath": "C:\\Users\\editr\\OneDrive\\Desktop\\etherprojects\\SoulSwap\\contracts\\SoulFragmentFactory.sol",
  "compiler": {
    "name": "solc",
    "version": "0.8.0+commit.c7dfd78e.Emscripten.clang"
  },
  "schemaVersion": "3.3.3",
  "updatedAt": "2021-04-29T05:35:14.966Z",
  "networkType": "ethereum",
  "devdoc": {
    "kind": "dev",
    "methods": {
      "canMint(uint256)": {
        "details": "Returns whether the option ID can be minted. Can return false if the developer wishes to restrict a total supply per option ID (or overall)."
      },
      "mint(uint256,address)": {
        "details": "Mints asset(s) in accordance to a specific address with a particular \"option\". This should be callable only by the contract owner or the owner's Wyvern Proxy (later universal login will solve this). Options should also be delineated 0 - (numOptions() - 1) for convenient indexing.",
        "params": {
          "_optionId": "the option id",
          "_toAddress": "address of the future owner of the asset(s)"
        }
      },
      "owner()": {
        "details": "Returns the address of the current owner."
      },
      "renounceOwnership()": {
        "details": "Leaves the contract without owner. It will not be possible to call `onlyOwner` functions anymore. Can only be called by the current owner. NOTE: Renouncing ownership will leave the contract without an owner, thereby removing any functionality that is only available to the owner."
      },
      "tokenURI(uint256)": {
        "details": "Returns a URL specifying some metadata about the option. This metadata can be of the same structure as the ERC721 metadata."
      },
      "transferOwnership(address)": {
        "details": "Transfers ownership of the contract to a new account (`newOwner`). Can only be called by the current owner."
      }
    },
    "version": 1
  },
  "userdoc": {
    "kind": "user",
    "methods": {
      "isApprovedForAll(address,address)": {
        "notice": "Hack to get things to work automatically on OpenSea. Use isApprovedForAll so the frontend doesn't have to worry about different method names."
      },
      "name()": {
        "notice": "Returns the name of this factory."
      },
      "numOptions()": {
        "notice": "Number of options the factory supports."
      },
      "ownerOf(uint256)": {
        "notice": "Hack to get things to work automatically on OpenSea. Use isApprovedForAll so the frontend doesn't have to worry about different method names."
      },
      "supportsFactoryInterface()": {
        "notice": "Indicates that this is a factory contract. Ideally would use EIP 165 supportsInterface()"
      },
      "symbol()": {
        "notice": "Returns the symbol for this factory."
      },
      "transferFrom(address,address,uint256)": {
        "notice": "Hack to get things to work automatically on OpenSea. Use transferFrom so the frontend doesn't have to worry about different method names."
      }
    },
    "version": 1
  }
}